S01100006164635F6469726563742E733337E1
S3150800000000100020491300080B6E00080B6E00084C
S315080000100B6E00080B6E00080B6E00080B6E0008CE
S315080000200B6E00080B6E00080B6E00080B6E0008BE
S315080000300B6E00080B6E00080B6E00080B6E0008AE
S315080000400B6E00080B6E00080B6E00080B6E00089E
S315080000500B6E00080B6E00080B6E00080B6E00088E
S315080000600B6E00080B6E00080B6E00080B6E00087E
S315080000700B6E0008211300082F6D00080B6E000890
S315080000800B6E00080B6E00080B6E00080B6E00085E
S315080000900B6E00080B6E0008E51A00080B6E0008C8
S315080000A00B6E00080B6E00080B6E00080B6E00083E
S315080000B00B6E00080B6E00080B6E00080B6E00082E
S315080000C00B6E00080B6E00080B6E00080B6E00081E
S315080000D00B6E00080B6E00080B6E00080B6E00080E
S315080000E00B6E00080B6E00080B6E00080B6E0008FE
S315080000F00B6E00080B6E00080B6E00080B6E0008EE
S315080001000B6E00080B6E0008651000080B6E0008E1
S315080001100B6E00080B6E00080B6E00080B6E0008CD
S315080001200B6E00080B6E00080B6E00080B6E0008BD
S315080001300B6E00080B6E00080B6E00080B6E0008AD
S315080001400B6E00080B6E00080B6E00080B6E00089D
S315080001500B6E00080B6E00080B6E00080B6E00088D
S315080001600B6E00080B6E00080B6E00080B6E00087D
S315080001700B6E00080B6E00080B6E000800000000EE
S315080001802DE9F0470FF24C09D9E9008913A7D7E9F9
S31508000190006700F5FF54DFF84CA0051F1C3455F81E
S315080001A0040F04F0DDFE42464B4604F053FF324688
S315080001B03B4605F079F802460B46504605F072FDB7
S315080001C0AC42ECD10248BDE8F04705F07DBD00BF62
S315080001D06D7C00086666666666660A400000000072
S315080001E000FEAF40647C00082DE9F04FC76997B060
S315080001F08346209E08910C92129355EC104B8DED78
S31508000200000B7FB9102005F029FF0246CBF81C0029
S3150800021020B9A74BEF21A74806F038FCC0E90177BB
S315080002200760C760DBF81C30196859B15A680123A2
S31508000230584693404A608B6005F0FEFFDBF81C3099
S3150800024000221A602B1EB7BF23F0004300230122A9
S315080002500193A8BF3360019F974BB8BF3260BB4379
S3150800026019D142F20F73129A1360C7F3130323438B
S3150800027000F0DB85219B53B9904B21E0904B03930B
S315080002800833219A1360039817B0BDE8F08F8B4B9B
S3150800029003930333F5E79DED007B0022002351EC21
S315080002A0170B8DED0A7B06F091FC804650B10123B1
S315080002B0129A1360219B13B1824B219A1360824BC9
S315080002C00393E0E7C7F30A5614AA15A958469DED05
S315080002D00A0B06F039FA0290002E76D00B9BA6F28E
S315080002E0FF36CDF84C80C3F3130343F07F53DDE9A3
S315080002F00A0143F4401319460022744B04F0F2FC39
S3150800030065A3D3E9002304F0A5FE65A3D3E900237A
S3150800031004F0EAFC04460D46304604F031FE62A3BA
S31508000320D3E9002304F096FE02460B4620462946EA
S3150800033004F0DAFC04460D4606F090FC0022074657
S3150800034000232046294606F04BFC40B1384604F007
S3150800035017FE22462B4606F039FC00B9013F162F38
S3150800036052D85B4B03EBC703DDE90A01D3E9002347
S3150800037006F036FC002849D0013F00231193149B50
S315080003809B1B5A1E4CBFC3F101030023079245BFAE
S315080003900693002306930793002F39DB079B1097D4
S315080003A03B44079300230993089B092B66D8052B22
S315080003B0C5BF043B002401240893089B023B032B7A
S315080003C067D8DFE803F02D3A3859DDE914631E448F
S315080003D006F23243202BC9BFC3F14003C3F1200301
S315080003E09F4006F21243D8BF04FA03F006F1FF361F
S315080003F0C4BF24FA03F347EA030004F0B1FD01225F
S31508000400A1F1F873139276E70123B7E71190B6E7DF
S31508000410069BDB1B06937B42099300231093C3E7D5
S3150800042000230D930C9B002B56DC012399461A4694
S3150800043004930C920CE00123F3E700230D930C9B25
S31508000440FB1803F1010904934B46012BB8BF01239E
S31508000450DBF81C000021042202F114059D423FD955
S315080004604160584605F0A8FE039000283BD1194B79
S31508000470024640F2AF11CEE60123DFE7012400234E
S315080004800D9408934FF0FF330022994604931223E4
S31508000490CFE701230D93F5E761436F63A787D23F43
S315080004A0B3C8608B288AC63FFB799F501344D33F55
S315080004B0048200081B8200080000F07F0082000802
S315080004C0F7810008D4810008D38100080000F83FAE
S315080004D018830008748200080C9B99460493B7E7B2
S315080004E001315200B8E7DBF81C30B9F10E0F039A58
S315080004F01A606FD8002C6DD0002F36DD07F00F027A
S31508000500A04BF8054FEA271403EBC20393ED007BD3
S315080005108DED0E7B17D59C4B04F00F044FF00308A6
S31508000520D3E90823DDE90A0104F0BEFECDE900019E
S31508000530954D5CB9DDE90E23DDE9000104F0B4FE52
S31508000540CDE900012BE04FF00208F1E7E10709D5F4
S3150800055008F10108DDE90E01D5E9002304F07AFD6A
S31508000560CDE90E0164100835E3E700F007817C4207
S31508000570844B854D4FF0020804F00F02241103EB5B
S31508000580C203DDE90A01D3E9002304F063FD002371
S31508000590CDE90001002C40F0E580002BD0D1119B5D
S315080005A0DDE90045002B00F04C810022774B204600
S315080005B0294606F015FB002800F04381B9F1000F23
S315080005C000F03F81049B002B00F3E480DDE90A3448
S315080005D0CDE90034159B002B02DB0E2F40F3428237
S315080005E00D9A002A40F06782099C0025DDF81880DC
S315080005F0B8F1000F0DD0079B002B0ADD4345069A7C
S31508000600A8BF4346D21AA8EB03080692079AD31A3C
S315080006100793099B0BB30D9B002B00F0A682002CB9
S3150800062000F0A18229462246584605F02FFF029A75
S3150800063001460546584605F07FFE02990646584685
S3150800064005F0FAFD099B1B1B099300F09182099A94
S315080006503146584605F01AFF02900121584605F022
S3150800066055FE109B0446002B00F084821A4601466C
S31508000670584605F00BFF089B0446012B03DC009B3C
S31508000680002B00F07C820026236904EB830318699B
S3150800069007F069F8C0F120001096079B184410F07F
S315080006A01F0000F09182C0F12003042B40F38182E1
S315080006B0C0F11C00069B034480440693079B034431
S315080006C00793069B002B05DD1A460299584605F046
S315080006D037FF0290079B002B05DD21461A46584630
S315080006E005F02EFF0446119B002B00F0768221466A
S315080006F0029807F087F8002880F26F8200230A2202
S315080007000299584605F0BAFD0D9B7E1E0290002BF5
S3150800071000F05C82002329460A22584605F0AEFD01
S31508000720049B0546002B03DC089B022B00F35E8224
S31508000730B8F1000F05DD29464246584605F000FF88
S315080007400546109B002B00F0D0826968584605F0D4
S3150800075033FD0746002840F07F820D4B024640F2E3
S31508000760EF2158E5E20706D508F10108D5E9002387
S3150800077004F070FC0123641008350BE74FF00208FB
S315080007800DE700BF18830008F08200080000F03F5C
S315080007907482000820460022AC4B294604F05AFC15
S315080007A07E1E08F10108049CCDE90001404604F0CC
S315080007B0E7FBDDE9002304F04DFCA54B002204F01D
S315080007C093FAA1F15073CDE90E010F93002C3BD19A
S315080007D00022A04BDDE9000104F084FA02460B462C
S315080007E0CDE90023DDE90E2306F018FA002840F0CB
S315080007F05781DDE90E2101F10043DDE9000106F02C
S31508000800EFF900283FF4E2AE002425460C9BDDF8FC
S315080008100CA0DE434FF000082146584605F00CFDB3
S31508000820002D00F0A980B8F1000F05D0A84503D027
S315080008304146584605F000FD2946584605F0FCFC99
S315080008409AE03E464C46B1E7834B03EBC40353E9B3
S315080008500201039B1C440D9B002B4AD002460B4603
S3150800086000207E4904F020FDDDE90E2304F03AFA63
S31508000870DDF80CA0CDE90E01DDE9000106F0EEF980
S31508000880054604F07DFB024630350B46DDE90001DE
S3150800089004F028FA0AF8015B02460B46CDE9000186
S315080008A0DDE90E0106F0BAF9002865D100206C4989
S315080008B0DDE9002304F016FA02460B46DDE90E01CF
S315080008C006F0ACF9002840F00D81A24500F0EA8058
S315080008D000225E4BDDE90E0104F0BCFB00225B4BF7
S315080008E0CDE90E01DDE9000104F0B4FBCDE9000114
S315080008F0C2E7DDE90E2304F0ADFBA046DDF80CA047
S31508000900CDE90E01DDE9000106F0A8F9054604F077
S3150800091037FB024630350B46DDE9000104F0E2F903
S315080009200AF8015B02460B46A245CDE900234FF0C3
S31508000930000223D1494BDDE90E0104F0D5F9024640
S315080009400B46DDE9000106F069F9002840F0CA8087
S3150800095000204249DDE90E2304F0C4F902460B469D
S31508000960DDE9000106F03CF970B1C24608F1FF382E
S315080009701AF8013C302BF8D0374655E0334B04F0D3
S3150800098069FBCDE90001BDE7DDE90A34CDE90034AC
S31508000990159B002BFFF628AE0E2F3FF725AE2E4BE4
S315080009A003EBC70393ED007B0C9B002B8DED047BBB
S315080009B002DAB9F1000F64D0DDF80CA0DDE90045D4
S315080009C0DDE904232046294604F06EFC06F046F9C4
S315080009D0064604F0D5FADDE9042304F03BFB02469B
S315080009E0204606F130040B46294604F07BF90AF83E
S315080009F0014B039C02460B46AAEB0404A14540F0B2
S31508000A00828004F071F904460D46DDE9042306F0F8
S31508000A1005F9002865D120462946DDE9042306F0B4
S31508000A20D5F808B1F3075CD40299584605F004FCDA
S31508000A30002301378AF80030129B1F60219B002B88
S31508000A403FF421ACC3F800A01DE400BF0000244019
S31508000A5000001C4000001440188300080000E03F16
S31508000A600000F03FA24B03EBC70393ED007B0C9B02
S31508000A70002B8DED047B9FDAB9F1000F9CDC7FF427
S31508000A80C3AE00229B4BDDE9040104F0E3FADDE97D
S31508000A90002306F0B9F8044600287FF4B5AE3E46B2
S31508000AA02546B4E0DDE90A34CDE90034159B002B70
S31508000AB001DB0E2FD6DD089A012A36DC139A82B39B
S31508000AC003F23343099CDDF81880069A012158463B
S31508000AD01A440692079A1A44079205F017FC054627
S31508000AE086E53E4653469A4613F8012D392A06D11D
S31508000AF0039A9A42F7D13022039901360A701A7876
S31508000B0001321A7038E700227B4B04F0A3FA002260
S31508000B10002304460D4606F059F800283FF450AF66
S31508000B2082E7149BC3F13603CCE709F1FF34099B2E
S31508000B30A34208DBB9F1000FA3EB04040EDBDDF8D2
S31508000B4018804B46C1E7099B109AE31A0994DDF809
S31508000B50188000241A444B461092B6E7069BA3EB6E
S31508000B6009080023B1E7029E71E5099A029970E522
S31508000B70029672E5089B012B17DC009BABB9019B1B
S31508000B80C3F313039BB9019B23F00046360D3605C4
S31508000B9036B1069B012601330693079B013307935B
S31508000BA0109B002B7FF470AD1096012075E500268A
S31508000BB0F6E73FF486AD1C33069A1A449844069223
S31508000BC0079A1A4407927CE50346F4E7049B002B30
S31508000BD02BDC089B022B09DC27E0B9F1000F1DDC92
S31508000BE0089B022B1ADD3E46CDF81090049B002B7D
S31508000BF07FF40CAE21460522584605F03FFB014618
S31508000C000446029806F0FEFD00287FF7FFADDDF8E2
S31508000C100CA0312301360AF8013BFBE50D9B3E4645
S31508000C20CDF81090002B7FF483AD039F21460298E0
S31508000C3006F00CFD039B00F13009049A07F8019BA6
S31508000C40FB1A9A4240F3CB8000230A22029958469F
S31508000C5005F014FB0290E9E72A6905F10C010C304E
S31508000C600232920006F0DDFC01223946584605F0AC
S31508000C7067FC039BA846054603F1010ADDE9032341
S31508000C8013440793009B03F0010309930AF1FF330A
S31508000C9021460298049306F0D9FC4146069000F1D5
S31508000CA03009029806F0AEFD2A4621460746584600
S31508000CB005F0B2FCC268014602B3584605F0BCFA14
S31508000CC0002F3ADA01220299584605F039FC2146E6
S31508000CD0029006F097FD002803DC29D119F0010FD0
S31508000CE026D0B9F1390F1DD132E02846C1E700BF39
S31508000CF01883000800001440000024400A90029857
S31508000D0006F080FD0A990C90584605F095FA0C9A5B
S31508000D105ABB089B53B9099B43B9B9F1390F17D088
S31508000D20002F05DD069B03F1310901E0002F2ADAC1
S31508000D30DDF810A00AF8019B6EE5089B3B4304D139
S31508000D40009B03F00103002BBCD0B9F1390F36D153
S31508000D50049F392307F8013BBA46013F1AF8013CBC
S31508000D60392B5AD001333B7056E5002F06DB089B1A
S31508000D703B4306D1009B03F0010313B9002AA1DC0B
S31508000D80D6E7002AE1DC079B57460AF8019C53453B
S31508000D902ED000230A220299584605F06FFAA84574
S31508000DA002904FF000034FF00A02414658460BD115
S31508000DB005F064FA804605460AF1010A66E7DDF899
S31508000DC010A009F10109B5E705F058FA2946804649
S31508000DD000230A22584605F051FA0546ECE7049B1B
S31508000DE04FF00008002BCCBF1F460127039B1F446A
S31508000DF001220299584605F0A3FB2146029006F007
S31508000E0001FD0028A8DC02D119F0010FA4D1BA46C9
S31508000E1017F8013D302BFAD0FEE4039BBB429BD169
S31508000E203123039A01361370F6E4219B002B7FF4D5
S31508000E3025AA014BFFF744BAF78100080348044B7B
S31508000E40834202D0034B03B118477047F0110020C4
S31508000E50F011002000000000064B0749C91A891046
S31508000E6048BF0131491003D0044B0BB1014818475C
S31508000E70704700BFF0110020F011002000000000AC
S31508000E8010B5064C237843B9FFF7D8FF044B13B1C6
S31508000E900448AFF300800123237010BD5855002085
S31508000EA0000000003884000808B5054B1BB1054949
S31508000EB00548AFF30080BDE80840FFF7CDBF00BF87
S31508000EC000000000F011002038840008A3F5803ADD
S31508000ED0704700BF174B002B08BF134B9D46FFF703
S31508000EE0F5FF00218B460F461348144A121A06F0DE
S31508000EF07FFB0E4B002B00D098470D4B002B00D0E4
S31508000F0098470020002104000D000D48002802D053
S31508000F100C48AFF3008005F033F82000290005F0EF
S31508000F20D2FE04F0A9FA00BF000008000000000085
S31508000F300000000000100020F0110020805500205D
S31508000F40000000000000000008B500F0E3F805F016
S31508000F50ADFE00F025F8BDE808404FF400610148F1
S31508000F6000F0A6B80C1200200122014B1A60704747
S31508000F700812002010B5074C2368012B09D1064832
S31508000F8004F0A2FE002305482360BDE81040FFF7E1
S31508000F90F7B810BD08120020C07B00080C1200200C
S31508000FA02DE9F041012192B02A2001F0AFF800277F
S31508000FB002214FF4B06001F08BFD0223244EDFF8C6
S31508000FC0A0803A4630462349CDE9057745468DF84F
S31508000FD01730079702F0BAFDC82308AC84468DF887
S31508000FE01900ADF81A300FCD0FC40FCD0FC495E810
S31508000FF0030003238DF8243040F6E44384E8030015
S315080010003A46CDF800C00B9330463B46124902F0EB
S31508001010CFFDD8F82C100A90D8F8280003AB03C3E4
S3150800102044F20113304608AA05A9029302F018FEF5
S31508001030304602AA03A902F015FD4FF48033F36087
S31508001040064B06F50056736212B0BDE8F08100BF84
S3150800105000400059002D3101809698008F330F808B
S31508001060847C000807B50E49684605F0B8FF0D4AA6
S315080010700D491368009841F823004FF400710133B5
S3150800108013600A4AB3F5006F516205D1916203B045
S315080010905DF804EBFFF768BF03B05DF804FB00BF1B
S315080010A0004000590C320020103200200060005920
S315080010B070B500250C460646124B8AB0186B013CE3
S315080010C0019001A803F0B6F80121202001F01EF8CE
S315080010D00D4B2946102202A80693CDE90755099516
S315080010E006F086FA094BC4F30A0443EA041302938A
S315080010F0074B284602AA06A9CDE9033603F0E4F809
S315080011000AB070BD847C000801000A000000050BC7
S3150800111074400059002370B5224C1946206892B0D5
S315080011200222806804F0D8FD0023206802221946AE
S31508001130406804F0D1FD01AA15461B4B03F11806B9
S31508001140144618685968083303C4B3422246F7D1CF
S3150800115019889B782180A370144C1A222946206886
S3150800116005F04AFF206803F001FA08AA1546104B55
S3150800117003F12006144618685968083303C4B342B5
S315080011802246F7D1186899889B7926222060A18083
S31508001190A3712946002005F02FFF064804F094FDA8
S315080011A012B070BD24100020227C00080010002018
S315080011B03D7C0008D17B000810B5274C01F04AFA9F
S315080011C005F08BFE236F23F0070343F00303236721
S315080011D005F08EFE214B00209B6ADB015EBF4FF4B3
S315080011E080321F4B9A62D4F8203123F0070343F06C
S315080011F00203C4F82031D4F8283123F0070343F05A
S315080012000203C4F82831D4F8403123F0030343F02D
S315080012100203C4F84031D4F8603123F0030343F0E5
S315080012200203C4F86031D4F8403223F0030343F0D4
S315080012300203C4F84032D4F8003223F0070343F01F
S315080012400203C4F80032D4F8083223F0070343F047
S315080012500203C4F8083210BD008000500040005A4E
S315080012600060005A30B5274D9DB008AC0FCD0FC4AD
S3150800127095E80F0084E80F002C22002111A806F03B
S31508001280B7F9214B572210930123CDE912238DF884
S31508001290453003230E2407228DF850308DF8583038
S315080012A00823002115920DF112002246179306F025
S315080012B09FF94FF48812154B1548CDE902230D23E3
S315080012C08DF81030134B08AA05932023069340F295
S315080012D00113ADF81C30104B02A9009310AB8DF822
S315080012E0114003F05BF9044618B17C210B4805F060
S315080012F0A0FD00214FF4E13005F078FD20461DB031
S3150800130030BD00BFE87C000800000A503C000A50C7
S31508001310745200205955002010520020B87C00084D
S31508001320014805F0E8BE00BF745200200348044A8D
S315080013300449121A921005F069BD00BF3C860008E0
S315080013403C8600088055002008B500F02FF8FFF706
S31508001350EDFF124B12498B4212D30020114B124952
S315080013608B4218D3FFF7B6FD186850F82240586824
S3150800137040F82240013298688242F5D30C33EAE7F6
S315080013800022F8E71C6844F8220001325C68A24291
S31508001390F8D30833E4E70022F8E700BF40840008E2
S315080013A04C8400084C8400084C8400084FF48041A3
S315080013B04FF0FF30114B124A10B59A60D3F88820C7
S315080013C042F47002C3F888200E4A91660E4901F568
S315080013D0005210660D4850660220C3F8D000BFF3CD
S315080013E04F8FBFF36F8F01244FF440330848C0F87E
S315080013F08041D36004600B6110BD00BF00ED00E0C2
S315080014000000000800900050008000447FFF7F0322
S3150800141000E100E0014B1868704700BF0810002083
S31508001420084B1B6F03F00703022B04D0032B05D0D0
S31508001430012B05D0FEE7044B18687047034BFBE702
S315080014400348704700800050081000201010002044
S31508001450002D310108B5FFF7E3FF054B1B6FC3F3FA
S3150800146003330133B0FBF3F0024B186008BD00BF2D
S3150800147000800050041000200048704700B4C404DF
S31508001480014B1868704700BF10100020054B186004
S31508001490054B1B6F03F00703032B01D1FFF7DABFD8
S315080014A0704700BF101000200080005000487047A9
S315080014B0002D31014FF0B4439868C0F304400C285E
S315080014C00AD8DFE800F00B090909090907211909F3
S315080014D01B1D1F000F487047002070479B6803F0CC
S315080014E04073B3F1807F11D0B3F1007F10D00A4A60
S315080014F0002B08BF104670470848704708487047D1
S3150800150008487047084870470848704708487047B1
S3150800151008487047405DC60000093D00C0EA210141
S3150800152080BA8C010048E801005A62020024F400DF
S3150800153080841E0040420F00014B1868704700BFA8
S315080015400C1000200346054A0549106803448B42DF
S315080015508CBF4FF0FF301360704700BF1410002097
S315080015600000042008B501213A2000F0CFFD012330
S3150800157004220321002002F0F3F9002005F015FDEE
S315080015800122354B3549C3F844244FF40022A3F50C
S3150800159050335A66324BD3F8FC20D20146D4D1F8E0
S315080015A0803023F0030343F00203C1F880304FF480
S315080015B0607000F0D3FD2A4B00F5D520D3F8F02053
S315080015C000F2FC4042F00102C3F8F020D3F8FC20F8
S315080015D042F08072C3F8FC20224AA3F55D431A60E4
S315080015E0214B0222B0FBF3F0204B01381861C3F8F7
S315080015F0F0204FF48072C3F804234FF060431C4A6E
S315080016000020C3F8B02F1B4AC3F8802ED3F8002E4B
S3150800161042F48072C3F8002EFF2283F82020D3F804
S31508001620002E22F48072C3F8002E08BDD3F8FC20E1
S3150800163022F08072C3F8FC20D1F8802022F0030241
S3150800164042F00202C1F88020D3F8FC2042F08072F2
S31508001650C3F8FC20ABE700BF00D003500080005061
S3150800166000ED00E0FF030040F8590D00000004E01B
S3150800167055CEACC5090001004FF06043D3F8802E63
S3150800168030B5D20715D501240B4D8440D5F8FC207A
S3150800169042F08072C5F8FC20D3F8002E2243C3F826
S315080016A0002E53F82020002AF0D003F8201000203E
S315080016B030BD1120FCE700BF00ED00E02DE9F04F3A
S315080016C09A46564B85B01B7806460F461546DDF8F2
S315080016D03C909DF844B0DDF85080002B00F09780D0
S315080016E0072A00F296800E9B002B00F09280B9F133
S315080016F0000F00F08E80129BB3F5006F00F389800F
S31508001700012803D1109B002B00F08380444B03EB88
S3150800171005131B7B002B7ED0424C10220021684605
S3150800172005F066FF04EB45141022A7BB3946204690
S3150800173005F05EFF43F210036380BBF1000F03D18F
S31508001740E37843F00303E370364A0E9B02EB451C2D
S31508001750CCE90193129B6901581E9DF84C30C0F3E1
S315080017600A0003F003039B0643EA001E53582E485B
S31508001770012E00EA03004EEA0003CDF800A05350FC
S3150800178017D0B8F1000F2ED19CF8023068F3041375
S315080017908CF8023027E00021204605F029FF4FF497
S315080017A044736380BBF1000FCED1E37843F0300376
S315080017B0C9E713230CF1100ECCF80C309CE80F0087
S315080017C08EE80F006FF00301DCF81C20109B61F314
S315080017D09F02012FCCF81C20CCF8143003D1CCF88A
S315080017E01890CCF8043000270D4A290102EB05139E
S315080017F042F80180159A28465A60694622469F6033
S315080018005E7302F061FD384605B0BDE8F08F074803
S31508001810FAE70748F8E70748F6E700BF79550020D2
S315080018208C5300208C5200200F80FFF3028000F0BA
S31508001830018000F0078000F038B5124B05461B788A
S31508001840DBB1E0B105F06EFB0F4A00231146147BAD
S3150800185054B92B6001251A0101EB03131D738C5033
S3150800186005F066FB204638BD0133082B02F110024D
S31508001870EDD105F05DFB0548F5E70548F3E70548B2
S31508001880F1E700BF795500208C530020048000F052
S31508001890028000F0018000F038B505F043FB002314
S315080018A005460B4A147B6CB90133082B02F110026A
S315080018B0F8D102F081FC074B28461C7005F038FB6E
S315080018C0204603E0284605F033FB034838BD00BF31
S315080018D08C53002079550020058000F00D4B10B57B
S315080018E01B78044693B1072812D805F01BFB0A4B50
S315080018F003EB04131A7B2AB100241C7305F018FBAA
S31508001900204610BD05F014FB0448FAE70448F8E73A
S315080019100448F6E7795500208C530020068000F02D
S31508001920028000F0018000F0154B13B518680023FB
S3150800193001908DF8043005F0F5FA124B1C7824B1A5
S3150800194005F0F6FA104802B010BD01221A7005F02B
S31508001950EFFA0E4B01A81C731C7783F82C4083F80A
S315080019603C4083F84C4083F85C4083F86C4083F82D
S315080019707C4008238DF8073002F05CFC2046E2E73D
S315080019800F7D000879550020038000F08C53002055
S315080019900A4A08B512785AB107280BD8084A02EB42
S315080019A000131B7B43B1002102F024FC002008BD74
S315080019B00448FCE70448FAE70448F8E779550020A4
S315080019C08C530020028000F0018000F0078000F0B0
S315080019D00A4A08B512785AB107280BD8084A02EB02
S315080019E000131B7B43B1012102F004FC002008BD53
S315080019F00448FCE70448FAE70448F8E77955002064
S31508001A008C530020028000F0018000F0078000F06F
S31508001A100A4A08B5127852B107280AD8084A02EBCA
S31508001A2000131B7B3BB102F0D1FC002008BD054822
S31508001A30FCE70548FAE70548F8E700BF79550020AE
S31508001A408C530020028000F0018000F0078000F02F
S31508001A500D4B1B7893B1072812D889B10B4B03EBB2
S31508001A6000131B7B73B10A4B1A6D01238340134283
S31508001A7014BF0123002300200B70704705487047E8
S31508001A800548704705487047795500208C53002053
S31508001A9000000450028000F0018000F0078000F08A
S31508001AA00B4A10B512780C4662B107280CD859B102
S31508001AB0084A02EB00131B7B43B102F0A3FC20701B
S31508001AC0002010BD0448FCE70448FAE70448F8E794
S31508001AD0795500208C530020028000F0018000F028
S31508001AE0078000F008B5FFF73FFA0A4804F0DAF86D
S31508001AF0094A136D526D1A4000D5FEE708210123E5
S31508001B0006481A4218BF036501394FEA4303F8D15C
S31508001B1008BD00BF087D00080000045000200450DE
S31508001B20044BD3F88420D206FBD4D3F88400C0F340
S31508001B30811070470040005038B5124B0546D3F85F
S31508001B4080300C4603F00303022B0BD0032B0DD079
S31508001B50012B0FD1FFF764FC0D2305B1286004B1F2
S31508001B60236038BDFFF7A6FC0723F6E7FFF752FC0C
S31508001B700623F2E7044841F2DF1105F05AF900237B
S31508001B801846EAE700800050137D000838B51A4B5E
S31508001B900546D3F820010C4600F00700062821D890
S31508001BA0DFE800F028040C1410181C00FFF732FCBC
S31508001BB0052305B1286004B1236038BDFFF760FC32
S31508001BC00323F6E7FFF776FC0723F2E7FFF76EFC39
S31508001BD00223EEE7FFF71EFC0623EAE7FFF750FCB1
S31508001BE00423E6E7054841F25C2105F022F90023C3
S31508001BF01846DEE70123DCE700800050137D000865
S31508001C0038B5194B0546D3F828310C4603F00703B7
S31508001C10013B052B20D8DFE803F003131B0F0B1736
S31508001C20FFF7F8FB052305B1286004B1236038BD2A
S31508001C30FFF7F0FB0623F6E7FFF73CFC0723F2E77E
S31508001C40FFF71EFC0323EEE7FFF71AFC0423EAE777
S31508001C50FFF72CFC0223E6E7044841F2640105F08D
S31508001C60E8F800231846DEE700800050137D0008D8
S31508001C70F7B50027144B0197D3F88041064604F0C0
S31508001C800304022C0D4614D0032C0DD0012C14D1BC
S31508001C90394601A8FFF77AFF0F240EB1019B33607E
S31508001CA005B12C6003B0F0BDFFF704FC07240190D2
S31508001CB0F3E7FFF7FBFB0190EFE741F2B131034889
S31508001CC005F0B7F83C46E8E700800050137D0008A9
S31508001CD038B50F4B0546D3F890320C4603F003038C
S31508001CE0012B09D0022B0BD1FFF7E4FB072305B123
S31508001CF0286004B1236038BDFFF7D8FB0223F6E756
S31508001D00044841F2501105F094F800231846EEE70E
S31508001D1000800050137D0008002337B50193194B46
S31508001D200546D3F820320C4603F00703042B1FD8C8
S31508001D30DFE803F025030F141900002101A8FFF7B7
S31508001D405FFF11230DB1019A2A6004B1236003B025
S31508001D5030BDFFF7AFFB07230190F3E705F063F803
S31508001D600A230190EEE7FFF7E7FB09230190E9E76D
S31508001D7041F22301044805F05CF80023E2E7012359
S31508001D80E0E700BF00800050137D000838B5104B0F
S31508001D900546D3F840310C4603F00303022B0BD05B
S31508001DA0032B0DD0012B0FD105F03DF80A2305B101
S31508001DB0286004B1236038BDFFF7BEFB0923F6E7A8
S31508001DC005F034F80B23F2E701230020EFE700BF04
S31508001DD000800050002337B50193184B0546D3F809
S31508001DE060320C4603F00703013B032B1FD8DFE8DC
S31508001DF003F0020E1914002101A8FFF7C7FE0F23EE
S31508001E000DB1019A2A6004B1236003B030BD0021E8
S31508001E1001A8FFF7BBFF1023F2E7FFF74BFB0723E9
S31508001E200190EDE7FFF742FB02230190E8E741F254
S31508001E30C801034804F0FDFF0023E1E700800050D5
S31508001E40137D000873B500240F4B0194D3F8703244
S31508001E50064603F00303012B0D4607D0022B11D0CB
S31508001E6041F22611094804F0E4FF04E0214601A8DE
S31508001E70FFF78CFF10240EB1019B336005B12C606F
S31508001E8002B070BD1424F6E700800050137D0008E8
S31508001E9038B5164B0546D3F800020C4600F0070085
S31508001EA0042819D8DFE800F020030B0F130004F00C
S31508001EB0BAFF0A2305B1286004B1236038BDFFF7CD
S31508001EC03BFB0923F6E704F0B1FF0B23F2E7FFF724
S31508001ED0C1FA0E23800AEDE7054841F26F4104F086
S31508001EE0A8FF00231846E5E70123E3E70080005032
S31508001EF0137D000838B5164B0546D3F808020C467C
S31508001F0000F00700042819D8DFE800F020030B0FBB
S31508001F10130004F088FF0A2305B1286004B1236082
S31508001F2038BDFFF709FB0923F6E704F07FFF0B230B
S31508001F30F2E7FFF78FFA0E23800AEDE7054841F22C
S31508001F40A74104F076FF00231846E5E70123E3E7F7
S31508001F5000800050137D000838B5104B0546D3F8AD
S31508001F6040320C4603F00303022B0BD0032B0DD093
S31508001F70012B0FD104F057FF0A2305B1286004B1DD
S31508001F80236038BDFFF7D8FA0923F6E704F04EFFB9
S31508001F900B23F2E701230020EFE700BF0080005083
S31508001FA038B5124B0546D3F850320C4603F00303F6
S31508001FB0022B0FD0032B05D0012B0FD104F033FFD2
S31508001FC00A2302E004F032FF0B2305B1286004B1AE
S31508001FD0236038BDFFF7B0FA0923F6E7044841F253
S31508001FE0940104F026FF00231846EEE7008000500F
S31508001FF0137D000838B5104B0546D3F860310C46FA
S3150800200003F00303022B0BD0032B0DD0012B0FD1AA
S3150800201004F009FF0A2305B1286004B1236038BD1E
S31508002020FFF78AFA0923F6E704F000FF0B23F2E725
S3150800203001230020EFE700BF00800050B0F5207FA5
S3150800204010B52ED009D8B0F5007F24D003D868B1D2
S31508002050B0F5C07F0AD000241BE0B0F5607FFAD146
S31508002060124BD3F88040C4F3011412E00F4B1C6FD7
S31508002070230B13F00E0FC4F303340AD0072C08D031
S315080020800F2C06D0032C04D040F28521084804F012
S31508002090D0FE601C10BD054BD3F89040C4F3046411
S315080020A0F7E7024B1C6FC4F38024F2E70080005068
S315080020B0137D00084FF4803238B5104B04469A66F3
S315080020C000200D46FFF7BAFF41F671320C4B60430C
S315080020D0DC69DA635A6804F4803422F440125DB984
S315080020E00849884294BF00200120000502435A602F
S315080020F00CB10022DA6338BD0349F2E700900050BC
S3150800210000000350005A6202002D310138B5430918
S3150800211004460D460ED140F22F310D4804F089FED3
S31508002120002304F01F0485B103F580530122A24061
S315080021301A6038BD012B04D0022B04D040F23D3181
S31508002140EBE7044BEDE7044BEBE703F50053EDE74C
S31508002150137D00086480005068800050002130B567
S31508002160B0F5807F85B00446CDE9001100F0068100
S315080021706BD8002800F0DB80A0F12004602C75D80D
S31508002180602C73D8DFE814F0D300E0007200E0009A
S31508002190F000F000F000F000F000E000F5007E002E
S315080021A00B019E007E00E000E000E0007200720075
S315080021B0720072007200720072000B01E000E0000B
S315080021C0E00023011001E000720072007200720044
S315080021D07200720072007200720072007200720061
S315080021E01501F000D300D300D300B1007E007E00B5
S315080021F0B9001A019300C800C80072007200720084
S315080022007200D300720072007200720072007200CF
S315080022107200720072007200720072007200720020
S315080022207200720072007200720072007200720010
S315080022307200720072007200720072007200720000
S315080022407200720072007200CD00B0F5E06F00F007
S31508002250AB803CD8B0F5607F00F081801DD8B0F522
S31508002260007F67D008D8B0F5C07F60D040F29441AF
S31508002270594804F0DEFD57E0B0F5207F64D0B0F58C
S31508002280407FF3D1FFF7E6F804464FF42070FFF7D6
S31508002290D5FEB4FBF0F464085FE0B0F5B06F68D023
S315080022A00AD8B0F5806F5FD0B0F5A06FDED10021F7
S315080022B06846FFF731FD37E0B0F5C06F6FD0B0F56F
S315080022C0D06FD3D100216846FFF7E2FD2CE0B0F5C8
S315080022D0286F73D016D8B0F5186F6AD00AD8B0F53B
S315080022E0F06F74D0B0F5106FC0D100216846FFF7C3
S315080022F001FE19E0B0F5206FB8D100216846FFF756
S3150800230069FD11E0B0F5306F5DD0AFD3B0F5386F29
S3150800231045D0B0F5406FA9D100216846FFF770FC9B
S3150800232002E0FFF77DF80090009805B030BDFFF792
S3150800233091F8F8E7FFF774F805462046FFF77EFEA2
S31508002340B5FBF0F50095EFE7FFF784F804464FF480
S315080023502070FFF773FEB4FBF0F40094E4E701A8DD
S31508002360FFF7EAFB019DE8E700216846FFF70EFC48
S31508002370DAE700216846FFF77BFCD5E74FF0E02354
S3150800238002911B695B0705D5FFF764F80290029B6B
S315080023900093C9E703A902A8FFF7F8FCF7E70021AD
S315080023A06846FFF7F3FCBFE700216846FFF7D4FD50
S315080023B0BAE700216846FFF7F3FDB5E7002168464E
S315080023C0FFF740FDB0E76846FFF782FCACE700215F
S315080023D06846FFF70FFEA7E7137D00081FB50346FB
S315080023E00020B3F5607F019000F00E817BD8582B52
S315080023F068D8382B05D8243B092B49D940F279519E
S31508002400CEE0393B1F2BF9D801A252F823F000BFC2
S31508002410C3250008FD230008FD230008FD23000846
S31508002420CD2500081B260008FD230008FD2300080B
S31508002430FD230008FD230008FD230008FD230008EE
S31508002440FD230008FD230008FD230008FD230008DE
S31508002450FD230008FD230008FD23000825260008A3
S315080024600D250008FD230008FD230008FD230008AC
S3150800247051250008FD230008FD2300082F26000823
S315080024803926000811260008732500087325000858
S31508002490092BB3D801A252F823F000BF0D25000876
S315080024A00D2500080D2500080D2500080D25000836
S315080024B0FD230008A9250008FD230008C3250008F8
S315080024C02B250008802B59D0B3F5807F96D14FF085
S315080024D0E02302901B695B076ED5FEF7BBFF0C2352
S315080024E00393039B56E0B3F5086F74D022D8B3F56F
S315080024F0C06F66D00FD8B3F5A06F00F08980B3F52A
S31508002500B06F51D0B3F5806F7FF478AF002001A982
S31508002510FFF73CFB4CE0B3F5E06F7ED0B3F5F06F08
S3150800252054D0B3F5D06F7FF469AF002001A9FFF747
S31508002530AFFC3DE0B3F5286F7ED00ED8B3F5186F23
S3150800254070D0B3F5206F72D0B3F5106F7FF456AF25
S31508002550002001A9FFF7CEFC2AE0B3F5306F70D052
S31508002560FFF44CAFB3F5386F2BD0B3F5406F7FF45B
S3150800257045AF002001A9FFF743FB19E0334B1B6F5A
S3150800258003F00703013B032B08D8DFE803F0050235
S315080025903139052301930BE00223FBE740F2C641DC
S315080025A02B4804F046FC03E0002001A9FFF760FB76
S315080025B0019805B05DF804FB03A902A8FFF7E6FB3E
S315080025C08FE7002001A9FFF7E1FBF1E7002001A949
S315080025D0FFF710FDECE71D4BD3F8003103F00303BA
S315080025E0022B07D0032B09D0012B0BD1FEF748FF8E
S315080025F00323CFE7FEF7A0FF0923CBE704F011FC7E
S315080026000823C7E70123C5E701A9FFF795FACFE72E
S31508002610002001A9FFF780FBCAE7002001A9FFF700
S315080026209BFCC5E7002001A9FFF7BAFCC0E700201C
S3150800263001A9FFF7CFFBBBE7002001A9FFF702FCC2
S31508002640B6E701A9FFF744FBB2E700BF00800050D8
S31508002650137D00084FF48012034B5A664FF48032FC
S31508002660024B9A62704700BF009000500050005A13
S31508002670F8B5036804460F2B04D940F66D31804837
S3150800268004F0D7FB63680F2B04D94FF437617C48F5
S3150800269004F0CFFBA3680F2B04D940F673317848B2
S315080026A004F0C7FB237B0F2B04D940F67631744818
S315080026B004F0BFFB637B0F2B04D940F679317048D1
S315080026C004F0B7FBA37B3F2B04D940F67C316C485A
S315080026D004F0AFFBE37B3F2B04D940F67F31684813
S315080026E004F0A7FB2369032B04D940F6823164481A
S315080026F004F09FFB6369032B04D940F685316048D3
S3150800270004F097FBE369032B04D940F688315C484B
S3150800271004F08FFB8020FFF761FE032800F08A8013
S315080027204FF48012574B584D5A6645F60E034FF034
S31508002730A062C5F88030554B9A624FF4803203F593
S3150800274080539A62AB6DDA03FCD4AE6D16F0804600
S31508002750FBD1D4E900231B0543EA0263E27B4C481C
S315080027601343227B4B4F43EA0243627B43EA02331D
S31508002770A27B43EA82132B61AA69D4E904131B06D8
S3150800278043EA816302F000421343A27E4FF440619C
S315080027901343227E43EA0243627E43EA0223AB6185
S315080027A04FF4006204F077FB2B6AE17EE26923F0BE
S315080027B00F0343EA8103002A3DD12B6294F82430A3
S315080027C094F82010AA6ADB0043EA41133A401343FF
S315080027D094F82120304943EA021343F480332A4A05
S315080027E0AB62936D31EA0303FBD14FF08071274842
S315080027F081621369A56823F4700343EA05531361DC
S315080028004FF00043836194F822300BB9234B996249
S3150800281094F823303BB94FF48032204B9A621A4A17
S31508002820936D5B00FCD494F825301BB1164B1C4AFB
S31508002830C3F88020F8BD134343F00803022A2B622D
S3150800284008D12E614FF408524FF47F411548AE6106
S3150800285004F021FB0C4994F822308A6A94F8200087
S315080028601B063A4043EA4013134394F8242043EAEC
S31508002870C20394F8232043EA02438B62D3E700BFDE
S31508002880137D0008009000500040005A0050005A7E
S315080028903840005AC7FFFEFE030001000060005AD8
S315080028A0F1A7FFFF3440005A014B93F90000704727
S315080028B0E4110020436810B5072B044604D940F6F6
S315080028C0B3512A4804F0B5FAA368032B04D940F695
S315080028D0B551264804F0ADFA2378032B04D940F6FF
S315080028E0B751224804F0A5FA94F90130002B04DA0E
S315080028F040F6B9511D4804F09CFA4FF400011C4AF1
S31508002900637851664FF4D151022002F5B83251620C
S3150800291018494F2B48604FF0010028BF4F2301F597
S31508002920805148601169C903FCD4217843EA012320
S315080029305361D4E901131B0143EA0123617B0B436D
S31508002940217B43EA41039360E37BA17B1B0143EAB6
S315080029504113617C0B43217C43EA41035360A37C0A
S3150800296013B16FF4D153536210BD00BF137D000835
S315080029700090005000100250014B1880704700BFAD
S31508002980E2110020014B1880704700BFE0110020BB
S31508002990B0F5207F38B571D00ED8B0F5007F5BD082
S315080029A003D890B3B0F5C07F2FD040F21231BDE8FE
S315080029B038403A4804F03DBAB0F5607FF5D1384A58
S315080029C04C1ED2F8FC5015F080751EBFD2F8FC30AC
S315080029D023F08073C2F8FC30032C04D940F2F221AC
S315080029E02E4804F026FA2F4AD2F8803023F0300316
S315080029F043EA0413C2F8803035B1294AD2F8FC30CC
S31508002A0043F08073C2F8FC3038BD4C1E012C0AD93D
S31508002A10102903D8244BCB40DB0704D440F2C72146
S31508002A201E4804F006FA04F045FA04F051FA1D4A65
S31508002A30136F23F4704343EA04331367FEF70AFD62
S31508002A400446FFF76DF8C0F10201204604F03AFA91
S31508002A50BDE8384000F02AB84C1E1F2C04D940F2B5
S31508002A6006310E4804F0E5F90E4AD2F8903023F004
S31508002A70F85343EA0463C2F89030C5E74C1E012CAC
S31508002A8004D94FF44371054804F0D3F9054A136F86
S31508002A9023F4806343EA84231367B5E7137D0008AC
S31508002AA000ED00E0008000501001010008B54FF469
S31508002AB0C070FFF753FBBDE808400449884294BF3D
S31508002AC0012102214FF42070FFF762BF80F0FA025D
S31508002AD0B0F5607F70B50C4600F05B8200F291801D
S31508002AE0582867D8382805D82438092848D940F6F8
S31508002AF0421196E139381F28F9D801A353F820F076
S31508002B00792E0008EF2A0008EF2A0008EF2A0008A5
S31508002B10B92E00088F300008EF2A0008EF2A0008AF
S31508002B20EF2A0008EF2A0008EF2A0008EF2A000813
S31508002B30EF2A0008EF2A0008EF2A0008EF2A000803
S31508002B40EF2A0008EF2A0008EF2A0008CF3000080D
S31508002B502F2C0008EF2A0008EF2A0008EF2A0008A1
S31508002B60AB2C0008EF2A0008EF2A0008F930000805
S31508002B704931000835300008EF2C0008EF2C000812
S31508002B800928B4D801A353F820F000BF2F2C000859
S31508002B902F2C00082F2C00082F2C00082F2C00089B
S31508002BA0EF2A0008B12D0008EF2A0008792E000840
S31508002BB0612C0008802800F0A980B0F5807F96D1A6
S31508002BC00C2900F0338100F22781A1F10904022CB7
S31508002BD000F225814FF480329F4BA049586E03F5C9
S31508002BE080535A664B6A43F001034B62C1035CBFCC
S31508002BF09B4B5A664FF0E022136923F004031361D6
S31508002C00B8E0B0F5086F00F0A5813DD8B0F5C06F03
S31508002C1000F0328118D8B0F5A06F00F00B82B0F53D
S31508002C20B06F00F0C580B0F5806F7FF460AF013CEF
S31508002C30062C00F2E880DFE814F0EB00E000ED0077
S31508002C40E400D400E200DE00B0F5E06F00F01F8279
S31508002C50B0F5F06F00F03081B0F5D06F7FF447AF74
S31508002C60013C0D2C00F25681DFE814F0590154019D
S31508002C705401540154015401540154015B014601A5
S31508002C805001540154015201B0F5286F00F05C82DE
S31508002C901FD8B0F5186F00F01A82B0F5206F00F053
S31508002CA02B82B0F5106F7FF422AF013C0D2C00F299
S31508002CB04881DFE814F04B0146014601460146010A
S31508002CC04601460146014D013801420146014601C9
S31508002CD04401B0F5306F00F04E82FFF408AFB0F54E
S31508002CE0386F00F0C980B0F5406F7FF400AF023C42
S31508002CF0052C00F2C5815B4B195D574AD2F828317D
S31508002D0023F007030B43C2F8283133E08B1E062B4A
S31508002D1043D8DFE803F03F30424A42420400002528
S31508002D2004260121022000F053FA04F0C3F804F047
S31508002D30CFF8494A136F23F0070333431367FEF7A7
S31508002D4089FB0646FEF7ECFEC0F10201304604F0A8
S31508002D50B9F80121002000F08FFAFFF7A7FE4DB958
S31508002D60032C07D14FF480323F4B9A623F4A936D4A
S31508002D705800FCD470BD4FF480123D4B0E465A667F
S31508002D804FF48032394B9D6A03F58053C5F30065CD
S31508002D909A62C6E700250126C3E7002540F231619D
S31508002DA0344804F046F82E46BBE700250226B8E765
S31508002DB0072C12D00F2C12D0022C05D040F27A61C3
S31508002DC02C4804F036F80024234AD2F8803123F040
S31508002DD003032343C2F88031CCE70324F4E7012434
S31508002DE0F2E701231C49D1F8202122F007021343F8
S31508002DF0C1F82031BEE70423F4E70323F2E70523ED
S31508002E00F0E70623EEE740F2B9611A4804F011F834
S31508002E100023E7E70223E5E710293FF4DBAE40F29B
S31508002E20E161BDE87040134804F003B84FF48032FE
S31508002E30094B0A49586E03F580535A664B6A23F0C4
S31508002E4001034B62C3035CBF054B5A664FF0E02291
S31508002E50136943F00403D2E60080005000C007500F
S31508002E6000A00050637D00080060005A0040005A28
S31508002E7000900050137D0008013C0A2C13D8DFE8A7
S31508002E8004F0171212121212121219061000012259
S31508002E90A449D1F8403123F003031343C1F8403164
S31508002EA068E70322F4E740F201719F4803F0C1FF87
S31508002EB00022EDE70222EBE7013C0A2C13D8DFE8F3
S31508002EC004F0171212121212121219061000012219
S31508002ED09449D1F8603123F003031343C1F86031F4
S31508002EE048E70322F4E740F223718F4803F0A1FF75
S31508002EF00022EDE70222EBE701228A49D1F80032E7
S31508002F0023F007031343C1F8003233E70322F4E73B
S31508002F100422F2E74FF4EE61834803F08AFF0022A9
S31508002F20EBE70222E9E701227E49D1F8083223F0CD
S31508002F3007031343C1F808321CE70322F4E7042207
S31508002F40F2E740F29471784803F073FF0022EBE74A
S31508002F500222E9E74C1E082C12D8DFE804F0161105
S31508002F6005111111110F180001226E49D1F800310F
S31508002F7023F003031343C1F80031FBE60322F4E709
S31508002F804FF4F661684803F054FF0022EDE7022289
S31508002F90EBE7664A634BD2F8FC5015F080750AD108
S31508002FA0072929D1D3F8802022F0030242F0020231
S31508002FB0C3F88020DEE6D2F8FC10072C21F08071D9
S31508002FC0C2F8FC100FD1D3F8802022F0030242F099
S31508002FD00202C3F88020554AD2F8FC3043F08073C9
S31508002FE0C2F8FC30C6E60D2C0FD1D3F8802022F0AB
S31508002FF0030242F00102ECE70D2906D1D3F880203E
S3150800300022F0030242F00102D2E7062C10D040F269
S31508003010E171454803F00DFF0021424AD2F880309D
S3150800302023F003030B43C2F88030002DD3D1A1E669
S315080030300321F2E7012C1FD0073C0A2C17D80A2CCB
S3150800304015D8DFE804F01B14121014141414141401
S31508003050060001223349D1F8203223F0070313432F
S31508003060C1F8203286E60322F4E70422F2E740F6A6
S315080030703D012D4803F0DDFE0022EBE70222E9E7D9
S3150800308040F66E01284803F0D4FE002135E6013CDF
S315080030900A2C13D8DFE804F01712121212121212B1
S315080030A01906100001221F49D1F8403223F0030304
S315080030B01343C1F840325DE60322F4E740F6AC015B
S315080030C0194803F0B6FE0022EDE70222EBE7093CB9
S315080030D0022C0AD8164B195D124AD2F8503223F040
S315080030E003030B43C2F8503244E640F6C8010E48C3
S315080030F003F09FFE0021EFE70F2C1FD01AD8022CF1
S315080031001ED0072C1ED040F6E201074803F091FEB8
S3150800311000220449D1F8603223F007031343C1F8AB
S31508003120603227E600800050137D000800ED00E0BD
S31508003130607D0008102CE6D10222EAE70122E8E7C2
S315080031400322E6E70422E4E7102C10D0142C10D052
S315080031504FF41161134803F06CFE00221249D1F8AE
S31508003160703223F003031343C1F8703202E60122DA
S31508003170F4E70222F2E7022910D0072910D040F618
S315080031802311084803F055FE00220749D1F890326A
S3150800319023F003031343C1F89032EBE50122F4E769
S315080031A00222F2E7137D000800800050024A536BA2
S315080031B00342FCD1704700BF00400950034A017919
S315080031C0D36E23F030030B43D3667047004000509C
S315080031D0F8B50446244BD3F88420D006FBD4D3F89C
S315080031E08430C3F381139C423CD0FEF719F9012CB5
S315080031F005460BD11D4B984204D940F281711C48F3
S3150800320003F017FE0121284603F05CFE03F083FE57
S315080032104FF00072174B07465A66204603F08BFE9E
S315080032204FF48063104E621E93403367736E9A01A3
S3150800323003D4D6F884309B060AD5384603F06FFEC9
S31508003240022C0FD12846BDE8F840002103F03ABE0B
S31508003250D6F884309906E9D540F28F71044803F010
S31508003260E8FDE3E7F8BD00BF00400050005A6202DF
S31508003270697D00080060005010B50C4608B9FEF7D5
S31508003280CFF8074B21461B783BB1064B984204D82A
S315080032900120BDE81040FFF79BBF0220F9E700BFF9
S315080032A07A550020005A62024FF0004238B5244B86
S315080032B0244C5A664AF6CD33656C014605F001057D
S315080032C0236428BB0120FFF771FF6368DB0715D568
S315080032D01D4B586008461D4B226BD2070CD49842EA
S315080032E008D1072415B1174B194A1A6403F024FEAE
S315080032F0204638BD0130EFE79842F2D00024F1E7C6
S315080033000132236B13F0080305D08A42F8D1E8E7A7
S3150800331000220E49F5E78A42E3D020210A4A916243
S315080033200121A2F5805251600649084A886A80063A
S3150800333003D49342D5D00133F8E79342DDE700BFC3
S3150800334000900050004009500060095040420F00AC
S315080033503254FFFF10B503F0FAFD202341F20202B2
S3150800336003610023C360836042614FF4A0220749CA
S315080033708361426200F50052C36103628362C362DD
S3150800338043630365D164036310BD00BFFF3F0D03AC
S3150800339038B5194B044698420D460BD0174B984240
S315080033A008D003F58043984204D04FF4B37114480B
S315080033B003F03FFD25B92046BDE8384003F0C7BDF8
S315080033C0012204F580535A6040F6FF71204605F045
S315080033D00F0203F0B8FDA263782103F0B4FD05F0EF
S315080033E001036A0748BF43F00203A26C02F0030216
S315080033F09A42FAD138BD00BF0000015B00000A50AE
S31508003400B67D0008F8B505460C46164622B94FF4AF
S3150800341009716D4803F00DFD6C4B9D4202D1BCB994
S31508003420562411E06A4B9D424FD003F580439D42D6
S3150800343047D040F22721644803F0FBFC44B940F228
S315080034407631614803F0F5FC2046FEF787FE044610
S31508003450AB68D90749D5B44204D240F231215A485B
S3150800346003F0E7FCB4FBF6F46F68013CFF2C07F0A9
S31508003470010704D940F23921534803F0DAFC24063F
S315080034806FB32821284603F05EFDAB6C9A0720D15E
S31508003490AB6CDB071FD4AE6C16F002061DD140F2EA
S315080034A04621494803F0C5FC284603F050FD2B6920
S315080034B0314623F07F4323432B61BDE8F840FFF7ED
S315080034C067BF002CC4D15824BEE7002CC0D15724AE
S315080034D0BAE70526E8E70926E6E70626E4E72B69BC
S315080034E023F07F4323432B61F8BD6B68012B04D07F
S315080034F040F25921344803F09CFCAB6803F0E00322
S31508003500402B42D009D893B1202B1AD040F29B21E8
S31508003510BDE8F8402C4803F08CBC602B42D0802BC9
S31508003520F4D106EB4603A34247D801230DE0B6EBD8
S31508003530141F04D940F28121234803F07AFC102392
S3150800354003E0B6EBD40F1AD8082373436401B4FB1F
S31508003550F3F4204F203CB7EBC40F4FEAC40604D25D
S3150800356040F2A621184803F064FC28463E40012193
S3150800357003F0E9FC2E63BDE8F84003F0E4BC40F232
S315080035808621114803F055FCDEE70623B4FBF3F366
S31508003590B34201D30623D8E740F28B210A4803F049
S315080035A048FCF7E7B6EB940F01D80423CDE74FF4B0
S315080035B02471054803F03DFCF7E740F295210248DF
S315080035C003F037FCB1E700BFB67D00080000015BD9
S315080035D000000A50F8FF7F00436870B504460D46A0
S315080035E016461BB140F6FF7103F0ADFC2046FFF707
S315080035F0B1FEE9896B7B62690B43298A22F44C5236
S315080036000B4322F00F0213436361A2682B7B297ECA
S3150800361022F0804222F0E2020B4313436A69134305
S31508003620A360AB681BB9A36843F00043A360EB69CA
S31508003630002B72D0987A1A7A4004A16840EA825020
S315080036405A4A0A4010439A8802F4C04210435A78EC
S3150800365040EA82005A7B40EAC2009A7B40EA02109E
S315080036609A7840EA8220A060D3E90421E0680A43F8
S315080036704F4901400A43997942EA8122D97942EAB7
S315080036804122E2601A784B49012A12D1E26842F0D7
S315080036900402E2608C4265D0474A944264D002F53F
S315080036A0804294420CBF02224FF0FF324349520136
S315080036B013E0032A4ED1E26842F00402E2608C422B
S315080036C04CD03D4A94424BD002F5804294420CBFFE
S315080036D002224FF0FF323A495201114402224A604F
S315080036E05A7A04F580518A621AB1E26842F4006295
S315080036F0E260DA7A5AB1E26842F40042E2602D4AA0
S31508003700944233D11A7B2F4902F00F024A66626A45
S31508003710DB7B22F00302134363623EB196F8203046
S3150800372004F58051002B33D001230B620521204676
S31508003730FFF72EFEAA681AB120466968FFF762FEEF
S3150800374020462978FFF724FEA36CDB4313F4405F79
S31508003750FAD170BD023A012AB1D99BE70022BAE72D
S315080037600122B8E70022A1E701229FE7124A944204
S3150800377005D11A7B134902F00F020A67C7E7124AF6
S31508003780944201BF1A7B0F4902F00F02CA67BEE7CF
S31508003790E26996F8223096F8210022F009020343DE
S315080037A0134343F00103CB61C0E700BFE39BBDFFB2
S315080037B0FFF9F0870000015B00000A50C0E40350DF
S315080037C0C0D403500090035000400A5038B52B4B24
S315080037D0054698420C4642D119B98C21284803F06F
S315080037E028FB5620FEF7FAFD20F00203092B05D028
S315080037F00A2803D0A0F11003012B39D8637B032BC9
S3150800380003D9AA211E4803F014FB237B802B03D07F
S31508003810AC211B4803F00DFB6369B3F1804F03D05D
S31508003820AE21174803F005FB238A23F400539BB205
S31508003830B3F5805F03D0B021114803F0FAFAA36804
S31508003840013BB3F5165F03D3B2210D4803F0F1FA35
S3150800385021462846BDE838400022FFF7BDBE8A212A
S31508003860074803F0E6FA1CB98C21054803F0E1FA8B
S315080038709E21034803F0DDFAC0E700BF0000015BA4
S31508003880B67D000838B5154B044698420D460AD051
S31508003890134B984207D003F58043984203D0702112
S315080038A0104803F0C6FA1DB972210E4803F0C1FA92
S315080038B02B7B802B03D176210A4803F0BAFA6B7B5F
S315080038C0032B03D97921074803F0B3FA2946204682
S315080038D0BDE838400022FFF77FBE00BF0000015B4D
S315080038E000000A50B67D0008032838B504460D4680
S315080038F005D8094B33F81030CB40DB0704D440F227
S315080039002D41064803F095FA302301225C43044B07
S31508003910AA401A5138BD00BFA27E0008067E0008DC
S3150800392040D00350032838B504460D4605D8094B40
S3150800393033F81030CB40DB0704D440F2FE3106489A
S3150800394003F077FA302301225C43044BAA401A514C
S3150800395038BD00BFA27E0008067E000840E003507E
S3150800396003282DE9F04104460D461746984605D822
S315080039701D4B33F81030CB40DB0704D44FF4B0713D
S315080039801A4803F056FA37B129462046B8F1000F0F
S3150800399020D0FFF7A9FF0F21072D04EB440688BFA7
S315080039A0A5F108034FEA0616114895BFAB009B0020
S315080039B004360C3607FA03F29940304403F0E6FA67
S315080039C07FB929462046B8F1000F06D0BDE8F04178
S315080039D0FFF78ABFFFF7A6FFDDE7BDE8F041FFF76F
S315080039E0A1BFBDE8F08100BFA27E0008547E000892
S315080039F030C003504369DA01FCD4012300F50050B6
S31508003A00024A436053689B07FCD47047004000593C
S31508003A1038B5124B044698420D4604D040F2A2210E
S31508003A200F4803F006FA012204F5805361685A60CC
S31508003A30EB786A785B0443EA02232A781343AA7868
S31508003A40120402F480321343C4F89830CB0704D426
S31508003A502046BDE83840FFF7CDBF38BD00400059C5
S31508003A60AA7E00081E4B70B5984204460E461546B7
S31508003A7004D040F26A211B4803F0DBF92046FFF721
S31508003A80B9FF3378727803F0070343EAC203F27882
S31508003A90294643EA0223B2782046120102F0700250
S31508003AA013432367E26A337922F48B321B0222F42A
S31508003AB0807203F4E0631343B27943EA02437279EE
S31508003AC0120302F480521343E362FFF7A1FF0122B7
S31508003AD004F580535A60F37903B1E26070BD00BF04
S31508003AE000400059AA7E0008144B10B598420C46AF
S31508003AF004D040F27531124803F09BF974B92A20B4
S31508003B00FEF72CFB0446B0B10E4B984206D90B4B78
S31508003B109B68C3F302730133B0FBF3F40A4B04F555
S31508003B20742404F23F24B4FBF3F4601E7F2828BFF4
S31508003B307F20C0B210BD0124F0E700BF0040005945
S31508003B40AA7E0008005A620240420F0038B5154B9B
S31508003B500D469842144604D04FF46C71124803F08F
S31508003B6068F935B940F2B1310F4803F062F9B4B1DA
S31508003B70FFDE0E4B9D4228BF1D461CB92A20FEF7C4
S31508003B80EDFA04462C44013CB4FBF5F0AC4228BFE0
S31508003B9000F1FF30032828BF0320C0B238BD2546F0
S31508003BA0ECE700BF00400059AA7E0008005A6202EE
S31508003BB0F8B51F46194B0E469842144604D040F2F3
S31508003BC0EA31174803F035F926B940F2EB311448C3
S31508003BD003F02FF9FFB1134D134B012F08BF1D46F4
S31508003BE0B54228BF35461CB92A20FEF7B7FA04465F
S31508003BF09DF8183040F2FF300133B4FBF3F46B1E26
S31508003C001C44B4FBF5F3AC4228BF03F1FF339842DA
S31508003C1028BF1846F8BD054DE2E700BF0040005929
S31508003C20AA7E0008404B4C00002D31018096980072
S31508003C3013B5044601A800F007FC042C04D8064B6B
S31508003C4033F8140002B010BD044840F2974103F05F
S31508003C50F0F80020F6E700BFF87E0008AA7E000804
S31508003C602DE9F04F2DED048B0546DFF86CC38DB0BA
S31508003C7006AF0E461446BCE80F000FC79CE80300C3
S31508003C80CA4B87E803009D4203D0F121C84803F0D8
S31508003C90D0F8DFF84883002241462846FFF756FF4A
S31508003CA07779874238BF07462846FFF7A3FE30795B
S31508003CB0FFB250B92A20FEF751FA4045014628BFFF
S31508003CC0B0FBF7F12846FFF70FFFF3783A071B0119
S31508003CD002F0E04203F0300313430004327800F4A4
S31508003CE0FE0003430AB143F0020372780AB143F0B7
S31508003CF00403B2780AB143F00803AB60F38832894B
S31508003D002B61738943EA02432B62A84B9D4200F05C
S31508003D103D82012305F580556B600DB0BDEC048B23
S31508003D20BDE8F08FA349B2E0D6F880114FEA114BEF
S31508003D30012B09F1050613D9022B00F08E8140F2FA
S31508003D40F7119B4803F075F888E0D6F884111FFA36
S31508003D5081FBEDE7D6F88411E8E7D6F88011F6E797
S31508003D609244DAF84810C1F3023C0CF1FF310129FC
S31508003D70914900F2EB80DFED917AD1F880111FFAB4
S31508003D8081FA02F1B2422AF4C04102F580424FEAB2
S31508003D90814B916C0122C1F3820101F1010E02FAF5
S31508003DA00EF209EE102A1AF4004FB8EEC99AF6EE8A
S31508003DB0008A814A18BF4BF0004B002940F0138156
S31508003DC0002B40F00D81D2F88C311BB207EE103A69
S31508003DD0B8EEC77A37EE878A002840F0278105A80B
S31508003DE000F032FBDFED767ADFED766A86EE897AC9
S31508003DF0DFED756A67EE887A27EE267AF1EE006AB5
S31508003E00BBF1004F07EEA67A0BD0DFED706A07EE1E
S31508003E1090AA37EE266AFAEEE87AB0EE667A17EED8
S31508003E20867AB5EEC07AF1EE10FACBBFB1EE477AD4
S31508003E3078EEC78A37EE687AFDEEE87AC8BFFDEEF7
S31508003E40C77A17EE903AB3F5003FC0F2FC806FEAE6
S31508003E505B416FEA4141554A3301D150360106F1BB
S31508003E60B246C8F3090306F58046736009F10109ED
S31508003E701434B9F1020F3FF44CAF2378A668002B2F
S31508003E803FF450AF5249534A012B18BF1146DFF889
S31508003E901CA10022504600970393FFF789FE1FFADC
S31508003EA086F80AEB0916B16C039B21F0435121F4FD
S31508003EB01D1121F4435121F03F0103F0030C4CEA94
S31508003EC0010C617880454FEA810101F01C014CEA3A
S31508003ED0010CA17838BF80464901C9B24CEA010CE9
S31508003EE0E1782079090301F4E0414CEA01014FEA3F
S31508003EF0004C0CF4E02C41EA0C0194F810C04FEA8F
S31508003F0009124FEA4C5C0CF4600C41EA0C0194F877
S31508003F1005C04FEA0C7C0CF0405C41EA0C01B16428
S31508003F20B16C254EC1F30231013904293FF615AFAC
S31508003F300FF2040C5CF821F05B3D00085B3D0008BD
S31508003F40293D00084B3D0008553D0008BCF1030F0C
S31508003F500FD1D1F880A14FEA1A4A3BB9D1F88C1192
S31508003F60091407EE901AF8EEE77A0AE7D1F89411E1
S31508003F70F6E7BCF1040FD1F884A10AD11FFA8AFA30
S31508003F8023B9D1F88C1109144900EAE7D1F894113C
S31508003F90F9E74FEA1A4A2BB9D1F88C11091401EB43
S31508003FA04101DEE7D1F89411F8E700BF0040005957
S31508003FB0AA7E0008809698000080E00F00000000A6
S31508003FC03D3B843F00008043000020440000004938
S31508003FD0002D3101404B4C00047F0008005A620254
S31508003FE0D2F89431F1E6ABB9D2F890311BB207EEAC
S31508003FF0103AB8EEC77A77EE677A69EE286A654BA3
S3150800400087EEA67AD3F888311BB207EE903AF8EE17
S31508004010E77ADFE6D2F898311BB207EE103AB8EE27
S31508004020C77A37EE677A77EE877AE6E7D4ED037ACA
S31508004030DFED596AF8EE677A87EEA67AF7EE046A34
S31508004040C6EE877AD0E613F5003FAABFC3F311037D
S315080040504BF4003143EA0B01FDE60392FFF7E8FD56
S3150800406007EE900A9FED4C7AF8EE677A039A0CA948
S3150800407002F1B24303F580439B6C87EE875AC3F37C
S31508004080421301EB830313ED067AFCEEC77A17EEAB
S31508004090903AF7EE006A5C2B1CBF77EE267A87EE1D
S315080040A0276A07EE90BADFED3D5AF8EE677A08BF41
S315080040B09FED3B6A67EEA57A67EE867A9FED396AC9
S315080040C067EE867AF5EEC07AB6EE006AF1EE10FA79
S315080040D04CBF77EEC67A77EE867A02F1B24202F5DF
S315080040E08042136DFDEEE77A0023136517EE903ACA
S315080040F017EE901A13F4004F136DDFED2B4A18BF15
S3150800410043F000431365294B106D03EA81430343CB
S315080041101365204B9FED264AD3F88801D3F88831DA
S31508004120116D1BB207EE903AF8EEE77A77EEA47AAD
S31508004130C4EE074A37EE267AC4EE876AF7EE044AD3
S3150800414084EE857A67EE277AB1EE007A47EE876ABB
S3150800415007EE10BADFED177AB8EEC77A76EEA76AD9
S3150800416065EEC75A46EEA57AF5EEC07AF1EE10FA74
S315080041704CBF77EEC67A77EE867AFDEEE77A17EECB
S31508004180903AC3F311030B43136567E64FF0000932
S315080041906FE600BF0080E00F00007A440000003898
S315080041A0E71B753F00000047000000000000FC7F89
S315080041B000008048000000494FF480020B4B10B500
S315080041C0C3F88020BFF34F8FBFF36F8F0024FF2201
S315080041D0074B21465C6520209A625C60FDF796FFD6
S315080041E02146BDE810402120FDF790BF00E100E020
S315080041F000000450072838B504460D4603DD77212C
S31508004200084802F016FE1F2C03D99121064802F031
S3150800421010FE064A064B002D08BF13460122A2408F
S315080042201A6038BD1C7F00086A7F000840100450D9
S315080042304020045010B5044618B991211F4802F0D1
S31508004240F8FD23781B0613F0604F03D092211B4814
S3150800425002F0EFFDE3780F2B03D9A321174802F0EC
S31508004260E8FD01212020FDF751FF01212120FDF75E
S315080042704DFF0122124B5A60227812069A60617825
S31508004280A27842EA01429A61FF229A6200229A6360
S315080042901A644FF000425A654FF0FF324FF480011E
S315080042A003F500531A65074AC2F88011E3781B0123
S315080042B0DBB282F81633116010BD00BF1C7F000800
S315080042C00000045000E100E02DE9F0410126C3B2E8
S315080042D0072805460C46904606FA03F603DDEC2148
S315080042E0364802F0A6FD1CB9ED21344802F0A1FDBE
S315080042F0236823F47C1323F00F031BB1F0212F4806
S3150800430002F097FDA37A1B0413F47C0F04D040F245
S3150800431009112A4802F08DFDE37A1B0513F07E6F1A
S3150800432004D040F20B11254802F083FD237B5B0580
S3150800433013F0FE5F04D040F20D11204802F079FD1B
S315080043401F4B204F1E65AB00226803F1A04303F5FF
S3150800435088235A60302202FB0575637B2B66E37A55
S31508004360A27A1B0543EA0243227B43EA4253EB65E2
S3150800437028F003032B6702F0D5FD7B6D33437B657D
S31508004380237A13B13B6C33433B64637A13B1BB6B3B
S315080043903343BB632279A37943EA0243084A93610C
S315080043A06179E37943EA014307498B61054B566313
S315080043B09E64BDE8F04102F0BBBD00BF1C7F00084B
S315080043C000200450000004500010045010B50124C9
S315080043D0C3B2072804FA03F404DD40F2971107482C
S315080043E002F027FD02F09EFD054B5A6D22EA0402F3
S315080043F05A659C62BDE8104002F09ABD1C7F000811
S315080044000000045010B50124C3B2072804FA03F4C7
S3150800441004DD40F2B5110A4802F00BFD02F082FDF8
S31508004420084BDA6A224208D15B6B9C430CBF012415
S31508004430002402F07DFD204610BD0024F9E700BFE8
S315080044401C7F0008000004504FF48032084B5A665F
S3150800445003F5E6239B69C3F3461203F00F010A43EB
S315080044604280C3F30342C3F30333427003707047B9
S315080044700090005013B50024064A6846536F43F06F
S315080044800103536700948DF80440FEF797FE204613
S3150800449002B010BD0040005030B58BB06C46174DC9
S315080044A00FCD0FC40FCD0FC495E8030084E80300B1
S315080044B0134BD3F84C2112031CD5A3F5FE431C88D5
S315080044C04FF6FF739C4208BF72248DF81940FEF719
S315080044D0EBF9204480F308008DF818000948FCF72A
S315080044E0D5FF6846FEF7C4F83220FEF74BFA0020DF
S315080044F00BB030BDD3F85041E4B2E6E7B87F000808
S315080045000080E00FC017530230B5084D87B001ACE4
S315080045100FCD0FC42B6801A82360FEF7CBF9322014
S31508004520FEF72AFA002007B030BD00BFE07F00087A
S315080045306FF00403502110B50A480B4C13F0800F96
S3150800454003F1010207D123444F2A83F800131346C7
S31508004550F4D1002010BD03F00F03043B0344197681
S315080045601346EBE700ED00E000E100E010B5044675
S3150800457002F0D1FC024B1C6002F0D1FC002010BDF9
S315080045800C54002010B502F0C6FC034B1C6802F060
S31508004590C6FC204610BD00BF0C5400202DE9F04390
S315080045A08DB01C4606AB06468946184617460021B6
S315080045B01822149D03F01CF8227903460AB18DF8D7
S315080045C01820FB6163794FF00108C3F10203DBB2DF
S315080045D0CDE90333764B30460293764B4A46019330
S315080045E0002329460093744B8DF81E8000F0FAFAD2
S315080045F00646002840F0B080A3684146EB63E369AD
S315080046003A20EB64237E85F8483063696B64237C23
S3150800461085F84030636A6B6594F8203085F8503029
S31508004620E36AEB6594F8283085F858302368AB635D
S31508004630FDF76CFD434604226169207CFFF790F97B
S3150800464043460222E169207EFFF78AF93E7085F823
S3150800465060604146A068FDF759FD6379002B33D1A8
S3150800466041463620FDF752FDA368562B02D0B3F516
S31508004670A06F08D1514AD2F8203223F0070343F03D
S315080046800303C2F8203239462068FFF79FF8102046
S31508004690E1684B4B01F1260203EB42125060227C83
S315080046A0606903EB411342EA0042C3F8DC24E1697E
S315080046B0227E42EA0142C3F8D4242379032B75D813
S315080046C0DFE803F041244E6E3C4AD2F8283123F045
S315080046D0070343F00103C2F82831A368562B02D01A
S315080046E0B3F5A06F07D1D2F8203223F0070343F0C1
S315080046F00103C2F8203239462068FFF7C3F895F857
S31508004700603043F0040385F86030C0E7002795F869
S31508004710603043F0010385F8603002220023616AA5
S3150800472094F82000FFF71CF9616A94F82020E368E2
S3150800473042EA014241F2CC415B0103F1A04303F591
S3150800474070335A5097B90422AB6B052103F5805391
S3150800475020681A65FEF71CFE30460DB0BDE8F083EA
S3150800476095F8603043F0020385F860300023042290
S31508004770E16A94F82800FFF7F3F80220E168104B85
S3150800478001F1A60203EB421203EB411341F2D041B9
S31508004790506094F82820E06A42EA00425A50D2E76C
S315080047A095F86030012743F00303B4E72326D3E7DF
S315080047B04B700008BB700008EB70000800800050C2
S315080047C000C0035010B50020144602F015FC02285C
S315080047D004D018B1C321024802F02BFB204610BDB5
S315080047E0F47F0008302238B5037A0446534303F1B0
S315080047F0A04303F58023DD6ED0E9032313449D42CD
S3150800480001D8AA4204D94FF43E71054802F011FBBB
S31508004810D4E9030303449D4218BF284638BD00BFA8
S315080048206080000830B51446054687B01046FFF785
S31508004830D9FF6369024683423CBFD4E903315B185A
S315080048401B1AABB11249049403910021CDE9013139
S31508004850012300932846D4E9001302F002FB20B195
S315080048604FF434710B4802F0E4FA002007B030BD6B
S315080048700122627694F82D20002AF6D084F8353085
S315080048801321E369204698472046636A9847ECE770
S3150800489025480008608000082DE9F04788B00446DE
S315080048A00F461646984602F03DFB8146002E00F05C
S315080048B0AD80237E03F0FF02002B00F0E080204647
S315080048C0FFF790FF63698246984206D1637E23B953
S315080048D040F27F316B4802F0ACFA6569AA459DBF84
S315080048E0D4E903329B185D1BAAEB0505B54228BF20
S315080048F0354602F017FB94F82D308246002B40F01F
S3150800490096802A463846616902F08BFE63692E4610
S315080049102B4463612CE06069037803F0FD011129DB
S3150800492040F08280216B884205D1A3F111014B42E8
S315080049304B4184F83430013E6369216B01328B4266
S3150800494003F1010308BF236363619542E3D1D4E908
S315080049500323216B1344994208BF2263216B8A42C1
S3150800496001D88B4204D84FF46D71464802F061FABB
S31508004970D4E9032361691344994208BF62616169F6
S315080049808A4201D88B4204D84FF471713D4802F02F
S3150800499050FA0023207A6376FCF7FAFF20B140F23A
S315080049A01131384802F045FA2046FFF71BFF6369C4
S315080049B083423FD10023E568237694F82D3065615C
S315080049C003B125632046636A98472F4B04940393E3
S315080049D00023029323692A460193012300936368FF
S315080049E02168207A02F03DFA20B140F22D3125489F
S315080049F002F01FFA207AFCF7EBFF20B140F25131A2
S31508004A00204802F016FA504602F092FA4846C8F8CC
S31508004A10006002F08DFAD8F80030002B0CBF1B207E
S31508004A20002008B0BDE8F08707F8013B84E72E466A
S31508004A3000228AE70123207A23760DF11E01FDF76D
S31508004A402FF820B14FF450710E4802F0F2F99DF894
S31508004A501E30207A002BCDD00DF11F01FCF7F8FF90
S31508004A6020B140F24631074802F0E3F99DF81F10DD
S31508004A70207A0029BED12246FFF7D4FEBAE71646A9
S31508004A80C4E700BF608000082548000870B50446E2
S31508004A900568FFF777FD844202D10020FFF766FD1F
S31508004AA095F93630002B11DB012203F01F015B0953
S31508004AB09B0003F160438A4003F56143C3F88021F4
S31508004AC0C3F88020BFF34F8FBFF36F8F287AFCF7A8
S31508004AD09FFF20B14FF4ED71104802F0AAF9287A29
S31508004AE0FCF7FCFE20B14FF4EF710C4802F0A1F977
S31508004AF0FCF7D2FE38B10A4B984204D04FF4F17154
S31508004B00064802F096F900232846C4E90033C4E9AA
S31508004B100433A360AB6ABDE870401847608000089C
S31508004B20058000F02DE9F84304460D4690F82C80E0
S31508004B30DFF8AC908E18AE4228D094F82D3083B1A9
S31508004B4002F0F0F9237E07461BBB226B63699A4283
S31508004B5004D040F2F911484602F06BF9384602F0E3
S31508004B60E7F994F83430002BE5D0B8F1000F06D0F9
S31508004B702B780A2B03D10D212046E3699847204656
S31508004B80E36915F8011B98470028D4D00020BDE832
S31508004B90F8832046FFF726FEE1680138884238BFC9
S31508004BA02069D4F830C03CBF00F1FF3040180346F6
S31508004BB09C450BD013F80129112A01D0132A07D1D5
S31508004BC0A2F111035A425A4184F834202063C5E7FA
S31508004BD0994282BF236903F1FF335B18E8E700BFF8
S31508004BE060800008F0B50C460646154687B03822A0
S31508004BF0002120461F4602F0FBFC95E8030000232F
S31508004C002A692376EB6884E80300C4E904232A7D2D
S31508004C10E36084F82C20AA7D2363012384F83430CA
S31508004C2084F835300C9B84F82D2023620D9BE761B0
S31508004C3063620E9BA3622B7A84F83630204B34606D
S31508004C407360204BB360204B3361204B7361204B5C
S31508004C50F360FCF769FE30B11E4B984203D010246E
S31508004C60204607B0F0BD002104F10800FCF7E4FD7A
S31508004C700028F4D10127184B0494CDE902032369CF
S31508004C80009701936368E2682168207A02F0E9F8E0
S31508004C9004460028E3D195F90830002B0BDB03F016
S31508004CA01F025B099B0003F16043974003F56143CC
S31508004CB0C3F880711F603046FFF758FCD0E700BF85
S31508004CC0254B000899480008A7710008AD7100082F
S31508004CD08D4A0008038000F02548000881F000414D
S31508004CE002E000BF83F0004330B54FEA41044FEAC3
S31508004CF0430594EA050F08BF90EA020F1FBF54EA5E
S31508004D00000C55EA020C7FEA645C7FEA655C00F0F9
S31508004D10E2804FEA5454D4EB5555B8BF6D420CDDCA
S31508004D202C4480EA020281EA030382EA000083EA4D
S31508004D30010180EA020281EA0303362D88BF30BDED
S31508004D4011F0004F4FEA01314FF4801C4CEA113143
S31508004D5002D0404261EB410113F0004F4FEA0333A2
S31508004D604CEA133302D0524263EB430394EA050F2D
S31508004D7000F0A780A4F10104D5F1200E0DDB02FA9C
S31508004D800EFC22FA05F2801841F1000103FA0EF230
S31508004D90801843FA05F359410EE0A5F120050EF1F6
S31508004DA0200E012A03FA0EFC28BF4CF0020C43FA27
S31508004DB005F3C01851EBE37101F0004507D54FF034
S31508004DC0000EDCF1000C7EEB00006EEB0101B1F584
S31508004DD0801F1BD3B1F5001F0CD349085FEA3000CA
S31508004DE04FEA3C0C04F101044FEA445212F5800FD5
S31508004DF080F09A80BCF1004F08BF5FEA500C50F172
S31508004E00000041EB045141EA050130BD5FEA4C0C54
S31508004E10404141EB0101013C28BFB1F5801FE9D2B1
S31508004E2091F0000F04BF01460020B1FA81F308BFD4
S31508004E302033A3F10B03B3F120020CDA0C3208DDA0
S31508004E4002F1140CC2F10C0201FA0CF021FA02F17B
S31508004E500CE002F11402D8BFC2F1200C01FA02F1EB
S31508004E6020FA0CFCDCBF41EA0C019040E41AA2BF10
S31508004E7001EB0451294330BD6FEA04041F3C1CDAD8
S31508004E800C340EDC04F11404C4F1200220FA04F0F8
S31508004E9001FA02F340EA030021FA04F345EA0301A2
S31508004EA030BDC4F10C04C4F1200220FA02F001FA64
S31508004EB004F340EA0300294630BD21FA04F02946E6
S31508004EC030BD94F0000F83F4801306BF81F480117F
S31508004ED00134013D4EE77FEA645C18BF7FEA655CF2
S31508004EE029D094EA050F08BF90EA020F05D054EAC4
S31508004EF0000C04BF1946104630BD91EA030F1EBFC9
S31508004F000021002030BD5FEA545C05D140004941CC
S31508004F1028BF41F0004130BD14F580043CBF01F5BF
S31508004F20801130BD01F0004545F0FE4141F47001A5
S31508004F304FF0000030BD7FEA645C1ABF1946104680
S31508004F407FEA655C1CBF0B46024650EA013406BF81
S31508004F5052EA033591EA030F41F4002130BD00BF40
S31508004F6090F0000F04BF0021704730B54FF48064FD
S31508004F7004F132044FF000054FF0000150E700BF7E
S31508004F8090F0000F04BF0021704730B54FF48064DD
S31508004F9004F1320410F0004548BF40424FF00001CA
S31508004FA03EE700BF42004FEAE2014FEA31014FEA0D
S31508004FB002701FBF12F07F4393F07F4F81F060515C
S31508004FC0704732F07F4208BF704793F07F4F04BFA7
S31508004FD041F40021704730B54FF4607401F0004584
S31508004FE021F000411CE700BF50EA010208BF7047E4
S31508004FF030B54FF000050AE050EA010208BF7047D5
S3150800500030B511F0004502D5404261EB41014FF43D
S31508005010806404F132045FEA915C3FF4D8AE4FF045
S3150800502003025FEADC0C18BF03325FEADC0C18BF28
S31508005030033202EBDC02C2F1200300FA03FC20FA79
S3150800504002F001FA03FE40EA0E0021FA02F11444C6
S31508005050BDE600BF70B54FF0FF0C4CF4E06C1CEADF
S3150800506011541DBF1CEA135594EA0C0F95EA0C0F50
S3150800507000F0DEF82C4481EA030621EA4C5123EAC3
S315080050804C5350EA013518BF52EA033541F48011F2
S3150800509043F4801338D0A0FB02CE4FF00005E1FBA5
S315080050A002E506F00042E0FB03E54FF00006E1FBEF
S315080050B003569CF0000F18BF4EF0010EA4F1FF0432
S315080050C0B6F5007F64F5407404D25FEA4E0E6D4172
S315080050D046EB060642EAC62141EA55514FEAC52083
S315080050E040EA5E504FEACE2EB4F1FD0C88BFBCF5FF
S315080050F0E06F1ED8BEF1004F08BF5FEA500E50F1B0
S31508005100000041EB045170BD06F0004646EA010175
S3150800511040EA020081EA0301B4EB5C04C2BFD4EBA7
S315080051200C0541EA045170BD41F480114FF0000EA0
S31508005130013C00F3AB8014F1360FDEBF002001F00E
S31508005140004170BDC4F10004203C35DA0C341BDC88
S3150800515004F11404C4F1200500FA05F320FA04F05A
S3150800516001FA05F240EA020001F0004221F000418E
S3150800517010EBD37021FA04F642EB06015EEA430E01
S3150800518008BF20EAD37070BDC4F10C04C4F1200531
S3150800519000FA04F320FA05F001FA04F240EA0200E4
S315080051A001F0004110EBD37041F100015EEA430EB5
S315080051B008BF20EAD37070BDC4F1200500FA05F2D5
S315080051C04EEA020E20FA04F301FA05F243EA020354
S315080051D021FA04F001F0004121FA04F220EA020063
S315080051E000EBD3705EEA430E08BF20EAD37070BDA9
S315080051F094F0000F0FD101F00046400041EB010189
S3150800520011F4801F08BF013CF7D041EA060195F06A
S31508005210000F18BF704703F00046520043EB030324
S3150800522013F4801F08BF013DF7D043EA0603704711
S3150800523094EA0C0F0CEA135518BF95EA0C0F0CD01C
S3150800524050EA410618BF52EA4306D1D181EA030162
S3150800525001F000414FF0000070BD50EA410606BF5C
S315080052601046194652EA430619D094EA0C0F02D1A1
S3150800527050EA013613D195EA0C0F05D152EA0336E6
S315080052801CBF104619460AD181EA030101F0004104
S3150800529041F0FE4141F470014FF0000070BD41F04D
S315080052A0FE4141F4780170BD70B54FF0FF0C4CF427
S315080052B0E06C1CEA11541DBF1CEA135594EA0C0F46
S315080052C095EA0C0F00F0A7F8A4EB050481EA030E93
S315080052D052EA03354FEA013100F088804FEA03337A
S315080052E04FF0805545EA131343EA12634FEA022248
S315080052F045EA111545EA10654FEA00260EF0004109
S315080053009D4208BF964244F1FD0404F5407402D25A
S315080053105B084FEA3202B61A65EB03055B084FEAEB
S3150800532032024FF480104FF4002CB6EB020E75EBE8
S31508005330030E22BFB61A754640EA0C005B084FEA10
S315080053403202B6EB020E75EB030E22BFB61A75468D
S3150800535040EA5C005B084FEA3202B6EB020E75EBD8
S31508005360030E22BFB61A754640EA9C005B084FEA50
S315080053703202B6EB020E75EB030E22BFB61A75465D
S3150800538040EADC0055EA060E18D04FEA051545EA4C
S3150800539016754FEA06164FEAC30343EA52734FEAF5
S315080053A0C2025FEA1C1CC0D111F4801F0BD141EA6E
S315080053B000014FF000004FF0004CB6E711F4801FD3
S315080053C004BF01430020B4F1FD0C88BFBCF5E06FB3
S315080053D03FF6AFAEB5EB030C04BFB6EB020C5FEAC3
S315080053E0500C50F1000041EB045170BD0EF0004E18
S315080053F04EEA113114EB5C04C2BFD4EB0C0541EA4A
S31508005400045170BD41F480114FF0000E013C90E646
S3150800541045EA060E8DE60CEA135594EA0C0F08BF0A
S3150800542095EA0C0F3FF43BAF94EA0C0F0AD150EA09
S3150800543001347FF434AF95EA0C0F7FF425AF10469C
S3150800544019462CE795EA0C0F06D152EA03353FF4C4
S31508005450FDAE1046194622E750EA410618BF52EA41
S3150800546043067FF4C5AE50EA41047FF40DAF52EA15
S3150800547043057FF4EBAE12E708B5064B044613B1B5
S315080054800021AFF30080044B1B6803B19847204600
S3150800549001F06CFE00000000485500202DE9F04F91
S315080054A08DB00C4616461F46DDF85880054600F0B6
S315080054B01DFD03681846049302F0C0F80023059002
S315080054C00A93D8F8003094F818A00733D4F800B037
S315080054D023F0070303F10802C8F800204FF0FF3253
S315080054E0D3E9008929F00043CDF8188007939C4B2F
S315080054F0DDE90601C4E9128901F09AFB70BB4FF099
