:020000040800F2
:1000000000100020AD140008856F0008856F0008FF
:10001000856F0008856F0008856F0008856F0008F0
:10002000856F0008856F0008856F0008856F0008E0
:10003000856F0008856F0008856F0008856F0008D0
:10004000856F0008856F0008856F0008856F0008C0
:10005000856F0008856F0008856F0008856F0008B0
:10006000856F0008856F0008856F0008856F0008A0
:10007000856F000885140008A96E0008856F0008C8
:10008000856F0008856F0008856F0008856F000880
:10009000856F0008856F0008491C0008856F0008FF
:1000A000856F0008856F0008856F0008856F000860
:1000B000856F0008856F0008856F0008856F000850
:1000C000856F0008856F0008856F0008856F000840
:1000D000856F0008856F0008856F0008856F000830
:1000E000856F0008856F0008856F0008856F000820
:1000F000856F0008856F0008856F0008856F000810
:10010000856F0008856F0008856F0008856F0008FF
:10011000856F0008856F0008856F0008856F0008EF
:10012000856F0008856F0008856F0008856F0008DF
:10013000856F0008856F0008856F0008856F0008CF
:10014000856F0008856F0008856F0008856F0008BF
:10015000856F0008856F0008856F0008856F0008AF
:10016000856F0008856F0008856F0008856F00089F
:10017000856F0008856F0008856F0008000000008B
:100180002DE9F0434FF400622DED028B064600246A
:10019000002500274FF00109294BDFF8B48083B018
:1001A000C3F8A020B74226D1002220462946254B7D
:1001B00004F0DEFF02460B4643EC182B1CA3D3E9E8
:1001C000002304F0D5FF1CA3D3E9002305F0FAF8BF
:1001D00002460B461C4805F0C3FE4FF40062B0EE29
:1001E000480AF0EE680A194BC3F8A02003B0BDEC32
:1001F000028BBDE8F083C8F80C90D8F8143003F4F3
:10020000A073B3F5807FF8D14146684606F0A4FF9D
:10021000009804F043FF02460B462046294604F0AE
:10022000F1FD013704460D46BCE700BFAFF3008087
:100230006666666666661A400000000000FEAF4013
:1002400000D003500000503F407D000800E0035004
:1002500000400059000000002DE9F743664801F016
:100260004BF8664805F07CFE00F096FF0028FBD1B5
:1002700000F092FF0028FBD0614805F071FE4FF4BA
:100280008060FFF77DFF5F4855EC104B05F068FE7E
:1002900000F082FF0028FBD100F07EFF0028FBD099
:1002A000574805F05DFE4FF48060FFF769FF204678
:1002B00053EC102B294604F0A3FD02460B4648A13F
:1002C000D1E9000105F07EF800224F4B06460F46AB
:1002D00005F0D4F9002200286DD04B4B304639464A
:1002E00004F08EFD0022494B04F042FF0022484BEF
:1002F00004F088FD05F0FEF90546800440F000405A
:1003000000F0FAFF4FF48060FFF73AFF002251EC53
:10031000100B404B04F02CFF05F0C4F93A4B00F3EE
:10032000110400223046394605F0A8F9AD04C4F3A3
:100330001103002851D02B4343F0004000F0DCFFB4
:100340000FF2A409D9E900890146334805F008FEF7
:10035000324E334805F016FE00F01EFF0028FBD198
:1003600000F01AFF0028FBD00123F360736903F447
:10037000A073B3F5807FF9D16D462A4C31462846EB
:1003800006F0EAFE95E8030084E80300206804F024
:1003900085FE42464B4604F0EBFE15A3D3E900234D
:1003A00005F010F8204BC3E900012048D3E90023F1
:1003B00005F0D6FDCDE71E4B3046394604F020FD52
:1003C0000022124B04F0D4FE0022114B04F01AFD5F
:1003D00005F090F90546800492E743EA0500ADE791
:1003E0000000000000FC9F406666666666661A4074
:1003F0000000000000FEAF4000000280D97D000830
:10040000047E0008107E00080000F03F0000E0407D
:100410000000E03F000070C0387E00080040005936
:10042000567E000810120020F0110020417D0008C7
:100430000000E83F000000002DE9F04FC76997B0C9
:100440008346209E08910C92129355EC104B8DED33
:10045000000B7FB9102005F05FFF0246CBF81C00AF
:1004600020B9A74BEF21A74806F06EFCC0E9017741
:100470000760C760DBF81C30196859B15A6801235E
:10048000584693404A608B6006F034F8DBF81C3025
:1004900000221A602B1EB7BF23F000430023012265
:1004A0000193A8BF3360019F974BB8BF3260BB4335
:1004B00019D142F20F73129A1360C7F31303234347
:1004C00000F0DB85219B53B9904B21E0904B0393C7
:1004D0000833219A1360039817B0BDE8F08F8B4B57
:1004E00003930333F5E79DED007B0022002351ECDD
:1004F000170B8DED0A7B05F0A3F8804650B1012360
:10050000129A1360219B13B1824B219A1360824B84
:100510000393E0E7C7F30A5614AA15A958469DEDC0
:100520000A0B06F06FFA0290002E76D00B9BA6F213
:10053000FF36CDF84C80C3F3130343F07F53DDE95E
:100540000A0143F4401319460022744B04F058FC8E
:1005500065A3D3E9002304F00BFE65A3D3E90023D0
:1005600004F050FC04460D46304604F097FD62A3AB
:10057000D3E9002304F0FCFD02460B462046294641
:1005800004F040FC04460D4605F08CF800220746B6
:1005900000232046294605F05DF840B1384604F0B6
:1005A0007DFD22462B4605F04BF800B9013F162F82
:1005B00052D85B4B03EBC703DDE90A01D3E9002303
:1005C00005F048F8002849D0013F00231193149BFF
:1005D0009B1B5A1E4CBFC3F101030023079245BF6A
:1005E0000693002306930793002F39DB079B109790
:1005F0003B44079300230993089B092B66D8052BDE
:10060000C5BF043B002401240893089B023B032B35
:1006100067D8DFE803F02D3A3859DDE914631E444A
:1006200006F23243202BC9BFC3F14003C3F12003BC
:100630009F4006F21243D8BF04FA03F006F1FF36DA
:10064000C4BF24FA03F347EA030004F017FD0122B4
:10065000A1F1F873139276E70123B7E71190B6E79B
:10066000069BDB1B06937B42099300231093C3E791
:1006700000230D930C9B002B56DC012399461A4650
:1006800004930C920CE00123F3E700230D930C9BE1
:10069000FB1803F1010904934B46012BB8BF01235A
:1006A000DBF81C000021042202F114059D423FD911
:1006B0004160584605F0DEFE039000283BD1194BFF
:1006C000024640F2AF11CEE60123DFE7012400230A
:1006D0000D9408934FF0FF330022994604931223A0
:1006E000CFE701230D93F5E761436F63A787D23FFF
:1006F000B3C8608B288AC63FFB799F501344D33F11
:10070000DC830008F38300080000F07FD883000832
:10071000CF830008AC830008AB8300080000F83FDB
:10072000F08400084C8400080C9B99460493B7E7BA
:1007300001315200B8E7DBF81C30B9F10E0F039A13
:100740001A606FD8002C6DD0002F36DD07F00F0235
:10075000A04BF8054FEA271403EBC20393ED007B8F
:100760008DED0E7B17D59C4B04F00F044FF0030862
:10077000D3E90823DDE90A0104F024FECDE90001F4
:10078000954D5CB9DDE90E23DDE9000104F01AFEA8
:10079000CDE900012BE04FF00208F1E7E10709D5B0
:1007A00008F10108DDE90E01D5E9002304F0E0FCC1
:1007B000CDE90E0164100835E3E700F007817C42C3
:1007C000844B854D4FF0020804F00F02241103EB17
:1007D000C203DDE90A01D3E9002304F0C9FC0023C8
:1007E000CDE90001002C40F0E580002BD0D1119B19
:1007F000DDE90045002B00F04C810022774B2046BC
:10080000294604F027FF002800F04381B9F1000FCA
:1008100000F03F81049B002B00F3E480DDE90A3403
:10082000CDE90034159B002B02DB0E2F40F34282F2
:100830000D9A002A40F06782099C0025DDF8188097
:10084000B8F1000F0DD0079B002B0ADD4345069A37
:10085000A8BF4346D21AA8EB03080692079AD31AF8
:100860000793099B0BB30D9B002B00F0A682002C75
:1008700000F0A18229462246584605F065FF029AFB
:1008800001460546584605F0B5FE0299064658460B
:1008900005F030FE099B1B1B099300F09182099A19
:1008A0003146584605F050FF02900121584605F0A8
:1008B0008BFE109B0446002B00F084821A460146F2
:1008C000584605F041FF089B0446012B03DC009BC2
:1008D000002B00F07C820026236904EB8303186957
:1008E00006F0FEFFC0F120001096079B184410F0A0
:1008F0001F0000F09182C0F12003042B40F381829D
:10090000C0F11C00069B034480440693079B0344EC
:100910000793069B002B05DD1A460299584605F001
:100920006DFF0290079B002B05DD21461A465846B5
:1009300005F064FF0446119B002B00F076822146EF
:10094000029807F01CF8002880F26F8200230A2228
:100950000299584605F0F0FD0D9B7E1E0290002B7B
:1009600000F05C82002329460A22584605F0E4FD87
:10097000049B0546002B03DC089B022B00F35E82E0
:10098000B8F1000F05DD29464246584605F036FF0E
:100990000546109B002B00F0D0826968584605F090
:1009A00069FD0746002840F07F820D4B024640F269
:1009B000EF2158E5E20706D508F10108D5E9002343
:1009C00004F0D6FB0123641008350BE74FF0020852
:1009D0000DE700BFF0840008C88400080000F03F65
:1009E0004C84000820460022AC4B294604F0C0FB92
:1009F0007E1E08F10108049CCDE90001404604F088
:100A00004DFBDDE9002304F0B3FBA54B002204F00D
:100A1000F9F9A1F15073CDE90E010F93002C3BD1F0
:100A20000022A04BDDE9000104F0EAF902460B4682
:100A3000CDE90023DDE90E2304F02AFE002840F072
:100A40005781DDE90E2101F10043DDE9000104F0E9
:100A500001FE00283FF4E2AE002425460C9BDDF8A1
:100A60000CA0DE434FF000082146584605F042FD39
:100A7000002D00F0A980B8F1000F05D0A84503D0E3
:100A80004146584605F036FD2946584605F032FDE8
:100A90009AE03E464C46B1E7834B03EBC40353E96F
:100AA0000201039B1C440D9B002B4AD002460B46BF
:100AB00000207E4904F086FCDDE90E2304F0A0F955
:100AC000DDF80CA0CDE90E01DDE9000104F0EAFD3E
:100AD000054604F0E3FA024630350B46DDE9000135
:100AE00004F08EF90AF8015B02460B46CDE90001DD
:100AF000DDE90E0104F0CCFD002865D100206C4931
:100B0000DDE9002304F07CF902460B46DDE90E0125
:100B100004F0BEFD002840F00D81A24500F0EA80FF
:100B200000225E4BDDE90E0104F022FB00225B4B4C
:100B3000CDE90E01DDE9000104F01AFBCDE9000169
:100B4000C2E7DDE90E2304F013FBA046DDF80CA09C
:100B5000CDE90E01DDE9000104F0A4FD054604F035
:100B60009DFA024630350B46DDE9000104F048F9F4
:100B70000AF8015B02460B46A245CDE900234FF07F
:100B8000000223D1494BDDE90E0104F03BF9024696
:100B90000B46DDE9000104F07BFD002840F0CA802F
:100BA00000204249DDE90E2304F02AF902460B46F3
:100BB000DDE9000104F04EFD70B1C24608F1FF38D6
:100BC0001AF8013C302BF8D0374655E0334B04F08F
:100BD000CFFACDE90001BDE7DDE90A34CDE9003403
:100BE000159B002BFFF628AE0E2F3FF725AE2E4BA0
:100BF00003EBC70393ED007B0C9B002B8DED047B77
:100C000002DAB9F1000F64D0DDF80CA0DDE900458F
:100C1000DDE904232046294604F0D4FB04F042FD1C
:100C2000064604F03BFADDE9042304F0A1FA02468B
:100C3000204606F130040B46294604F0E1F80AF894
:100C4000014B039C02460B46AAEB0404A14540F06D
:100C5000828004F0D7F804460D46DDE9042304F051
:100C600017FD002865D120462946DDE9042304F05C
:100C7000E7FC08B1F3075CD40299584605F03AFC4A
:100C8000002301378AF80030129B1F60219B002B44
:100C90003FF421ACC3F800A01DE400BF00002440D5
:100CA00000001C4000001440F08400080000E03FF9
:100CB0000000F03FA24B03EBC70393ED007B0C9BBE
:100CC000002B8DED047B9FDAB9F1000F9CDC7FF4E3
:100CD000C3AE00229B4BDDE9040104F049FADDE9D3
:100CE000002304F0CBFC044600287FF4B5AE3E465A
:100CF0002546B4E0DDE90A34CDE90034159B002B2C
:100D000001DB0E2FD6DD089A012A36DC139A82B356
:100D100003F23343099CDDF81880069A01215846F6
:100D20001A440692079A1A44079205F04DFC0546AC
:100D300086E53E4653469A4613F8012D392A06D1D8
:100D4000039A9A42F7D13022039901360A701A7831
:100D500001321A7038E700227B4B04F009FA0022B6
:100D6000002304460D4604F06BFC00283FF450AF0E
:100D700082E7149BC3F13603CCE709F1FF34099BEA
:100D8000A34208DBB9F1000FA3EB04040EDBDDF88E
:100D900018804B46C1E7099B109AE31A0994DDF8C5
:100DA000188000241A444B461092B6E7069BA3EB2A
:100DB00009080023B1E7029E71E5099A029970E5DE
:100DC000029672E5089B012B17DC009BABB9019BD7
:100DD000C3F313039BB9019B23F00046360D360580
:100DE00036B1069B012601330693079B0133079317
:100DF000109B002B7FF470AD1096012075E5002646
:100E0000F6E73FF486AD1C33069A1A4498440692DE
:100E1000079A1A4407927CE50346F4E7049B002BEB
:100E20002BDC089B022B09DC27E0B9F1000F1DDC4D
:100E3000089B022B1ADD3E46CDF81090049B002B38
:100E40007FF40CAE21460522584605F075FB01469D
:100E50000446029806F093FD00287FF7FFADDDF809
:100E60000CA0312301360AF8013BFBE50D9B3E4601
:100E7000CDF81090002B7FF483AD039F214602989C
:100E800006F0A1FC039B00F13009049A07F8019BCE
:100E9000FB1A9A4240F3CB8000230A22029958465B
:100EA00005F04AFB0290E9E72A6905F10C010C30D4
:100EB0000232920006F072FC01223946584605F0D3
:100EC0009DFC039BA846054603F1010ADDE90323C7
:100ED00013440793009B03F0010309930AF1FF33C6
:100EE00021460298049306F06EFC4146069000F1FC
:100EF0003009029806F043FD2A4621460746584627
:100F000005F0E8FCC268014602B3584605F0F2FA63
:100F1000002F3ADA01220299584605F06FFC21466B
:100F2000029006F02CFD002803DC29D119F0010FF6
:100F300026D0B9F1390F1DD132E02846C1E700BFF4
:100F4000F084000800001440000024400A90029839
:100F500006F015FD0A990C90584605F0CBFA0C9A4C
:100F60005ABB089B53B9099B43B9B9F1390F17D044
:100F7000002F05DD069B03F1310901E0002F2ADA7D
:100F8000DDF810A00AF8019B6EE5089B3B4304D1F5
:100F9000009B03F00103002BBCD0B9F1390F36D10F
:100FA000049F392307F8013BBA46013F1AF8013C78
:100FB000392B5AD001333B7056E5002F06DB089BD6
:100FC0003B4306D1009B03F0010313B9002AA1DCC7
:100FD000D6E7002AE1DC079B57460AF8019C5345F7
:100FE0002ED000230A220299584605F0A5FAA845FA
:100FF00002904FF000034FF00A02414658460BD1D1
:1010000005F09AFA804605460AF1010A66E7DDF81E
:1010100010A009F10109B5E705F08EFA29468046CE
:1010200000230A22584605F087FA0546ECE7049BA0
:101030004FF00008002BCCBF1F460127039B1F4425
:1010400001220299584605F0D9FB2146029006F08C
:1010500096FC0028A8DC02D119F0010FA4D1BA46F1
:1010600017F8013D302BFAD0FEE4039BBB429BD125
:101070003123039A01361370F6E4219B002B7FF491
:1010800025AA014BFFF744BACF8300080348044B5D
:10109000834202D0034B03B118477047F011002080
:1010A000F011002000000000064B0749C91A891002
:1010B00048BF0131491003D0044B0BB10148184718
:1010C000704700BFF0110020F01100200000000068
:1010D00010B5064C237843B9FFF7D8FF044B13B182
:1010E0000448AFF300800123237010BD6015002079
:1010F000000000001086000808B5054B1BB105492B
:101100000548AFF30080BDE80840FFF7CDBF00BF42
:1011100000000000F811002010860008A3F5803AB6
:10112000704700BF174B002B08BF134B9D46FFF7BE
:10113000F5FF00218B460F461348144A121A06F099
:1011400014FB0E4B002B00D098470D4B002B00D00A
:1011500098470020002104000D000D48002802D00F
:101160000C48AFF3008005F069F82000290005F075
:1011700067FE04F0DFFA00BF000008000000000076
:101180000000000000100020F01100208815002051
:101190000000000000000000024B586FC0F3400048
:1011A000704700BF00C00350F0B5264D93B008ACA7
:1011B0000FCD0FC40FCD0FC495E80300002684E8BF
:1011C00003000327012102251F4C2A20CDE90366D5
:1011D0000291CDE9056607968DF80E7001F040F892
:1011E00002214FF4B06001F01DFD32462046174940
:1011F0008DF8175002F054FD40F6E44332468DF866
:1012000019000B930090334620461149ADF8206039
:101210008DF823508DF8247002F074FD44F2011310
:101220000A9008AA204605A9ADF808308DF8255087
:1012300002F0C0FD204602AA03A902F0BDFC13B0D3
:10124000F0BD00BF707E000800400059002D310144
:1012500080969800002370B5224C1946206892B001
:101260000222806804F096FE0023206802221946BC
:10127000406804F08FFE01AA15461B4B03F11806C7
:10128000144618685968083303C4B3422246F7D19C
:1012900019889B782180A370144C1A222946206853
:1012A00005F067FF206803F0EFF908AA1546104B18
:1012B00003F12006144618685968083303C4B34282
:1012C0002246F7D1186899889B7926222060A18050
:1012D000A3712946002005F04CFF064804F052FE99
:1012E00012B070BD24100020977D0008001000206F
:1012F000B27D0008467D00080122064B5A60A3F526
:1013000000535A689207FCD401221865024B5A60B8
:10131000704700BF006000590050005910B5274CBD
:1013200001F042FA05F096FE236F23F0070343F025
:101330000303236705F099FE214B00209B6ADB0124
:101340005EBF4FF480321F4B9A62D4F8203123F0F5
:10135000070343F00203C4F82031D4F8283123F006
:10136000070343F00203C4F82831D4F8403123F0D6
:10137000030343F00203C4F84031D4F8603123F092
:10138000030343F00203C4F86031D4F8403223F081
:10139000030343F00203C4F84032D4F8003223F0D0
:1013A000070343F00203C4F80032D4F8083223F0F4
:1013B000070343F00203C4F8083210BD0080005058
:1013C0000040005A0060005A30B5274D9DB008AC6F
:1013D0000FCD0FC495E80F0084E80F002C220021E8
:1013E00011A806F0C2F9214B572210930123CDE931
:1013F00012238DF8453003230E2407228DF8503038
:101400008DF858300823002115920DF11200224664
:10141000179306F0AAF94FF48812154B1548CDE939
:1014200002230D238DF81030134B08AA05932023B7
:10143000069340F20113ADF81C30104B02A9009343
:1014400010AB8DF8114003F037F9044618B17C2138
:101450000B4805F0ABFD00214FF4E13005F083FDB2
:1014600020461DB030BD00BFC87E000800000A50F5
:101470003C000A507C120020611500201812002048
:10148000987E0008014805F0F3BE00BF7C120020E2
:101490000348044A0449121A921005F074BD00BFB3
:1014A00014880008148800088815002008B500F08A
:1014B0002FF8FFF7EDFF124B12498B4212D3002099
:1014C000114B12498B4218D3FFF72CFE186850F8C5
:1014D0002240586840F82240013298688242F5D391
:1014E0000C33EAE70022F8E71C6844F822000132D6
:1014F0005C68A242F8D30833E4E70022F8E700BFB3
:10150000188600082486000824860008248600081F
:101510004FF480414FF0FF30114B124A10B59A60E2
:10152000D3F8882042F47002C3F888200E4A9166EE
:101530000E4901F5005210660D4850660220C3F8AE
:10154000D000BFF34F8FBFF36F8F01244FF44033B0
:101550000848C0F88041D36004600B6110BD00BF33
:1015600000ED00E000000008009000500080004402
:101570007FFF7F0300E100E0014B1868704700BF68
:1015800008100020084B1B6F03F00703022B04D048
:10159000032B05D0012B05D0FEE7044B18687047DC
:1015A000034BFBE703487047008000500810002001
:1015B00010100020002D310108B5FFF7E3FF054BA7
:1015C0001B6FC3F303330133B0FBF3F0024B18601E
:1015D00008BD00BF00800050041000200048704784
:1015E00000B4C404014B1868704700BF10100020FD
:1015F000054B1860054B1B6F03F00703032B01D14C
:10160000FFF7DABF704700BF1010002000800050C5
:1016100000487047002D31014FF0B4439868C0F383
:1016200004400C280AD8DFE800F00B090909090971
:10163000072119091B1D1F000F4870470020704724
:101640009B6803F04073B3F1807F11D0B3F1007F4A
:1016500010D00A4A002B08BF104670470848704750
:10166000084870470848704708487047084870475E
:101670000848704708487047405DC60000093D00B3
:10168000C0EA210180BA8C010048E801005A6202D8
:101690000024F40080841E0040420F00014B1868B3
:1016A000704700BF0C1000200346054A054910682A
:1016B00003448B428CBF4FF0FF301360704700BF74
:1016C000141000200000042008B501213A2000F089
:1016D000C7FD012304220321002002F0EBF90020C2
:1016E00005F020FD0122354B3549C3F844244FF461
:1016F0000022A3F550335A66324BD3F8FC20D201B6
:1017000046D4D1F8803023F0030343F00203C1F83C
:1017100080304FF4607000F0CBFD2A4B00F5D520EF
:10172000D3F8F02000F2FC4042F00102C3F8F020B0
:10173000D3F8FC2042F08072C3F8FC20224AA3F5C3
:101740005D431A60214B0222B0FBF3F0204B0138BD
:101750001861C3F8F0204FF48072C3F804234FF0EF
:1017600060431C4A0020C3F8B02F1B4AC3F8802EE8
:10177000D3F8002E42F48072C3F8002EFF2283F8C3
:101780002020D3F8002E22F48072C3F8002E08BD6A
:10179000D3F8FC2022F08072C3F8FC20D1F880201E
:1017A00022F0030242F00202C1F88020D3F8FC20AC
:1017B00042F08072C3F8FC20ABE700BF00D00350BA
:1017C0000080005000ED00E0FF030040F8590D00DC
:1017D000000004E055CEACC5090001004FF06043A5
:1017E000D3F8802E30B5D20715D501240B4D844097
:1017F000D5F8FC2042F08072C5F8FC20D3F8002E0A
:101800002243C3F8002E53F82020002AF0D003F81A
:101810002010002030BD1120FCE700BF00ED00E0EB
:101820002DE9F04F9A46564B85B01B7806460F4679
:101830001546DDF83C909DF844B0DDF85080002B53
:1018400000F09780072A00F296800E9B002B00F094
:101850009280B9F1000F00F08E80129BB3F5006FFB
:1018600000F38980012803D1109B002B00F08380B6
:10187000444B03EB05131B7B002B7ED0424C102204
:101880000021684605F071FF04EB45141022A7BB48
:101890003946204605F069FF43F210036380BBF12F
:1018A000000F03D1E37843F00303E370364A0E9B45
:1018B00002EB451CCCE90193129B6901581E9DF86F
:1018C0004C30C0F30A0003F003039B0643EA001EFA
:1018D00053582E48012E00EA03004EEA0003CDF8CB
:1018E00000A0535017D0B8F1000F2ED19CF8023051
:1018F00068F304138CF8023027E00021204605F03D
:1019000034FF4FF444736380BBF1000FCED1E37812
:1019100043F03003C9E713230CF1100ECCF80C3060
:101920009CE80F008EE80F006FF00301DCF81C202C
:10193000109B61F39F02012FCCF81C20CCF81430CF
:1019400003D1CCF81890CCF8043000270D4A2901B7
:1019500002EB051342F80180159A28465A60694641
:1019600022469F605E7302F03DFD384605B0BDE83B
:10197000F08F0748FAE70748F8E70748F6E700BF9F
:101980008115002094130020941200200F80FFF393
:10199000028000F0018000F0078000F038B5124BA3
:1019A00005461B78DBB1E0B105F079FB0F4A002357
:1019B0001146147B54B92B6001251A0101EB031366
:1019C0001D738C5005F071FB204638BD0133082B88
:1019D00002F11002EDD105F068FB0548F5E7054876
:1019E000F3E70548F1E700BF8115002094130020BC
:1019F000048000F0028000F0018000F038B505F0AE
:101A00004EFB002305460B4A147B6CB90133082BAF
:101A100002F11002F8D102F05DFC074B28461C7061
:101A200005F043FB204603E0284605F03EFB034853
:101A300038BD00BF9413002081150020058000F000
:101A40000D4B10B51B78044693B1072812D805F04A
:101A500026FB0A4B03EB04131A7B2AB100241C73E8
:101A600005F023FB204610BD05F01FFB0448FAE7F4
:101A70000448F8E70448F6E7811500209413002095
:101A8000068000F0028000F0018000F0154B13B5D5
:101A90001868002301908DF8043005F000FB124B0C
:101AA0001C7824B105F001FB104802B010BD0122E2
:101AB0001A7005F0FAFA0E4B01A81C731C7783F814
:101AC0002C4083F83C4083F84C4083F85C4083F81A
:101AD0006C4083F87C4008238DF8073002F038FC16
:101AE0002046E2E7E87E000881150020038000F030
:101AF000941300200A4A08B512785AB107280BD867
:101B0000084A02EB00131B7B43B1002102F000FCEA
:101B1000002008BD0448FCE70448FAE70448F8E759
:101B20008115002094130020028000F0018000F055
:101B3000078000F00A4A08B512785AB107280BD876
:101B4000084A02EB00131B7B43B1012102F0E0FBCA
:101B5000002008BD0448FCE70448FAE70448F8E719
:101B60008115002094130020028000F0018000F015
:101B7000078000F00A4A08B5127852B107280AD83F
:101B8000084A02EB00131B7B3BB102F0ADFC0020C6
:101B900008BD0548FCE70548FAE70548F8E700BF37
:101BA0008115002094130020028000F0018000F0D5
:101BB000078000F00D4B1B7893B1072812D889B12C
:101BC0000B4B03EB00131B7B73B10A4B1A6D012304
:101BD0008340134214BF0123002300200B70704781
:101BE0000548704705487047054870478115002033
:101BF0009413002000000450028000F0018000F0E7
:101C0000078000F00B4A10B512780C4662B1072825
:101C10000CD859B1084A02EB00131B7B43B102F008
:101C20007FFC2070002010BD0448FCE70448FAE760
:101C30000448F8E78115002094130020028000F08A
:101C4000018000F0078000F0084A136D526D1A40C1
:101C500000D5FEE70821012305481A4218BF036595
:101C600001394FEA4303F8D1704700BF0000045028
:101C700000200450044BD3F88420D206FBD4D3F8C0
:101C80008400C0F3811070470040005038B5124BFB
:101C90000546D3F880300C4603F00303022B0BD02B
:101CA000032B0DD0012B0FD1FFF76CFC0D2305B1D9
:101CB000286004B1236038BDFFF7AEFC0723F6E7C8
:101CC000FFF75AFC0623F2E7044841F2DF1105F062
:101CD0006DF900231846EAE700800050EC7E00080A
:101CE00038B51A4B0546D3F820010C4600F0070022
:101CF000062821D8DFE800F028040C1410181C0076
:101D0000FFF73AFC052305B1286004B1236038BD14
:101D1000FFF768FC0323F6E7FFF77EFC0723F2E7F3
:101D2000FFF776FC0223EEE7FFF726FC0623EAE73F
:101D3000FFF758FC0423E6E7054841F25C2105F073
:101D400035F900231846DEE70123DCE70080005068
:101D5000EC7E000838B5194B0546D3F828310C46FF
:101D600003F00703013B052B20D8DFE803F0031342
:101D70001B0F0B17FFF700FC052305B1286004B10A
:101D8000236038BDFFF7F8FB0623F6E7FFF744FCB6
:101D90000723F2E7FFF726FC0323EEE7FFF722FC19
:101DA0000423EAE7FFF734FC0223E6E7044841F2A4
:101DB000640105F0FBF800231846DEE700800050C0
:101DC000EC7E0008F7B50027144B0197D3F880414B
:101DD000064604F00304022C0D4614D0032C0DD04B
:101DE000012C14D1394601A8FFF77AFF0F240EB158
:101DF000019B336005B12C6003B0F0BDFFF70CFC14
:101E000007240190F3E7FFF703FC0190EFE741F2AD
:101E1000B131034805F0CAF83C46E8E700800050BD
:101E2000EC7E000838B50F4B0546D3F890320C46CF
:101E300003F00303012B09D0022B0BD1FFF7ECFBBE
:101E4000072305B1286004B1236038BDFFF7E0FB2C
:101E50000223F6E7044841F2501105F0A7F80023E9
:101E60001846EEE700800050EC7E0008002337B5EE
:101E70000193194B0546D3F820320C4603F00703B3
:101E8000042B1FD8DFE803F025030F1419000021ED
:101E900001A8FFF75FFF11230DB1019A2A6004B179
:101EA000236003B030BDFFF7B7FB07230190F3E7D2
:101EB00005F076F80A230190EEE7FFF7EFFB092320
:101EC0000190E9E741F22301044805F06FF800238F
:101ED000E2E70123E0E700BF00800050EC7E00084D
:101EE00038B5104B0546D3F840310C4603F00303D8
:101EF000022B0BD0032B0DD0012B0FD105F050F886
:101F00000A2305B1286004B1236038BDFFF7C6FB82
:101F10000923F6E705F047F80B23F2E70123002039
:101F2000EFE700BF00800050002337B50193184B46
:101F30000546D3F860320C4603F00703013B032B40
:101F40001FD8DFE803F0020E1914002101A8FFF7E3
:101F5000C7FE0F230DB1019A2A6004B1236003B0BC
:101F600030BD002101A8FFF7BBFF1023F2E7FFF708
:101F700053FB07230190EDE7FFF74AFB0223019093
:101F8000E8E741F2C801034805F010F80023E1E753
:101F900000800050EC7E000873B500240F4B0194C4
:101FA000D3F87032064603F00303012B0D4607D029
:101FB000022B11D041F22611094804F0F7FF04E08A
:101FC000214601A8FFF78CFF10240EB1019B33605E
:101FD00005B12C6002B070BD1424F6E700800050FB
:101FE000EC7E000838B5164B0546D3F800020C46C7
:101FF00000F00700042819D8DFE800F020030B0FD9
:10200000130004F0CDFF0A2305B1286004B123605A
:1020100038BDFFF743FB0923F6E704F0C4FF0B23A9
:10202000F2E7FFF7C9FA0E23800AEDE7054841F20F
:102030006F4104F0BBFF00231846E5E70123E3E707
:1020400000800050EC7E000838B5164B0546D3F8EA
:1020500008020C4600F00700042819D8DFE800F059
:1020600020030B0F130004F09BFF0A2305B1286027
:1020700004B1236038BDFFF711FB0923F6E704F034
:1020800092FF0B23F2E7FFF797FA0E23800AEDE7A2
:10209000054841F2A74104F089FF00231846E5E70F
:1020A0000123E3E700800050EC7E000838B5104BB8
:1020B0000546D3F840320C4603F00303022B0BD045
:1020C000032B0DD0012B0FD104F06AFF0A2305B1B9
:1020D000286004B1236038BDFFF7E0FA0923F6E772
:1020E00004F061FF0B23F2E701230020EFE700BFBC
:1020F0000080005038B5124B0546D3F850320C46DC
:1021000003F00303022B0FD0032B05D0012B0FD1BB
:1021100004F046FF0A2302E004F045FF0B2305B15B
:10212000286004B1236038BDFFF7B8FA0923F6E749
:10213000044841F2940104F039FF00231846EEE709
:1021400000800050EC7E000838B5104B0546D3F8EF
:1021500060310C4603F00303022B0BD0032B0DD090
:10216000012B0FD104F01CFF0A2305B1286004B134
:10217000236038BDFFF792FA0923F6E704F013FF56
:102180000B23F2E701230020EFE700BF008000509F
:10219000B0F5207F10B52ED009D8B0F5007F24D03F
:1021A00003D868B1B0F5C07F0AD000241BE0B0F5B9
:1021B000607FFAD1124BD3F88040C4F3011412E0CF
:1021C0000F4B1C6F230B13F00E0FC4F303340AD014
:1021D000072C08D00F2C06D0032C04D040F2852108
:1021E000084804F0E3FE601C10BD054BD3F8904096
:1021F000C4F30464F7E7024B1C6FC4F38024F2E7D6
:1022000000800050EC7E00084FF4803238B5104B4F
:1022100004469A6600200D46FFF7BAFF41F6713278
:102220000C4B6043DC69DA635A6804F4803422F4AE
:1022300040125DB90849884294BF00200120000582
:1022400002435A600CB10022DA6338BD0349F2E759
:102250000090005000000350005A6202002D31012E
:1022600038B5430904460D460ED140F22F310D48D2
:1022700004F09CFE002304F01F0485B103F5805395
:102280000122A2401A6038BD012B04D0022B04D0D9
:1022900040F23D31EBE7044BEDE7044BEBE703F590
:1022A0000053EDE7EC7E0008648000506880005029
:1022B000002130B5B0F5807F85B00446CDE900112E
:1022C00000F006816BD8002800F0DB80A0F120042C
:1022D000602C75D8602C73D8DFE814F0D300E000D0
:1022E0007200E000F000F000F000F000F000E0000C
:1022F000F5007E000B019E007E00E000E000E000A3
:1023000072007200720072007200720072000B01A3
:10231000E000E000E00023011001E0007200720024
:10232000720072007200720072007200720072001D
:10233000720072001501F000D300D300D300B10089
:102340007E007E00B9001A019300C800C800720028
:10235000720072007200D30072007200720072008C
:1023600072007200720072007200720072007200DD
:1023700072007200720072007200720072007200CD
:1023800072007200720072007200720072007200BD
:10239000720072007200720072007200CD00B0F51F
:1023A000E06F00F0AB803CD8B0F5607F00F081803A
:1023B0001DD8B0F5007F67D008D8B0F5C07F60D0D9
:1023C00040F29441594804F0F1FD57E0B0F5207F08
:1023D00064D0B0F5407FF3D1FFF7EEF804464FF438
:1023E0002070FFF7D5FEB4FBF0F464085FE0B0F5B1
:1023F000B06F68D00AD8B0F5806F5FD0B0F5A06F2D
:10240000DED100216846FFF731FD37E0B0F5C06F3F
:102410006FD0B0F5D06FD3D100216846FFF7E2FD51
:102420002CE0B0F5286F73D016D8B0F5186F6AD0CD
:102430000AD8B0F5F06F74D0B0F5106FC0D100219C
:102440006846FFF701FE19E0B0F5206FB8D1002112
:102450006846FFF769FD11E0B0F5306F5DD0AFD38E
:10246000B0F5386F45D0B0F5406FA9D1002168466E
:10247000FFF770FC02E0FFF785F80090009805B0C8
:1024800030BDFFF799F8F8E7FFF77CF805462046DE
:10249000FFF77EFEB5FBF0F50095EFE7FFF78CF850
:1024A00004464FF42070FFF773FEB4FBF0F4009481
:1024B000E4E701A8FFF7EAFB019DE8E70021684691
:1024C000FFF70EFCDAE700216846FFF77BFCD5E753
:1024D0004FF0E02302911B695B0705D5FFF76CF80D
:1024E0000290029B0093C9E703A902A8FFF7F8FC3A
:1024F000F7E700216846FFF7F3FCBFE700216846D5
:10250000FFF7D4FDBAE700216846FFF7F3FDB5E712
:1025100000216846FFF740FDB0E76846FFF782FC00
:10252000ACE700216846FFF70FFEA7E7EC7E000846
:102530001FB503460020B3F5607F019000F00E81C7
:102540007BD8582B68D8382B05D8243B092B49D980
:1025500040F27951CEE0393B1F2BF9D801A252F855
:1025600023F000BF17270008512500085125000857
:1025700051250008212700086F2700085125000871
:102580005125000851250008512500085125000853
:102590005125000851250008512500085125000843
:1025A0005125000851250008512500085125000833
:1025B00079270008612600085125000851250008E8
:1025C00051250008A52600085125000851250008BE
:1025D000832700088D27000865270008C726000804
:1025E000C7260008092BB3D801A252F823F000BF78
:1025F000612600086126000861260008612600089F
:102600006126000851250008FD2600085125000814
:10261000172700087F260008802B59D0B3F5807F4C
:1026200096D14FF0E02302901B695B076ED5FEF751
:10263000C3FF0C230393039B56E0B3F5086F74D0DC
:1026400022D8B3F5C06F66D00FD8B3F5A06F00F0F5
:102650008980B3F5B06F51D0B3F5806F7FF478AF58
:10266000002001A9FFF73CFB4CE0B3F5E06F7ED002
:10267000B3F5F06F54D0B3F5D06F7FF469AF00209D
:1026800001A9FFF7AFFC3DE0B3F5286F7ED00ED86F
:10269000B3F5186F70D0B3F5206F72D0B3F5106F2B
:1026A0007FF456AF002001A9FFF7CEFC2AE0B3F576
:1026B000306F70D0FFF44CAFB3F5386F2BD0B3F55B
:1026C000406F7FF445AF002001A9FFF743FB19E0FD
:1026D000334B1B6F03F00703013B032B08D8DFE8E4
:1026E00003F005023139052301930BE00223FBE7D8
:1026F00040F2C6412B4804F059FC03E0002001A938
:10270000FFF760FB019805B05DF804FB03A902A880
:10271000FFF7E6FB8FE7002001A9FFF7E1FBF1E7F8
:10272000002001A9FFF710FDECE71D4BD3F80031A5
:1027300003F00303022B07D0032B09D0012B0BD18D
:10274000FEF750FF0323CFE7FEF7A8FF0923CBE7EF
:1027500004F024FC0823C7E70123C5E701A9FFF71C
:1027600095FACFE7002001A9FFF780FBCAE7002018
:1027700001A9FFF79BFCC5E7002001A9FFF7BAFC00
:10278000C0E7002001A9FFF7CFFBBBE7002001A9AC
:10279000FFF702FCB6E701A9FFF744FBB2E700BF71
:1027A00000800050EC7E00084FF48012034B5A6604
:1027B0004FF48032024B9A62704700BF0090005085
:1027C0000050005AF8B5036804460F2B04D940F6B0
:1027D0006D31804804F0EAFB63680F2B04D94FF495
:1027E00037617C4804F0E2FBA3680F2B04D940F664
:1027F0007331784804F0DAFB237B0F2B04D940F6C1
:102800007631744804F0D2FB637B0F2B04D940F679
:102810007931704804F0CAFBA37B3F2B04D940F602
:102820007C316C4804F0C2FBE37B3F2B04D940F6BB
:102830007F31684804F0BAFB2369032B04D940F6C2
:102840008231644804F0B2FB6369032B04D940F67B
:102850008531604804F0AAFBE369032B04D940F6F4
:1028600088315C4804F0A2FB8020FFF761FE03285A
:1028700000F08A804FF48012574B584D5A6645F647
:102880000E034FF0A062C5F88030554B9A624FF4AA
:10289000803203F580539A62AB6DDA03FCD4AE6DDF
:1028A00016F08046FBD1D4E900231B0543EA0263FE
:1028B000E27B4C481343227B4B4F43EA0243627B4B
:1028C00043EA0233A27B43EA82132B61AA69D4E96B
:1028D00004131B0643EA816302F000421343A27E05
:1028E0004FF440611343227E43EA0243627E43EA8F
:1028F0000223AB614FF4006204F08AFB2B6AE17E95
:10290000E26923F00F0343EA8103002A3DD12B62E1
:1029100094F8243094F82010AA6ADB0043EA4113AB
:102920003A40134394F82120304943EA021343F418
:1029300080332A4AAB62936D31EA0303FBD14FF037
:102940008071274881621369A56823F4700343EA04
:10295000055313614FF00043836194F822300BB9A3
:10296000234B996294F823303BB94FF48032204BCB
:102970009A621A4A936D5B00FCD494F825301BB11F
:10298000164B1C4AC3F88020F8BD134343F00803DC
:10299000022A2B6208D12E614FF408524FF47F4176
:1029A0001548AE6104F034FB0C4994F822308A6A71
:1029B00094F820001B063A4043EA4013134394F86E
:1029C000242043EAC20394F8232043EA02438B62A3
:1029D000D3E700BFEC7E0008009000500040005A92
:1029E0000050005A3840005AC7FFFEFE03000100A5
:1029F0000060005AF1A7FFFF3440005A014B93F9E1
:102A000000007047E4110020436810B5072B04460E
:102A100004D940F6B3512A4804F0C8FAA368032B3E
:102A200004D940F6B551264804F0C0FA2378032BA8
:102A300004D940F6B751224804F0B8FA94F90130AD
:102A4000002B04DA40F6B9511D4804F0AFFA4FF4F8
:102A500000011C4A637851664FF4D151022002F5FF
:102A6000B832516218494F2B48604FF0010028BF1F
:102A70004F2301F5805148601169C903FCD42178C6
:102A800043EA01235361D4E901131B0143EA012303
:102A9000617B0B43217B43EA41039360E37BA17B92
:102AA0001B0143EA4113617C0B43217C43EA410350
:102AB0005360A37C13B16FF4D153536210BD00BFB8
:102AC000EC7E00080090005000100250014B18806E
:102AD000704700BFE2110020014B1880704700BF13
:102AE000E0110020B0F5207F38B571D00ED8B0F5D8
:102AF000007F5BD003D890B3B0F5C07F2FD040F2F9
:102B00001231BDE838403A4804F050BAB0F5607F61
:102B1000F5D1384A4C1ED2F8FC5015F080751EBF16
:102B2000D2F8FC3023F08073C2F8FC30032C04D9B7
:102B300040F2F2212E4804F039FA2F4AD2F88030C0
:102B400023F0300343EA0413C2F8803035B1294A38
:102B5000D2F8FC3043F08073C2F8FC3038BD4C1E14
:102B6000012C0AD9102903D8244BCB40DB0704D40D
:102B700040F2C7211E4804F019FA04F058FA04F094
:102B800064FA1D4A136F23F4704343EA0433136756
:102B9000FEF712FD0446FFF76DF8C0F10201204672
:102BA00004F04DFABDE8384000F02AB84C1E1F2C46
:102BB00004D940F206310E4804F0F8F90E4AD2F872
:102BC000903023F0F85343EA0463C2F89030C5E72D
:102BD0004C1E012C04D94FF44371054804F0E6F96A
:102BE000054A136F23F4806343EA84231367B5E730
:102BF000EC7E000800ED00E00080005010010100B4
:102C000008B54FF4C070FFF753FBBDE80840044916
:102C1000884294BF012102214FF42070FFF762BF68
:102C200080F0FA02B0F5607F70B50C4600F05B8270
:102C300000F29180582867D8382805D82438092808
:102C400048D940F6421196E139381F28F9D801A336
:102C500053F820F0CD2F0008432C0008432C000827
:102C6000432C00080D300008E3310008432C000815
:102C7000432C0008432C0008432C0008432C000878
:102C8000432C0008432C0008432C0008432C000868
:102C9000432C0008432C0008432C0008432C000858
:102CA00023320008832D0008432C0008432C000821
:102CB000432C0008FF2D0008432C0008432C00087B
:102CC0004D3200089D32000889310008432E00086B
:102CD000432E00080928B4D801A353F820F000BF00
:102CE000832D0008832D0008832D0008832D000804
:102CF000832D0008432C0008052F0008432C0008F2
:102D0000CD2F0008B52D0008802800F0A980B0F56F
:102D1000807F96D10C2900F0338100F22781A1F148
:102D20000904022C00F225814FF480329F4BA04908
:102D3000586E03F580535A664B6A43F001034B62A9
:102D4000C1035CBF9B4B5A664FF0E022136923F02E
:102D500004031361B8E0B0F5086F00F0A5813DD819
:102D6000B0F5C06F00F0328118D8B0F5A06F00F058
:102D70000B82B0F5B06F00F0C580B0F5806F7FF4C6
:102D800060AF013C062C00F2E880DFE814F0EB00B5
:102D9000E000ED00E400D400E200DE00B0F5E06FFA
:102DA00000F01F82B0F5F06F00F03081B0F5D06F09
:102DB0007FF447AF013C0D2C00F25681DFE814F0A0
:102DC0005901540154015401540154015401540156
:102DD0005B0146015001540154015201B0F5286FC6
:102DE00000F05C821FD8B0F5186F00F01A82B0F5C1
:102DF000206F00F02B82B0F5106F7FF422AF013C02
:102E00000D2C00F24881DFE814F04B014601460129
:102E1000460146014601460146014D013801420185
:102E2000460146014401B0F5306F00F04E82FFF4D8
:102E300008AFB0F5386F00F0C980B0F5406F7FF48F
:102E400000AF023C052C00F2C5815B4B195D574A6F
:102E5000D2F8283123F007030B43C2F8283133E0BE
:102E60008B1E062B43D8DFE803F03F30424A424234
:102E70000400002504260121022000F053FA04F08A
:102E8000D6F804F0E2F8494A136F23F007033343FE
:102E90001367FEF791FB0646FEF7ECFEC0F1020158
:102EA000304604F0CCF80121002000F08FFAFFF743
:102EB000A7FE4DB9032C07D14FF480323F4B9A62E5
:102EC0003F4A936D5800FCD470BD4FF480123D4BC7
:102ED0000E465A664FF48032394B9D6A03F5805393
:102EE000C5F300659A62C6E700250126C3E7002501
:102EF00040F23161344804F059F82E46BBE7002512
:102F00000226B8E7072C12D00F2C12D0022C05D0C5
:102F100040F27A612C4804F049F80024234AD2F8A0
:102F2000803123F003032343C2F88031CCE703242C
:102F3000F4E70124F2E701231C49D1F8202122F013
:102F400007021343C1F82031BEE70423F4E703234B
:102F5000F2E70523F0E70623EEE740F2B9611A48ED
:102F600004F024F80023E7E70223E5E710293FF403
:102F7000DBAE40F2E161BDE87040134804F016B8E2
:102F80004FF48032094B0A49586E03F580535A6654
:102F90004B6A23F001034B62C3035CBF054B5A66C7
:102FA0004FF0E022136943F00403D2E600800050A2
:102FB00000C0075000A000503C7F00080060005A8D
:102FC0000040005A00900050EC7E0008013C0A2CA2
:102FD00013D8DFE804F01712121212121212190697
:102FE00010000122A449D1F8403123F00303134318
:102FF000C1F8403168E70322F4E740F201719F48CD
:1030000003F0D4FF0022EDE70222EBE7013C0A2C9B
:1030100013D8DFE804F01712121212121212190656
:10302000100001229449D1F8603123F003031343C7
:10303000C1F8603148E70322F4E740F223718F487A
:1030400003F0B4FF0022EDE70222EBE701228A49F8
:10305000D1F8003223F007031343C1F8003233E7FD
:103060000322F4E70422F2E74FF4EE61834803F011
:103070009DFF0022EBE70222E9E701227E49D1F819
:10308000083223F007031343C1F808321CE7032278
:10309000F4E70422F2E740F29471784803F086FFE7
:1030A0000022EBE70222E9E74C1E082C12D8DFE8E9
:1030B00004F0161105111111110F180001226E49AB
:1030C000D1F8003123F003031343C1F80031FBE6CC
:1030D0000322F4E74FF4F661684803F067FF00222B
:1030E000EDE70222EBE7664A634BD2F8FC5015F09D
:1030F00080750AD1072929D1D3F8802022F0030254
:1031000042F00202C3F88020DEE6D2F8FC10072C61
:1031100021F08071C2F8FC100FD1D3F8802022F08A
:10312000030242F00202C3F88020554AD2F8FC3074
:1031300043F08073C2F8FC30C6E60D2C0FD1D3F8F3
:10314000802022F0030242F00102ECE70D2906D1B3
:10315000D3F8802022F0030242F00102D2E7062CCD
:1031600010D040F2E171454803F020FF0021424AAF
:10317000D2F8803023F003030B43C2F88030002DD7
:10318000D3D1A1E60321F2E7012C1FD0073C0A2C82
:1031900017D80A2C15D8DFE804F01B1412101414E9
:1031A00014141414060001223349D1F8203223F0FC
:1031B00007031343C1F8203286E60322F4E7042212
:1031C000F2E740F63D012D4803F0F0FE0022EBE768
:1031D0000222E9E740F66E01284803F0E7FE0021ED
:1031E00035E6013C0A2C13D8DFE804F0171212125E
:1031F000121212121906100001221F49D1F8403292
:1032000023F003031343C1F840325DE60322F4E7E1
:1032100040F6AC01194803F0C9FE0022EDE7022296
:10322000EBE7093C022C0AD8164B195D124AD2F87A
:10323000503223F003030B43C2F8503244E640F609
:10324000C8010E4803F0B2FE0021EFE70F2C1FD09B
:103250001AD8022C1ED0072C1ED040F6E2010748D7
:1032600003F0A4FE00220449D1F8603223F00703E2
:103270001343C1F8603227E600800050EC7E00085E
:1032800000ED00E0397F0008102CE6D10222EAE7C9
:103290000122E8E70322E6E70422E4E7102C10D03D
:1032A000142C10D04FF41161134803F07FFE00225C
:1032B0001249D1F8703223F003031343C1F870327E
:1032C00002E60122F4E70222F2E7022910D00729E0
:1032D00010D040F62311084803F068FE0022074989
:1032E000D1F8903223F003031343C1F89032EBE599
:1032F0000122F4E70222F2E7EC7E00080080005091
:10330000024A536B0342FCD1704700BF0040095092
:10331000034A0179D36E23F030030B43D366704721
:1033200000400050F8B50446244BD3F88420D00662
:10333000FBD4D3F88430C3F381139C423CD0FEF716
:1033400021F9012C05460BD11D4B984204D940F2BE
:1033500081711C4803F02AFE0121284603F06FFE0C
:1033600003F096FE4FF00072174B07465A66204650
:1033700003F09EFE4FF48063104E621E934033674D
:10338000736E9A0103D4D6F884309B060AD538466A
:1033900003F082FE022C0FD12846BDE8F840002140
:1033A00003F04DBED6F884309906E9D540F28F710E
:1033B000044803F0FBFDE3E7F8BD00BF0040005008
:1033C000005A6202427F00080060005010B50C46AF
:1033D00008B9FEF7D7F8074B21461B783BB1064BDF
:1033E000984204D80120BDE81040FFF79BBF02209F
:1033F000F9E700BF82150020005A62024FF0004238
:1034000038B5244B244C5A664AF6CD33656C0146D8
:1034100005F00105236428BB0120FFF771FF6368F5
:10342000DB0715D51D4B586008461D4B226BD20794
:103430000CD4984208D1072415B1174B194A1A64C5
:1034400003F037FE204638BD0130EFE79842F2D056
:103450000024F1E70132236B13F0080305D08A4200
:10346000F8D1E8E700220E49F5E78A42E3D02021AF
:103470000A4A91620121A2F5805251600649084A28
:10348000886A800603D49342D5D00133F8E793428B
:10349000DDE700BF00900050004009500060095077
:1034A00040420F003254FFFF10B503F00DFE202301
:1034B00041F2020203610023C360836042614FF462
:1034C000A02207498361426200F50052C361036292
:1034D0008362C36243630365D164036310BD00BFAD
:1034E000FF3F0D0338B5194B044698420D460BD0EB
:1034F000174B984208D003F58043984204D04FF40C
:10350000B371144803F052FD25B92046BDE8384098
:1035100003F0DABD012204F580535A6040F6FF71D2
:10352000204605F00F0203F0CBFDA263782103F0E3
:10353000C7FD05F001036A0748BF43F00203A26C10
:1035400002F003029A42FAD138BD00BF0000015BCD
:1035500000000A508F7F0008F8B505460C46164655
:1035600022B94FF409716D4803F020FD6C4B9D4268
:1035700002D1BCB9562411E06A4B9D424FD003F5ED
:1035800080439D4247D040F22721644803F00EFD5E
:1035900044B940F27631614803F008FD2046FEF759
:1035A00087FE0446AB68D90749D5B44204D240F23D
:1035B00031215A4803F0FAFCB4FBF6F46F68013C81
:1035C000FF2C07F0010704D940F23921534803F0DA
:1035D000EDFC24066FB32821284603F071FDAB6C87
:1035E0009A0720D1AB6CDB071FD4AE6C16F0020635
:1035F0001DD140F24621494803F0D8FC284603F08B
:1036000063FD2B69314623F07F4323432B61BDE8E3
:10361000F840FFF767BF002CC4D15824BEE7002C48
:10362000C0D15724BAE70526E8E70926E6E70626CB
:10363000E4E72B6923F07F4323432B61F8BD6B68DC
:10364000012B04D040F25921344803F0AFFCAB68A1
:1036500003F0E003402B42D009D893B1202B1AD0BD
:1036600040F29B21BDE8F8402C4803F09FBC602B42
:1036700042D0802BF4D106EB4603A34247D8012366
:103680000DE0B6EB141F04D940F28121234803F06A
:103690008DFC102303E0B6EBD40F1AD80823734334
:1036A0006401B4FBF3F4204F203CB7EBC40F4FEAA6
:1036B000C40604D240F2A621184803F077FC28463D
:1036C0003E40012103F0FCFC2E63BDE8F84003F00E
:1036D000F7BC40F28621114803F068FCDEE70623C0
:1036E000B4FBF3F3B34201D30623D8E740F28B21B6
:1036F0000A4803F05BFCF7E7B6EB940F01D804230C
:10370000CDE74FF42471054803F050FCF7E740F291
:103710009521024803F04AFCB1E700BF8F7F000803
:103720000000015B00000A50F8FF7F00436870B59D
:1037300004460D4616461BB140F6FF7103F0C0FC6F
:103740002046FFF7B1FEE9896B7B62690B43298A4A
:1037500022F44C520B4322F00F0213436361A26820
:103760002B7B297E22F0804222F0E2020B4313439E
:103770006A691343A360AB681BB9A36843F00043B5
:10378000A360EB69002B72D0987A1A7A4004A16882
:1037900040EA82505A4A0A4010439A8802F4C042D2
:1037A00010435A7840EA82005A7B40EAC2009A7B72
:1037B00040EA02109A7840EA8220A060D3E904210E
:1037C000E0680A434F4901400A43997942EA81225D
:1037D000D97942EA4122E2601A784B49012A12D192
:1037E000E26842F00402E2608C4265D0474A9442AB
:1037F00064D002F5804294420CBF02224FF0FF32A7
:103800004349520113E0032A4ED1E26842F0040218
:10381000E2608C424CD03D4A94424BD002F580424B
:1038200094420CBF02224FF0FF323A495201114438
:1038300002224A605A7A04F580518A621AB1E2681B
:1038400042F40062E260DA7A5AB1E26842F400427D
:10385000E2602D4A944233D11A7B2F4902F00F02C5
:103860004A66626ADB7B22F00302134363623EB165
:1038700096F8203004F58051002B33D001230B62E1
:1038800005212046FFF72EFEAA681AB12046696876
:10389000FFF762FE20462978FFF724FEA36CDB4386
:1038A00013F4405FFAD170BD023A012AB1D99BE707
:1038B0000022BAE70122B8E70022A1E701229FE730
:1038C000124A944205D11A7B134902F00F020A678B
:1038D000C7E7124A944201BF1A7B0F4902F00F0258
:1038E000CA67BEE7E26996F8223096F8210022F016
:1038F00009020343134343F00103CB61C0E700BF58
:10390000E39BBDFFFFF9F0870000015B00000A5058
:10391000C0E40350C0D403500090035000400A504C
:1039200038B52B4B054698420C4642D119B98C212B
:10393000284803F03BFB5620FEF7FAFD20F0020377
:10394000092B05D00A2803D0A0F11003012B39D888
:10395000637B032B03D9AA211E4803F027FB237B9B
:10396000802B03D0AC211B4803F020FB6369B3F12B
:10397000804F03D0AE21174803F018FB238A23F4AD
:1039800000539BB2B3F5805F03D0B021114803F020
:103990000DFBA368013BB3F5165F03D3B2210D48BD
:1039A00003F004FB21462846BDE838400022FFF71B
:1039B000BDBE8A21074803F0F9FA1CB98C210548DD
:1039C00003F0F4FA9E21034803F0F0FAC0E700BFC9
:1039D0000000015B8F7F000838B5154B0446984204
:1039E0000D460AD0134B984207D003F58043984206
:1039F00003D07021104803F0D9FA1DB972210E4886
:103A000003F0D4FA2B7B802B03D176210A4803F0F4
:103A1000CDFA6B7B032B03D97921074803F0C6FA53
:103A200029462046BDE838400022FFF77FBE00BF90
:103A30000000015B00000A508F7F0008032838B5A2
:103A400004460D4605D8094B33F81030CB40DB0750
:103A500004D440F22D41064803F0A8FA3023012295
:103A60005C43044BAA401A5138BD00BF7C8000085B
:103A7000DF7F000840D00350032838B504460D46C8
:103A800005D8094B33F81030CB40DB0704D440F2A3
:103A9000FE31064803F08AFA302301225C43044BCE
:103AA000AA401A5138BD00BF7C800008DF7F0008A3
:103AB00040E0035003282DE9F04104460D46174627
:103AC000984605D81D4B33F81030CB40DB0704D4A3
:103AD0004FF4B0711A4803F069FA37B1294620460D
:103AE000B8F1000F20D0FFF7A9FF0F21072D04EB3D
:103AF000440688BFA5F108034FEA0616114895BF92
:103B0000AB009B0004360C3607FA03F299403044B0
:103B100003F0F9FA7FB929462046B8F1000F06D024
:103B2000BDE8F041FFF78ABFFFF7A6FFDDE7BDE87C
:103B3000F041FFF7A1BFBDE8F08100BF7C80000825
:103B40002D80000830C003504369DA01FCD4012302
:103B500000F50050024A436053689B07FCD470474D
:103B60000040005938B5124B044698420D4604D027
:103B70004FF427710F4803F019FA012204F580531E
:103B800061685A60EB786A785B0443EA02232A781A
:103B90001343AA78120402F480321343C4F8983015
:103BA000CB0704D42046BDE83840FFF7CDBF38BD71
:103BB00000400059848000081E4B70B598420446AE
:103BC0000E46154604D04FF419711B4803F0EEF968
:103BD0002046FFF7B9FF3378727803F0070343EA12
:103BE000C203F278294643EA0223B2782046120142
:103BF00002F0700213432367E26A337922F48B32B6
:103C00001B0222F4807203F4E0631343B27943EAA7
:103C100002437279120302F480521343E362FFF706
:103C2000A1FF012204F580535A60F37903B1E260E9
:103C300070BD00BF0040005984800008144B10B5CF
:103C400098420C4604D040F26F31124803F0AEF9AE
:103C500074B92A20FEF72CFB0446B0B10E4B9842F3
:103C600006D90B4B9B68C3F302730133B0FBF3F42B
:103C70000A4B04F5742404F23F24B4FBF3F4601EF1
:103C80007F2828BF7F20C0B210BD0124F0E700BF0D
:103C90000040005984800008005A620240420F0030
:103CA00038B5154B0D469842144604D040F2AA315F
:103CB000124803F07BF935B940F2AB310F4803F0FD
:103CC00075F9B4B1FFDE0E4B9D4228BF1D461CB9ED
:103CD0002A20FEF7EDFA04462C44013CB4FBF5F033
:103CE000AC4228BF00F1FF30032828BF0320C0B238
:103CF00038BD2546ECE700BF00400059848000082D
:103D0000005A6202F8B51F46194B0E4698421446F7
:103D100004D04FF47971174803F048F926B940F2FE
:103D2000E531144803F042F9FFB1134D134B012F55
:103D300008BF1D46B54228BF35461CB92A20FEF7EC
:103D4000B7FA04469DF8183040F2FF300133B4FB57
:103D5000F3F46B1E1C44B4FBF5F3AC4228BF03F133
:103D6000FF33984228BF1846F8BD054DE2E700BF73
:103D70000040005984800008404B4C00002D310168
:103D80008096980013B5044601A800F0EBFB042CC4
:103D900004D8064B33F8140002B010BD044840F2BA
:103DA000914103F003F90020F6E700BFD28000083C
:103DB000848000082DE9F04F2DED048B0646DFF8D6
:103DC00040C38DB006AF0C461546BCE80F000FC7C8
:103DD0009CE80300BE4B87E803009E4203D0F1211C
:103DE000BC4803F0E3F8BC4F002239463046FFF7E9
:103DF00057FF94F80580804538BF80463046FFF76E
:103E0000A3FE20795FFA88F850B92A20FEF750FA0D
:103E1000B842014628BFB0FBF8F13046FFF70EFF6D
:103E2000E3784FEA08721B0102F0E04203F030032E
:103E300013430004227800F4FE0003430AB143F068
:103E4000020362780AB143F00403A2780AB143F096
:103E50000803B360E38822893361638943EA02433C
:103E600033629B4B9E4200F01F82012306F5805671
:103E700073600DB0BDEC048BBDE8F08F9749C5E0D1
:103E8000D1F88041012B4FEA14442CD9022B00F0C9
:103E9000748140F2F1118F4803F088F89DE0D1F869
:103EA0008441012BA4B2F1D8002B40F00881D1F855
:103EB0008C11091449001CE0D1F88441012B4FEA10
:103EC0001444E3D8002B40F0FD80D1F88C11091484
:103ED00001EB41010DE0D1F88041012BA4B2D5D80E
:103EE000DFED7F7A09E0002B40F0E680D1F88C11FD
:103EF000091407EE901AF8EEE77A22040BF1B242A9
:103F000002F58042926C24F4C041C2F3820C4FF05F
:103F100001020CF1010E02FA0EF209EE102A4FEA2C
:103F20008141B8EEC99AF6EE008A6E4A48BF41F068
:103F30000041BCF1000F40F0E580002B40F0C5804F
:103F4000D2F88C311BB207EE103AB8EEC77A37EED2
:103F5000878A002840F0F98005A8039100F002FB51
:103F6000DFED617A68EE277A0399DFED606A86EE0D
:103F7000897ADFED5F6A27EE267AF1EE006AB1F109
:103F8000004F07EEA67A0BD0DFED5A7A06EE104A04
:103F900077EE276ABAEEE86A56EE267AB0EE677ACE
:103FA000B5EEC07AF1EE10FACBBFB1EE477A78EEFB
:103FB000C78A37EE687AFDEEE87AC8BFFDEEC77AA9
:103FC00017EE903AB3F5003FC0F2CE806FEA514150
:103FD0006FEA41413E4A3B01D1503F0107F1B247F0
:103FE000C9F3090307F580477B600AF1010A14351C
:103FF000BAF1020F3FF439AF2B78AF68002B3FF4D2
:104000003DAF3D493D4A012B18BF1146304C0022BF
:104010002046CDF800800393FFF774FE04EB0A14EA
:10402000A16C039B21F0435121F41D1121F4435154
:104030001FFA87F921F03F0103F003070F43697866
:1040400081454FEA810101F01C0147EA0107A97887
:1040500038BF81464901C9B20F43E978287909037D
:1040600001F4E0413943070407F4E02739432F7C8A
:104070004FEA0A1B7F0507F4600739436F793F0752
:1040800007F040573943A164A46C1649C4F30234C5
:10409000013C0AF10507042C3FF61DAF0FF2040C9A
:1040A0005CF824F0D73E0008D73E0008813E0008A7
:1040B0009F3E0008B93E0008D1F8941118E7D1F8E6
:1040C0009411F6E6D1F8941101E7D2F8943139E76A
:1040D0000040005984800008005A620280969800CF
:1040E000000000000080E00F3D3B843F0000804363
:1040F0000000204400000049002D3101404B4C00DD
:10410000DC800008ABB9D2F890311BB207EE103A50
:10411000B8EEC77A77EE677A69EE286A644B87EE65
:10412000A67AD3F888311BB207EE903AF8EEE77A18
:104130000DE7D2F898311BB207EE103AB8EEC77A05
:1041400037EE677A77EE877AE6E7D5ED037ADFED2B
:10415000596AF8EE677A87EEA67AF7EE046AC6EE39
:10416000877A67EE887A00E713F5003FAABFC3F3AA
:10417000110341F4003119432CE7FFF703FE07EE6A
:10418000900A9FED4C7AF8EE677A0BF1B24303F593
:1041900080439B6C0CAAC3F3421302EB830387EEAC
:1041A000875A13ED067AFCEEC77A17EE903AF7EECF
:1041B000006A5C2B1CBF77EE267A87EE276A07EE33
:1041C000904ADFED3D5AF8EE677A08BF9FED3B6AF3
:1041D00067EEA57A67EE867A9FED396A67EE867A92
:1041E000F5EEC07AB6EE006AF1EE10FA4CBF77EE4B
:1041F000C67A77EE867A0BF1B24202F58042136DF1
:10420000FDEEE77A0023136517EE903A17EE900A59
:1042100013F4004F136DDFED2B4A18BF43F000433A
:104220001365294B116D03EA80430B431365204B43
:104230009FED264AD3F88811D3F88831116D1BB24F
:1042400007EE903AF8EEE77A77EEA47AC4EE074AE2
:1042500037EE267AC4EE876AF7EE044A84EE857A52
:1042600067EE277AB1EE007A47EE876A07EE104ACA
:10427000DFED177AB8EEC77A76EEA76A65EEC75A11
:1042800046EEA57AF5EEC07AF1EE10FA4CBF77EE65
:10429000C67A77EE867AFDEEE77A17EE903AC3F3A8
:1042A00011030B43136598E64FF0000AA0E600BF28
:1042B0000080E00F00007A4400000038E71B753FE3
:1042C00000000047000000000000FC7F0000804864
:1042D000000000494FF480020B4B10B5C3F880205A
:1042E000BFF34F8FBFF36F8F0024FF22074B214690
:1042F0005C6520209A625C60FDF7B2FF2146BDE854
:1043000010402120FDF7ACBF00E100E000000450A8
:10431000072838B504460D4603DD7721084802F02A
:1043200045FE1F2C03D99121064802F03FFE064AA4
:10433000064B002D08BF13460122A2401A6038BD6B
:10434000F4800008428100084010045040200450CE
:1043500010B5044618B991211F4802F027FE2378B2
:104360001B0613F0604F03D092211B4802F01EFE83
:10437000E3780F2B03D9A321174802F017FE012180
:104380002020FDF76DFF01212120FDF769FF0122AB
:10439000124B5A60227812069A606178A27842EA3B
:1043A00001429A61FF229A6200229A631A644FF0D6
:1043B00000425A654FF0FF324FF4800103F500537D
:1043C0001A65074AC2F88011E3781B01DBB282F854
:1043D0001633116010BD00BFF480000800000450C7
:1043E00000E100E02DE9F0410126C3B207280546AF
:1043F0000C46904606FA03F603DDEC21364802F03F
:10440000D5FD1CB9ED21344802F0D0FD236823F41A
:104410007C1323F00F031BB1F0212F4802F0C6FDDF
:10442000A37A1B0413F47C0F04D040F209112A482C
:1044300002F0BCFDE37A1B0513F07E6F04D040F25E
:104440000B11254802F0B2FD237B5B0513F0FE5FE4
:1044500004D040F20D11204802F0A8FD1F4B204F60
:104460001E65AB00226803F1A04303F588235A6060
:10447000302202FB0575637B2B66E37AA27A1B056B
:1044800043EA0243227B43EA4253EB6528F00303ED
:104490002B6702F004FE7B6D33437B65237A13B1F7
:1044A0003B6C33433B64637A13B1BB6B3343BB63F5
:1044B0002279A37943EA0243084A93616179E37957
:1044C00043EA014307498B61054B56639E64BDE88F
:1044D000F04102F0EABD00BFF48000080020045063
:1044E000000004500010045010B50124C3B2072886
:1044F00004FA03F404DD40F29711074802F056FD78
:1045000002F0CDFD054B5A6D22EA04025A659C6209
:10451000BDE8104002F0C9BDF4800008000004505E
:1045200010B50124C3B2072804FA03F404DD40F2F5
:10453000B5110A4802F03AFD02F0B1FD084BDA6A03
:10454000224208D15B6B9C430CBF0124002402F083
:10455000ACFD204610BD0024F9E700BFF480000840
:10456000000004504FF48032084B5A6603F5E623EE
:104570009B69C3F3461203F00F010A434280C3F361
:104580000342C3F30333427003707047009000503E
:1045900013B50024064A6846536F43F0010353677E
:1045A00000948DF80440FEF7B3FE204602B010BD23
:1045B0000040005030B58BB06C46174D0FCD0FC486
:1045C0000FCD0FC495E8030084E80300134BD3F824
:1045D0004C2112031CD5A3F5FE431C884FF6FF7334
:1045E0009C4208BF72248DF81940FEF707FA204458
:1045F00080F308008DF818000948FCF7F9FF6846B9
:10460000FEF7E0F83220FEF767FA00200BB030BD6D
:10461000D3F85041E4B2E6E7908100080080E00F53
:10462000C017530230B5084D87B001AC0FCD0FC491
:104630002B6801A82360FEF7E7F93220FEF746FA5F
:10464000002007B030BD00BFB88100086FF0040340
:10465000502110B50A480B4C13F0800F03F10102F2
:1046600007D123444F2A83F800131346F4D10020C6
:1046700010BD03F00F03043B034419761346EBE728
:1046800000ED00E000E100E010B5044602F000FD9E
:10469000024B1C6002F000FD002010BD141400202D
:1046A00010B502F0F5FC034B1C6802F0F5FC204647
:1046B00010BD00BF141400202DE9F0438DB01C463E
:1046C00006AB064689461846174600211822149D57
:1046D00003F04BF8227903460AB18DF81820FB61EC
:1046E00063794FF00108C3F10203DBB2CDE9033374
:1046F000764B30460293764B4A4601930023294677
:104700000093744B8DF81E8000F0FAFA06460028DC
:1047100040F0B080A3684146EB63E3693A20EB6464
:10472000237E85F8483063696B64237C85F84030CC
:10473000636A6B6594F8203085F85030E36AEB6566
:1047400094F8283085F858302368AB63FDF788FD6E
:10475000434604226169207CFFF7ACF943460222FC
:10476000E169207EFFF7A6F93E7085F8606041465A
:10477000A068FDF775FD6379002B33D141463620E3
:10478000FDF76EFDA368562B02D0B3F5A06F08D1DC
:10479000514AD2F8203223F0070343F00303C2F852
:1047A000203239462068FFF7BBF81020E1684B4BF8
:1047B00001F1260203EB42125060227C606903EB98
:1047C000411342EA0042C3F8DC24E169227E42EA56
:1047D0000142C3F8D4242379032B75D8DFE803F012
:1047E00041244E6E3C4AD2F8283123F0070343F0AF
:1047F0000103C2F82831A368562B02D0B3F5A06F8D
:1048000007D1D2F8203223F0070343F00103C2F8A6
:10481000203239462068FFF7DFF895F8603043F022
:10482000040385F86030C0E7002795F8603043F056
:10483000010385F8603002220023616A94F82000A9
:10484000FFF738F9616A94F82020E36842EA0142F0
:1048500041F2CC415B0103F1A04303F570335A50A0
:1048600097B90422AB6B052103F5805320681A65C4
:10487000FEF738FE30460DB0BDE8F08395F86030A5
:1048800043F0020385F8603000230422E16A94F8C3
:104890002800FFF70FF90220E168104B01F1A60292
:1048A00003EB421203EB411341F2D041506094F804
:1048B0002820E06A42EA00425A50D2E795F8603078
:1048C000012743F00303B4E72326D3E7C5710008AB
:1048D00035720008657200080080005000C0035067
:1048E00010B50020144602F044FC022804D018B190
:1048F000C321024802F05AFB204610BDCC810008BB
:10490000302238B5037A0446534303F1A04303F53C
:104910008023DD6ED0E9032313449D4201D8AA42CF
:1049200004D94FF43E71054802F040FBD4E903037B
:1049300003449D4218BF284638BD00BF3882000896
:1049400030B51446054687B01046FFF7D9FF6369B6
:10495000024683423CBFD4E903315B181B1AABB15A
:104960001249049403910021CDE901310123009300
:104970002846D4E9001302F031FB20B14FF4347122
:104980000B4802F013FB002007B030BD0122627615
:1049900094F82D20002AF6D084F835301321E369ED
:1049A000204698472046636A9847ECE7414900084B
:1049B000388200082DE9F04788B004460F461646B5
:1049C000984602F06CFB8146002E00F0AD80237EFD
:1049D00003F0FF02002B00F0E0802046FFF790FF7D
:1049E00063698246984206D1637E23B940F27F31E3
:1049F0006B4802F0DBFA6569AA459DBFD4E9033232
:104A00009B185D1BAAEB0505B54228BF354602F091
:104A100046FB94F82D308246002B40F096802A46C3
:104A20003846616902F0BAFE63692E462B44636121
:104A30002CE06069037803F0FD01112940F08280C9
:104A4000216B884205D1A3F111014B424B4184F8FF
:104A50003430013E6369216B01328B4203F1010363
:104A600008BF236363619542E3D1D4E90323216B3B
:104A70001344994208BF2263216B8A4201D88B42BA
:104A800004D84FF46D71464802F090FAD4E903233C
:104A900061691344994208BF626161698A4201D821
:104AA0008B4204D84FF471713D4802F07FFA002325
:104AB000207A6376FDF71EF820B140F211313848B4
:104AC00002F074FA2046FFF71BFF636983423FD16F
:104AD0000023E568237694F82D30656103B12563E2
:104AE0002046636A98472F4B049403930023029354
:104AF00023692A4601930123009363682168207A81
:104B000002F06CFA20B140F22D31254802F04EFA45
:104B1000207AFDF70FF820B140F25131204802F021
:104B200045FA504602F0C1FA4846C8F8006002F063
:104B3000BCFAD8F80030002B0CBF1B20002008B0B6
:104B4000BDE8F08707F8013B84E72E4600228AE79C
:104B50000123207A23760DF11E01FDF753F820B1D1
:104B60004FF450710E4802F021FA9DF81E30207A61
:104B7000002BCDD00DF11F01FDF71CF820B140F244
:104B80004631074802F012FA9DF81F10207A0029DA
:104B9000BED12246FFF7D4FEBAE71646C4E700BFEF
:104BA000388200084149000870B504460568FFF7DF
:104BB00077FD844202D10020FFF766FD95F936307B
:104BC000002B11DB012203F01F015B099B0003F1A5
:104BD00060438A4003F56143C3F88021C3F8802015
:104BE000BFF34F8FBFF36F8F287AFCF7C3FF20B15D
:104BF0004FF4ED71104802F0D9F9287AFCF720FF44
:104C000020B14FF4EF710C4802F0D0F9FCF7F6FE3A
:104C100038B10A4B984204D04FF4F171064802F0C3
:104C2000C5F900232846C4E90033C4E90433A3606E
:104C3000AB6ABDE87040184738820008058000F074
:104C40002DE9F84304460D4690F82C80DFF8AC902F
:104C50008E18AE4228D094F82D3083B102F01FFA9E
:104C6000237E07461BBB226B63699A4204D040F245
:104C7000F911484602F09AF9384602F016FA94F80B
:104C80003430002BE5D0B8F1000F06D02B780A2B7A
:104C900003D10D212046E36998472046E36915F8C2
:104CA000011B98470028D4D00020BDE8F883204697
:104CB000FFF726FEE1680138884238BF2069D4F842
:104CC00030C03CBF00F1FF30401803469C450BD07C
:104CD00013F80129112A01D0132A07D1A2F11103D7
:104CE0005A425A4184F834202063C5E7994282BF72
:104CF000236903F1FF335B18E8E700BF388200083F
:104D0000F0B50C460646154687B0382200212046ED
:104D10001F4602F02AFD95E8030000232A69237646
:104D2000EB6884E80300C4E904232A7DE36084F887
:104D30002C20AA7D2363012384F8343084F8353095
:104D40000C9B84F82D2023620D9BE76163620E9B10
:104D5000A3622B7A84F83630204B34607360204B8A
:104D6000B360204B3361204B7361204BF360FCF741
:104D70008DFE30B11E4B984203D01024204607B060
:104D8000F0BD002104F10800FCF708FE0028F4D172
:104D90000127184B0494CDE902032369009701937E
:104DA0006368E2682168207A02F018F90446002856
:104DB000E3D195F90830002B0BDB03F01F025B09F0
:104DC0009B0003F16043974003F56143C3F8807192
:104DD0001F603046FFF758FCD0E700BF414C000889
:104DE000B54900082173000827730008A94B000883
:104DF000038000F04149000881F0004102E000BF5B
:104E000083F0004330B54FEA41044FEA430594EA8A
:104E1000050F08BF90EA020F1FBF54EA000C55EAC5
:104E2000020C7FEA645C7FEA655C00F0E2804FEA96
:104E30005454D4EB5555B8BF6D420CDD2C4480EA78
:104E4000020281EA030382EA000083EA010180EAA8
:104E5000020281EA0303362D88BF30BD11F0004FF6
:104E60004FEA01314FF4801C4CEA113102D040422C
:104E700061EB410113F0004F4FEA03334CEA133367
:104E800002D0524263EB430394EA050F00F0A7807F
:104E9000A4F10104D5F1200E0DDB02FA0EFC22FA7A
:104EA00005F2801841F1000103FA0EF2801843FA6E
:104EB00005F359410EE0A5F120050EF1200E012A5F
:104EC00003FA0EFC28BF4CF0020C43FA05F3C0189D
:104ED00051EBE37101F0004507D54FF0000EDCF116
:104EE000000C7EEB00006EEB0101B1F5801F1BD3BF
:104EF000B1F5001F0CD349085FEA30004FEA3C0CC3
:104F000004F101044FEA445212F5800F80F09A80B8
:104F1000BCF1004F08BF5FEA500C50F1000041EBBC
:104F2000045141EA050130BD5FEA4C0C404141EBC0
:104F30000101013C28BFB1F5801FE9D291F0000FBB
:104F400004BF01460020B1FA81F308BF2033A3F16A
:104F50000B03B3F120020CDA0C3208DD02F1140C61
:104F6000C2F10C0201FA0CF021FA02F10CE002F19C
:104F70001402D8BFC2F1200C01FA02F120FA0CFC95
:104F8000DCBF41EA0C019040E41AA2BF01EB0451DE
:104F9000294330BD6FEA04041F3C1CDA0C340EDCDC
:104FA00004F11404C4F1200220FA04F001FA02F31F
:104FB00040EA030021FA04F345EA030130BDC4F1DD
:104FC0000C04C4F1200220FA02F001FA04F340EAD2
:104FD0000300294630BD21FA04F0294630BD94F083
:104FE000000F83F4801306BF81F480110134013D6A
:104FF0004EE77FEA645C18BF7FEA655C29D094EADB
:10500000050F08BF90EA020F05D054EA000C04BF58
:105010001946104630BD91EA030F1EBF0021002043
:1050200030BD5FEA545C05D14000494128BF41F0E2
:10503000004130BD14F580043CBF01F5801130BD46
:1050400001F0004545F0FE4141F470014FF00000D1
:1050500030BD7FEA645C1ABF194610467FEA655C82
:105060001CBF0B46024650EA013406BF52EA033524
:1050700091EA030F41F4002130BD00BF90F0000F12
:1050800004BF0021704730B54FF4806404F132044E
:105090004FF000054FF0000150E700BF90F0000F07
:1050A00004BF0021704730B54FF4806404F132042E
:1050B00010F0004548BF40424FF000013EE700BFFE
:1050C00042004FEAE2014FEA31014FEA02701FBF8E
:1050D00012F07F4393F07F4F81F06051704732F0C0
:1050E0007F4208BF704793F07F4F04BF41F4002117
:1050F000704730B54FF4607401F0004521F0004175
:105100001CE700BF50EA010208BF704730B54FF0FE
:1051100000050AE050EA010208BF704730B511F0FF
:10512000004502D5404261EB41014FF4806404F137
:1051300032045FEA915C3FF4D8AE4FF003025FEABD
:10514000DC0C18BF03325FEADC0C18BF033202EB41
:10515000DC02C2F1200300FA03FC20FA02F001FA9B
:1051600003FE40EA0E0021FA02F11444BDE600BF3E
:1051700070B54FF0FF0C4CF4E06C1CEA11541DBFED
:105180001CEA135594EA0C0F95EA0C0F00F0DEF8B8
:105190002C4481EA030621EA4C5123EA4C5350EA9D
:1051A000013518BF52EA033541F4801143F48013EE
:1051B00038D0A0FB02CE4FF00005E1FB02E506F07F
:1051C0000042E0FB03E54FF00006E1FB03569CF0D4
:1051D000000F18BF4EF0010EA4F1FF04B6F5007FDA
:1051E00064F5407404D25FEA4E0E6D4146EB06064C
:1051F00042EAC62141EA55514FEAC52040EA5E50D5
:105200004FEACE2EB4F1FD0C88BFBCF5E06F1ED87E
:10521000BEF1004F08BF5FEA500E50F1000041EBB5
:10522000045170BD06F0004646EA010140EA020062
:1052300081EA0301B4EB5C04C2BFD4EB0C0541EA84
:10524000045170BD41F480114FF0000E013C00F399
:10525000AB8014F1360FDEBF002001F0004170BDBD
:10526000C4F10004203C35DA0C341BDC04F11404D6
:10527000C4F1200500FA05F320FA04F001FA05F262
:1052800040EA020001F0004221F0004110EBD3702F
:1052900021FA04F642EB06015EEA430E08BF20EA5B
:1052A000D37070BDC4F10C04C4F1200500FA04F3FE
:1052B00020FA05F001FA04F240EA020001F0004190
:1052C00010EBD37041F100015EEA430E08BF20EA03
:1052D000D37070BDC4F1200500FA05F24EEA020E4B
:1052E00020FA04F301FA05F243EA020321FA04F07A
:1052F00001F0004121FA04F220EA020000EBD37031
:105300005EEA430E08BF20EAD37070BD94F0000F30
:105310000FD101F00046400041EB010111F4801F64
:1053200008BF013CF7D041EA060195F0000F18BF15
:10533000704703F00046520043EB030313F4801F51
:1053400008BF013DF7D043EA0603704794EA0C0F0B
:105350000CEA135518BF95EA0C0F0CD050EA410621
:1053600018BF52EA4306D1D181EA030101F000419E
:105370004FF0000070BD50EA410606BF10461946C6
:1053800052EA430619D094EA0C0F02D150EA0136D2
:1053900013D195EA0C0F05D152EA03361CBF104613
:1053A00019460AD181EA030101F0004141F0FE41B2
:1053B00041F470014FF0000070BD41F0FE4141F436
:1053C000780170BD70B54FF0FF0C4CF4E06C1CEA36
:1053D00011541DBF1CEA135594EA0C0F95EA0C0FEB
:1053E00000F0A7F8A4EB050481EA030E52EA0335A6
:1053F0004FEA013100F088804FEA03334FF08055C7
:1054000045EA131343EA12634FEA022245EA1115F3
:1054100045EA10654FEA00260EF000419D4208BFA4
:10542000964244F1FD0404F5407402D25B084FEA51
:105430003202B61A65EB03055B084FEA32024FF4FD
:1054400080104FF4002CB6EB020E75EB030E22BF5A
:10545000B61A754640EA0C005B084FEA3202B6EB1A
:10546000020E75EB030E22BFB61A754640EA5C00C9
:105470005B084FEA3202B6EB020E75EB030E22BF59
:10548000B61A754640EA9C005B084FEA3202B6EB5A
:10549000020E75EB030E22BFB61A754640EADC0019
:1054A00055EA060E18D04FEA051545EA16754FEA7B
:1054B00006164FEAC30343EA52734FEAC2025FEA99
:1054C0001C1CC0D111F4801F0BD141EA00014FF028
:1054D00000004FF0004CB6E711F4801F04BF0143F9
:1054E0000020B4F1FD0C88BFBCF5E06F3FF6AFAE15
:1054F000B5EB030C04BFB6EB020C5FEA500C50F1A5
:10550000000041EB045170BD0EF0004E4EEA113127
:1055100014EB5C04C2BFD4EB0C0541EA045170BD2E
:1055200041F480114FF0000E013C90E645EA060E72
:105530008DE60CEA135594EA0C0F08BF95EA0C0FA0
:105540003FF43BAF94EA0C0F0AD150EA01347FF4E8
:1055500034AF95EA0C0F7FF425AF104619462CE7BF
:1055600095EA0C0F06D152EA03353FF4FDAE104622
:10557000194622E750EA410618BF52EA43067FF473
:10558000C5AE50EA41047FF40DAF52EA43057FF403
:10559000EBAE12E74FF0FF3C06E000BF4FF0010C0E
:1055A00002E000BF4FF0010C4DF804CD4FEA410C72
:1055B0007FEA6C5C4FEA430C18BF7FEA6C5C1BD03F
:1055C00001B050EA410C0CBF52EA430C91EA030FC0
:1055D00002BF90EA020F0020704710F1000F91EA1D
:1055E000030F58BF994208BF90422CBFD8176FEAEB
:1055F000E37040F0010070474FEA410C7FEA6C5CB9
:1056000002D150EA013C07D14FEA430C7FEA6C5CBF
:10561000D6D152EA033CD3D05DF8040B704700BFEB
:105620008446104662468C461946634600E000BF39
:1056300001B5FFF7B7FF002848BF10F1000F01BD0B
:105640004DF808EDFFF7F4FF0CBF012000205DF8D6
:1056500008FB00BF4DF808EDFFF7EAFF34BF01205B
:1056600000205DF808FB00BF4DF808EDFFF7E0FFF4
:1056700094BF012000205DF808FB00BF4DF808ED45
:10568000FFF7CEFF94BF012000205DF808FB00BFAC
:105690004DF808EDFFF7C4FF34BF012000205DF88E
:1056A00008FB00BF4FEA410212F5001215D211D5D6
:1056B0006FF47873B3EB625212D94FEAC12343F00F
:1056C000004343EA505311F0004F23FA02F018BF91
:1056D000404270474FF00000704750EA013005D15A
:1056E00011F0004008BF6FF0004070474FF000001D
:1056F000704700BF4A0011D212F5001211D20DD529
:105700006FF47873B3EB62520ED44FEAC12343F0C7
:10571000004343EA505323FA02F070474FF0000071
:10572000704750EA013002D14FF0FF3070474FF020
:105730000000704708B5064B044613B10021AFF3D3
:105740000080044B1B6803B19847204601F0CBFD55
:1057500000000000501500202DE9F04F8DB00C46E0
:1057600016461F46DDF85880054600F01DFD03680B
:105770001846049302F01FF8002305900A93D8F806
:10578000003094F818A00733D4F800B023F00703D2
:1057900003F10802C8F800204FF0FF32D3E9008976
:1057A00029F00043CDF8188007939C4BDDE90601F2
:1057B000C4E9128901F012FB70BB4FF0FF32974B26
:1057C000DDE90601FFF750FF30BB00220023404611
:1057D0004946FFF73FFF10B12D2384F84330904A2C
:1057E000904BBAF1470F94BF9046984603234FF071
:1057F000000923612BF00403236033460BAA2146E2
:105800002846009701F04BFE013040F096804FF0A3
:10581000FF300DB0BDE8F08F42464B46404649464A
:1058200001F0DCFA40B14B467F4A002BBCBF2D2370
:1058300084F843307D4BD4E763685A1C26D1062395
:1058400063604BF4806200232846226003930AAB16
:10585000CDE901A309AB49EC108B00930DF12303B3
:10586000616801F07BFDBAF1670F8046099915D197
:10587000CB1C3BDB6368994238DC0A9B994255DBC1
:1058800023682161D80745D54B1C42E00AF0DF02AE
:10589000472AD6D1002BD4D10123D1E7BAF1470F43
:1058A00007D1C81C25DB63688B4222DB4FF0670AF7
:1058B000E3E7BAF1650F1FD80139524604F15000F1
:1058C000099101F0B3FD0A9A81461318012A236158
:1058D00002DC2268D20701D5013323619DF8233011
:1058E000002B8AD02D2384F8433086E74FF0650AD9
:1058F000E2E74FF0450ADFE7BAF1660FBDD10029B4
:1059000063680BDD216113B92268D00702D501332A
:105910000B4423614FF00009A165DFE713B922684A
:10592000D20701D50233F4E70123F2E70029D4BFFF
:10593000C1F1020201221344EBE723685A0507D4A0
:105940002369424631462846B84701302BD15EE7ED
:10595000BAF1650F40F2DD8000220023D4E9120184
:10596000FFF76EFE002833D00123314A3146284626
:10597000B84701303FF44BAFDDE90938434502DB5E
:105980002368D8070FD531462846DDE90423B847F8
:1059900001303FF43CAF4FF0000908F1FF3804F14B
:1059A0001A0AC84509DC23689B0700F10381E068F7
:1059B0000B9B9842B8BF18462BE70123524631464D
:1059C0002846B84701303FF422AF09F10109E8E762
:1059D000099B002B39DC0123154A31462846B8477C
:1059E00001303FF414AFDDE9093959EA030302D16C
:1059F0002368D907D7D531462846DDE90423B847BF
:105A000001303FF404AF4FF0000A04F11A0B099B78
:105A10005B4253450EDC4B4693E700BFFFFFEF7F31
:105A20009B8300089F830008A3830008A7830008C6
:105A3000AB83000801235A4631462846B847013057
:105A40003FF4E5AE0AF1010AE1E7A36DDDF828A015
:105A50005345A8BF5346002B994636DC4FF0000B48
:105A600029EAE97904F11A02A36D0693A3EB09036D
:105A70005B4531DC099B9A453ADC2368DA0737D469
:105A8000099BAAEB0309069BAAEB03039945A8BF50
:105A90009946B9F1000F33DC4FF0000829EAE979A3
:105AA00004F11A0B099BAAEB0303A3EB090343457B
:105AB0007FF779AF01235A4631462846B84701306F
:105AC0003FF4A5AE08F10108ECE74246314628460E
:105AD000B8470130C2D19AE60123314628460692E2
