S0200000696F73747265616D5F6575736172745F626172656D6574616C2E73333771
S315080000000010002059070008CF4F0008CF4F0008FE
S31508000010CF4F0008CF4F0008CF4F0008CF4F00083A
S31508000020CF4F0008CF4F0008CF4F0008CF4F00082A
S31508000030CF4F0008CF4F0008CF4F0008CF4F00081A
S31508000040CF4F0008CF4F0008CF4F0008CF4F00080A
S31508000050CF4F0008CF4F0008CF4F0008CF4F0008FA
S31508000060CF4F0008CF4F0008CF4F0008CF4F0008EA
S31508000070CF4F000831070008F34E0008CF4F00089D
S31508000080CF4F0008CF4F0008CF4F0008CF4F0008CA
S31508000090CF4F0008CF4F0008F50E0008CF4F0008D5
S315080000A0CF4F0008CF4F0008CF4F0008CF4F0008AA
S315080000B0CF4F0008CF4F0008CF4F0008CF4F00089A
S315080000C0CF4F0008CF4F0008CF4F0008CF4F00088A
S315080000D0CF4F0008CF4F0008CF4F0008CF4F00087A
S315080000E0CF4F0008CF4F0008CF4F0008CF4F00086A
S315080000F0CF4F0008CF4F0008CF4F0008CF4F00085A
S31508000100CF4F0008CF4F0008CF4F0008CF4F000849
S31508000110CF4F0008CF4F0008CF4F0008CF4F000839
S31508000120CF4F0008CF4F0008CF4F0008CF4F000829
S31508000130CF4F0008CF4F0008CF4F0008CF4F000819
S31508000140CF4F0008CF4F0008CF4F0008CF4F000809
S31508000150CF4F0008CF4F0008CF4F0008CF4F0008F9
S31508000160CF4F0008CF4F0008CF4F0008CF4F0008E9
S31508000170CF4F0008CF4F0008CF4F00080348044B65
S31508000180834202D0034B03B11847704784140020FA
S315080001908414002000000000064B0749C91A89107C
S315080001A048BF0131491003D0044B0BB10148184729
S315080001B0704700BF8414002084140020000000004B
S315080001C010B5064C237843B9FFF7D8FF044B13B193
S315080001D00448AFF300800123237010BD181B0020CC
S315080001E000000000645F000808B5054B1BB105490F
S315080001F00548AFF30080BDE80840FFF7CDBF00BF54
S315080002000000000084140020645F0008A3F5803A0B
S31508000210704700BF174B002B08BF134B9D46FFF7CF
S31508000220F5FF00218B460F461348144A121A05F0AB
S31508000230B2F90E4B002B00D098470D4B002B00D07F
S3150800024098470020002104000D000D48002802D020
S315080002500C48AFF3008004F061FA2000290004F08E
S3150800026014FE04F03BF800BF000008000000000080
S31508000270000000000010002084140020401B00200D
S31508000280000000000000000008B500F029F904F09D
S31508000290D7FD04F0E8FD00F05BF800F0B3F8BDE820
S315080002A008406421014800F0EBB800BF3016002072
S315080002B00B22014B1A6070479C140020F8B51E4C9F
S315080002C023680B2B07D11D4804F0BEF81E231C48D3
S315080002D0236000F069F92368142B19D150220021F4
S315080002E0184805F058F90023DFF858C0164A0133B4
S315080002F065461846DFF848E0142812DDB3F5807F16
S315080003000CF1040CA2F10402F1D1104804F09CF897
S315080003102368022B04DC00F035F9236801332360D7
S31508000320F8BD2F685EF8046BD2F8FC13013001FBA8
S31508000330067645F8046BDFE79C1400208059000810
S3150800034030160020A0140020001000209159000843
S315080003502DE9F0414FF4C8030026254A92B0254FEF
S3150800036001212A20CDE90523079601F0D7F80221B5
S315080003704FF4B06001F0B4FD324638461E4902F02B
S31508000380EDFDDFF87C808446454608AC8DF81900FB
S315080003900FCD0FC40FCD0FC495E80300334684E88C
S315080003A003003246CDF800C03846144902F008FE6C
S315080003B0D8F82C100A90D8F8280003AB03C30323F7
S315080003C08DF8103001238DF8133044F201133846A6
S315080003D008AA05A902938DF80E6002F049FE384670
S315080003E002AA03A902F046FD12B0BDE8F08100BFDB
S315080003F00001000200400059002D31018096980046
S315080004003C5A000830B51C4D8BB005AC0FCD0FC457
S315080004102B68102223600124002101A805F0BBF8EF
S3150800042005A88DF8044001F04DFC09214FF4C06081
S3150800043001F056FD21462C2001F070F82C2001F021
S3150800044095F84FF4FA53B0FBF3F002238DF80A300F
S3150800045000234FF001128DF80C30084B04908DF8EC
S3150800046006404FF0B240C3F8E04501A9C3F8E425B9
S3150800047003F0F2F90BB030BD6C5A000800C0035007
S3150800048070B50025124B0646586C86B0019001A837
S315080004900C4603F0D7F80F4B294602930E4B102251
S315080004A01846CDE90355059505F075F8013CC4F3E2
S315080004B00A040A4A240144F03164C0E901260460AA
S315080004C0024602A9284603F007F906B070BD00BF28
S315080004D03C5A000801000A00C01700207440005961
S315080004E0002370B5224C1946206892B00222806813
S315080004F003F0C4FF0023206802221946406803F06F
S31508000500BDFF01AA15461B4B03F1180614461868C9
S315080005105968083303C4B3422246F7D119889B7831
S315080005202180A370144C1A222946206804F04FFE35
S31508000530206803F01BFB08AA1546104B03F120069A
S31508000540144618685968083303C4B3422246F7D1DB
S31508000550186899889B7926222060A180A37129466C
S31508000560002004F034FE064803F080FF12B070BD88
S3150800057024140020E759000800140020025A000835
S315080005809659000813B56C460549204604F009FE3D
S3150800059094E80600034802B0BDE8104003F054BFD3
S315080005A000400059295A000870B5064E051F00F587
S315080005B0C67455F8041F3046C83903F045FFA542EE
S315080005C0F7D170BD335A000810B5274C01F04AFA26
S315080005D004F065FD236F23F0070343F00303236745
S315080005E004F068FD214B00209B6ADB015EBF4FF4D7
S315080005F080321F4B9A62D4F8203123F0070343F068
S315080006000203C4F82031D4F8283123F0070343F055
S315080006100203C4F82831D4F8403123F0030343F029
S315080006200203C4F84031D4F8603123F0030343F0E1
S315080006300203C4F86031D4F8403223F0030343F0D0
S315080006400203C4F84032D4F8003223F0070343F01B
S315080006500203C4F80032D4F8083223F0070343F043
S315080006600203C4F8083210BD008000500040005A4A
S315080006700060005A30B5274D9DB008AC0FCD0FC4A9
S3150800068095E80F0084E80F002C22002111A804F039
S3150800069082FF214B572210930123CDE912238DF8AF
S315080006A0453003230E2407228DF850308DF8583034
S315080006B00823002115920DF112002246179304F023
S315080006C06AFF4FF48812154B1548CDE902230D230E
S315080006D08DF81030134B08AA05932023069340F291
S315080006E00113ADF81C30104B02A9009310AB8DF81E
S315080006F0114003F053FA044618B17C210B4804F064
S315080007007AFC00214FF4E13004F052FC20461DB07B
S3150800071030BD00BFB45A000800000A503C000A5019
S3150800072034180020191B0020D0170020845A00080E
S31508000730014804F0CBBD00BF341800200348044A22
S315080007400449121A921004F043BC00BFFC63000867
S31508000750FC630008401B002008B500F02FF8FFF7DF
S31508000760EDFF124B12498B4212D30020114B12494E
S315080007708B4218D3FFF74EFD186850F82240586888
S3150800078040F82240013298688242F5D30C33EAE7F2
S315080007900022F8E71C6844F8220001325C68A2428D
S315080007A0F8D30833E4E70022F8E700BF6C5F0008D7
S315080007B0785F0008785F0008785F00084FF480418A
S315080007C04FF0FF30114B124A10B59A60D3F88820C3
S315080007D042F47002C3F888200E4A91660E4901F564
S315080007E0005210660D4850660220C3F8D000BFF3C9
S315080007F04F8FBFF36F8F01244FF440330848C0F87A
S315080008008041D36004600B6110BD00BF00ED00E0BD
S315080008100000000800900050008000447FFF7F031E
S3150800082000E100E0014B1868704700BF081400207B
S31508000830084B1B6F03F00703022B04D0032B05D0CC
S31508000840012B05D0FEE7044B18687047034BFBE7FE
S315080008500348704700800050081400201014002038
S31508000860002D310108B5FFF7E3FF054B1B6FC3F3F6
S3150800087003330133B0FBF3F0024B186008BD00BF29
S3150800088000800050041400200048704700B4C404D7
S31508000890014B1868704700BF10140020054B1860FC
S315080008A0054B1B6F03F00703032B01D1FFF7DABFD4
S315080008B0704700BF101400200080005000487047A1
S315080008C0002D31014FF0B4439868C0F304400C285A
S315080008D00AD8DFE800F00B090909090907211909EF
S315080008E01B1D1F000F487047002070479B6803F0C8
S315080008F04073B3F1807F11D0B3F1007F10D00A4A5C
S31508000900002B08BF104670470848704708487047CC
S3150800091008487047084870470848704708487047AD
S3150800092008487047405DC60000093D00C0EA21013D
S3150800093080BA8C010048E801005A62020024F400DB
S3150800094080841E0040420F00014B1868704700BFA4
S315080009500C1400200346054A0549106803448B42D7
S315080009608CBF4FF0FF301360704700BF141400208F
S315080009700000042008B501213A2000F0CFFD01232C
S3150800098004220321002002F0F3F9002004F0EFFB13
S315080009900122354B3549C3F844244FF40022A3F508
S315080009A050335A66324BD3F8FC20D20146D4D1F8DC
S315080009B0803023F0030343F00203C1F880304FF47C
S315080009C0607000F0D3FD2A4B00F5D520D3F8F0204F
S315080009D000F2FC4042F00102C3F8F020D3F8FC20F4
S315080009E042F08072C3F8FC20224AA3F55D431A60E0
S315080009F0214B0222B0FBF3F0204B01381861C3F8F3
S31508000A00F0204FF48072C3F804234FF060431C4A69
S31508000A100020C3F8B02F1B4AC3F8802ED3F8002E47
S31508000A2042F48072C3F8002EFF2283F82020D3F800
S31508000A30002E22F48072C3F8002E08BDD3F8FC20DD
S31508000A4022F08072C3F8FC20D1F8802022F003023D
S31508000A5042F00202C1F88020D3F8FC2042F08072EE
S31508000A60C3F8FC20ABE700BF00D00350008000505D
S31508000A7000ED00E0FF030040F8590D00000004E017
S31508000A8055CEACC5090001004FF06043D3F8802E5F
S31508000A9030B5D20715D501240B4D8440D5F8FC2076
S31508000AA042F08072C5F8FC20D3F8002E2243C3F822
S31508000AB0002E53F82020002AF0D003F8201000203A
S31508000AC030BD1120FCE700BF00ED00E02DE9F04F36
S31508000AD09A46564B85B01B7806460F461546DDF8EE
S31508000AE03C909DF844B0DDF85080002B00F09780CC
S31508000AF0072A00F296800E9B002B00F09280B9F12F
S31508000B00000F00F08E80129BB3F5006F00F389800A
S31508000B10012803D1109B002B00F08380444B03EB84
S31508000B2005131B7B002B7ED0424C10220021684601
S31508000B3004F031FD04EB45141022A7BB39462046C4
S31508000B4004F029FD43F210036380BBF1000F03D1C3
S31508000B50E37843F00303E370364A0E9B02EB451C29
S31508000B60CCE90193129B6901581E9DF84C30C0F3DD
S31508000B700A0003F003039B0643EA001E53582E4857
S31508000B80012E00EA03004EEA0003CDF800A05350F8
S31508000B9017D0B8F1000F2ED19CF8023068F3041371
S31508000BA08CF8023027E00021204604F0F4FC4FF4CC
S31508000BB044736380BBF1000FCED1E37843F0300372
S31508000BC0C9E713230CF1100ECCF80C309CE80F0083
S31508000BD08EE80F006FF00301DCF81C20109B61F310
S31508000BE09F02012FCCF81C20CCF8143003D1CCF886
S31508000BF01890CCF8043000270D4A290102EB05139A
S31508000C0042F80180159A28465A60694622469F602E
S31508000C105E7302F061FD384605B0BDE8F08F0748FF
S31508000C20FAE70748F8E70748F6E700BF391B002048
S31508000C304C1900204C1800200F80FFF3028000F0AA
S31508000C40018000F0078000F038B5124B05461B7886
S31508000C50DBB1E0B104F048FA0F4A00231146147BD1
S31508000C6054B92B6001251A0101EB03131D738C502F
S31508000C7004F040FA204638BD0133082B02F1100271
S31508000C80EDD104F037FA0548F5E70548F3E70548D6
S31508000C90F1E700BF391B00204C190020048000F042
S31508000CA0028000F0018000F038B504F01DFA002338
S31508000CB005460B4A147B6CB90133082B02F1100266
S31508000CC0F8D102F081FC074B28461C7004F012FA92
S31508000CD0204603E0284604F00DFA034838BD00BF55
S31508000CE04C190020391B0020058000F00D4B10B56B
S31508000CF01B78044693B1072812D804F0F5F90A4B75
S31508000D0003EB04131A7B2AB100241C7304F0F2F9CE
S31508000D10204610BD04F0EEF90448FAE70448F8E75F
S31508000D200448F6E7391B00204C190020068000F01D
S31508000D30028000F0018000F0154B13B518680023F7
S31508000D4001908DF8043004F0CFF9124B1C7824B1C9
S31508000D5004F0D0F9104802B010BD01221A7004F050
S31508000D60C9F90E4B01A81C731C7783F82C4083F82D
S31508000D703C4083F84C4083F85C4083F86C4083F829
S31508000D807C4008238DF8073002F05CFC2046E2E739
S31508000D90DB5A0008391B0020038000F04C1900209C
S31508000DA00A4A08B512785AB107280BD8084A02EB3E
S31508000DB000131B7B43B1002102F024FC002008BD70
S31508000DC00448FCE70448FAE70448F8E7391B00201A
S31508000DD04C190020028000F0018000F0078000F026
S31508000DE00A4A08B512785AB107280BD8084A02EBFE
S31508000DF000131B7B43B1012102F004FC002008BD4F
S31508000E000448FCE70448FAE70448F8E7391B0020D9
S31508000E104C190020028000F0018000F0078000F0E5
S31508000E200A4A08B5127852B107280AD8084A02EBC6
S31508000E3000131B7B3BB102F0D1FC002008BD05481E
S31508000E40FCE70548FAE70548F8E700BF391B002024
S31508000E504C190020028000F0018000F0078000F0A5
S31508000E600D4B1B7893B1072812D889B10B4B03EBAE
S31508000E7000131B7B73B10A4B1A6D0123834013427F
S31508000E8014BF0123002300200B70704705487047E4
S31508000E900548704705487047391B00204C19002043
S31508000EA000000450028000F0018000F0078000F086
S31508000EB00B4A10B512780C4662B107280CD859B1FE
S31508000EC0084A02EB00131B7B43B102F0A3FC207017
S31508000ED0002010BD0448FCE70448FAE70448F8E790
S31508000EE0391B00204C190020028000F0018000F018
S31508000EF0078000F008B5FFF7DBF90A4803F0A4FA03
S31508000F00094A136D526D1A4000D5FEE708210123E0
S31508000F1006481A4218BF036501394FEA4303F8D158
S31508000F2008BD00BFD45A0008000004500020045031
S31508000F30044BD3F88420D206FBD4D3F88400C0F33C
S31508000F40811070470040005038B5124B0546D3F85B
S31508000F5080300C4603F00303022B0BD0032B0DD075
S31508000F60012B0FD1FFF764FC0D2305B1286004B1EE
S31508000F70236038BDFFF7A6FC0723F6E7FFF752FC08
S31508000F800623F2E7044841F2DF1104F034F800239F
S31508000F901846EAE700800050DF5A000838B51A4BB1
S31508000FA00546D3F820010C4600F00700062821D88C
S31508000FB0DFE800F028040C1410181C00FFF732FCB8
S31508000FC0052305B1286004B1236038BDFFF760FC2E
S31508000FD00323F6E7FFF776FC0723F2E7FFF76EFC35
S31508000FE00223EEE7FFF71EFC0623EAE7FFF750FCAD
S31508000FF00423E6E7054841F25C2103F0FCFF0023E1
S315080010001846DEE70123DCE700800050DF5A0008B7
S3150800101038B5194B0546D3F828310C4603F00703B3
S31508001020013B052B20D8DFE803F003131B0F0B1732
S31508001030FFF7F8FB052305B1286004B1236038BD26
S31508001040FFF7F0FB0623F6E7FFF73CFC0723F2E77A
S31508001050FFF71EFC0323EEE7FFF71AFC0423EAE773
S31508001060FFF72CFC0223E6E7044841F2640103F08B
S31508001070C2FF00231846DEE700800050DF5A00084A
S31508001080F7B50027144B0197D3F88041064604F0BC
S315080010900304022C0D4614D0032C0DD0012C14D1B8
S315080010A0394601A8FFF77AFF0F240EB1019B33607A
S315080010B005B12C6003B0F0BDFFF704FC07240190CE
S315080010C0F3E7FFF7FBFB0190EFE741F2B131034885
S315080010D003F091FF3C46E8E700800050DF5A00081D
S315080010E038B50F4B0546D3F890320C4603F0030388
S315080010F0012B09D0022B0BD1FFF7E4FB072305B11F
S31508001100286004B1236038BDFFF7D8FB0223F6E751
S31508001110044841F2501103F06EFF00231846EEE72B
S3150800112000800050DF5A0008002337B50193194B99
S315080011300546D3F820320C4603F00703042B1FD8C4
S31508001140DFE803F025030F141900002101A8FFF7B3
S315080011505FFF11230DB1019A2A6004B1236003B021
S3150800116030BDFFF7AFFB07230190F3E703F03DFF20
S315080011700A230190EEE7FFF7E7FB09230190E9E769
S3150800118041F22301044803F036FF0023E2E7012376
S31508001190E0E700BF00800050DF5A000838B5104B62
S315080011A00546D3F840310C4603F00303022B0BD057
S315080011B0032B0DD0012B0FD103F017FF0A2305B11E
S315080011C0286004B1236038BDFFF7BEFB0923F6E7A4
S315080011D003F00EFF0B23F2E701230020EFE700BF21
S315080011E000800050002337B50193184B0546D3F805
S315080011F060320C4603F00703013B032B1FD8DFE8D8
S3150800120003F0020E1914002101A8FFF7C7FE0F23E9
S315080012100DB1019A2A6004B1236003B030BD0021E4
S3150800122001A8FFF7BBFF1023F2E7FFF74BFB0723E5
S315080012300190EDE7FFF742FB02230190E8E741F250
S31508001240C801034803F0D7FE0023E1E700800050F9
S31508001250DF5A000873B500240F4B0194D3F8703297
S31508001260064603F00303012B0D4607D0022B11D0C7
S3150800127041F22611094803F0BEFE04E0214601A802
S31508001280FFF78CFF10240EB1019B336005B12C606B
S3150800129002B070BD1424F6E700800050DF5A00083B
S315080012A038B5164B0546D3F800020C4600F0070081
S315080012B0042819D8DFE800F020030B0F130003F009
S315080012C094FE0A2305B1286004B1236038BDFFF7F0
S315080012D03BFB0923F6E703F08BFE0B23F2E7FFF748
S315080012E0C1FA0E23800AEDE7054841F26F4103F083
S315080012F082FE00231846E5E70123E3E70080005055
S31508001300DF5A000838B5164B0546D3F808020C46CE
S3150800131000F00700042819D8DFE800F020030B0FB7
S31508001320130003F062FE0A2305B1286004B12360A6
S3150800133038BDFFF709FB0923F6E703F059FE0B232F
S31508001340F2E7FFF78FFA0E23800AEDE7054841F228
S31508001350A74103F050FE00231846E5E70123E3E71B
S3150800136000800050DF5A000838B5104B0546D3F800
S3150800137040320C4603F00303022B0BD0032B0DD08F
S31508001380012B0FD103F031FE0A2305B1286004B101
S31508001390236038BDFFF7D8FA0923F6E703F028FEDD
S315080013A00B23F2E701230020EFE700BF008000507F
S315080013B038B5124B0546D3F850320C4603F00303F2
S315080013C0022B0FD0032B05D0012B0FD103F00DFEF6
S315080013D00A2302E003F00CFE0B2305B1286004B1D2
S315080013E0236038BDFFF7B0FA0923F6E7044841F24F
S315080013F0940103F000FE00231846EEE70080005033
S31508001400DF5A000838B5104B0546D3F860310C464C
S3150800141003F00303022B0BD0032B0DD0012B0FD1A6
S3150800142003F0E3FD0A2305B1286004B1236038BD43
S31508001430FFF78AFA0923F6E703F0DAFD0B23F2E74A
S3150800144001230020EFE700BF00800050B0F5207FA1
S3150800145010B52ED009D8B0F5007F24D003D868B1CE
S31508001460B0F5C07F0AD000241BE0B0F5607FFAD142
S31508001470124BD3F88040C4F3011412E00F4B1C6FD3
S31508001480230B13F00E0FC4F303340AD0072C08D02D
S315080014900F2C06D0032C04D040F28521084803F00F
S315080014A0AAFD601C10BD054BD3F89040C4F3046434
S315080014B0F7E7024B1C6FC4F38024F2E70080005064
S315080014C0DF5A00084FF4803238B5104B04469A6646
S315080014D000200D46FFF7BAFF41F671320C4B604308
S315080014E0DC69DA635A6804F4803422F440125DB980
S315080014F00849884294BF00200120000502435A602B
S315080015000CB10022DA6338BD0349F2E700900050B7
S3150800151000000350005A6202002D310138B5430914
S3150800152004460D460ED140F22F310D4803F063FDF7
S31508001530002304F01F0485B103F580530122A2405D
S315080015401A6038BD012B04D0022B04D040F23D317D
S31508001550EBE7044BEDE7044BEBE703F50053EDE748
S31508001560DF5A00086480005068800050002130B5BA
S31508001570B0F5807F85B00446CDE9001100F00681FC
S315080015806BD8002800F0DB80A0F12004602C75D809
S31508001590602C73D8DFE814F0D300E0007200E00096
S315080015A0F000F000F000F000F000E000F5007E002A
S315080015B00B019E007E00E000E000E0007200720071
S315080015C0720072007200720072000B01E000E00007
S315080015D0E00023011001E000720072007200720040
S315080015E0720072007200720072007200720072005D
S315080015F01501F000D300D300D300B1007E007E00B1
S31508001600B9001A019300C800C8007200720072007F
S315080016107200D300720072007200720072007200CB
S31508001620720072007200720072007200720072001C
S31508001630720072007200720072007200720072000C
S3150800164072007200720072007200720072007200FC
S315080016507200720072007200CD00B0F5E06F00F003
S31508001660AB803CD8B0F5607F00F081801DD8B0F51E
S31508001670007F67D008D8B0F5C07F60D040F29441AB
S31508001680594803F0B8FC57E0B0F5207F64D0B0F5B0
S31508001690407FF3D1FFF7E6F804464FF42070FFF7D2
S315080016A0D5FEB4FBF0F464085FE0B0F5B06F68D01F
S315080016B00AD8B0F5806F5FD0B0F5A06FDED10021F3
S315080016C06846FFF731FD37E0B0F5C06F6FD0B0F56B
S315080016D0D06FD3D100216846FFF7E2FD2CE0B0F5C4
S315080016E0286F73D016D8B0F5186F6AD00AD8B0F537
S315080016F0F06F74D0B0F5106FC0D100216846FFF7BF
S3150800170001FE19E0B0F5206FB8D100216846FFF751
S3150800171069FD11E0B0F5306F5DD0AFD3B0F5386F25
S3150800172045D0B0F5406FA9D100216846FFF770FC97
S3150800173002E0FFF77DF80090009805B030BDFFF78E
S3150800174091F8F8E7FFF774F805462046FFF77EFE9E
S31508001750B5FBF0F50095EFE7FFF784F804464FF47C
S315080017602070FFF773FEB4FBF0F40094E4E701A8D9
S31508001770FFF7EAFB019DE8E700216846FFF70EFC44
S31508001780DAE700216846FFF77BFCD5E74FF0E02350
S3150800179002911B695B0705D5FFF764F80290029B67
S315080017A00093C9E703A902A8FFF7F8FCF7E70021A9
S315080017B06846FFF7F3FCBFE700216846FFF7D4FD4C
S315080017C0BAE700216846FFF7F3FDB5E7002168464A
S315080017D0FFF740FDB0E76846FFF782FCACE700215B
S315080017E06846FFF70FFEA7E7DF5A00081FB503464E
S315080017F00020B3F5607F019000F00E817BD8582B4E
S3150800180068D8382B05D8243B092B49D940F2795199
S31508001810CEE0393B1F2BF9D801A252F823F000BFBE
S31508001820D31900080D1800080D1800080D1800082F
S31508001830DD1900082B1A00080D1800080D180008F5
S315080018400D1800080D1800080D1800080D180008D6
S315080018500D1800080D1800080D1800080D180008C6
S315080018600D1800080D1800080D180008351A00088C
S315080018701D1900080D1800080D1800080D18000895
S31508001880611900080D1800080D1800083F1A00080D
S31508001890491A0008211A0008831900088319000844
S315080018A0092BB3D801A252F823F000BF1D1900086E
S315080018B01D1900081D1900081D1900081D19000822
S315080018C00D180008B91900080D180008D3190008E2
S315080018D03B190008802B59D0B3F5807F96D14FF07D
S315080018E0E02302901B695B076ED5FEF7BBFF0C234E
S315080018F00393039B56E0B3F5086F74D022D8B3F56B
S31508001900C06F66D00FD8B3F5A06F00F08980B3F525
S31508001910B06F51D0B3F5806F7FF478AF002001A97E
S31508001920FFF73CFB4CE0B3F5E06F7ED0B3F5F06F04
S3150800193054D0B3F5D06F7FF469AF002001A9FFF743
S31508001940AFFC3DE0B3F5286F7ED00ED8B3F5186F1F
S3150800195070D0B3F5206F72D0B3F5106F7FF456AF21
S31508001960002001A9FFF7CEFC2AE0B3F5306F70D04E
S31508001970FFF44CAFB3F5386F2BD0B3F5406F7FF457
S3150800198045AF002001A9FFF743FB19E0334B1B6F56
S3150800199003F00703013B032B08D8DFE803F0050231
S315080019A03139052301930BE00223FBE740F2C641D8
S315080019B02B4803F020FB03E0002001A9FFF760FB9A
S315080019C0019805B05DF804FB03A902A8FFF7E6FB3A
S315080019D08FE7002001A9FFF7E1FBF1E7002001A945
S315080019E0FFF710FDECE71D4BD3F8003103F00303B6
S315080019F0022B07D0032B09D0012B0BD1FEF748FF8A
S31508001A000323CFE7FEF7A0FF0923CBE703F0EBFAA2
S31508001A100823C7E70123C5E701A9FFF795FACFE72A
S31508001A20002001A9FFF780FBCAE7002001A9FFF7FC
S31508001A309BFCC5E7002001A9FFF7BAFCC0E7002018
S31508001A4001A9FFF7CFFBBBE7002001A9FFF702FCBE
S31508001A50B6E701A9FFF744FBB2E700BF00800050D4
S31508001A60DF5A00084FF48012034B5A664FF480324F
S31508001A70024B9A62704700BF009000500050005A0F
S31508001A80F8B5036804460F2B04D940F66D31804833
S31508001A9003F0B1FA63680F2B04D94FF437617C4819
S31508001AA003F0A9FAA3680F2B04D940F673317848D6
S31508001AB003F0A1FA237B0F2B04D940F6763174483C
S31508001AC003F099FA637B0F2B04D940F679317048F5
S31508001AD003F091FAA37B3F2B04D940F67C316C487E
S31508001AE003F089FAE37B3F2B04D940F67F31684837
S31508001AF003F081FA2369032B04D940F6823164483E
S31508001B0003F079FA6369032B04D940F685316048F6
S31508001B1003F071FAE369032B04D940F688315C486F
S31508001B2003F069FA8020FFF761FE032800F08A8037
S31508001B304FF48012574B584D5A6645F60E034FF030
S31508001B40A062C5F88030554B9A624FF4803203F58F
S31508001B5080539A62AB6DDA03FCD4AE6D16F08046FC
S31508001B60FBD1D4E900231B0543EA0263E27B4C4818
S31508001B701343227B4B4F43EA0243627B43EA023319
S31508001B80A27B43EA82132B61AA69D4E904131B06D4
S31508001B9043EA816302F000421343A27E4FF4406198
S31508001BA01343227E43EA0243627E43EA0223AB6181
S31508001BB04FF4006203F051FA2B6AE17EE26923F0E2
S31508001BC00F0343EA8103002A3DD12B6294F824309F
S31508001BD094F82010AA6ADB0043EA41133A401343FB
S31508001BE094F82120304943EA021343F480332A4A01
S31508001BF0AB62936D31EA0303FBD14FF0807127483E
S31508001C0081621369A56823F4700343EA05531361D7
S31508001C104FF00043836194F822300BB9234B996245
S31508001C2094F823303BB94FF48032204B9A621A4A13
S31508001C30936D5B00FCD494F825301BB1164B1C4AF7
S31508001C40C3F88020F8BD134343F00803022A2B6229
S31508001C5008D12E614FF408524FF47F411548AE6102
S31508001C6003F0FBF90C4994F822308A6A94F82000AC
S31508001C701B063A4043EA4013134394F8242043EAE8
S31508001C80C20394F8232043EA02438B62D3E700BFDA
S31508001C90DF5A0008009000500040005A0050005AD1
S31508001CA03840005AC7FFFEFE030001000060005AD4
S31508001CB0F1A7FFFF3440005A014B93F90000704723
S31508001CC078140020436810B5072B044604D940F65B
S31508001CD0B3512A4803F08FF9A368032B04D940F6B9
S31508001CE0B551264803F087F92378032B04D940F623
S31508001CF0B751224803F07FF994F90130002B04DA32
S31508001D0040F6B9511D4803F076F94FF400011C4A14
S31508001D10637851664FF4D151022002F5B832516208
S31508001D2018494F2B48604FF0010028BF4F2301F593
S31508001D30805148601169C903FCD4217843EA01231C
S31508001D405361D4E901131B0143EA0123617B0B4369
S31508001D50217B43EA41039360E37BA17B1B0143EAB2
S31508001D604113617C0B43217C43EA41035360A37C06
S31508001D7013B16FF4D153536210BD00BFDF5A000888
S31508001D800090005000100250014B1880704700BFA9
S31508001D9076140020014B1880704700BF7414002089
S31508001DA0B0F5207F38B571D00ED8B0F5007F5BD07E
S31508001DB003D890B3B0F5C07F2FD040F21231BDE8FA
S31508001DC038403A4803F017B9B0F5607FF5D1384A7C
S31508001DD04C1ED2F8FC5015F080751EBFD2F8FC30A8
S31508001DE023F08073C2F8FC30032C04D940F2F221A8
S31508001DF02E4803F000F92F4AD2F8803023F030033A
S31508001E0043EA0413C2F8803035B1294AD2F8FC30C7
S31508001E1043F08073C2F8FC3038BD4C1E012C0AD939
S31508001E20102903D8244BCB40DB0704D440F2C72142
S31508001E301E4803F0E0F803F01FF903F02BF91D4ADA
S31508001E40136F23F4704343EA04331367FEF70AFD5E
S31508001E500446FFF76DF8C0F10201204603F014F9B5
S31508001E60BDE8384000F02AB84C1E1F2C04D940F2B1
S31508001E7006310E4803F0BFF80E4AD2F8903023F028
S31508001E80F85343EA0463C2F89030C5E74C1E012CA8
S31508001E9004D94FF44371054803F0ADF8054A136FAA
S31508001EA023F4806343EA84231367B5E7DF5A0008FF
S31508001EB000ED00E0008000501001010008B54FF465
S31508001EC0C070FFF753FBBDE808400449884294BF39
S31508001ED0012102214FF42070FFF762BF80F0FA0259
S31508001EE0B0F5607F70B50C4600F05B8200F2918019
S31508001EF0582867D8382805D82438092848D940F6F4
S31508001F00421196E139381F28F9D801A353F820F071
S31508001F1089220008FF1E0008FF1E0008FF1E000891
S31508001F20C92200089F240008FF1E0008FF1E00089B
S31508001F30FF1E0008FF1E0008FF1E0008FF1E0008FF
S31508001F40FF1E0008FF1E0008FF1E0008FF1E0008EF
S31508001F50FF1E0008FF1E0008FF1E0008DF240008F9
S31508001F603F200008FF1E0008FF1E0008FF1E00088D
S31508001F70BB200008FF1E0008FF1E000809250008F0
S31508001F805925000845240008FF200008FF200008FE
S31508001F900928B4D801A353F820F000BF3F20000851
S31508001FA03F2000083F2000083F2000083F20000887
S31508001FB0FF1E0008C1210008FF1E0008892200082C
S31508001FC071200008802800F0A980B0F5807F96D19E
S31508001FD00C2900F0338100F22781A1F10904022CB3
S31508001FE000F225814FF480329F4BA049586E03F5C5
S31508001FF080535A664B6A43F001034B62C1035CBFC8
S315080020009B4B5A664FF0E022136923F004031361D1
S31508002010B8E0B0F5086F00F0A5813DD8B0F5C06FFF
S3150800202000F0328118D8B0F5A06F00F00B82B0F539
S31508002030B06F00F0C580B0F5806F7FF460AF013CEB
S31508002040062C00F2E880DFE814F0EB00E000ED0073
S31508002050E400D400E200DE00B0F5E06F00F01F8275
S31508002060B0F5F06F00F03081B0F5D06F7FF447AF70
S31508002070013C0D2C00F25681DFE814F05901540199
S315080020805401540154015401540154015B014601A1
S315080020905001540154015201B0F5286F00F05C82DA
S315080020A01FD8B0F5186F00F01A82B0F5206F00F04F
S315080020B02B82B0F5106F7FF422AF013C0D2C00F295
S315080020C04881DFE814F04B01460146014601460106
S315080020D04601460146014D013801420146014601C5
S315080020E04401B0F5306F00F04E82FFF408AFB0F54A
S315080020F0386F00F0C980B0F5406F7FF400AF023C3E
S31508002100052C00F2C5815B4B195D574AD2F8283178
S3150800211023F007030B43C2F8283133E08B1E062B46
S3150800212043D8DFE803F03F30424A42420400002524
S3150800213004260121022000F053FA02F09DFF02F066
S31508002140A9FF494A136F23F0070333431367FEF7C2
S3150800215089FB0646FEF7ECFEC0F10201304602F0A6
S3150800216093FF0121002000F08FFAFFF7A7FE4DB973
S31508002170032C07D14FF480323F4B9A623F4A936D46
S315080021805800FCD470BD4FF480123D4B0E465A667B
S315080021904FF48032394B9D6A03F58053C5F30065C9
S315080021A09A62C6E700250126C3E7002540F2316199
S315080021B0344802F020FF2E46BBE700250226B8E782
S315080021C0072C12D00F2C12D0022C05D040F27A61BF
S315080021D02C4802F010FF0024234AD2F8803123F05D
S315080021E003032343C2F88031CCE70324F4E7012430
S315080021F0F2E701231C49D1F8202122F007021343F4
S31508002200C1F82031BEE70423F4E70323F2E70523E8
S31508002210F0E70623EEE740F2B9611A4802F0EBFE52
S315080022200023E7E70223E5E710293FF4DBAE40F297
S31508002230E161BDE87040134802F0DDBE4FF480321C
S31508002240094B0A49586E03F580535A664B6A23F0C0
S3150800225001034B62C3035CBF054B5A664FF0E0228D
S31508002260136943F00403D2E60080005000C007500B
S3150800227000A000502F5B00080060005A0040005A7A
S3150800228000900050DF5A0008013C0A2C13D8DFE8FA
S3150800229004F0171212121212121219061000012255
S315080022A0A449D1F8403123F003031343C1F8403160
S315080022B068E70322F4E740F201719F4802F09BFEAB
S315080022C00022EDE70222EBE7013C0A2C13D8DFE8EF
S315080022D004F0171212121212121219061000012215
S315080022E09449D1F8603123F003031343C1F86031F0
S315080022F048E70322F4E740F223718F4802F07BFE99
S315080023000022EDE70222EBE701228A49D1F80032E2
S3150800231023F007031343C1F8003233E70322F4E737
S315080023200422F2E74FF4EE61834802F064FE0022CD
S31508002330EBE70222E9E701227E49D1F8083223F0C9
S3150800234007031343C1F808321CE70322F4E7042203
S31508002350F2E740F29471784802F04DFE0022EBE76E
S315080023600222E9E74C1E082C12D8DFE804F0161101
S3150800237005111111110F180001226E49D1F800310B
S3150800238023F003031343C1F80031FBE60322F4E705
S315080023904FF4F661684802F02EFE0022EDE70222AD
S315080023A0EBE7664A634BD2F8FC5015F080750AD104
S315080023B0072929D1D3F8802022F0030242F002022D
S315080023C0C3F88020DEE6D2F8FC10072C21F08071D5
S315080023D0C2F8FC100FD1D3F8802022F0030242F095
S315080023E00202C3F88020554AD2F8FC3043F08073C5
S315080023F0C2F8FC30C6E60D2C0FD1D3F8802022F0A7
S31508002400030242F00102ECE70D2906D1D3F8802039
S3150800241022F0030242F00102D2E7062C10D040F265
S31508002420E171454802F0E7FD0021424AD2F88030C2
S3150800243023F003030B43C2F88030002DD3D1A1E665
S315080024400321F2E7012C1FD0073C0A2C17D80A2CC7
S3150800245015D8DFE804F01B141210141414141414FD
S31508002460060001223349D1F8203223F0070313432B
S31508002470C1F8203286E60322F4E70422F2E740F6A2
S315080024803D012D4802F0B7FD0022EBE70222E9E7FD
S3150800249040F66E01284802F0AEFD002135E6013C03
S315080024A00A2C13D8DFE804F01712121212121212AD
S315080024B01906100001221F49D1F8403223F0030300
S315080024C01343C1F840325DE60322F4E740F6AC0157
S315080024D0194802F090FD0022EDE70222EBE7093CDD
S315080024E0022C0AD8164B195D124AD2F8503223F03C
S315080024F003030B43C2F8503244E640F6C8010E48BF
S3150800250002F079FD0021EFE70F2C1FD01AD8022C14
S315080025101ED0072C1ED040F6E201074802F06BFDDC
S3150800252000220449D1F8603223F007031343C1F8A7
S31508002530603227E600800050DF5A000800ED00E010
S315080025402C5B0008102CE6D10222EAE70122E8E714
S315080025500322E6E70422E4E7102C10D0142C10D04E
S315080025604FF41161134802F046FD00221249D1F8D2
S31508002570703223F003031343C1F8703202E60122D6
S31508002580F4E70222F2E7022910D0072910D040F614
S315080025902311084802F02FFD00220749D1F890328E
S315080025A023F003031343C1F89032EBE50122F4E765
S315080025B00222F2E7DF5A000800800050024A536BF5
S315080025C00342FCD1704700BF00400950034A017915
S315080025D0D36E23F030030B43D36670470040005098
S315080025E0F8B50446244BD3F88420D006FBD4D3F898
S315080025F08430C3F381139C423CD0FEF719F9012CB1
S3150800260005460BD11D4B984204D940F281711C48EE
S3150800261002F0F1FC0121284602F036FD02F05DFDCC
S315080026204FF00072174B07465A66204602F065FDC2
S315080026304FF48063104E621E93403367736E9A019F
S3150800264003D4D6F884309B060AD5384602F049FDED
S31508002650022C0FD12846BDE8F840002102F014BD2F
S31508002660D6F884309906E9D540F28F71044802F00D
S31508002670C2FCE3E7F8BD00BF00400050005A620202
S31508002680355B00080060005010B50C4608B9FEF727
S31508002690CFF8074B21461B783BB1064B984204D826
S315080026A00120BDE81040FFF79BBF0220F9E700BFF5
S315080026B03A1B0020005A62024FF0004238B5244BFC
S315080026C0244C5A664AF6CD33656C014605F0010579
S315080026D0236428BB0120FFF771FF6368DB0715D564
S315080026E01D4B586008461D4B226BD2070CD49842E6
S315080026F008D1072415B1174B194A1A6402F0FEFCD3
S31508002700204638BD0130EFE79842F2D00024F1E7C1
S315080027100132236B13F0080305D08A42F8D1E8E7A3
S3150800272000220E49F5E78A42E3D020210A4A91623F
S315080027300121A2F5805251600649084A886A800636
S3150800274003D49342D5D00133F8E79342DDE700BFBF
S3150800275000900050004009500060095040420F00A8
S315080027603254FFFF10B502F0D4FC202341F20202D6
S3150800277003610023C360836042614FF4A0220749C6
S315080027808361426200F50052C36103628362C362D9
S3150800279043630365D164036310BD00BFFF3F0D03A8
S315080027A038B5194B044698420D460BD0174B98423C
S315080027B008D003F58043984204D04FF4B371144807
S315080027C002F019FC25B92046BDE8384002F0A1BC44
S315080027D0012204F580535A6040F6FF71204605F041
S315080027E00F0202F092FCA263782102F08EFC05F03B
S315080027F001036A0748BF43F00203A26C02F0030212
S315080028009A42FAD138BD00BF0000015B00000A50A9
S31508002810825B0008F8B505460C46164622B94FF401
S3150800282009716D4802F0E7FB6C4B9D4202D1BCB9B9
S31508002830562411E06A4B9D424FD003F580439D42D2
S3150800284047D040F22721644802F0D5FB44B940F24C
S315080028507631614802F0CFFB2046FEF787FE044634
S31508002860AB68D90749D5B44204D240F231215A4857
S3150800287002F0C1FBB4FBF6F46F68013CFF2C07F0CD
S31508002880010704D940F23921534802F0B4FB240663
S315080028906FB32821284602F038FCAB6C9A0720D182
S315080028A0AB6CDB071FD4AE6C16F002061DD140F2E6
S315080028B04621494802F09FFB284602F02AFC2B696C
S315080028C0314623F07F4323432B61BDE8F840FFF7E9
S315080028D067BF002CC4D15824BEE7002CC0D15724AA
S315080028E0BAE70526E8E70926E6E70626E4E72B69B8
S315080028F023F07F4323432B61F8BD6B68012B04D07B
S3150800290040F25921344802F076FBAB6803F0E00345
S31508002910402B42D009D893B1202B1AD040F29B21E4
S31508002920BDE8F8402C4802F066BB602B42D0802BED
S31508002930F4D106EB4603A34247D801230DE0B6EBD4
S31508002940141F04D940F28121234802F054FB1023B6
S3150800295003E0B6EBD40F1AD8082373436401B4FB1B
S31508002960F3F4204F203CB7EBC40F4FEAC40604D259
S3150800297040F2A621184802F03EFB28463E400121B7
S3150800298002F0C3FB2E63BDE8F84002F0BEBB40F27E
S315080029908621114802F02FFBDEE70623B4FBF3F38A
S315080029A0B34201D30623D8E740F28B210A4802F046
S315080029B022FBF7E7B6EB940F01D80423CDE74FF4D3
S315080029C02471054802F017FBF7E740F29521024803
S315080029D002F011FBB1E700BF825B00080000015B53
S315080029E000000A50F8FF7F00436870B504460D469C
S315080029F016461BB140F6FF7102F087FB2046FFF72B
S31508002A00B1FEE9896B7B62690B43298A22F44C5231
S31508002A100B4322F00F0213436361A2682B7B297EC6
S31508002A2022F0804222F0E2020B4313436A69134301
S31508002A30A360AB681BB9A36843F00043A360EB69C6
S31508002A40002B72D0987A1A7A4004A16840EA82501C
S31508002A505A4A0A4010439A8802F4C04210435A78E8
S31508002A6040EA82005A7B40EAC2009A7B40EA02109A
S31508002A709A7840EA8220A060D3E90421E0680A43F4
S31508002A804F4901400A43997942EA8122D97942EAB3
S31508002A904122E2601A784B49012A12D1E26842F0D3
S31508002AA00402E2608C4265D0474A944264D002F53B
S31508002AB0804294420CBF02224FF0FF324349520132
S31508002AC013E0032A4ED1E26842F00402E2608C4227
S31508002AD04CD03D4A94424BD002F5804294420CBFFA
S31508002AE002224FF0FF323A495201114402224A604B
S31508002AF05A7A04F580518A621AB1E26842F4006291
S31508002B00E260DA7A5AB1E26842F40042E2602D4A9B
S31508002B10944233D11A7B2F4902F00F024A66626A41
S31508002B20DB7B22F00302134363623EB196F8203042
S31508002B3004F58051002B33D001230B620521204672
S31508002B40FFF72EFEAA681AB120466968FFF762FEEB
S31508002B5020462978FFF724FEA36CDB4313F4405F75
S31508002B60FAD170BD023A012AB1D99BE70022BAE729
S31508002B700122B8E70022A1E701229FE7124A944200
S31508002B8005D11A7B134902F00F020A67C7E7124AF2
S31508002B90944201BF1A7B0F4902F00F02CA67BEE7CB
S31508002BA0E26996F8223096F8210022F009020343DA
S31508002BB0134343F00103CB61C0E700BFE39BBDFFAE
S31508002BC0FFF9F0870000015B00000A50C0E40350DB
S31508002BD0C0D403500090035000400A5038B52B4B20
S31508002BE0054698420C4642D119B98C21284802F06C
S31508002BF002FA5620FEF7FAFD20F00203092B05D04B
S31508002C000A2803D0A0F11003012B39D8637B032BC4
S31508002C1003D9AA211E4802F0EEF9237B802B03D0A4
S31508002C20AC211B4802F0E7F96369B3F1804F03D082
S31508002C30AE21174802F0DFF9238A23F400539BB22A
S31508002C40B3F5805F03D0B021114802F0D4F9A36828
S31508002C50013BB3F5165F03D3B2210D4802F0CBF959
S31508002C6021462846BDE838400022FFF7BDBE8A2126
S31508002C70074802F0C0F91CB98C21054802F0BBF9D7
S31508002C809E21034802F0B7F9C0E700BF0000015BC8
S31508002C90825B000838B5154B044698420D460AD0A3
S31508002CA0134B984207D003F58043984203D070210E
S31508002CB0104802F0A0F91DB972210E4802F09BF9DE
S31508002CC02B7B802B03D176210A4802F094F96B7B83
S31508002CD0032B03D97921074802F08DF929462046A6
S31508002CE0BDE838400022FFF77FBE00BF0000015B49
S31508002CF000000A50825B0008032838B504460D46D2
S31508002D0005D8094B33F81030CB40DB0704D440F222
S31508002D102D41064802F06FF9302301225C43044B2B
S31508002D20AA401A5138BD00BF6E5C0008D25B000885
S31508002D3040D00350032838B504460D4605D8094B3C
S31508002D4033F81030CB40DB0704D440F2FE31064896
S31508002D5002F051F9302301225C43044BAA401A5170
S31508002D6038BD00BF6E5C0008D25B000840E0035027
S31508002D7003282DE9F04104460D461746984605D81E
S31508002D801D4B33F81030CB40DB0704D44FF4B07139
S31508002D901A4802F030F937B129462046B8F1000F33
S31508002DA020D0FFF7A9FF0F21072D04EB440688BFA3
S31508002DB0A5F108034FEA0616114895BFAB009B001C
S31508002DC004360C3607FA03F29940304402F0C0F98B
S31508002DD07FB929462046B8F1000F06D0BDE8F04174
S31508002DE0FFF78ABFFFF7A6FFDDE7BDE8F041FFF76B
S31508002DF0A1BFBDE8F08100BF6E5C0008205C00083A
S31508002E0030C003504369DA01FCD4012300F50050B1
S31508002E10024A436053689B07FCD470470040005938
S31508002E2038B5124B044698420D4604D040F2A2210A
S31508002E300F4802F0E0F8012204F5805361685A60F1
S31508002E40EB786A785B0443EA02232A781343AA7864
S31508002E50120402F480321343C4F89830CB0704D422
S31508002E602046BDE83840FFF7CDBF38BD00400059C1
S31508002E70765C00081E4B70B5984204460E46154609
S31508002E8004D040F26A211B4802F0B5F82046FFF745
S31508002E90B9FF3378727803F0070343EAC203F2787E
S31508002EA0294643EA0223B2782046120102F070024C
S31508002EB013432367E26A337922F48B321B0222F426
S31508002EC0807203F4E0631343B27943EA02437279EA
S31508002ED0120302F480521343E362FFF7A1FF0122B3
S31508002EE004F580535A60F37903B1E26070BD00BF00
S31508002EF000400059765C0008144B10B598420C4601
S31508002F0004D040F27531124802F075F874B92A20D7
S31508002F10FEF72CFB0446B0B10E4B984206D90B4B74
S31508002F209B68C3F302730133B0FBF3F40A4B04F551
S31508002F30742404F23F24B4FBF3F4601E7F2828BFF0
S31508002F407F20C0B210BD0124F0E700BF0040005941
S31508002F50765C0008005A620240420F0038B5154BED
S31508002F600D469842144604D04FF46C71124802F08C
S31508002F7042F835B940F2B1310F4802F03CF8B4B125
S31508002F80FFDE0E4B9D4228BF1D461CB92A20FEF7C0
S31508002F90EDFA04462C44013CB4FBF5F0AC4228BFDC
S31508002FA000F1FF30032828BF0320C0B238BD2546EC
S31508002FB0ECE700BF00400059765C0008005A620240
S31508002FC0F8B51F46194B0E469842144604D040F2EF
S31508002FD0EA31174802F00FF826B940F2EB311448E7
S31508002FE002F009F8FFB1134D134B012F08BF1D4618
S31508002FF0B54228BF35461CB92A20FEF7B7FA04465B
S315080030009DF8183040F2FF300133B4FBF3F46B1E21
S315080030101C44B4FBF5F3AC4228BF03F1FF339842D6
S3150800302028BF1846F8BD054DE2E700BF0040005925
S31508003030765C0008404B4C00002D310180969800C4
S3150800304013B5044601A800F0FFFC042C04D8064B6F
S3150800305033F8140002B010BD044840F2974101F05D
S31508003060CAFF0020F6E700BFC45C0008765C0008CB
S315080030702DE9F04F2DED048B0546DFF86CC38DB0B6
S3150800308006AF0E461446BCE80F000FC79CE80300BF
S31508003090CA4B87E803009D4203D0F121C84801F0D6
S315080030A0AAFFDFF84883002241462846FFF756FF65
S315080030B07779874238BF07462846FFF7A3FE307957
S315080030C0FFB250B92A20FEF751FA4045014628BFFB
S315080030D0B0FBF7F12846FFF70FFFF3783A071B0115
S315080030E002F0E04203F0300313430004327800F4A0
S315080030F0FE0003430AB143F0020372780AB143F0B3
S315080031000403B2780AB143F00803AB60F388328946
S315080031102B61738943EA02432B62A84B9D4200F058
S315080031203D82012305F580556B600DB0BDEC048B1F
S31508003130BDE8F08FA349B2E0D6F880114FEA114BEB
S31508003140012B09F1050613D9022B00F08E8140F2F6
S31508003150F7119B4801F04FFF88E0D6F884111FFA53
S3150800316081FBEDE7D6F88411E8E7D6F88011F6E793
S315080031709244DAF84810C1F3023C0CF1FF310129F8
S31508003180914900F2EB80DFED917AD1F880111FFAB0
S3150800319081FA02F1B2422AF4C04102F580424FEAAE
S315080031A0814B916C0122C1F3820101F1010E02FAF1
S315080031B00EF209EE102A1AF4004FB8EEC99AF6EE86
S315080031C0008A814A18BF4BF0004B002940F0138152
S315080031D0002B40F00D81D2F88C311BB207EE103A65
S315080031E0B8EEC77A37EE878A002840F0278105A807
S315080031F000F02AFCDFED767ADFED766A86EE897ACC
S31508003200DFED756A67EE887A27EE267AF1EE006AB0
S31508003210BBF1004F07EEA67A0BD0DFED706A07EE1A
S3150800322090AA37EE266AFAEEE87AB0EE667A17EED4
S31508003230867AB5EEC07AF1EE10FACBBFB1EE477AD0
S3150800324078EEC78A37EE687AFDEEE87AC8BFFDEEF3
S31508003250C77A17EE903AB3F5003FC0F2FC806FEAE2
S315080032605B416FEA4141554A3301D150360106F1B7
S31508003270B246C8F3090306F58046736009F10109E9
S315080032801434B9F1020F3FF44CAF2378A668002B2B
S315080032903FF450AF5249534A012B18BF1146DFF885
S315080032A01CA10022504600970393FFF789FE1FFAD8
S315080032B086F80AEB0916B16C039B21F0435121F4F9
S315080032C01D1121F4435121F03F0103F0030C4CEA90
S315080032D0010C617880454FEA810101F01C014CEA36
S315080032E0010CA17838BF80464901C9B24CEA010CE5
S315080032F0E1782079090301F4E0414CEA01014FEA3B
S31508003300004C0CF4E02C41EA0C0194F810C04FEA8A
S3150800331009124FEA4C5C0CF4600C41EA0C0194F873
S3150800332005C04FEA0C7C0CF0405C41EA0C01B16424
S31508003330B16C254EC1F30231013904293FF615AFA8
S315080033400FF2040C5CF821F06B3100086B310008B1
S31508003350393100085B31000865310008BCF1030FFC
S315080033600FD1D1F880A14FEA1A4A3BB9D1F88C118E
S31508003370091407EE901AF8EEE77A0AE7D1F89411DD
S31508003380F6E7BCF1040FD1F884A10AD11FFA8AFA2C
S3150800339023B9D1F88C1109144900EAE7D1F8941138
S315080033A0F9E74FEA1A4A2BB9D1F88C11091401EB3F
S315080033B04101DEE7D1F89411F8E700BF0040005953
S315080033C0765C0008809698000080E00F00000000F8
S315080033D03D3B843F00008043000020440000004934
S315080033E0002D3101404B4C00D05C0008005A6202A7
S315080033F0D2F89431F1E6ABB9D2F890311BB207EEA8
S31508003400103AB8EEC77A77EE677A69EE286A654B9E
S3150800341087EEA67AD3F888311BB207EE903AF8EE13
S31508003420E77ADFE6D2F898311BB207EE103AB8EE23
S31508003430C77A37EE677A77EE877AE6E7D4ED037AC6
S31508003440DFED596AF8EE677A87EEA67AF7EE046A30
S31508003450C6EE877AD0E613F5003FAABFC3F3110379
S315080034604BF4003143EA0B01FDE60392FFF7E8FD52
S3150800347007EE900A9FED4C7AF8EE677A039A0CA944
S3150800348002F1B24303F580439B6C87EE875AC3F378
S31508003490421301EB830313ED067AFCEEC77A17EEA7
S315080034A0903AF7EE006A5C2B1CBF77EE267A87EE19
S315080034B0276A07EE90BADFED3D5AF8EE677A08BF3D
S315080034C09FED3B6A67EEA57A67EE867A9FED396AC5
S315080034D067EE867AF5EEC07AB6EE006AF1EE10FA75
S315080034E04CBF77EEC67A77EE867A02F1B24202F5DB
S315080034F08042136DFDEEE77A0023136517EE903AC6
S3150800350017EE901A13F4004F136DDFED2B4A18BF10
S3150800351043F000431365294B106D03EA81430343C7
S315080035201365204B9FED264AD3F88801D3F88831D6
S31508003530116D1BB207EE903AF8EEE77A77EEA47AA9
S31508003540C4EE074A37EE267AC4EE876AF7EE044ACF
S3150800355084EE857A67EE277AB1EE007A47EE876AB7
S3150800356007EE10BADFED177AB8EEC77A76EEA76AD5
S3150800357065EEC75A46EEA57AF5EEC07AF1EE10FA70
S315080035804CBF77EEC67A77EE867AFDEEE77A17EEC7
S31508003590903AC3F311030B43136567E64FF000092E
S315080035A06FE600BF0080E00F00007A440000003894
S315080035B0E71B753F00000047000000000000FC7F85
S315080035C000008048000000494FF480020B4B10B5FC
S315080035D0C3F88020BFF34F8FBFF36F8F0024FF22FD
S315080035E0074B21465C6520209A625C60FDF796FFD2
S315080035F02146BDE810402120FDF790BF00E100E01C
S3150800360000000450072838B504460D4603DD772127
S31508003610084801F0F0FC1F2C03D99121064801F057
S31508003620EAFC064A064B002D08BF13460122A240B3
S315080036301A6038BDE85C0008365D00084010045082
S315080036404020045010B5044618B991211F4801F0CE
S31508003650D2FC23781B0613F0604F03D092211B4837
S3150800366001F0C9FCE3780F2B03D9A321174801F011
S31508003670C2FC01212020FDF751FF01212120FDF781
S315080036804DFF0122124B5A60227812069A60617821
S31508003690A27842EA01429A61FF229A6200229A635C
S315080036A01A644FF000425A654FF0FF324FF480011A
S315080036B003F500531A65074AC2F88011E3781B011F
S315080036C0DBB282F81633116010BD00BFE85C000853
S315080036D00000045000E100E02DE9F0410126C3B2E4
S315080036E0072805460C46904606FA03F603DDEC2144
S315080036F0364801F080FC1CB9ED21344801F07BFC0A
S31508003700236823F47C1323F00F031BB1F0212F4801
S3150800371001F071FCA37A1B0413F47C0F04D040F269
S3150800372009112A4801F067FCE37A1B0513F07E6F3E
S3150800373004D040F20B11254801F05DFC237B5B05A4
S3150800374013F0FE5F04D040F20D11204801F053FC3F
S315080037501F4B204F1E65AB00226803F1A04303F5FB
S3150800376088235A60302202FB0575637B2B66E37A51
S31508003770A27A1B0543EA0243227B43EA4253EB65DE
S3150800378028F003032B6701F0AFFC7B6D33437B65A1
S31508003790237A13B13B6C33433B64637A13B1BB6B37
S315080037A03343BB632279A37943EA0243084A936108
S315080037B06179E37943EA014307498B61054B56630F
S315080037C09E64BDE8F04101F095BC00BFE85C0008C6
S315080037D000200450000004500010045010B50124C5
S315080037E0C3B2072804FA03F404DD40F29711074828
S315080037F001F001FC01F078FC054B5A6D22EA04023F
S315080038005A659C62BDE8104001F074BCE85C00088B
S315080038100000045010B50124C3B2072804FA03F4C3
S3150800382004DD40F2B5110A4801F0E5FB01F05CFC45
S31508003830084BDA6A224208D15B6B9C430CBF012411
S31508003840002401F057FC204610BD0024F9E700BF0C
S31508003850E85C000800000450B0F1B24F70B50546A8
S315080038600C4604D04FF4B3711F4801F0C4FB012283
S31508003870267805F580535A6046B96B69DA0705D587
S315080038804021284601F095FC02232B616378A17834
S31508003890E2681B0321B93AB143F400736A6203E094
S315080038A043F40073002AF9D1E2780AB143F480732D
S315080038B022790AB143F0400362790AB143F08003E2
S315080038C0E279A179120142EA8102217A0A43134375
S315080038D0EB6046B16B69DB0705D42021284601F069
S315080038E068FC01232B6170BD835D0008242808B598
S315080038F015D820280AD8012819D00C2819D018B1AB
S31508003900B6210E4801F077FB002007E0223802288E
S3150800391011D8DFE800F002080A00022008BD3228A4
S31508003920EED10620FAE70420F8E70520F6E703209B
S31508003930F4E70720F2E70120F0E700BFD45D0008AE
S315080039400C2810B50C4628D003D801281CD02046D0
S3150800395010BD242810D82028F9D9042C0FD801A383
S3150800396053F824F04F3900084F3900084F3900083A
S315080039704F3900084F3900083228EED0E7E7F6211C
S315080039800B4801F038FBE2E70129E0D00229DED036
S315080039900029DCD040F20711F2E7022904D00329F6
S315080039A004D04FF48B71EBE70024D0E70124CEE76F
S315080039B0D45D000870B50546C2F3062602F0070472
S315080039C079B90B2804D94FF4FC710F4801F013FBA1
S315080039D044EA062444F4402406350C4B43F82540B3
S315080039E070BD032804D940F2FD11074801F003FB16
S315080039F021463046FFF7A4FF04463046FFF776FF18
S31508003A00123544EA0024E8E7D45D00080080035034
S31508003A10B2F5805F70B505460E4614460DD34FF4D1
S31508003A200B71084801F0E7FA24F0030202F1A042FC
S31508003A3002F5603226B9156001E0002AF4D170BD9E
S31508003A402D02F8E7D45D00084FF48032084B5A6619
S31508003A5003F5E6239B69C3F3461203F00F010A43F5
S31508003A604280C3F30342C3F30333427003707047C3
S31508003A700090005013B50024064A6846536F43F079
S31508003A800103536700948DF80440FEF79FFD204616
S31508003A9002B010BD0040005030B58BB06C46174DD3
S31508003AA00FCD0FC40FCD0FC495E8030084E80300BB
S31508003AB0134BD3F84C2112031CD5A3F5FE431C88DF
S31508003AC04FF6FF739C4208BF72248DF81940FEF723
S31508003AD0F3F8204480F308008DF818000948FCF72D
S31508003AE0DDFE6846FDF7CCFF3220FEF753F90020CD
S31508003AF00BB030BDD3F85041E4B2E6E7245E0008C7
S31508003B000080E00FC017530230B5084D87B001ACEE
S31508003B100FCD0FC42B6801A82360FEF7D3F8322017
S31508003B20FEF732F9002007B030BD00BF4C5E000832
S31508003B306FF00403502110B50A480B4C13F0800FA0
S31508003B4003F1010207D123444F2A83F800131346D1
S31508003B50F4D1002010BD03F00F03043B034419768B
S31508003B601346EBE700ED00E000E100E010B504467F
S31508003B7001F0B3FA024B1C6001F0B3FA002010BD45
S31508003B80CC19002010B501F0A8FA034B1C6801F007
S31508003B90A8FA204610BD00BFCC1900202DE9F04335
S31508003BA08DB01C4606AB06468946184617460021C0
S31508003BB01822149D01F0EFFC227903460AB18DF80C
S31508003BC01820FB6163794FF00108C3F10203DBB2E9
S31508003BD0CDE90333764B30460293764B4A4601933A
S31508003BE0002329460093744B8DF81E8000F0FAFADC
S31508003BF00646002840F0B080A3684146EB63E369B7
S31508003C003A20EB64237E85F8483063696B64237C2D
S31508003C1085F84030636A6B6594F8203085F8503033
S31508003C20E36AEB6594F8283085F858302368AB6367
S31508003C30FDF774FC434604226169207CFFF798F877
S31508003C4043460222E169207EFFF792F83E7085F826
S31508003C5060604146A068FDF761FC6379002B33D1AB
S31508003C6041463620FDF75AFCA368562B02D0B3F519
S31508003C70A06F08D1514AD2F8203223F0070343F047
S31508003C800303C2F8203239462068FEF7A7FF102042
S31508003C90E1684B4B01F1260203EB42125060227C8D
S31508003CA0606903EB411342EA0042C3F8DC24E16988
S31508003CB0227E42EA0142C3F8D4242379032B75D81D
S31508003CC0DFE803F041244E6E3C4AD2F8283123F04F
S31508003CD0070343F00103C2F82831A368562B02D024
S31508003CE0B3F5A06F07D1D2F8203223F0070343F0CB
S31508003CF00103C2F8203239462068FEF7CBFF95F853
S31508003D00603043F0040385F86030C0E7002795F873
S31508003D10603043F0010385F8603002220023616AAF
S31508003D2094F82000FFF724F8616A94F82020E368E5
S31508003D3042EA014241F2CC415B0103F1A04303F59B
S31508003D4070335A5097B90422AB6B052103F580539B
S31508003D5020681A65FEF724FD30460DB0BDE8F083ED
S31508003D6095F8603043F0020385F86030002304229A
S31508003D70E16A94F82800FEF7FBFF0220E168104B81
S31508003D8001F1A60203EB421203EB411341F2D041C3
S31508003D90506094F82820E06A42EA00425A50D2E776
S31508003DA095F86030012743F00303B4E72326D3E7E9
S31508003DB02152000891520008C152000800800050A4
S31508003DC000C0035010B50020144601F000FA02287E
S31508003DD004D018B1C321024801F00DF9204610BDE0
S31508003DE0605E0008302238B5037A0446534303F16F
S31508003DF0A04303F58023DD6ED0E9032313449D42D7
S31508003E0001D8AA4204D94FF43E71054801F0F3F8E7
S31508003E10D4E9030303449D4218BF284638BD00BFB2
S31508003E20CC5E000830B51446054687B01046FFF745
S31508003E30D9FF6369024683423CBFD4E903315B1864
S31508003E401B1AABB11249049403910021CDE9013143
S31508003E50012300932846D4E9001301F0E4F820B1C1
S31508003E604FF434710B4801F0C6F8002007B030BD96
S31508003E700122627694F82D20002AF6D084F835308F
S31508003E801321E369204698472046636A9847ECE77A
S31508003E90253E0008CC5E00082DE9F04788B00446A8
S31508003EA00F461646984601F01FF98146002E00F087
S31508003EB0AD80237E03F0FF02002B00F0E080204651
S31508003EC0FFF790FF63698246984206D1637E23B95D
S31508003ED040F27F316B4801F08EF86569AA459DBFAF
S31508003EE0D4E903329B185D1BAAEB0505B54228BF2A
S31508003EF0354601F0F9F894F82D308246002B40F04B
S31508003F0096802A463846616901F050FB63692E4659
S31508003F102B4463612CE06069037803F0FD011129E5
S31508003F2040F08280216B884205D1A3F111014B42F2
S31508003F304B4184F83430013E6369216B01328B4270
S31508003F4003F1010308BF236363619542E3D1D4E912
S31508003F500323216B1344994208BF2263216B8A42CB
S31508003F6001D88B4204D84FF46D71464801F043F8E6
S31508003F70D4E9032361691344994208BF6261616900
S31508003F808A4201D88B4204D84FF471713D4801F03A
S31508003F9032F80023207A6376FCF702FF20B140F25C
S31508003FA01131384801F027F82046FFF71BFF6369EF
S31508003FB083423FD10023E568237694F82D30656166
S31508003FC003B125632046636A98472F4B04940393ED
S31508003FD00023029323692A46019301230093636809
S31508003FE02168207A01F01FF820B140F22D312548CA
S31508003FF001F001F8207AFCF7F3FE20B140F25131C6
S31508004000204800F0F8FF504601F074F84846C8F812
S31508004010006001F06FF8D8F80030002B0CBF1B20A9
S31508004020002008B0BDE8F08707F8013B84E72E4674
S3150800403000228AE70123207A23760DF11E01FCF778
S3150800404037FF20B14FF450710E4800F0D4FF9DF8A9
S315080040501E30207A002BCDD00DF11F01FCF700FF92
S3150800406020B140F24631074800F0C5FF9DF81F1001
S31508004070207A0029BED12246FFF7D4FEBAE71646B3
S31508004080C4E700BFCC5E0008253E000870B50446AC
S315080040900568FFF777FD844202D10020FFF766FD29
S315080040A095F93630002B11DB012203F01F015B095D
S315080040B09B0003F160438A4003F56143C3F88021FE
S315080040C0C3F88020BFF34F8FBFF36F8F287AFCF7B2
S315080040D0A7FE20B14FF4ED71104800F08CFF287A46
S315080040E0FCF704FE20B14FF4EF710C4800F083FF93
S315080040F0FCF7DAFD38B10A4B984204D04FF4F17157
S31508004100064800F078FF00232846C4E90033C4E9CE
S315080041100433A360AB6ABDE870401847CC5E00085C
S31508004120058000F02DE9F84304460D4690F82C80EA
S31508004130DFF8AC908E18AE4228D094F82D3083B1B3
S3150800414000F0D2FF237E07461BBB226B63699A42A7
S3150800415004D040F2F911484600F04DFF384600F009
S31508004160C9FF94F83430002BE5D0B8F1000F06D01B
S315080041702B780A2B03D10D212046E3699847204660
S31508004180E36915F8011B98470028D4D00020BDE83C
S31508004190F8832046FFF726FEE1680138884238BFD3
S315080041A02069D4F830C03CBF00F1FF304018034600
S315080041B09C450BD013F80129112A01D0132A07D1DF
S315080041C0A2F111035A425A4184F834202063C5E704
S315080041D0994282BF236903F1FF335B18E8E700BF02
S315080041E0CC5E0008F0B50C460646154687B0382260
S315080041F0002120461F4601F0CEF995E8030000236A
S315080042002A692376EB6884E80300C4E904232A7D37
S31508004210E36084F82C20AA7D2363012384F83430D4
S3150800422084F835300C9B84F82D2023620D9BE761BA
S3150800423063620E9BA3622B7A84F83630204B346077
S315080042407360204BB360204B3361204B7361204B66
S31508004250F360FCF771FD30B11E4B984203D0102471
S31508004260204607B0F0BD002104F10800FCF7ECFC7D
S315080042700028F4D10127184B0494CDE902032369D9
S31508004280009701936368E2682168207A00F0CBFE04
S3150800429004460028E3D195F90830002B0BDB03F020
S315080042A01F025B099B0003F16043974003F56143D6
S315080042B0C3F880711F603046FFF758FCD0E700BF8F
S315080042C025410008993E00087353000879530008F1
S315080042D08D400008038000F0253E000808B5064B0F
S315080042E0044613B10021AFF30080044B1B6803B1E9
S315080042F09847204601F025F800000000081B00201A
S31508004300002310B504468360818119464366C2813D
S3150800431008228361C0E90033C0E904335C3001F048
S315080043203AF90D4B246263620C4BA3620C4BE362B1
S315080043300C4B23630C4B9C4206D003F16802944253
S3150800434002D0D0339C4205D104F15800BDE8104094
S3150800435001F029B910BD00BF95540008B7540008EC
S31508004360EF54000813550008D0190020024A0349E3
S31508004370034801F01CB800BF1814002003580008B1
S315080043802814002041680C4B994210B5044601D008
S3150800439001F037FAA168094B994202D0204601F08C
S315080043A030FAE168064B994204D02046BDE8104031
S315080043B001F027BA10BD00BFD0190020381A002016
S315080043C0A01A002010B50B4B04210B4C0B4A2046B3
S315080043D01A600022FFF794FF04F168000122092100
S315080043E0FFF78EFF04F1D00002221221BDE810402B
S315080043F0FFF786BF081B0020D01900206D43000870
S31508004400014801F0D1B800BF3C1B0020014801F06B
S31508004410CCB800BF3C1B002010B50446FFF7F0FFE0
S31508004420236A1BB1BDE81040FFF7F0BF044B2362B7
S31508004430044B1B68002BF5D1FFF7C4FFF2E700BF5A
S3150800444085430008081B00200FB407B5064904ABCE
S31508004450086853F8042B8168019300F07BFA03B0CF
S315080044605DF804EB04B0704724140020024B0146A3
S31508004470186800F0BABF00BF241400202DE9F743DE
S315080044801D46574B04460E461F68904627B13B6AA1
S3150800449013B93846FFF7C0FFB8F1020F06D0B8F1D6
S315080044A0010F00F29980002DC0F29680636ED9073D
S315080044B005D4A3899A0502D4A06D01F075F82146A2
S315080044C0384601F09EF9616B41B104F14403994203
S315080044D002D0384600F046F9002363630023A3613F
S315080044E06360A3891B0603D52169384600F03AF9AB
S315080044F0A389B8F1020F23F44A6323F00303A381C7
S3150800450060D001AB6A462146384601F0A2F9A38974
S315080045101843A0812DBB009D284600F06DF906467C
S31508004520002851D1DDF80090A9453FD14FF0FF355D
S31508004530B4F90C3043F00202A2810022A26004F111
S3150800454047022260226101226261626ED60704D4A4
S31508004550980502D4A06D01F028F8284603B0BDE8F6
S31508004560F083002ED8D03B6A13B93846FFF754FFBC
S31508004570B8F1010F266002BFA38943F00103A381A6
S31508004580B4F90C3013F00802C4E904651ED0D90743
S3150800459045BF00226D42A560A26048BFA561626E54
S315080045A0D20701D49B0513D50025D6E7484600F067
S315080045B023F906460028B9D0A3894D4643F080035F
S315080045C0A381D0E70025B3E7A946F5E7A260E6E7A9
S315080045D0A06D00F0EAFFE7E74FF0FF35BDE700BF43
S315080045E02414002038B5294B05460C46186818B11E
S315080045F0036A0BB9FFF710FFB4F90C30190722D478
S31508004600DA0607D409222A6043F040034FF0FF3048
S31508004610A38133E0580712D5616B41B104F1440315
S31508004620994202D0284600F09DF800236363A389C7
S3150800463023F02403A3810023636023692360A389ED
S3150800464043F00803A38123694BB9A38903F42073B4
S31508004650B3F5007F03D02146284601F01FF9B4F9C7
S315080046600C3013F001020AD00022A260626952429D
S31508004670A261226942B913F08000C5D138BD9907F5
S3150800468058BF6269A260F4E70020F7E72414002007
S3150800469038B50023054D044608462B6000F04FFE4A
S315080046A0431C02D12B6803B1236038BD0C1B0020C4
S315080046B038B50446064D0846114600222A601A46B1
S315080046C000F047FE431C02D12B6803B1236038BDB6
S315080046D00C1B002038B50446064D08461146002234
S315080046E02A601A4600F037FE431C02D12B6803B134
S315080046F0236038BD0C1B002038B50446064D084615
S31508004700114600222A601A46FFF75CFB431C02D1B9
S315080047102B6803B1236038BD0C1B002070B50D4D06
S3150800472000260D4C641BA410A64209D10B4D002689
S315080047300B4C01F005F9641BA410A64205D170BD07
S3150800474055F8043B01369847EEE755F8043B013621
S315080047509847F2E77C1400207C1400207C14002083
S315080047608014002038B50546002941D051F8043C8C
S315080047700C1F002BB8BFE41800F0E0F81D4A1368B8
S3150800478033B9636014602846BDE8384000F0DCB8E9
S31508004790A34208D9206821188B4201BF19685B68B3
S315080047A009182160EDE71A465B680BB1A342FAD9EE
S315080047B011685018A0420BD12068014450181160A6
S315080047C08342E0D118685B68084453601060DAE7F2
S315080047D002D90C232B60D6E7206821188B4202BF2A
S315080047E019685B680918636008BF21605460CAE7E6
S315080047F038BD00BF141B0020024B0146186800F0A4
S3150800480025B800BF2414002070B50F4E0C46054687
S31508004810316811B900F004FB30602146284600F0E3
S31508004820FFFA431C03D14FF0FF34204670BDC41C69
S3150800483024F00304A042F8D0211A284600F0F0FA22
S315080048400130F2D1EFE700BF101B00202DE9F0413F
S31508004850CD1C064625F0030508350C2D38BF0C255A
S31508004860002D01DBA94204D90C2333600020BDE8E2
S31508004870F081314F00F062F83B681C4644BB29467C
S315080048803046FFF7C1FF431C044650D13C68214619
S31508004890002941D1002C44D02368304604EB030894
S315080048A000F0BEFA80453CD1216830466D1A29468B
S315080048B0FFF7AAFF013034D023682B4423603B68F6
S315080048C0002B36D05A68A24229D100225A600EE03F
S315080048D02268521B1DD40B2A16D96119A3422560DA
S315080048E018BF5960636808BF396062514B6030462B
S315080048F000F02AF804F10B00231D20F00700C21A65
S31508004900B5D01B1AA350B2E7A3426268DED13A605B
S31508004910EDE723466468B1E70C464968B8E71346ED
S31508004920CEE70C233046336000F00EF89EE70560AC
S31508004930DDE75B60FFDE00BF141B0020014800F0C6
S3150800494033BE00BF3B1B0020014800F02EBE00BF4F
S315080049503B1B00202DE9F04F0D469DB014469846A6
S31508004960064618B1036A0BB9FFF756FD6B6ED907F1
S3150800497005D4AB899A0502D4A86D00F015FEAB895B
S315080049801B0701D52B699BB929463046FFF72AFE36
S3150800499070B16B6EDC0704D54FF0FF301DB0BDE873
S315080049A0F08FAB899805F7D4A86D00F0FEFDF3E704
S315080049B00023CDF80C804FF00109DFF8B481099384
S315080049C020238DF8293030238DF82A3023469A463D
S315080049D013F8012B0AB1252AF9D1BAEB040B0BD02F
S315080049E05B4622462946304600F004FE013000F0B8
S315080049F0A780099A5A4409929AF80030002B00F0C9
S31508004A009F8000234FF0FF320AF1010A04930793AF
S31508004A108DF853301A93CDE9052354460522544898
S31508004A2014F8011B00F076FF049AD8B9D10644BFE2
S31508004A3020238DF85330130744BF2B238DF85330AA
S31508004A409AF800302A2B15D0079A544600204FF0C2
S31508004A500A0C214611F8013B303B092B4BD9B0B162
S31508004A60079214E0A0EB0803A24609FA03F31343DE
S31508004A700493D2E7039B191D1B68002B0391BBBF48
S31508004A805B4242F0020207930793B8BF0492237869
S31508004A902E2B0AD163782A2B32D1039B02341A1D96
S31508004AA01B6843EAE37303920593DFF8D4A0032255
S31508004AB02178504600F02EFF38B1A0EB0A004022BC
S31508004AC0049B013482401343049314F8011B062205
S31508004AD028488DF8281000F01DFF00283FD0264BE7
S31508004AE01BBB039B073323F0070308330393099B78
S31508004AF03B4409936AE70CFB02320C460120A8E7FF
S31508004B00002301344FF00A0C19460593204610F885
S31508004B10012B303A092A03D9002BC6D00591C4E7E0
S31508004B200CFB012104460123F0E703AB2A4604A93E
S31508004B3030460093114BAFF300800746781CD6D158
S31508004B406B6ED90705D4AB899A0502D4A86D00F017
S31508004B502CFDAB895B063FF51FAF09981EE703AB33
S31508004B602A4604A930460093044B00F00BF8E4E704
S31508004B702E5F0008385F000800000000F5550008A1
S31508004B80345F00082DE9FF470F7E914680460C46A4
S31508004B90782F9A460C9E01F1430207D8622F0AD84D
S31508004BA0002F00F0DD80582F00F0C38004F1420684
S31508004BB084F842703AE0A7F16303152BF6D801A1F1
S31508004BC051F823F01D4C0008314C0008AD4B000885
S31508004BD0AD4B0008AD4B0008AD4B0008314C000842
S31508004BE0AD4B0008AD4B0008AD4B0008AD4B0008B7
S31508004BF0474D0008BF4C0008FF4C0008AD4B0008A5
S31508004C00AD4B0008694D0008AD4B0008BF4C0008C5
S31508004C10AD4B0008AD4B0008074D000833681A1D58
S31508004C201B68326004F1420684F842300123A8E08A
S31508004C3031682368081D30601E0601D50D6803E03B
S31508004C405D06FBD5B1F90050002D616878DA2D2094
S31508004C500029A16084F843002DDA6D425D480A23D5
S31508004C601646B5FBF3F103FB1157C75D06F8017D40
S31508004C702F460D46BB42F4D9082B0BD12368DF0714
S31508004C8008D5236961689942DEBF302306F8013CDE
S31508004C9006F1FF36921B22614B4603AA214640467F
S31508004CA0CDF800A000F0B8FC01306FD14FF0FF300E
S31508004CB004B0BDE8F08723F004032360CDE721683C
S31508004CC03368080653F8045B02D4490648BFADB2F8
S31508004CD06F2F33603F4814BF0A230823002184F846
S31508004CE043106668002EA660BADB216821F004012D
S31508004CF02160002DB4D1002EB2D11646BCE7236838
S31508004D0043F02003236078273348236884F84570E6
S31508004D101F06316851F8045B02D45F0648BFADB27E
S31508004D203160D90744BF43F0200323601DB1102327
S31508004D30D4E72848E9E7236823F020032360F6E749
S31508004D4024480A23CDE733682568181D6169306051
S31508004D502E061B6801D5196002E06806FBD5198086
S31508004D6000231646236197E7336800211A1D32602F
S31508004D701E686268304600F0CDFD08B1801B606091
S31508004D8063682361002384F8433085E72369324644
S31508004D9049464046D047013088D023689B0714D43B
S31508004DA0E068039B9842B8BF184681E7012332465C
S31508004DB049464046D04701303FF478AF0135E368AD
S31508004DC003995B1AAB42F1DCEAE7002504F1190600
S31508004DD0F5E700BF3F5F0008505F000838B50023BD
S31508004DE0064D0446084611462B6000F0ABFA431CF4
S31508004DF002D12B6803B1236038BD00BF0C1B00200D
S31508004E0038B50023054D044608462B6000F09FFA86
S31508004E10431C02D12B6803B1236038BD0C1B00204C
S31508004E2038B50023054D044608462B60FBF792FD6E
S31508004E30431C02D12B6803B1236038BD0C1B00202C
S31508004E4010B501213A20FCF769FB01210023084629
S31508004E500422FDF78DFFBDE81040002304220A2135
S31508004E600220FDF785BF08B501213B20FCF756FB5C
S31508004E704FF400720020114600F09FF9BDE8084083
S31508004E8000218C220846FEF7C3BD08B500F077FA64
S31508004E90FBF7FAF900F080FAFBF710FAFAE7704721
S31508004EA008B5FEF745FE00F03AF800F08BF9FEF774
S31508004EB02BFEFEF7F1FDFBF787FBFEF7DBFDBDE8F2
S31508004EC0084000F023B808B5FBF754FDBDE80840D4
S31508004ED000F065B808B500F017F8BDE8084000F01E
S31508004EE006B8704770477047704770477047FBF7BA
S31508004EF0C1BBFBF71DBC08B504220123062103200C
S31508004F00FDF736FF002008BDFFF7F5BF08B50121FC
S31508004F103A20FCF703FBBDE80840FFF7C0BF0121B4
S31508004F203A20FCF7FBBA70B5002506462C46052C38
S31508004F3020D8DFE804F003070B0F13175B210820BE
S31508004F40FBF7A2FD0C210820FBF79EFDD1210820C6
S31508004F50FBF79AFD80210820FBF796FD0021082023
S31508004F60FBF792FD6C1C2946E4B208202546FBF7A0
S31508004F708BFD0624A4F10E03012B05D85A2108201F
S31508004F80FBF782FD0134D2E7102C05D1BDE870404D
S31508004F905D210820FBF778BDB31F195DEFE708B55B
S31508004FA0082000F029F8BDE80840082000F02FB8CE
S31508004FB0012307B520F07F4040EA817001906846DA
S31508004FC08DF80030FFF7AFFF03B05DF804FBFEE78E
S31508004FD010B53AB1002350F8234041F82340013375
S31508004FE09A42F8D110BD002070474FF40040704730
S31508004FF04FF47A707047FEE74FF060420123D2F80B
S31508005000001E83400B430020C2F8003E70474FF055
S3150800501060410122D1F8003E824023EA02030020C3
S31508005020C1F8003E704710B588B004460E98009245
S3150800503007900D98224606909DF8300005900B982B
S3150800504004909DF8280003900020CDE901300B4616
S315080050500121FBF73BFD08B010BD70B505461446A7
S315080050600E4600F03AF82B685C4034405C402C60F1
S31508005070BDE8704000F035B808B5FBF705FCBDE89B
S3150800508008400021FCF71EBA0029CCBF01210021E7
S31508005090FCF718BA02214FF42070FCF781BE08B558
S315080050A001210220FDF79CFAFFF7E6FFBDE808405C
S315080050B0FFF7F0BF10B5FBF7D5FB0446FBF738FF43
S315080050C0C0F102012046FFF7DFFF01210020FDF7AE
S315080050D0DBFABDE81040FCF7F1BEEFF3108072B6BC
S315080050E0704700B962B67047EFF31180302383F337
S315080050F01188704780F3118870477047704708B564
S315080051000020FDF7D9FA012008BD436D0B42FCD1FA
S31508005110704708B54368DA0714D58368DB0702D5F4
S315080051200369D90707D50A2350218363FFF7EDFFE3
S31508005130836C9A07FCD1012200F500535A60436834
S315080051409B07FCD408BD836C5B06FCD5416470479D
S3150800515070B5054614460E46FFF7BFFF2B685C4040
S3150800516034405C402C60BDE87040FFF7BABF70471A
S31508005170022A10B54FF0000405D9033A022A0CD9C1
S315080051800360047110BD11F4000218BF4FF07F428E
S3150800519021F07F4313430C0EF2E721F0FF03CCB254
S315080051A0EEE708B50A6FC96F02F00702FFF7E0FFDE
S315080051B008BD036C0B42FCD170470A4392B200212A
S315080051C0FEF7F8BB08B5FFF79AFF002008BD70B5D3
S315080051D00C46154610B9FEF7D5FC38B143682BB115
S315080051E02A462146BDE8704000681847232070BD4E
S315080051F0F7B50D4616461C4648B103B901AC876893
S315080052005FB12346324629460068B84706E0FEF7EE
S31508005210B9FC04B901AC0028F1D1232003B0F0BDD4
S3150800522010B50446826B936C5906FCD50023616C55
S315080052301A4694F84000FDF79BFD0023E16C1A46D8
S3150800524094F84800FDF794FD94F86030DA0706D51F
S315080052500023616D1A4694F85000FDF789FD94F80D
S3150800526060309B0706D50023E16D1A4694F858006E
S31508005270FDF77EFD0422A06B002100F500531A6598
S31508005280FDF78EFAE06B0021FCF748F9002010BD07
S3150800529010B50446FFF721FF0421A36BBDE81040B3
S315080052A09A6C12F0800F03F5805204BF03F5005381
S315080052B0D9644FF0040318BFD1641365FFF711BF13
S315080052C008B5806BFFF73FFF002008BD70B504687E
S315080052D0A06BC36C5B0708D5042500F50053DD6495
S315080052E0227E1AB91D650123237670BD627E002AC7
S315080052F0FBD094F82D2002B30026132184F83560DC
S31508005300FFF721FFA36B03F580521565DB6BDBB254
S31508005310112B0DD1012384F834303022237A5343DC
S3150800532003F1A04303F58023DB6E013B2363DCE72F
S31508005330132BDAD184F83460EFE71D65D5E7002032
S315080053407047FEE74FF4005300204B60704701207A
S3150800535070470020704707B5002001AB0190FFF7A2
S3150800536047FF0198002808BF4FF0FF3003B05DF8EB
S3150800537004FB80F82C10704790F82C00704708B58D
S31508005380FFF78EFDFFF79FFDFFF7A4FDFFF7A9FDC9
S31508005390BDE80840FFF7A6BD08B5FFF7A4FDFFF76F
S315080053A0A3FDFFF7A2FDBDE80840FFF79FBD2DE965
S315080053B0F8430746884614460026D4E90195B9F10C
S315080053C0010905D52468002CF7D13046BDE8F883D5
S315080053D0AB89012B07D9B5F90E30013303D029461D
S315080053E03846C04706436835E9E7036A70B5054697
S315080053F00E4684680BB9FFF70FF8636EDB0705D412
S31508005400A389980502D4A06D00F0CEF8A3891907E0
S3150800541002D52369002B35D121462846FFF7E2F845
S3150800542080B34FF0FF35636EDA0705D4A3899B0571
S3150800543002D4A06D00F0B9F8284670BD002B15DB24
S3150800544023685A1C22601970A36816F8011F013BCD
S31508005450A3600029F2D1002B16DA22460A21284633
S3150800546000F05BF80130DCD00A25DCE7A2699A4235
S3150800547001DC0A29E4D12246284600F04EF801301C
S31508005480E2D1CEE7013EDFE723685A1C22600A22F2
S315080054901A70E9E710B50C46B1F90E10FFF71AF9BC
S315080054A00028ABBF636DA3891B1823F48053ACBFD8
S315080054B06365A38110BD2DE9F0411F468B8905461A
S315080054C00C46DB05164605D502230022B1F90E1057
S315080054D0FFF7EEF8A3893246B4F90E10284623F4EE
S315080054E08053A3813B46BDE8F041FFF705B910B5E7
S315080054F00C46B1F90E10FFF7DBF8431CA38915BF5C
