S00F000050696E67706F6E672E733337A3
S3150800000000100020391600083516000835160008B5
S315080000103516000835160008351600083516000886
S315080000203516000835160008351600083516000876
S315080000303516000835160008351600083516000866
S315080000403516000835160008351600083516000856
S315080000503516000835160008351600083516000846
S31508000060351600084D150008411500083516000814
S315080000703516000835160008351600083516000826
S315080000803516000835160008351600083516000816
S3150800009035160008351600084D1F000835160008E5
S315080000A035160008351600083516000835160008F6
S315080000B035160008351600083516000835160008E6
S315080000C035160008351600083516000835160008D6
S315080000D035160008351600083516000835160008C6
S315080000E035160008351600083516000835160008B6
S315080000F035160008351600083516000835160008A6
S315080001003516000835160008351600083516000895
S315080001103516000835160008351600083516000885
S315080001203516000835160008351600083516000875
S315080001303516000835160008351600083516000865
S315080001403516000835160008351600083516000855
S315080001503516000835160008351600083516000845
S315080001603516000835160008351600083516000835
S315080001703516000835160008351600080000000078
S315080001802DE9F04FC76997B08346209E08910C92D7
S31508000190129355EC104B8DED000B7FB9102006F02D
S315080001A0CFFC0246CBF81C0020B9A74BEF21A74885
S315080001B007F0DEF9C0E901770760C760DBF81C3095
S315080001C0196859B15A680123584693404A608B60AA
S315080001D006F0A4FDDBF81C3000221A602B1EB7BF00
S315080001E023F00043002301220193A8BF3360019F37
S315080001F0974BB8BF3260BB4319D142F20F73129ABC
S315080002001360C7F31303234300F0DB85219B53B91F
S31508000210904B21E0904B03930833219A136003987F
S3150800022017B0BDE8F08F8B4B03930333F5E79DEDCD
S31508000230007B0022002351EC170B8DED0A7B07F09B
S3150800024037FA804650B10123129A1360219B13B1E5
S31508000250824B219A1360824B0393E0E7C7F30A5651
S3150800026014AA15A958469DED0A0B06F0DFFF029061
S31508000270002E76D00B9BA6F2FF36CDF84C80C3F342
S31508000280130343F07F53DDE90A0143F4401319468B
S315080002900022744B05F098FA65A3D3E9002305F00C
S315080002A04BFC65A3D3E9002305F090FA04460D46F6
S315080002B0304605F0D7FB62A3D3E9002305F03CFCE2
S315080002C002460B462046294605F080FA04460D46A6
S315080002D007F036FA0022074600232046294607F08B
S315080002E0F1F940B1384605F0BDFB22462B4607F02A
S315080002F0DFF900B9013F162F52D85B4B03EBC70352
S31508000300DDE90A01D3E9002307F0DCF9002849D022
S31508000310013F00231193149B9B1B5A1E4CBFC3F12C
S3150800032001030023079245BF06930023069307930C
S31508000330002F39DB079B10973B440793002309934B
S31508000340089B092B66D8052BC5BF043B002401244E
S315080003500893089B023B032B67D8DFE803F02D3A86
S315080003603859DDE914631E4406F23243202BC9BF0F
S31508000370C3F14003C3F120039F4006F21243D8BFDE
S3150800038004FA03F006F1FF36C4BF24FA03F347EA7A
S31508000390030005F057FB0122A1F1F873139276E7E3
S315080003A00123B7E71190B6E7069BDB1B06937B4252
S315080003B0099300231093C3E700230D930C9B002B8E
S315080003C056DC012399461A4604930C920CE0012345
S315080003D0F3E700230D930C9BFB1803F10109049323
S315080003E04B46012BB8BF0123DBF81C000021042271
S315080003F002F114059D423FD94160584606F04EFC6D
S31508000400039000283BD1194B024640F2AF11CEE6C5
S315080004100123DFE7012400230D9408934FF0FF33EF
S315080004200022994604931223CFE701230D93F5E79B
S3150800043061436F63A787D23FB3C8608B288AC63FDC
S31508000440FB799F501344D33F488700085F8700080D
S315080004500000F07F448700083B87000818870008DB
S31508000460178700080000F83F58880008B887000872
S315080004700C9B99460493B7E701315200B8E7DBF8BD
S315080004801C30B9F10E0F039A1A606FD8002C6DD084
S31508000490002F36DD07F00F02A04BF8054FEA2714A8
S315080004A003EBC20393ED007B8DED0E7B17D59C4BBA
S315080004B004F00F044FF00308D3E90823DDE90A0125
S315080004C005F064FCCDE90001954D5CB9DDE90E2324
S315080004D0DDE9000105F05AFCCDE900012BE04FF0FB
S315080004E00208F1E7E10709D508F10108DDE90E017F
S315080004F0D5E9002305F020FBCDE90E016410083587
S31508000500E3E700F007817C42844B854D4FF00208F3
S3150800051004F00F02241103EBC203DDE90A01D3E953
S31508000520002305F009FB0023CDE90001002C40F06B
S31508000530E580002BD0D1119BDDE90045002B00F0AA
S315080005404C810022774B2046294607F0BBF8002845
S3150800055000F04381B9F1000F00F03F81049B002BA6
S3150800056000F3E480DDE90A34CDE90034159B002B5D
S3150800057002DB0E2F40F342820D9A002A40F0678272
S31508000580099C0025DDF81880B8F1000F0DD0079BEF
S31508000590002B0ADD4345069AA8BF4346D21AA8EBA4
S315080005A003080692079AD31A0793099B0BB30D9B68
S315080005B0002B00F0A682002C00F0A18229462246D4
S315080005C0584606F0D5FC029A01460546584606F0F6
S315080005D025FC02990646584606F0A0FB099B1B1BFC
S315080005E0099300F09182099A3146584606F0C0FCF4
S315080005F002900121584606F0FBFB109B0446002B8F
S3150800060000F084821A460146584606F0B1FC089B5B
S315080006100446012B03DC009B002B00F07C8200269D
S31508000620236904EB8303186907F074FBC0F1200003
S315080006301096079B184410F01F0000F09182C0F135
S315080006402003042B40F38182C0F11C00069B03445F
S3150800065080440693079B03440793069B002B05DDFE
S315080006601A460299584606F0DDFC0290079B002BB5
S3150800067005DD21461A46584606F0D4FC0446119B69
S31508000680002B00F076822146029807F092FB00289C
S3150800069080F26F8200230A220299584606F060FB10
S315080006A00D9B7E1E0290002B00F05C8200232946DB
S315080006B00A22584606F054FB049B0546002B03DC29
S315080006C0089B022B00F35E82B8F1000F05DD294670
S315080006D04246584606F0A6FC0546109B002B00F03D
S315080006E0D0826968584606F0D9FA0746002840F0CD
S315080006F07F820D4B024640F2EF2158E5E20706D508
S3150800070008F10108D5E9002305F016FA012364105B
S3150800071008350BE74FF002080DE700BF58880008B8
S31508000720308800080000F03FB887000820460022FD
S31508000730AC4B294605F000FA7E1E08F10108049C18
S31508000740CDE90001404605F08DF9DDE9002305F005
S31508000750F3F9A54B002205F039F8A1F15073CDE95C
S315080007600E010F93002C3BD10022A04BDDE90001BE
S3150800077005F02AF802460B46CDE90023DDE90E23EB
S3150800078006F0BEFF002840F05781DDE90E2101F191
S315080007900043DDE9000106F095FF00283FF4E2AECC
S315080007A0002425460C9BDDF80CA0DE434FF000081C
S315080007B02146584606F0B2FA002D00F0A980B8F195
S315080007C0000F05D0A84503D04146584606F0A6FABC
S315080007D02946584606F0A2FA9AE03E464C46B1E744
S315080007E0834B03EBC40353E90201039B1C440D9B93
S315080007F0002B4AD002460B4600207E4905F0C6FA71
S31508000800DDE90E2304F0E0FFDDF80CA0CDE90E01CA
S31508000810DDE9000106F094FF054605F023F90246D6
S3150800082030350B46DDE9000104F0CEFF0AF8015B1E
S3150800083002460B46CDE90001DDE90E0106F060FF30
S31508000840002865D100206C49DDE9002304F0BCFFCF
S3150800085002460B46DDE90E0106F052FF002840F07D
S315080008600D81A24500F0EA8000225E4BDDE90E010B
S3150800087005F062F900225B4BCDE90E01DDE90001C6
S3150800088005F05AF9CDE90001C2E7DDE90E2305F0C6
S3150800089053F9A046DDF80CA0CDE90E01DDE900010B
S315080008A006F04EFF054605F0DDF8024630350B46E4
S315080008B0DDE9000104F088FF0AF8015B02460B46F1
S315080008C0A245CDE900234FF0000223D1494BDDE9CB
S315080008D00E0104F07BFF02460B46DDE9000106F037
S315080008E00FFF002840F0CA8000204249DDE90E23A8
S315080008F004F06AFF02460B46DDE9000106F0E2FE57
S3150800090070B1C24608F1FF381AF8013C302BF8D00E
S31508000910374655E0334B05F00FF9CDE90001BDE741
S31508000920DDE90A34CDE90034159B002BFFF628AE25
S315080009300E2F3FF725AE2E4B03EBC70393ED007B37
S315080009400C9B002B8DED047B02DAB9F1000F64D005
S31508000950DDF80CA0DDE90045DDE90423204629463B
S3150800096005F014FA06F0ECFE064605F07BF8DDE91C
S31508000970042305F0E1F80246204606F130040B464A
S31508000980294604F021FF0AF8014B039C02460B4650
S31508000990AAEB0404A14540F0828004F017FF044640
S315080009A00D46DDE9042306F0ABFE002865D1204696
S315080009B02946DDE9042306F07BFE08B1F3075CD47B
S315080009C00299584606F0AAF9002301378AF800303A
S315080009D0129B1F60219B002B3FF421ACC3F800A09B
S315080009E01DE400BF0000244000001C400000144025
S315080009F0588800080000E03F0000F03FA24B03EBD8
S31508000A00C70393ED007B0C9B002B8DED047B9FDACF
S31508000A10B9F1000F9CDC7FF4C3AE00229B4BDDE9E5
S31508000A20040105F089F8DDE9002306F05FFE0446B7
S31508000A3000287FF4B5AE3E462546B4E0DDE90A3423
S31508000A40CDE90034159B002B01DB0E2FD6DD089A65
S31508000A50012A36DC139A82B303F23343099CDDF884
S31508000A601880069A012158461A440692079A1A448B
S31508000A70079206F0BDF9054686E53E4653469A4670
S31508000A8013F8012D392A06D1039A9A42F7D1302252
S31508000A90039901360A701A7801321A7038E700226B
S31508000AA07B4B05F049F80022002304460D4606F064
S31508000AB0FFFD00283FF450AF82E7149BC3F13603CD
S31508000AC0CCE709F1FF34099BA34208DBB9F1000F13
S31508000AD0A3EB04040EDBDDF818804B46C1E7099B3F
S31508000AE0109AE31A0994DDF8188000241A444B4634
S31508000AF01092B6E7069BA3EB09080023B1E7029E0E
S31508000B0071E5099A029970E5029672E5089B012B30
S31508000B1017DC009BABB9019BC3F313039BB9019B7D
S31508000B2023F00046360D360536B1069B01260133FD
S31508000B300693079B01330793109B002B7FF470AD38
S31508000B401096012075E50026F6E73FF486AD1C33BE
S31508000B50069A1A4498440692079A1A4407927CE51C
S31508000B600346F4E7049B002B2BDC089B022B09DCCD
S31508000B7027E0B9F1000F1DDC089B022B1ADD3E4663
S31508000B80CDF81090049B002B7FF40CAE214605226D
S31508000B90584606F0E5F801460446029807F009F9B2
S31508000BA000287FF7FFADDDF80CA0312301360AF8DF
S31508000BB0013BFBE50D9B3E46CDF81090002B7FF4DC
S31508000BC083AD039F2146029807F017F8039B00F1AF
S31508000BD03009049A07F8019BFB1A9A4240F3CB8026
S31508000BE000230A220299584606F0BAF80290E9E765
S31508000BF02A6905F10C010C300232920006F0E8FF72
S31508000C0001223946584606F00DFA039BA8460546C2
S31508000C1003F1010ADDE9032313440793009B03F05C
S31508000C20010309930AF1FF3321460298049306F05B
S31508000C30E4FF4146069000F13009029807F0B9F83A
S31508000C402A4621460746584606F058FAC26801461B
S31508000C5002B3584606F062F8002F3ADA01220299E2
S31508000C60584606F0DFF92146029007F0A2F8002858
S31508000C7003DC29D119F0010F26D0B9F1390F1DD19E
S31508000C8032E02846C1E700BF588800080000144033
S31508000C90000024400A90029807F08BF80A990C90F5
S31508000CA0584606F03BF80C9A5ABB089B53B9099B61
S31508000CB043B9B9F1390F17D0002F05DD069B03F1AB
S31508000CC0310901E0002F2ADADDF810A00AF8019BA5
S31508000CD06EE5089B3B4304D1009B03F00103002B00
S31508000CE0BCD0B9F1390F36D1049F392307F8013B37
S31508000CF0BA46013F1AF8013C392B5AD001333B70EA
S31508000D0056E5002F06DB089B3B4306D1009B03F004
S31508000D10010313B9002AA1DCD6E7002AE1DC079B08
S31508000D2057460AF8019C53452ED000230A220299F9
S31508000D30584606F015F8A84502904FF000034FF004
S31508000D400A02414658460BD106F00AF8804605467F
S31508000D500AF1010A66E7DDF810A009F10109B5E70D
S31508000D6005F0FEFF2946804600230A22584605F06C
S31508000D70F7FF0546ECE7049B4FF00008002BCCBFB5
S31508000D801F460127039B1F4401220299584606F075
S31508000D9049F92146029007F00CF80028A8DC02D190
S31508000DA019F0010FA4D1BA4617F8013D302BFAD035
S31508000DB0FEE4039BBB429BD13123039A0136137091
S31508000DC0F6E4219B002B7FF425AA014BFFF744BAD2
S31508000DD03B8700080348044B834202D0034B03B108
S31508000DE018477047FC130020FC1300200000000081
S31508000DF0064B0749C91A891048BF0131491003D063
S31508000E00044B0BB101481847704700BFFC1300207C
S31508000E10FC1300200000000010B5064C237843B9E7
S31508000E20FFF7D8FF044B13B10448AFF30080012342
S31508000E30237010BDACB700200000000078890008B8
S31508000E4008B5054B1BB105490548AFF30080BDE859
S31508000E500840FFF7CDBF00BF00000000FC130020CC
S31508000E6078890008A3F5803A704700BF174B002B16
S31508000E7008BF134B9D46FFF7F5FF00218B460F462B
S31508000E801348144A121A06F08AFE0E4B002B00D09D
S31508000E9098470D4B002B00D09847002000210400EE
S31508000EA00D000D48002802D00C48AFF3008005F06D
S31508000EB0D9FD2000290000F063FA05F04FF800BFBD
S31508000EC000000800000000000000000000100020DC
S31508000ED0FC130020B0B7002000000000000000004E
S31508000EE008B500F0F1F900F021F900F0D3F900F0A7
S31508000EF04BF9054B186800F02DF9BDE808404FF48A
S31508000F000061024800F09CB90810002028640020FF
S31508000F10134A11684B1C042B136007DD052B12D0EE
S31508000F20481F032813D90A2B07D070470D484FF4DA
S31508000F30006100EB033000F083B9012000230A4961
S31508000F401360086070470122084B1A607047084B07
S31508000F50081F03EB00304FF4006100F071B900BFC1
S31508000F6024140020286400201C14002020140020CB
S31508000F70281400202DE9F84FDFF8A481D8F80030AE
S31508000F80012B05D0584C2368012B59D0BDE8F88FA2
S31508000F904FF48062554B4FF40061C3F8A0205448C3
S31508000FA000F04EF9534805F001FC534805F0FEFBE6
S31508000FB00023DFF870A1514DDAF800202B609A4221
S31508000FC031DD4F4E4F4F504CDFF85C910021D7F87A
S31508000FD000E031608E451CDD4C4AA3EB0E0B002B5E
S31508000FE007DB34F81300B2F900C0C0F307100CFB96
S31508000FF00011013B9B4502F10202F0D140F6B833DD
S315080010009942C8BF4FF40063C6F800E0C8BFC9F8E4
S31508001010A0303F4805F0B8FB2B68DAF8002001330A
S3150800102093422B60D2DB3B4805F0C0FB4FF40061CE
S315080010300023394AC2F8A010C8F80030BDE8F88F76
S315080010404FF40061304800F0FBF8344805F0AEFB79
S31508001050294805F0ABFB0023DFF8C8A0274DDAF8CE
S3150800106000202B609A4232DD254E264FDFF880900D
S31508001070DFF8B4800021D7F800E031608E451CDD2A
S31508001080224AA3EB0E0B002B07DB39F81300B2F943
S3150800109000C0C0F307100CFB0011013B5B4502F1D1
S315080010A00202F0D140F6B8339942C8BF4FF4006344
S315080010B0C6F800E0C8BFC8F8A030154805F064FBBC
S315080010C02B68DAF80020013393422B60D2DB1148F3
S315080010D005F06CFB4FF4006100230F4AC2F8A0101C
S315080010E02360BDE8F88F00BF1C14002000F00350F1
S315080010F02814002060810008748100081814002054
S315080011001414002000100020286400200C10002071
S315080011107C8100087881000800E00350848100087B
S31508001120201400200410002000D0035010B501211F
S315080011303A2001F04DF8002304220A21022002F089
S31508001140E7FDBDE81040002304220B21022002F02F
S31508001150DFBD00BF0121094B094A10B45960536825
S315080011609B07FCD401234FF48031064C106563605D
S31508001170D1605DF8044BD360704700BF006000592A
S3150800118000400059005000592DE9F043012193B061
S315080011902A2001F01DF8002502214FF4B06001F065
S315080011A009FE0223224E234C2A463046224905953B
S315080011B0CDE906558DF8173003F040FAA646C82340
S315080011C04FF0030940F6E4480DF1200C0090ADF805
S315080011D01A308DF81900BEE80F00ACE80F00BEE81B
S315080011E00F00ACE80F009EE803002B468CE80300CE
S315080011F02A46304611498DF82490CDF82C8003F004
S315080012004FFA44F2011303AF28340A9008AA94E867
S31508001210030087E80300304605A9029302F030FE72
S315080012203946304602AA03F09FF913B0BDE8F083A9
S315080012300040005998810008002D310180969800D9
S3150800124030B5104B0C468BB01B6B054601A80193B5
S3150800125003F0B0FA00200C4A0C4B013C0692C4F38A
S315080012600A040B4A43EA0413CDE9023206A902AA84
S31508001270CDE9080004950790059003F0EBFA0BB04A
S3150800128030BD00BF9881000801000A0000009507DC
S3150800129074400059002310B5094C02222168886859
S315080012A0194605F08BFA0023216802224868194678
S315080012B005F084FABDE81040024B186803F092BDA9
S315080012C0301200200C120020F8B5254B254AD3F819
S315080012D04414254C41F00101C3F84414D3F89C107A
S315080012E0224D21F0F001C3F89C10D3F89C104FF45E
S315080012F0607041F04001C3F89C10D2F8F0304FF40A
S31508001300807743F00103C2F8F030D2F8FC30184E6B
S3150800131043F08073C2F8FC30256000F08BFF03466B
S315080013204FF060424FF0020C012003F5D523114C13
S3150800133003F2FC43DB08A4FB03430F490F4D9B0A4A
S31508001340013B0B61C1F8F0C0C1F80473C2F8B06F75
S31508001350C2F8805ED2F8003E0343C2F8003EF8BDEC
S3150800136000C0035000ED00E0001000E0FF1301404C
S3150800137055CEACC517916502000004E009000100CE
S3150800138008B504F013FAFFF7ABFDFFF7F3FDFCE72A
S31508001390704700BF08B501F0FFFC01F01DFC264AA6
S315080013A0136F23F0070343F00303136701F060FC90
S315080013B0224B9B6ADB0103D44FF48032204B9A629E
S315080013C01D4B0020D3F8202122F0070242F002022A
S315080013D0C3F82021D3F8282122F0070242F002029E
S315080013E0C3F82821D3F8402122F0030242F0020272
S315080013F0C3F84021D3F8602122F0030242F002022A
S31508001400C3F86021D3F8402222F0030242F0020218
S31508001410C3F84022D3F8002222F0070242F0020263
S31508001420C3F80022D3F8082222F0070242F002028B
S31508001430C3F8082208BD00BF008000500040005ACB
S315080014400060005A08B503F0ABFC00F099F803F009
S3150800145037FC03F08FFC03F04DFCFFF79BFF03F00E
S3150800146035FCBDE8084000F081B800BF08B500F0BB
S315080014708BFABDE8084000F087B800BF08B500F051
S315080014806BF8BDE8084000F001B800BF70B54FF42E
S3150800149080232922224994B00025029140F6092189
S315080014A0502640F2011E07931E4B1F4C03920893C9
S315080014B01E4A1F4B0DF1340CADF82410CDF82650FA
S315080014C004920A930FCCACE80F0094E80700194B76
S315080014D0059500938CE8070002AB17480DAA07A9E3
S315080014E00695ADF832500B96ADF830E004F078F872
S315080014F030B901464FF4E13000F050F814B070BD31
S3150800150088210E4800F02EFA29464FF4E13000F003
S3150800151045F8B821094814B0BDE8704000F022BA71
S3150800152000C0055024C00550FC81000803070308C5
S3150800153028B4002078B40020C4B40020CC81000868
S31508001540014804F0F7B800BFC4B40020014804F00D
S31508001550F1B800BFC4B4002008B503200123042253
S31508001560062102F0D5FB002008BD00BF08B5012101
S315080015703A2000F02DFEBDE80840FFF709BF00BF7E
S3150800158001213A2000F024BE08B5082000F08EFAA2
S31508001590BDE80840082000F097BA00BF30B500241F
S315080015A00123254620F07F4083B040EA81708DF8FC
S315080015B000300190052D1FD8DFE805F003070B0F53
S315080015C013175B21082000F08DFA0C21082000F083
S315080015D089FAD121082000F085FA8021082000F038
S315080015E081FA0021082000F07DFA214608200134FE
S315080015F00625E4B200F076FAA5F10E03012B12D9FE
S31508001600102D09D005F108036B44082013F80E1CA9
S3150800161000F068FA0135CDE75D21082003B0BDE882
S31508001620304000F05FBA5A21082000F05BFA013515
S31508001630C0E700BFFEE700BF08B500F053F8224830
S31508001640224A2349121A921000F080F8214C224BA4
S31508001650A34238BF9C4614D2DCF808306BB1DCE9EB
S31508001660001200230439043A51F8040F013342F8F2
S31508001670040FDCF808008342F6D30CF10C0CA445E1
S31508001680EAD31648164B98421BD2002403F1FF3CB6
S31508001690ACEB000C00F110032CF0070C08309C444E
S315080016A050F8043C53B1002350F8082C043A42F889
S315080016B0044F50F8041C01338B42F8D308306045B8
S315080016C0EED1FFF7D3FB00BF888D0008888D000890
S315080016D0B0B700208C890008808900088C8900082A
S315080016E08C89000830B44FF480454FF0FF3402204F
S315080016F0104B114A11499A60D3F8882042F47002B7
S31508001700C3F888200E4A956601F5005214660D4CFA
S315080017105466C3F8D000BFF34F8FBFF36F8F012411
S315080017204FF440330848C0F88041D36004600B6129
S3150800173030BC704700ED00E000000008008000445F
S31508001740009000507FFF7F0300E100E0BAB102F18C
S31508001750FF3CBCF1060F70B500F1040E01D97145C6
S315080017600ED10B1F01E00EF1040E5EF8042C0CF1ED
S31508001770FF3CBCF1FF3F43F8042FF4D170BD70471E
S3150800178084460B464FF0000E5608DCF80050DCF88D
S3150800179004400EF1010E76451D605C600CF1080CE4
S315080017A003F10803F1D122F00103D207E6D550F878
S315080017B0232041F8232070BD014B1868704700BFED
S315080017C014120020094B1B6F03F00703022B09D0E4
S315080017D0032B04D0012B00D0FEE705487047054BC4
S315080017E018687047044B1868704700BF008000509F
S315080017F0002D31011C120020141200200D4B1B6F06
S3150800180003F00703022B12D0032B0DD0012B00D0B7
S31508001810FEE70948074B094A1B6FC3F30333013335
S31508001820B0FBF3F010607047054B1868F2E7054BFC
S315080018301868EFE700800050002D310110120020D3
S315080018401C120020141200200048704700B4C4047B
S31508001850014B1868704700BF1C120020104B114A34
S315080018601860136F03F00703032B00D07047136F3C
S3150800187003F00703022B0FD0032B03D0012B00D054
S31508001880FEE70948074B094A1B6FC3F303330133C5
S31508001890B0FBF3F010607047054B1868F2E700BF1D
S315080018A01C12002000800050002D3101101200206B
S315080018B0141200200020704700487047002D31019F
S315080018C04FF0B4439868C0F304400C2808D8DFE802
S315080018D000F00B070707070723211B071D1F090031
S315080018E0002070470F4870474FF0B4439B6803F0D9
S315080018F04073B3F1807F13D0B3F1007F0ED00A4A4C
S31508001900002B08BF104670470848704708487047BC
S31508001910084870470848704708487047084870479D
S3150800192008487047005A620200093D00C0EA2101D2
S3150800193080BA8C010048E8010024F400405DC60026
S3150800194040420F0080841E004FF40040704700BFDD
S315080019504FF47A70704700BF014B1868704700BF94
S3150800196018120020FEE700BF0346054A054910681D
S3150800197003448B428CBF4FF0FF301360704700BFA3
S31508001980201200200000042070B501213A2000F042
S315080019901FFC012304220321002002F0B9F90020CC
S315080019A002F0B4F901254FF40020374C3749384B7B
S315080019B0C4F844544866D3F8FC10364ACC014DD4D2
S315080019C0D2F8803023F0030343F00203C2F88030D4
S315080019D04FF4607000F02EFC2D4A00F5D520D2F8A1
S315080019E0F0102D4E00F2FC4041F00101C008C2F88B
S315080019F0F010A6FB0060D2F8FC10284E41F080716A
S31508001A00C2F8FC10800A264A26494FF4807402253B
S31508001A1001380E6010616FF4D5704FF060434FF0D7
S31508001A20FF0CA1F1D251C2F8F050A1F59A11C2F8F3
S31508001A3004431D4A0144C3F8B01FC3F8802ED3F8E7
S31508001A40002E00202243C3F8002E83F820C0D3F8C6
S31508001A50002E22F48072C3F8002E70BDD3F8FC1055
S31508001A6021F08071C3F8FC10D2F8801021F0030130
S31508001A7041F00201C2F88010D3F8FC2042F08072CF
S31508001A80C3F8FC20A4E700BF00D003500090005024
S31508001A9000ED00E00080005017916502FF0300404A
S31508001AA0000004E0001000E0090001004FF0604269
S31508001AB084460123D2F8001E03FA0CF30B430020D8
S31508001AC0C2F8003E704700BF4FF0604184460122CD
S31508001AD0D1F8003E02FA0CF223EA02030020C1F80C
S31508001AE0003E70474FF06042D2F8803EDB0701D4D3
S31508001AF0112070478446012010B40C4C00FA0CF0F3
S31508001B00D4F8FC3043F08073C4F8FC30D2F8003EB9
S31508001B100343C2F8003E52F82C30002BF0D00020C8
S31508001B205DF8044B02F82C10704700BF00ED00E08A
S31508001B30204B1B78FBB110B5044668B301F0F0FFE3
S31508001B401D4B1A7BD2B11A7FBAB193F82C203AB33F
S31508001B5093F83C2032B393F84C20FAB193F85C2002
S31508001B6012B393F86C200AB393F87C2002B301F001
S31508001B70DDFF124810BD124870470122012122607C
S31508001B8000244FEA021C03EB021243F80C401173BF
S31508001B9001F0CCFF204610BD0A4810BD0422EDE72F
S31508001BA00222EBE70322E9E70522E7E70622E5E753
S31508001BB00722E3E7ADB70020DCB50020048000F07B
S31508001BC0028000F0018000F038B501F0A9FF134B40
S31508001BD005461A7BE2B91A7FD2B993F82C20BAB90E
S31508001BE093F83C20A2B993F84C208AB993F85C2064
S31508001BF072B993F86C205AB993F87C4044B902F04C
S31508001C0097FD074B28461C7001F090FF204638BD0B
S31508001C10284601F08BFF034838BD00BFDCB500201D
S31508001C20ADB70020058000F00D4B1B78B3B107282F
S31508001C3010B5044610D801F073FF0A4B03EB0413E2
S31508001C401A7B1AB901F072FF074810BD00241C73ED
S31508001C5001F06CFF204610BD044810BD04487047CB
S31508001C60ADB70020DCB50020068000F0018000F04A
S31508001C70028000F0002310B5154A82B0126801925E
S31508001C808DF8043001F04CFF124B1C78DCB90122A8
S31508001C901A7001F04BFF08220F4B01A81C731C7722
S31508001CA083F82C4083F83C4083F84C4083F85C402A
S31508001CB083F86C4083F87C408DF8072002F07AFDA3
S31508001CC0204602B010BD01F031FF044802B010BD35
S31508001CD018820008ADB70020DCB50020038000F0AC
S31508001CE02DE9F047384C84B025789DF830909DF85A
S31508001CF038C0002D5AD0072854D81446002A51D087
S31508001D00002B4FD00D9AB2F5006F4BDC2F4E4FEAE1
S31508001D10001E06EB0012127B002A52D04FF0000874
S31508001D204FF4447A2A4D470105EB401245F80780DF
S31508001D30A2F802A0C2E90188CDE90288CDF804809C
S31508001D40C2F80C80B9F1000F34D00091E919C1E945
S31508001D500134204CEB590CF0030C1C400D9B4FEA48
S31508001D608C6C013BC3F30A034CEA03132343EB5180
S31508001D700F9B13B18B78C3F3001300240F993D44CE
S31508001D8046F80E10109976447160A978B46063F32A
S31508001D900411A9706946747302F05CFD204604B00C
S31508001DA0BDE8F0870C4804B0BDE8F0870B4804B0DE
S31508001DB0BDE8F08792F8038048F0300882F803807F
S31508001DC0C3E70748EBE700BFADB70020DCB5002046
S31508001DD0DCB400200F80FFF3018000F0028000F0E1
S31508001DE0078000F008B50A4B1A786AB107280DD89B
S31508001DF0084A02EB00131B7B23B1002102F0B6FC54
S31508001E00002008BD044808BD044808BD044808BDAC
S31508001E10ADB70020DCB50020078000F0028000F096
S31508001E20018000F008B50A4B1A786AB107280DD860
S31508001E30084A02EB00131B7B23B1012102F096FC32
S31508001E40002008BD044808BD044808BD044808BD6C
S31508001E50ADB70020DCB50020078000F0028000F056
S31508001E60018000F008B50A4B1A7862B107280CD829
S31508001E70084A02EB00131B7B1BB102F089FD002008
S31508001E8008BD054808BD054808BD054808BD00BF8A
S31508001E90ADB70020DCB50020078000F0028000F016
S31508001EA0018000F0104B1A78CAB10728034614D8E7
S31508001EB099B10E4A02EB0012127B92B10122002060
S31508001EC010B40B4C02FA03F3246D234214BF1346D5
S31508001ED003465DF8044B0B70704706487047064882
S31508001EE070470648704700BFADB70020DCB5002034
S31508001EF000000450018000F0028000F0078000F026
S31508001F000D4B1A787AB1072811D810B50C4681B14D
S31508001F100A4A02EB00131B7B3BB102F057FD03464E
S31508001F200020237010BD06487047064810BD0648B5
S31508001F307047054810BD00BFADB70020DCB50020CE
S31508001F40028000F0078000F0018000F008B5FEF777
S31508001F50DFFF2A4A136D516D0B404ED4D90705D5BC
S31508001F60012027490865D16B0143D163980707D536
S31508001F700220234A21491065CA6B42F00102CA634E
S31508001F80590707D504201E4A1C491065CA6B42F03A
S31508001F900102CA631A0707D50820194A17491065A6
S31508001FA0CA6B42F00102CA63D80607D51020144A44
S31508001FB012491065CA6B42F00102CA63990607D531
S31508001FC020200F4A0D491065CA6B42F00102CA6308
S31508001FD05A0607D540200A4A08491065CA6B42F0D6
S31508001FE00102CA631B0607D58021054B034A1965FA
S31508001FF0D36B43F00103D36308BDFEE7000004502A
S315080020000020045038B51D4B0546D3F820310C4640
S3150800201003F00703062B29D8DFE803F0040A0F1498
S31508002020191E2300012205B12B6004B1226038BDB8
S31508002030FFF7C2FB05220346F5E7FFF709FC032273
S315080020400346F0E7FFF738FC02220346EBE7FFF703
S3150800205037FC07220346E6E7FFF7AEFB06220346F0
S31508002060E1E7FFF7F5FB04220346DCE741F25C21D2
S315080020700348FFF777FC00221346D4E70080005098
S315080020801C820008002230B5224B83B00192D3F897
S315080020906032054603F00703013B0C46032B31D893
S315080020A0DFE803F012180D02FFF70AFC0723019078
S315080020B00DB1019A2A6004B1236003B030BDFFF761
S315080020C0FBFB02230190F3E7002101A8FFF79AFF23
S315080020D00F23EDE70F4BD3F8403103F00303022B30
S315080020E00DD0032B05D0012B06D00020102301901C
S315080020F0DEE7FFF72DFCF9E7FFF726FCF6E7FFF723
S315080021002BFCF3E741F2C8010348FFF72BFC002339
S31508002110CEE700BF008000501C82000838B52A4B65
S315080021200546D3F820320C4603F00703042B42D8A1
S31508002130DFE803F0030E1B200900012205B12B601E
S3150800214004B1226038BDFFF707FC09220346F5E70C
S315080021501D4BD3F8283103F00703013B052B22D882
S31508002160DFE803F0120D1C17120DFFF7A9FB072273
S315080021700346E3E7FFF7E8FB0A220346DEE7FFF735
S3150800218067FB11220346D9E7FFF716FB1122034620
S31508002190D4E7FFF795FB11220346CFE7FFF78CFB41
S315080021A011220346CAE741F264010848FFF7DAFB41
S315080021B000231122C2E741F223010448FFF7D2FBAC
S315080021C000231A46BAE700BF008000501C820008A8
S315080021D038B5430904460D4618D0012B13D0022BF7
S315080021E01AD040F23D310E48FFF7BCFB4FF480523F
S315080021F04FF400510123002D08BF0A4604F01F04BE
S31508002200A340136038BD074A0749F3E740F22F3168
S315080022100348FFF7A7FBE9E7044A0549EAE700BFD1
S315080022201C8200086490005064A00050689000501A
S3150800223068A0005010B5002482B0B0F5807F0094E5
S3150800224000F20781B0F5807F00F24281DFE810F0E6
S31508002250B5014001400140014001400140014001F3
S315080022604001400140014001400140014001400158
S315080022704001400140014001400140014001400148
S315080022804001400140014001400140014001400138
S31508002290B501DC014001DC01E601E601E601E601E3
S315080022A0E601DC011C02A701CB013201A701DC0112
S315080022B0DC01DC01400140014001400140014001D0
S315080022C04001CB01DC01DC01DC01BA011402DC01AE
S315080022D040014001400140014001400140014001E8
S315080022E040014001400140014902E601B501B5013E
S315080022F0B5018A01A701A7016401040270014E0114
S315080023004E014001400140014001B5014001400134
S3150800231040014001400140014001400140014001A7
S315080023204001400140014001400140014001400197
S315080023304001400140014001400140014001400187
S315080023404001400140014001400140014001400177
S315080023504402400140014001400140014001400162
S315080023604001400140014001400140014001400157
S315080023704001400140014001400140014001400147
S315080023804001400140014001400140014001400137
S315080023904001400140014001400140014001400127
S315080023A04001400140014001400140014001400117
S315080023B04001400140014001400140014001400107
S315080023C040014001400140014001400140014001F7
S315080023D040014001400140014001400140014001E7
S315080023E040014001400140014001400140014001D7
S315080023F040014001400140014001400140014001C7
S3150800240040014001400140014001400140014001B6
S3150800241040014001400140014001400140014001A6
S315080024204001400140014001400140014001400196
S315080024304001400140014001400140014001400186
S315080024404001400140014001400140014001400176
S315080024503002B0F5E06F00F00F811AD9B0F5286F99
S3150800246000F0FA8050D9B0F5306F30D1A74BD3F8C9
S31508002470903203F00303012B00F0D680022B00F004
S31508002480E680A34841F25011FFF76CFA204602B0E5
S3150800249010BDB0F5607F00F03D814FD9B0F5B06F43
S315080024A000F0F2803ED9B0F5C06F00F09C80B0F520
S315080024B0D06F0DD1954BD3F8003203F00703042BE8
S315080024C000F26681DFE803F0099B858ABF0007D220
S315080024D040F294418E48FFF745FA002002B010BD3D
S315080024E0B0F5386F7FD0B0F5406FF1D1874BD3F890
S315080024F0283103F00703013B052B00F23C81DFE896
S3150800250003F0989D93A6989DB0F5186F00F0E980A2
S3150800251022D9B0F5206FDBD168460021FFF7B2FD5E
S315080025200098B4E7B0F5806F78D0B0F5A06FCFD13A
S3150800253068460021FFF7F2FD0098A8E7B0F5007F8E
S3150800254026D1FFF73FF9714BD3F89030C3F30463F4
S315080025500133B0FBF3F09AE7B0F5F06F32D0B0F57F
S31508002560106FB5D1694BD3F8083203F00703042B73
S3150800257000F2088101A252F823F000BFDB2400080C
S31508002580FF250008D3250008DD2500084726000892
S3150800259010D9B0F5207F37D0B0F5407F98D1FFF736
S315080025A02DF95A4B1B6FC3F380230133B0FBF3F0AD
S315080025B040086CE7B0F5C07F8AD102B0BDE810408C
S315080025C0FFF71CB9514BD3F8603103F00303022B14
S315080025D010D102B0BDE81040FFF7BEB902B0BDE8A1
S315080025E01040FFF7B5B9494BD3F8403103F0030360
S315080025F0022BEED0032BF1D0012B7FF46EAF02B085
S31508002600BDE81040FFF7A0B9FFF7F8F83F4B1B6F7E
S31508002610C3F380230133B0FBF3F038E768460021A3
S31508002620FFF7F0FC009832E702B0BDE81040FFF76C
S3150800263043B902B0BDE81040FFF7BEB802B0BDE826
S315080026401040FFF705B9FFF7D9F8800A1FE702B06F
S31508002650BDE81040FFF734B92C4AD2F8703203F0BF
S315080026600303012B70D0022B3FF437AF41F226113A
S315080026702748FFF777F930E7244BD3F8403203F0C1
S315080026800303022BB6D1A4E70024204B0194D3F808
S31508002690803103F00303022BC6D0032BD7D0012BBE
S315080026A05AD01B4841F2B131FFF75CF92046EEE6F5
S315080026B04FF0E023186910F004007FF47EAF134B47
S315080026C0D3F8403103F00303022B82D0032B85D0C5
S315080026D0012B7FF4DCAE92E702B0BDE81040FFF7AD
S315080026E071B80A4BD3F8503203F00303022B3FF4B8
S315080026F070AF032B3FF472AF012B80D0044841F230
S315080027009401FFF72FF90020C1E600BF00800050B2
S315080027101C820008214BD3F8803003F00303022BF8
S3150800272026D0032B21D0012B1CD01D4841F2DF11E6
S31508002730FFF718F92046194BD3F88030C3F3011375
S315080027400133B0FBF3F0A2E6D2F8403103F00303FD
S31508002750022B7FF44FAF3CE701A82146FFF752FC56
S31508002760019894E6FFF72EF8E5E7FFF725F8E2E784
S31508002770FFF7A6F8DFE70A4841F26401FFF7F2F827
S31508002780002084E641F2A7410548FFF7EBF8A4E6E6
S3150800279041F26F410248FFF7E5F89EE600800050D7
S315080027A01C82000830B5002483B0B0F5607F009421
S315080027B000F0418168D8802800F28680232840F2FC
S315080027C0918024385C2800F28D80DFE810F0230120
S315080027D023012301230123018B0009018B00290111
S315080027E0EE008B008B008B008B008B008B008B0020
S315080027F08B008B008B008B0029018B008B008B00D4
S31508002800C2005F018B008B008B008B008B008B0056
S315080028108B008B008B008B008B008B008B00450197
S3150800282023018B008B008B00D6008B008B00B10038
S315080028307B013F01990099008B008B008B008B0070
S315080028408B008B008B008B008B008B008B008B0022
S315080028508B008B008B008B008B008B008B008B0012
S315080028608B008B008B008B008B008B008B008B0002
S315080028708B008B008B008B008B008B008B008B00F2
S315080028808B008B008B006801B0F5086F00F034816F
S3150800289054D9B0F5286F00F0158142D9B0F5306FDC
S315080028A01FD1B64BD3F8903203F00303012B00F087
S315080028B03581022B00F0C68041F25011B048FFF76F
S315080028C051F8204603B030BDB0F5807F0AD14FF0ED
S315080028D0E0231B695B0740F1A380FEF78FFF0C24FA
S315080028E0EFE706D240F27951A548FFF73BF80024F6
S315080028F0E7E7B0F5386F00F09380B0F5406FF1D197
S315080029009E4BD3F8283103F00703013B052B00F251
S315080029104681DFE813F03701FD0003019700070140
S315080029202E01B0F5186F00F09780B0F5206F21D111
S3150800293000206946FFF7A6FB009CC2E7B0F5C06F0A
S315080029406ED047D9B0F5E06F00F0A080B0F5F06F13
S3150800295028D18A4BD3F8603103F00303022B66D0E3
S31508002960032B00F08F80012B00F08880012420467D
S3150800297003B030BDB0F5106FB4D1804BD3F8083230
S3150800298003F00703042B00F2118101A252F823F089
S315080029906D2900087D2A00082F2A0008852A0008C4
S315080029A06B2B0008B0F5D06F9CD1744BD3F800326E
S315080029B003F00703042B00F2068101A252F823F064
S315080029C06D2900087D2A00082F2A0008852A000894
S315080029D06B2B0008B0F5A06F38D0B0F5B06F15D1E5
S315080029E00025664B0195D3F8804104F00304022CB8
S315080029F000F0B880032C25D0012C00F0A38041F20A
S31508002A00B1315F48FEF7AEFF2C465AE7B0F5806F46
S31508002A107FF468AF00206946FFF7F4FA009C50E798
S31508002A20564BD3F8403103F00303022B98D1FEF737
S31508002A3093FF092445E7514BD3F8803003F003038D
S31508002A40022B4FD1FEF73CFF07243AE700206946E0
S31508002A50FFF764FB009C34E7484BD3F8503203F089
S31508002A600303022BE3D0032B0CD0012B06D041F233
S31508002A7094014348FEF776FF002422E7FEF764FF39
S31508002A800A241EE7FEF764FF0B241AE73B4BD3F82C
S31508002A90403203F00303022B7FF462AFC7E7374BDC
S31508002AA01C6F04F00704631E032B00F2868001A244
S31508002AB052F823F0212B0008612B0008C3280008D0
S31508002AC0552B00082D4AD2F8703203F00303012B68
S31508002AD02CD0022B20D041F226112948FEF742FFBE
S31508002AE00024EEE6032B1DD0012B35D041F2DF1171
S31508002AF02348FEF737FFE4E6204BD3F8003103F00E
S31508002B000303022B93D0032B22D0012B7FF42EAF85
S31508002B10FEF79EFE0324D4E61424D2E6FEF7CCFE86
S31508002B200224CEE6FEF748FE0624CAE6D2F840316D
S31508002B3003F00303022B2FD0032B2AD0012B25D019
S31508002B401024BEE6294601A8FFF75CFA0F24B8E66A
S31508002B50FEF7B0FE0824B4E6FEF734FE0D24B0E610
S31508002B600524AEE6FEF7A8FEABE6FEF747FE0E2402
S31508002B70A7E6FEF76DFE0424A3E600BF008000501A
S31508002B801C820008FEF718FE05249AE6FEF7DCFE0E
S31508002B90D6E7FEF7DDFED3E7FEF7DEFED0E741F225
S31508002BA064010C48FEF7DEFE00248AE641F2A741DE
S31508002BB00848FEF7D7FE002483E640F2C6410548DA
S31508002BC0FEF7D0FE93E641F26F410248FEF7CAFED1
S31508002BD0002476E61C82000838B50121022000F0A0
S31508002BE0B5FFFEF731FE4FF480311C4A1C4B916647
S31508002BF01C6F0546230B13F00E0FC4F303340AD0DB
S31508002C00072C29D00F2C25D0032C21D040F2852162
S31508002C101448FEF7A7FE013404FB05F541F67133A7
S31508002C201149124A8D4294BF00250125D169D36303
S31508002C30536823F4401343EA05535360CB0344BF58
S31508002C400023D363064A136F43F48063136738BDC2
S31508002C500424E1E71024DFE70824DDE700900050AC
S31508002C60008000501C820008005A620200000350CF
S31508002C7038B5FEF7C3FD05463F4AD2F88430D80674
S31508002C80FBD44FF48031D2F884303C4AC3F3811325
S31508002C90022B3B4B91661C6F4FEA1433C4F3033483
S31508002CA03ADA13F00E0F2BD1013405FB04F441F682
S31508002CB071333449344A8C4294BF00240124D169C3
S31508002CC0D3635368C90323F4401343EA0453536098
S31508002CD001D50023D3630121002000F08DFF4FF4B6
S31508002CE0C070FFF7A7FA2949254A884294BF0020F1
S31508002CF00120136F23F4806343EA8023136738BDEA
S31508002D00072C37D00F2C2BD0032C2BD040F2852143
S31508002D101F48FEF727FEC7E713F00E0F0AD0072C49
S31508002D2026D00F2C20D0032C20D040F2852118481D
S31508002D30FEF718FE013404FB05F541F67133154913
S31508002D40114A8D4294BF00250125D169D363536882
S31508002D5023F4401343EA05535360CB03BBD5B8E7C6
S31508002D601024A2E70424A0E71024E4E70424E2E7F9
S31508002D700824E0E7082498E7004000500090005037
S31508002D8000800050002D31010000035080F0FA0247
S31508002D901C820008005A62024FF480104FF48032F9
S31508002DA00249034B48669A62704700BF009000507C
S31508002DB00050005AB0F5607F2DE9F0410C4600F04E
S31508002DC0EB8168D8802800F28380232840F293801C
S31508002DD024385C2800F28F80DFE810F034013401D3
S31508002DE03401340134018D0018018D004101FD00C4
S31508002DF08D008D008D008D008D008D008D008D005D
S31508002E008D008D008D0041018D008D008D00BC0068
S31508002E108A018D008D008D008D008D008D008D003E
S31508002E208D008D008D008D008D008D007A01340196
S31508002E308D008D008D00E6008D008D009B00C00181
S31508002E40AA01D300D3008D008D008D008D008D0062
S31508002E508D008D008D008D008D008D008D008D00FC
S31508002E608D008D008D008D008D008D008D008D00EC
S31508002E708D008D008D008D008D008D008D008D00DC
S31508002E808D008D008D008D008D008D008D008D00CC
S31508002E908D008D006D01B0F5086F00F06E814DD97B
S31508002EA0B0F5286F00F05A812CD9B0F5306F21D1D2
S31508002EB0022900F04B82072940F0CF810221954A6A
S31508002EC0D2F8903223F003030B43C2F89032B3E0F2
S31508002ED0B0F5807F0FD10C2900F0228240F2D08015
S31508002EE0102900F0D280BDE8F04140F2E1618A483D
S31508002EF0FEF738BD3FD2BDE8F04140F6421186489C
S31508002F00FEF730BDB0F5186F00F0E280B0F5206F1F
S31508002F1047D1023C0E2C00F26581DFE814F0480325
S31508002F2063016301630163013E0363016301630196
S31508002F30630163016301630132033403B0F5C06FB3
S31508002F4000F08D805BD9B0F5E06F00F0D180B0F568
S31508002F50F06F3DD1013C0A2C00F2A481DFE814F0A1
S31508002F60A701A201A201A201A201A201A201A20136
S31508002F7007030F03FF02B0F5386F70D0B0F5406F46
S31508002F80B9D1023C052C00F2E581644B53F82410B4
S31508002F90604AD2F8283123F007030B43C2F82831D8
S31508002FA04AE0B0F5106FA6D1013C0D2C00F25C8109
S31508002FB0DFE814F05F015A015A015A015A015A0111
S31508002FC05A015A01F502FB02ED025A015A01F102B1
S31508002FD0B0F5D06F8FD1013C0D2C00F25481DFE89B
S31508002FE014F0570152015201520152015201520185
S31508002FF05201E002E202D80252015201D402B0F5AF
S31508003000A06F00F09580B0F5B06F17D1072C00F0CF
S3150800301069820F2C00F09C81022C05D040F27A615F
S315080030203D48FEF79FFC00243A4AD2F8803123F047
S3150800303003032343C2F88031BDE8F081B0F5806F01
S315080030407FF459AF013C062C00F27C82DFE814F0CD
S315080030507F0285026C028302760278028102013CB5
S315080030600A2C00F22E81DFE814F031012C012C0124
S315080030702C012C012C012C012C01840288027C02D3
S31508003080A1F10904022C3FF62EAF4FF48031244BF0
S315080030902048244A406E5966536A43F00103536236
S315080030A0C2034FF0E0225CBF1F4B5966136923F039
S315080030B004031361C0E78B1E062B00F26581DFE867
S315080030C013F0210213026301250263016301290239
S315080030D0093C022C00F24581144B53F824100D4A82
S315080030E0D2F8503223F003030B43C2F85032A3E759
S315080030F0013C0A2C00F2F480DFE814F0F700F20035
S31508003100F200F200F200F200F200F20037023D028D
S31508003110350200BF008000501C8200087882000833
S315080031200090005000C0075000A000506C820008B4
S31508003130013C102C65D8DFE814F0690064006400CF
S31508003140640064006400400264003E023C026400BD
S31508003150640064006400640064004202102C00F0FD
S31508003160DD80142C72D10221814AD2F8703223F004
S3150800317003030B43C2F870325EE74C1E082C00F2BC
S31508003180BE80DFE814F0C100BC00CF01BC00BC0063
S31508003190BC00BC00CB01CD01764AD2F8FC5015F034
S315080031A080753DD1072900F06B820D2900F0488211
S315080031B0062900F0738240F2E1716F48FEF7D2FBF0
S315080031C06B4AD2F8803023F00303C2F88030002D12
S315080031D03FF432AF674AD2F8FC3043F08073C2F846
S315080031E0FC3029E740F6E2016348FEF7BBFB002105
S315080031F05F4AD2F8603223F007030B43C2F8603205
S315080032001AE740F63D015C48FEF7ACFB0021584A38
S31508003210D2F8203223F007030B43C2F820320BE71B
S31508003220D2F8FC30072923F08073C2F8FC3000F08E
S31508003230FD810D2900F0F0810629BCD14C4AD2F84F
S31508003240803043F00303C2F88030C3E74FF41161BE
S315080032504948FEF787FB002186E740F623114648D2
S31508003260FEF780FB00212AE640F294714248FEF7F9
S3150800327079FB00213E4AD2F8083223F007030B43B4
S31508003280C2F80832D8E64FF4EE613B48FEF76AFB0F
S315080032900021374AD2F8003223F007030B43C2F85D
S315080032A00032C9E640F223713348FEF75BFB002182
S315080032B02F4AD2F8603123F003030B43C2F860317A
S315080032C0BAE640F201712C48FEF74CFB0021284A69
S315080032D0D2F8403123F003030B43C2F84031ABE682
S315080032E040F6AC012448FEF73DFB0021204AD2F8FF
S315080032F0403223F003030B43C2F840329CE64FF4F6
S31508003300F6611D48FEF72EFB0021194AD2F8003156
S3150800331023F003030B43C2F800318DE6012123E7AE
S315080033204FF48031154B1248154A406E5966536A58
S3150800333023F0010353624FF0E022C3035CBF114B35
S315080033405966136943F00403136175E60121B6E56E
S31508003350012469E640F66E010748FEF703FB0021E3
S3150800336016E640F6C8010448FEF7FCFA0021B6E660
S315080033700080005000ED00E01C820008009000501C
S3150800338000C0075000A00050002740F23161B14844
S31508003390FEF7E8FAB8460121022000F0D7FBFEF74F
S315080033A053FA4FF48031AC4AAC4B91661D6F064612
S315080033B02B0B13F00E0FC5F303350DD0072D00F0B8
S315080033C029810F2D00F02481032D00F01F8140F282
S315080033D08521A048FEF7C6FA013505FB06F6A04B7F
S315080033E0A04A9E4241F6713394BF00260126D16950
S315080033F0D3635368C90323F4401343EA065353605F
S3150800340044BF0023D363954A136F43F4806313675D
S31508003410136F23F0070343EA08031367FEF7EEF971
S315080034200646914AD2F88430DB06FBD44FF4803145
S31508003430D2F88430884AC3F38113022B874B9166EE
S315080034401D6F4FEA1533C5F3033580F2BA8013F0C2
S315080034500E0F0DD0072D00F029810F2D00F01A81CF
S31508003460032D00F0198140F285217A48FEF77AFA91
S31508003470013506FB05F57D4B7A4A9D4241F67133C7
S3150800348094BF00250125D169D363536823F44013FB
S3150800349043EA0553CD03536001D50023D3630121C5
S315080034A0002000F0A9FB4FF4C070FEF7C3FE704978
S315080034B06A4A884294BF00200120136F23F4806370
S315080034C043EA80231367002F7FF4B6AD032C7FF4FD
S315080034D0B3AD4FF48031674B674A9962936D5900D3
S315080034E0FCD4A9E503249FE54FF480154FF48032F8
S315080034F05948614945668F6A604BA0469A62C7F388
S31508003500006748E700274FF0010844E700274FF017
S31508003510020840E700274FF004083CE70321F4E6D9
S315080035200221F2E60121F0E602214C4AD2F82031C6
S3150800353023F007030B43C2F820317DE50121F4E7A8
S315080035400521F2E740F2B9614248FEF70BFA00217D
S31508003550EBE70421E9E70621E7E70321E5E703218D
S31508003560A6E60321B3E60321C0E60221BEE6022150
S315080035709EE60221ABE60121B8E60121A7E6012174
S3150800358096E6012134E6022132E6042181E603218A
S3150800359070E603217DE604216CE6042128E6022173
S315080035A068E6022175E6012173E6012162E6032138
S315080035B01EE603212BE6042129E6022127E601213E
S315080035C025E613F00E0F0AD0072D75D00F2D6FD0F4
S315080035D0032D6FD040F285211E48FEF7C3F9013549
S315080035E005FB06F61E4B1F4A9E4241F6713394BFF1
S315080035F000260126D169D3635368C80323F4401310
S3150800360043EA065353607FF54AAF46E70425E4E6E6
S315080036101025E2E60825E0E6104AD2F8803023F0C5
S31508003620030343F00103C2F88030D3E50B4AD2F80E
S31508003630803023F0030343F00203C2F88030C9E563
S31508003640064AD2F8803023F0030343F00103C2F898
S315080036508030F1E41C820008009000500080005081
S31508003660005A62020000035000400050002D31014C
S3150800367080F0FA020060005A0040005A0050005AD2
S315080036800E4AD2F8803023F0030343F00203C2F84F
S315080036908030D1E41025ECE60425EAE6074AD2F89C
S315080036A0803043F00303C2F88030C5E40825E0E61D
S315080036B0102595E7042593E7082591E70080005033
S315080036C0F8B5036805460F2B00F20D816B680F2BC2
S315080036D000F20381AB680F2B00F2F9802B7B0F2BCE
S315080036E000F2EF806B7B0F2B00F2E580AB7B3F2B64
S315080036F000F2DB80EB7B3F2B00F2D1802B69032B9A
S3150800370000F2C7806B69032B00F2BD80EB69032BBF
S3150800371000F2B3808020FFF745F8032871D04FF4F4
S31508003720801445F60E034FF0A0604FF48031774AB7
S315080037305466774AC2F88030764B986203F5805310
S315080037409962936DD903FCD4714EB46D14F080441C
S31508003750FBD1D5E900231B0543EA0263EA7B134341
S315080037602A7B43EA02436A7B43EA0233AA7B43EA9B
S31508003770821333616B692969B2691B0643EA81635F
S3150800378002F000421343AA7E13432A7E43EA024309
S315080037906A7E43EA0223B36100F0BAF9B36B23F4F5
S315080037A0406343F40063B36300F0B6F9336AEA6929
S315080037B0E97E23F00F032AB343EA8103134343F058
S315080037C00803022A336200F0948095F8223095F8AF
S315080037D020204F491B06886A43EA42134E4A024094
S315080037E095F82400134395F8232043EAC00343EAD7
S315080037F002438B6295F825301BB1454B474AC3F8FF
S315080038008020F8BD95F8242043EA81033362B16A23
S3150800381095F82000D300404A43EA40130A4095F839
S315080038202110134343EA011343F48033384A3C49D1
S31508003830B362936D31EA0303FBD14FF080704FF00A
S315080038400046344995F8224088621369AF6823F424
S31508003850700343EA075313618E610CB9314B9862C2
S3150800386095F82330002BC5D14FF480312D4B284ACB
S315080038709962936D5B00FCD4BCE740F688312A4810
S31508003880FEF770F846E740F685312748FEF76AF8EE
S315080038903CE740F682312448FEF764F832E740F602
S315080038A07F312148FEF75EF828E740F67C311E484E
S315080038B0FEF758F81EE740F679311B48FEF752F82E
S315080038C014E740F676311848FEF74CF80AE740F652
S315080038D073311548FEF746F800E74FF4376112488A
S315080038E0FEF740F8F6E640F66D310F48FEF73AF86F
S315080038F0ECE63461B46100F00BF9736B23F47F4393
S3150800390043F40853736300F007F95EE7009000502C
S315080039100040005A0050005AC7FFFEFEF1A7FFFFFD
S31508003920030001000060005A1C820008014B93F94D
S3150800393000007047F013002038B543680446072B8B
S3150800394041D8A368032B46D82378032B4BD894F980
S3150800395001206378002A50DB4F2B28BF4F234FF4F2
S31508003960000202204FF4D1551946274B5A66274ABA
S3150800397003F5C03355625860012003F5805358603B
S315080039801369DB03FCD42078E37B41EA002151610B
S31508003990D4E90101090141EA0021607B1B010143C9
S315080039A0207B41EA4001A07B43EA4013607C91609A
S315080039B00343207CA17C43EA4003536011B16FF4B2
S315080039C0D153536238BD40F6B3511148FDF7CAFFCB
S315080039D0A368032BB8D940F6B5510D48FDF7C2FFC9
S315080039E02378032BB3D940F6B7510948FDF7BAFF38
S315080039F094F901206378002AAEDA40F6B9510448F2
S31508003A00FDF7B0FF6378A7E700900050000002506A
S31508003A101C820008014B1880704700BFEE13002077
S31508003A20014B1880704700BFEC13002000294FF4A3
S31508003A308031314A38B5314B91661C6F05464FEADD
S31508003A401433C4F3033426DD13F00E0F17D10134F3
S31508003A5005FB04F441F6713329492A4A8C4294BF7E
S31508003A6000240124D169D3635368C90323F440139E
S31508003A7043EA0453536001D50023D36338BD072CAA
S31508003A8037D00F2C2BD0032C2BD040F285211E4883
S31508003A90FDF768FFDBE713F00E0F0AD0072C26D0D8
S31508003AA00F2C20D0032C20D040F285211648FDF794
S31508003AB059FF013404FB05F541F671331349114AE0
S31508003AC08D4294BF00250125D169D363536823F439
S31508003AD0401343EA05535360CB03CDD438BD1024B5
S31508003AE0B6E70424B4E71024E4E70424E2E708244C
S31508003AF0E0E70824ACE700BF0090005000800050C3
S31508003B00002D3101000003501C820008005A620291
S31508003B10EFF3108072B6704700B962B6704700BFFF
S31508003B20EFF31180302383F31188704780F31188EF
S31508003B30704700BF034A0179D36E23F030030B4365
S31508003B40D366704700400050704700BFF8B5054679
S31508003B50254AD2F88430D806FBD4D2F88430C3F389
S31508003B6081139D4225D0FDF72DFE012D074621D054
S31508003B70FFF7CEFF4FF000721C4B06465A662846E2
S31508003B80FFF7E2FF4FF48063174C6A1E93402367E2
S31508003B9007E0D4F884309B0606D4D4F88430990616
S31508003BA010D4636E9A01F4D53046FFF7B5FF022D9F
S31508003BB00ED0F8BD0E4B984210D801213846FFF7B3
S31508003BC035FFD5E740F28F710A48FDF7CBFEE8E7E7
S31508003BD03846BDE8F8400021FFF728BF40F281715A
S31508003BE00448FDF7BFFEE8E70040005000600050BB
S31508003BF0005A620290820008F8B50C4600283CD0AC
S31508003C00234B1B7813B1234B984230D9224DD5F854
S31508003C108430D806FBD4D5F88430C3F38113022B3D
S31508003C202ED0FDF7CFFD0646FFF772FF4FF0007264
S31508003C301A4B07465A660220FFF786FF4FF40063C1
S31508003C40154C2B6707E0D4F884309B0606D4D4F8C5
S31508003C508430990615D4636E9A01F4D53846FFF771
S31508003C605BFF3046BDE8F8400021FFF7DFBE21467E
S31508003C70BDE8F8400120FFF769BFFDF7A3FDBFE7E0
S31508003C80F8BD40F28F710648FDF76CFEE3E700BF0A
S31508003C905CB60020005A62020040005000600050E6
S31508003CA090820008704700BF4FF0004008B54AF6FA
S31508003CB0CD331149114A4866506C136400F001006F
S31508003CC0536BD907FCD45368DB070DD501210C4B80
S31508003CD05960136BD90707D40A4B084901E0013B21
S31508003CE002D00A6BD207FAD510B1044B064A1A64F9
S31508003CF0FFF7D8FF012008BD00900050004009508A
S31508003D000060095040420F003254FFFF704700BF61
S31508003D1003282DE9F84304460D4616461F460ED9D4
S31508003D204FF4B0714E48FDF71DFE06B3002F40F064
S31508003D30898040F2FE314B48FDF714FE0FE04A4BEE
S31508003D4053F82030CB40DB0740F182807EB1002F4C
S31508003D5063D1464B53F82430EB40D907E9D5012205
S31508003D60434B04EB440109010B44AA401A60072D92
S31508003D704FF030082BD8042318FB0438FFF7C8FE89
S31508003D800F233C494FEA850E58F801C006FA0EF291
S31508003D9082EA0C0203FA0EF3134083EA0C0348F88E
S31508003DA00130FFF7B9FE86B967B3032C3ED8324B0C
S31508003DB053F82430EB40DA0738D501222F4B04EBB1
S31508003DC0440424012344AA401A60BDE8F8830C235E
S31508003DD018FB0438FFF79CFE0F232649A5F10809AE
S31508003DE058F801C04FEA890906FA09F203FA09F3F5
S31508003DF082EA0C02134083EA0C0348F80130FFF705
S31508003E008BFED0E7032C17D8184B53F82430EB4019
S31508003E10DB0711D50122164BD1E7174B53F824308F
S31508003E20EB40D8070ED50122144B9AE740F22D41F4
S31508003E300C48FDF797FDC0E740F2FE310948FDF74B
S31508003E4091FDE7E740F22D410648FDF78BFDEAE7CD
S31508003E504FF4B0710248FDF785FD002E87D076E74E
S31508003E60E082000880830008D0830008D083000819
S31508003E7040E0035030C00350D083000840D00350C0
S31508003E802DE9F04F2DED028B0646DFF840C38BB0C7
S31508003E9004AC0D461746BCE80F000FC49CE80300A7
S31508003EA0DFF8F8E284E80300764508D0F121B8483F
S31508003EB0FDF758FD40F2AA31B548FDF753FD2A2013
S31508003EC0FEF7B8F9B34BB44A03449342C0F0BB803B
S31508003ED06FF4657C02F1D242A2F523326244A2FB5A
S31508003EE003231B0E013B032B28BF032395F80580EC
S31508003EF0DBB2984538BF98467369DC01FCD40122C9
S31508003F0006F50053DFF894A25A60DAF8044014F074
S31508003F100204FAD12879002800F03482000400F45B
S31508003F20FE00EB784FEA08721B0103F0300302F03B
S31508003F30E042034313432A780AB143F002036A783E
S31508003F400AB143F00403AA780AB143F008032A89A0
S31508003F50B3606B8943EA0243EA88326133628F4B66
S31508003F609E4208BF08F1010860D197F800B0D7F85B
S31508003F7008A0BBF1000F62D0894BBBF1010F894D38
S31508003F80894A08BF1D46894B0CBF914699462A2087
S31508003F90FEF750F9B0FBF8F02844B0FBF9F240F20E
S31508003FA0FF33814598BF02F1FF329A4228BF1A466D
S31508003FB006EB0411886CDFF818C27D781FFA8AFAB6
S31508003FC000EA0C0C9245B87838BF9246AD00FA78EC
S31508003FD00BF0030305F01C0543EA0C034001C0B2CD
S31508003FE02B43120302F4E042034313433A793D7C20
S31508003FF078794FEA024C6D050CF4E02C05F460055F
S31508004000000743EA0C0300F040502B4303438B643C
S31508004010896C2301C1F302310139042915D8DFE877
S3150800402011F014001400DB00A2009301012306F529
S31508004030805673600BB0BDEC028BBDE8F08F5C4D0B
S31508004040DFF89091A3E700234DE75A49BBF1010F2A
S31508004050D1F88051ADB200F2C8809FED577A03F1CE
S31508004060B24303F580432804986C4FF0010325F406
S31508004070C041C0F382004FEA814100EB030C48BF00
S3150800408041F0004103FA0CF3002800F0CF814948BB
S31508004090BBF1000F40F0F281D0F8900100B207EEB4
S315080040A0900AF8EEE77A37EEC77A07EE903AF6EE18
S315080040B0006AF8EEE78A3F4B68EEA66AD3F88831BD
S315080040C087EE266A1BB207EE903AF8EEE77A37EEE5
S315080040D0868A002A00F0BE81D7ED037A9FED376AFB
S315080040E0F8EE677AF7EE046A87EE867AC6EE877A7E
S315080040F067EE887ADFED325AB1EE006ADFED316A93
S3150800410085EEA87A67EE867A27EE267AB1F1004F11
S3150800411077EE277A0BD0DFED2C6A07EE105A77EE8A
S31508004120A67ABAEEE87A67EE277A77EEE67AF5EEB9
S31508004130C07AF1EE10FACCBFBEEE007AB6EE007A7F
S3150800414077EE677AFDEEE77A17EE903AB3F5003F19
S31508004150C0F263816FEA51416FEA41410F48631D1E
S315080041601A018150E5E01349BBF1010FD1F88451DA
S31508004170ADB23AD8BBF1000F40F0AB81D1F88C1143
S315080041800914490007EE901AB8EEE77A67E700BF08
S31508004190E0830008FF596202005A62020040005993
S315080041A0FF2C31013F4B4C00002D3101404B4C0098
S315080041B07F9698000080E00F0000000000007A4417
S315080041C000008043000020440000004944840008A1
S315080041D0008F18CF80969800D549BBF1010FD1F80A
S315080041E080514FEA154540F2EC80BBF1020F40F0D2
S315080041F0C28003A8CDE9002300F00EFC009A019BBB
S31508004200042A00F23181CB499FEDCB7A01EB820279
S31508004210D2ED007AF8EEE77AC7EE872A03F1B242C2
S3150800422002F58042926C0AA9C2F3421201EB82029D
S3150800423052ED065AFCEEE57A17EE902AB7EE006ABA
S315080042405C2A18BF35EE866A07EE905A14BFC5EE8B
S31508004250866ADFEDBA6AFBEEE87A9FEDB97A67EE11
S31508004260A67A67EE877AF5EEC07AB6EE007A08BFC8
S3150800427035EE866AF1EE10FA4CBF77EEC77A77EE1E
S31508004280877AFDEEE77A03F1B24101F580410B6DBD
S31508004290002317EE902A0B650B6D100448BF43F0F8
S315080042A000430B65A74BDFEDA83A03EA82430A6D84
S315080042B0B7EE044A13430B659D4B84EE227AD3F876
S315080042C08821D3F888319FEDA13A1BB206EE903AC1
S315080042D0F8EEE66A76EEA36AF1EE004A83EE254A20
S315080042E027EE267AC4EE065A27EE247A9FED985AC8
S315080042F007EE905A37EE257AFAEEE87A37EE057A1F
S3150800430067EEC77A77EE857AF4EEE37AB6EE007A48
S31508004310F1EE10FA4CBF77EEC77A77EE877AFDEEA4
S31508004320E77A17EE903A0A6DC3F3110313430B6548
S31508004330631DCAF3090206EB03135A601437002CEF
S315080043407FF474AE012410E67949BBF1010FD1F868
S3150800435084514FEA15453FF648AFBBF1000F40F0D0
S31508004360C180D1F88C11091401EB410107EE901AAE
S31508004370B8EEE77A73E640F2F1117648FDF7F2FAFD
S31508004380631DD6E72A20FDF755FF734B81469842F1
S3150800439022D35645B0FBF8F900F08E8040F26F3113
S315080043A06C48FDF7DFFA09F574236C4A03F23F23DC
S315080043B0A2FB0320800C01387F2828BF7F20000439
S315080043C0AFE5BBF1000F65D1D1F88C11091407EEE2
S315080043D0901AB8EEE77A42E6564504D040F26F31B5
S315080043E05C48FDF7BFFAB9F1000F40F095802A2026
S315080043F0FDF720FF00283FF494AD574B98427BD930
S31508004400574B564A9B68C3F302730133B0FBF3F369
S3150800441003F5742303F23F23CAE713F5003FAABF47
S31508004420C3F3110341F40031194397E607EE903AB6
S315080044303F4BF8EEE78ABBF1000F33D1D3F88C3146
S315080044401BB207EE903AF8EEE77A37EE878A002A2B
S315080044507FF442AE03A8009100F0DEFADFED417A60
S31508004460009968EE277A45E640F29141394800936B
S31508004470FDF778FADFED342A009BCFE6D0F89801ED
S3150800448000B207EE900AF8EEE77A77EEC77A37EECB
S31508004490277A0AE6D1F89411091407EE901AB8EEAD
S315080044A0E77ADCE5D3F894311BB207EE903AF8EEDA
S315080044B0E77A37EE878A0CE603F1814309F5742912
S315080044C003F5661309F23F2903F28343A3FB093078
S315080044D070E7D1F894110914490007EE901AB8EE5E
S315080044E0E77ABCE5D1F89411091401EB410107EE0E
S315080044F0901AB8EEE77AB2E503F1814300F5742025
S3150800450003F5661300F23F2003F28343A3FB003052
S31508004510800C0138000404E5104B09F5742909F2EA
S315080045203F29A3FB0930800C01380004F9E400BFD9
S315080045300080E00F3084000800007A44E71B753FCE
S31508004540000000470000FC7F0000000000008048D3
S3150800455000000049E0830008005A620283DE1B431C
S31508004560004000593D3B843FF8B5324B044698421B
S315080045700D46164604D04FF419712F48FDF7F2F987
S315080045806369DA01FCD4012304F50057294A7B60E4
S3150800459053689B07FCD42B78697803F0070343EA32
S315080045A0C103A978E878090101F0700143EA0023FC
S315080045B00B432367E16A2B7921F48B311B0221F423
S315080045C0807103F4E0630B436979A879090301F460
S315080045D0805143EA00430B439442E36204D04FF40C
S315080045E027711548FDF7BEF9012304F58051606867
S315080045F04B60F37872785B0443EA0223B278367824
S315080046001204334302F480321343C007C4F89830C7
S3150800461005D50123EA794B6002B1E360F8BD636909
S31508004620DA01FCD40123034A7B6053689B07FCD458
S31508004630EFE700BF00400059E083000838B5154B86
S315080046400D469842144604D040F2AA311248FDF7A6
S3150800465089F9BDB1114B9D4228BF1D466CB12C444A
S31508004660013CB4FBF5F0AC4228BF00F1FF3003284B
S3150800467028BF0320C0B238BD25462A20FDF7DAFD3B
S315080046800446ECE740F2AB310348FDF76BF9002C22
S31508004690F2D0FFDE00400059E0830008005A6202AB
S315080046A02DE9F0411D4D0E46A84214461F469DF8B9
S315080046B0188004D04FF479711948FDF753F93EB3C1
S315080046C0DFB1184D184B012F08BF1D46B54228BF4C
S315080046D03546C4B108F10108B4FBF8F46B1E1C4456
S315080046E0B4FBF5F340F2FF30AC4228BF03F1FF33C9
S315080046F0984228BF1846BDE8F0810C4DB54228BF40
S315080047003546002CE6D12A20FDF794FD0446E1E75C
S3150800471040F2E5310248FDF725F9D1E70040005996
S31508004720E0830008404B4C00002D3101809698002C
S315080047304FF480020B4B10B5C3F88020BFF34F8FA0
S31508004740BFF36F8F0024FF22074B21465C652020AC
S315080047509A625C60FDF73CFD2146BDE810402120C9
S31508004760FDF736BD00E100E000000450072838B523
S3150800477004460D460ADC1F2C0ED80A4B0A490122AC
S31508004780002D08BF0B46A2401A6038BD772107489E
S31508004790FDF7E8F81F2CF0D991210548FDF7E2F856
S315080047A0EBE700BF40200450401004505C8400082A
S315080047B030830008F8B50446002840D023781B0645
S315080047C013F0604F2FD1E3780F2B33D80121202027
S315080047D0FDF7FEFC01212120FDF7FAFC012200204D
S315080047E0FF274FF000464FF0FF354FF48001164B78
S315080047F05A60227812069A6094F801C0A27842EAB2
S315080048000C429A61114A9F62986318645E6503F5C3
S3150800481000531D65C2F88011E3781B01DBB282F8EC
S3150800482016331160F8BD92210948FDF79BF8E37825
S315080048300F2BCBD9A3210648FDF794F8C6E791219B
S315080048400348FDF78FF8B9E70000045000E100E0DF
S315080048505C840008F8B50126C3B2072805460C464D
S31508004860174606FA03F654DC002C58D0236823F4BE
S315080048707C1323F00F03002B5CD1A37A1B0413F4DB
S315080048807C0F60D1E37A1B0513F07E6F65D1227B1E
S31508004890520512F0FE5F6AD1394B27F003011E65F7
S315080048A0AB00206803F1A04303F588235860354F11
S315080048B0637B05EB450507EB05152B66E37AA07ABE
S315080048C01B0543EA00431343EB652967FFF728F9FD
S315080048D07B6D33437B65237A13B13B6C33433B646F
S315080048E0637A1BB1274A936B334393632279A3797F
S315080048F0244943EA0243224A93616579E379224CC3
S3150800490043EA0543A36156638E64BDE8F840FFF7A2
S315080049100DB9EC211D48FDF725F8002CA6D1ED218F
S315080049201A48FDF71FF8236823F47C1323F00F03B6
S31508004930002BA2D0F0211548FDF714F8A37A1B0422
S3150800494013F47C0F9ED040F209111048FDF70AF8BF
S31508004950E37A1B0513F07E6F99D040F20B110B48D2
S31508004960FDF700F8227B520512F0FE5F94D040F264
S315080049700D110648FCF7F6FF227B52058CE700BFAF
S315080049800020045000000450001004505C84000805
S3150800499010B50124C3B2072804FA03F40BDCFFF7A9
S315080049A0BFF8084B5A6D22EA04025A659C62BDE8B4
S315080049B01040FFF7BBB840F297110348FCF7D2FF47
S315080049C0EDE700BF000004505C84000810B5012420
S315080049D0C3B2072804FA03F413DCFFF7A1F80C4B5B
S315080049E0DA6A224208D15B6B9C430CBF012400247F
S315080049F0FFF79CF8204610BD0024FFF797F82046DD
S31508004A0010BD40F2B5110348FCF7ACFFE5E700BF5F
S31508004A10000004505C8400084FF48031084A094BB2
S31508004A2051669B6903F00F01C3F346120A43C3F3A9
S31508004A300341C3F30333428041700370704700BFDC
S31508004A400090005000C00750F8B506460F461546B8
S31508004A501C463AB391B1402C17D0402C07D894B3D2
S31508004A60202C29D1B5EBD70F4AD808232FE0602C84
S31508004A7022D1B5EB970F4FD8042328E04FF42070C6
S31508004A80FDF7D8FB402C0746E7D1294BA3FB0723A4
S31508004A90B5EB930F04D94FF4BF712648FCF762FFB4
S31508004AA0062314E04FF4A1712248FCF75BFF002FA0
S31508004AB0E4D0402CD1D1F3E740F28911BDE8F840A3
S31508004AC01C48FCF74FBFB5EB171F1FD8102303FB75
S31508004AD005F5690801EB4711B1FBF5F1164B2039CD
S31508004AE0B3EBC10F4FEAC1051CD3B268124B22F0D3
S31508004AF06002B260B2682B401443B460F361F8BD3B
S31508004B0040F279110B48FCF72DFFAEE74FF4BA7166
S31508004B100848FCF727FFD9E740F283110548FCF758
S31508004B2021FFA9E74FF4D0710248FCF71BFFDCE729
S31508004B30ABAAAAAAAC840008F8FF7F0038B50C4BCC
S31508004B40044698420D4604D04FF433710948FCF7E1
S31508004B5009FF0121EB438B4004F5805203F00A0359
S31508004B6051606361656115B904F50054616038BD2B
S31508004B7000C00550AC840008F8B5494B0446984275
S31508004B800D466BD040F2FD214648FCF7EBFE40F29D
S31508004B9042414448FCF7E6FE012140F6AA6204F5C4
S31508004BA080567160002341F2050162613E4A04F5B0
S31508004BB00057A360E365E1602361E361E364BA64D7
S31508004BC0A3650123AA7C7B6073601AB1A36843F0CE
S31508004BD08043A360EB7C33B1314B9C4256D0E36DE6
S31508004BE043F08003E3652A8A6B7B20461343EA89F0
S31508004BF01343E3602B7BD5E90112FFF725FF6B7D95
S31508004C001BB1A36843F48033A360AB7D1BB1A368D3
S31508004C1043F40043A360EB7D2A7E1B07120502F4CA
S31508004C20E00203F0E0431343A3656B7E02219A1E5C
S31508004C30012A09D91D4A012BC2F8981709D004235D
S31508004C40FB652B786361F8BD194A032BC2F89817E0
S31508004C50F5D10423F3652B786361F8BD012140F68D
S31508004C60AA6200F580567160002341F2050142618F
S31508004C700D4A00F500578360C365C1600361C361CF
S31508004C80C364BA648365036543659AE72A7DA3F519
S31508004C901033C3F8D421E36D43F08003E365A2E73C
S31508004CA000C00550AC840008FFFF010000E0035077
S31508004CB000D0035083695B06FCD5C163704700BF0B
S31508004CC008B5FEF7F1FF002008BD00BF10B50024A7
S31508004CD0074A82B0536F684643F00103536700944E
S31508004CE08DF80440FEF726FF204602B010BD00BF2F
S31508004CF00040005030B58BB0EC461A4C1A4D0FCC1C
S31508004D00ACE80F000FCCACE80F0094E803008CE881
S31508004D100300D5F84C311B0307D54FF6FF73134A2A
S31508004D2014889C421BD0E3B203E0D5F85041E4B2A4
S31508004D3023468DF81930FEF7F9FD0346234483F31D
S31508004D4008030B488DF81830FCF788FD6846FEF70F
S31508004D50B7FC3220FEF764FE00200BB030BD72238C
S31508004D601C46E6E7FC8400080080E00F0001E00F1F
S31508004D70C017530210B5094C86B00DF1040C0FCCC0
S31508004D80ACE80F00236801A8CCF80030FEF7D4FD84
S31508004D903220FEF73FFE002006B010BD248500082D
S31508004DA06FF004024FF0500C10B40C480C4C02F093
S31508004DB00F03043B12F0800F00EB0201234408D1D5
S31508004DC001324F2A81F800C3F1D100205DF8044B67
S31508004DD0704783F818C00132E9E700BF00E100E038
S31508004DE000ED00E010B50446FEF792FE024B1C608B
S31508004DF0FEF792FE002010BD60B6002010B5FEF743
S31508004E0087FE034B1C68FEF787FE204610BD00BFD1
S31508004E1060B6002010B582B038B10446636883B125
S31508004E20206802B0BDE810401847CDE90012FEF729
S31508004E306FFE054B1C68FEF76FFEDDE90012002CBD
S31508004E40ECD1232002B010BD60B6002030B587B083
S31508004E5070B104462BB1A5683DB12068A84707B0D4
S31508004E6030BDA56805AB002DF7D1232007B030BDAE
S31508004E70094CCDE902230191FEF74AFE2468FEF7A4
S31508004E804BFEDDE90112039B13B1002CE3D1ECE7DD
S31508004E9005AB002CDFD1E8E760B60020002070479C
S31508004EA0FEE700BF4FF4005300204B60704700BF79
S31508004EB001207047012070474FF0FF30704700BF50
S31508004EC000207047002000B583B001AB0190FFF7C2
S31508004ED0BDFF0198002808BF4FF0FF3003B05DF80A
S31508004EE004FB00BF10B500201446FFF793FF022805
S31508004EF000D008B9204610BDC3210248FCF732FD90
S31508004F00204610BD3885000880F82C10704700BF71
S31508004F1090F82C00704700BF70B504460568FFF787
S31508004F206DFF844241D095F93620002A12DB012113
S31508004F3053099B0002F01F0203F1604303F5614326
S31508004F4001FA02F2C3F88021C3F88020BFF34F8F1D
S31508004F50BFF36F8F287AFCF785FF00BB287AFCF72A
S31508004F6063FEB0B9FCF730FE10B1124B98420AD175
S31508004F7000236360A36023616361AA6A28462360ED
S31508004F80BDE8704010474FF4F1710B48FCF7EAFC96
S31508004F90EEE74FF4EF710848FCF7E4FCE2E74FF45C
S31508004FA0ED710548FCF7DEFCD8E70020FFF71AFF8D
S31508004FB0B9E700BF058000F0A48500082DE9F04F89
S31508004FC0002604460F46154690F82C3083B0DFF8C5
S31508004FD0F890DFF8F8800193B54207D094F82D30A1
S31508004FE043B994F83430E3B9B542FAD8002003B08F
S31508004FF0BDE8F08FFEF794FD237E824603F0FF0B93
S31508005000DBB9226B63699A4204D040F2F911404633
S31508005010FCF7A8FC5046FEF789FD94F83430002BBF
S31508005020DAD0019B3978002B45D12046E3699847A9
S315080050300028DBD101370136CEE7237AD4E90320ED
S3150800504003EB430309EB0313DB6E11188B4201D8FC
S31508005050934209D24FF43E7140460093FCF782FC16
S31508005060D4E90320009B11188B4208BF134603F1AD
S31508005070FF3C624584BF00F1FF3302EB030C634635
S31508005080216B0CE013F801E9BEF1110F0ED0BEF149
S31508005090130F09D09A4284BF00F1FF339B18994237
S315080050A0F0D1C4F830C0B5E74FF0000B84F834B03F
S315080050B0C4F830C0AEE70A29B7D10D212046E36906
S315080050C098473978B1E700BF00000450A485000866
S315080050D070B51446137A216903EB43031B0103F1E8
S315080050E0A04303F58023D268DE6E53189E42054618
S315080050F086B01BD8964219D39E4208BF16466269E7
S31508005100B2422CBF931B9B1BCBB9012194F82D20CF
S31508005110617642B184F8353013212046E26990471A
S315080051202046636A9847002006B070BD4FF43E716A
S315080051300F48FCF717FCD4E903231344DCE732468F
S315080051402846002601250B490193CDE90314D4E925
S31508005150001302960095FCF7C3FD0028E3D04FF430
S3150800516034710348FCF7FEFB002006B070BD00BF93
S31508005170A4850008D15000082DE9F04F89B00446EF
S315080051800F4616469846FEF7CBFC814626B1237E87
S3150800519003F0FF0273B916464846C8F80060FEF7E2
S315080051A0C5FCD8F80030002B0CBF1B20002009B026
S315080051B0BDE8F08F237A03EB43031B0103F1A043F9
S315080051C003F58023DD6ED4E9032302EB030B5D456B
S315080051D000F28C809542C0F089805D4508BF15466F
S315080051E06369AB4200F0F7809D4240F28980EB1A72
S315080051F09E4228BF1E46FEF793FC94F82D30B34610
S315080052008246002B00F0DA805E46002365692A781C
S3150800521002F0FD01112900F08B8007F8012B656962
S31508005220216B8D4200F09480013301355B45656141
S31508005230EDD1D4E9032313448B4200F0D9808A4286
S3150800524001D8994207D34FF46D717948FCF78AFB68
S31508005250D4E9032313446169994200F0C680914258
S3150800526001D3994204D34FF471717148FCF77AFB64
S315080052700023207A6376FCF7B5FD002840F0988075
S31508005280237A03EB43031B0103F1A04303F58023B1
S31508005290DD6ED4E903733B449D4201D8BD4207D273
S315080052A04FF43E716248FCF75DFBD4E903733B4457
S315080052B09D4208BF3D466369AB4252D00123207A1E
S315080052C023760DF11E01FCF71BFE002840F0A38093
S315080052D09DF81E30002B40F08E80207AFCF7A2FD48
S315080052E000285FD15046FEF721FC55E74FF43E7182
S315080052F04F48FCF737FBD4E9032302EB030B6CE7B3
S315080053001D46D4E9033203EB020BABEB050BB345A1
S3150800531028BFB346FEF704FC94F82D308246002BCE
S315080053204CD0BBF1000F7FF46FAF5E46216B80E770
S31508005330216B013EA9427FF474AFA2F11102B2FAC1
S3150800534082F28D424FEA521284F834207FF46CAF11
S315080053500133691C9B450D46216361617FF457AF94
S3150800536067E70023237694F82D30676103B1276336
S315080053702046636A98470023029301230494009306
S3150800538023693A4601932B4B0393207AD4E90013F9
S31508005390FCF7A6FC0028A0D040F22D312448FCF7E3
S315080053A0E1FA9AE740F251312148FCF7DBFA99E72E
S315080053B040F211311E48FCF7D5FA61E75A46616991
S315080053C0384602F005FCD4E9032361695E46594470
S315080053D06161134440E7637E002B96D140F27F312A
S315080053E01348FCF7BFFA6369FEE61146626138E7BF
S315080053F01146226325E7207A0DF11F01FCF752FDBD
S3150800540078B99DF81F1000297FF467AF2246207AE5
S31508005410FFF75EFE61E74FF450710548FCF7A2FA04
S3150800542056E740F246310248FCF79CFAE9E700BF26
S31508005430A4850008D15000082DE9F04F0C46154602
S31508005440064687B03822002120461F4602F0A7FBF1
S3150800545095E80300D5E9032B01234FF0000C95F8D6
S3150800546014A095F8169084E80300109984F818C0DB
S3150800547021621199C4F810B06162129984F82CA0BF
S3150800548084F82D90E761A162E2606261226384F884
S31508005490343084F835302B7ADFF8A48084F8363037
S315080054A0224BDFF8A0E07360214BC6F81080B3608A
S315080054B0204B3460C6F814E0F360FCF7DBFB10B150
S315080054C01D4B98422CD1002104F10800FCF730FB53
S315080054D030BB0127194BCDE903342369CDE90130E7
S315080054E06368E2682168207A0097FCF7F9FB0446AE
S315080054F0B0B995F90830002B0BDB03F01F025B09E6
