S00F000050696E67706F6E672E733337A3
S315080000000010002001150008FD140008FD14000862
S31508000010FD140008FD140008FD140008FD1400086E
S31508000020FD140008FD140008FD140008FD1400085E
S31508000030FD140008FD140008FD140008FD1400084E
S31508000040FD140008FD140008FD140008FD1400083E
S31508000050FD140008FD140008FD140008FD1400082E
S31508000060FD1400081514000809140008FD140008FA
S31508000070FD140008FD140008FD140008FD1400080E
S31508000080FD140008FD140008FD140008FD140008FE
S31508000090FD140008FD140008211E0008FD140008C0
S315080000A0FD140008FD140008FD140008FD140008DE
S315080000B0FD140008FD140008FD140008FD140008CE
S315080000C0FD140008FD140008FD140008FD140008BE
S315080000D0FD140008FD140008FD140008FD140008AE
S315080000E0FD140008FD140008FD140008FD1400089E
S315080000F0FD140008FD140008FD140008FD1400088E
S31508000100FD140008FD140008FD140008FD1400087D
S31508000110FD140008FD140008FD140008FD1400086D
S31508000120FD140008FD140008FD140008FD1400085D
S31508000130FD140008FD140008FD140008FD1400084D
S31508000140FD140008FD140008FD140008FD1400083D
S31508000150FD140008FD140008FD140008FD1400082D
S31508000160FD140008FD140008FD140008FD1400081D
S31508000170FD140008FD140008FD1400080000000026
S315080001802DE9F04FC76997B08346209E08910C92D7
S31508000190129355EC104B8DED000B7FB9102006F02D
S315080001A03BFD0246CBF81C0020B9A74BEF21A74818
S315080001B007F04AFAC0E901770760C760DBF81C3028
S315080001C0196859B15A680123584693404A608B60AA
S315080001D006F010FEDBF81C3000221A602B1EB7BF93
S315080001E023F00043002301220193A8BF3360019F37
S315080001F0974BB8BF3260BB4319D142F20F73129ABC
S315080002001360C7F31303234300F0DB85219B53B91F
S31508000210904B21E0904B03930833219A136003987F
S3150800022017B0BDE8F08F8B4B03930333F5E79DEDCD
S31508000230007B0022002351EC170B8DED0A7B07F09B
S31508000240A3FA804650B10123129A1360219B13B179
S31508000250824B219A1360824B0393E0E7C7F30A5651
S3150800026014AA15A958469DED0A0B07F04BF80290FB
S31508000270002E76D00B9BA6F2FF36CDF84C80C3F342
S31508000280130343F07F53DDE90A0143F4401319468B
S315080002900022744B05F0D2FB65A3D3E9002305F0D1
S315080002A085FD65A3D3E9002305F0CAFB04460D4680
S315080002B0304605F011FD62A3D3E9002305F076FD6B
S315080002C002460B462046294605F0BAFB04460D466B
S315080002D007F0A2FA0022074600232046294607F01F
S315080002E05DFA40B1384605F0F7FC22462B4607F082
S315080002F04BFA00B9013F162F52D85B4B03EBC703E5
S31508000300DDE90A01D3E9002307F048FA002849D0B5
S31508000310013F00231193149B9B1B5A1E4CBFC3F12C
S3150800032001030023079245BF06930023069307930C
S31508000330002F39DB079B10973B440793002309934B
S31508000340089B092B66D8052BC5BF043B002401244E
S315080003500893089B023B032B67D8DFE803F02D3A86
S315080003603859DDE914631E4406F23243202BC9BF0F
S31508000370C3F14003C3F120039F4006F21243D8BFDE
S3150800038004FA03F006F1FF36C4BF24FA03F347EA7A
S31508000390030005F091FC0122A1F1F873139276E7A8
S315080003A00123B7E71190B6E7069BDB1B06937B4252
S315080003B0099300231093C3E700230D930C9B002B8E
S315080003C056DC012399461A4604930C920CE0012345
S315080003D0F3E700230D930C9BFB1803F10109049323
S315080003E04B46012BB8BF0123DBF81C000021042271
S315080003F002F114059D423FD94160584606F0BAFC01
S31508000400039000283BD1194B024640F2AF11CEE6C5
S315080004100123DFE7012400230D9408934FF0FF33EF
S315080004200022994604931223CFE701230D93F5E79B
S3150800043061436F63A787D23FB3C8608B288AC63FDC
S31508000440FB799F501344D33F5087000867870008FD
S315080004500000F07F4C8700084387000820870008C3
S315080004601F8700080000F83F60880008C08700085A
S315080004700C9B99460493B7E701315200B8E7DBF8BD
S315080004801C30B9F10E0F039A1A606FD8002C6DD084
S31508000490002F36DD07F00F02A04BF8054FEA2714A8
S315080004A003EBC20393ED007B8DED0E7B17D59C4BBA
S315080004B004F00F044FF00308D3E90823DDE90A0125
S315080004C005F09EFDCDE90001954D5CB9DDE90E23E9
S315080004D0DDE9000105F094FDCDE900012BE04FF0C0
S315080004E00208F1E7E10709D508F10108DDE90E017F
S315080004F0D5E9002305F05AFCCDE90E01641008354C
S31508000500E3E700F007817C42844B854D4FF00208F3
S3150800051004F00F02241103EBC203DDE90A01D3E953
S31508000520002305F043FC0023CDE90001002C40F030
S31508000530E580002BD0D1119BDDE90045002B00F0AA
S315080005404C810022774B2046294607F027F90028D8
S3150800055000F04381B9F1000F00F03F81049B002BA6
S3150800056000F3E480DDE90A34CDE90034159B002B5D
S3150800057002DB0E2F40F342820D9A002A40F0678272
S31508000580099C0025DDF81880B8F1000F0DD0079BEF
S31508000590002B0ADD4345069AA8BF4346D21AA8EBA4
S315080005A003080692079AD31A0793099B0BB30D9B68
S315080005B0002B00F0A682002C00F0A18229462246D4
S315080005C0584606F041FD029A01460546584606F089
S315080005D091FC02990646584606F00CFC099B1B1B23
S315080005E0099300F09182099A3146584606F02CFD87
S315080005F002900121584606F067FC109B0446002B22
S3150800060000F084821A460146584606F01DFD089BEE
S315080006100446012B03DC009B002B00F07C8200269D
S31508000620236904EB8303186907F08BFBC0F12000EC
S315080006301096079B184410F01F0000F09182C0F135
S315080006402003042B40F38182C0F11C00069B03445F
S3150800065080440693079B03440793069B002B05DDFE
S315080006601A460299584606F049FD0290079B002B48
S3150800067005DD21461A46584606F040FD0446119BFC
S31508000680002B00F076822146029807F0A9FB002885
S3150800069080F26F8200230A220299584606F0CCFBA4
S315080006A00D9B7E1E0290002B00F05C8200232946DB
S315080006B00A22584606F0C0FB049B0546002B03DCBD
S315080006C0089B022B00F35E82B8F1000F05DD294670
S315080006D04246584606F012FD0546109B002B00F0D0
S315080006E0D0826968584606F045FB0746002840F060
S315080006F07F820D4B024640F2EF2158E5E20706D508
S3150800070008F10108D5E9002305F050FB0123641020
S3150800071008350BE74FF002080DE700BF60880008B0
S31508000720388800080000F03FC087000820460022ED
S31508000730AC4B294605F03AFB7E1E08F10108049CDD
S31508000740CDE90001404605F0C7FADDE9002305F0CA
S315080007502DFBA54B002205F073F9A1F15073CDE9E5
S315080007600E010F93002C3BD10022A04BDDE90001BE
S3150800077005F064F902460B46CDE90023DDE90E23B0
S3150800078007F02AF8002840F05781DDE90E2101F12B
S315080007900043DDE9000107F001F800283FF4E2AE66
S315080007A0002425460C9BDDF80CA0DE434FF000081C
S315080007B02146584606F01EFB002D00F0A980B8F128
S315080007C0000F05D0A84503D04146584606F012FB4F
S315080007D02946584606F00EFB9AE03E464C46B1E7D7
S315080007E0834B03EBC40353E90201039B1C440D9B93
S315080007F0002B4AD002460B4600207E4905F000FC35
S31508000800DDE90E2305F01AF9DDF80CA0CDE90E0195
S31508000810DDE9000107F000F8054605F05DFA024635
S3150800082030350B46DDE9000105F008F90AF8015BE9
S3150800083002460B46CDE90001DDE90E0106F0CCFFC4
S31508000840002865D100206C49DDE9002305F0F6F89B
S3150800085002460B46DDE90E0106F0BEFF002840F011
S315080008600D81A24500F0EA8000225E4BDDE90E010B
S3150800087005F09CFA00225B4BCDE90E01DDE900018B
S3150800088005F094FACDE90001C2E7DDE90E2305F08B
S315080008908DFAA046DDF80CA0CDE90E01DDE90001D0
S315080008A006F0BAFF054605F017FA024630350B463C
S315080008B0DDE9000105F0C2F80AF8015B02460B46BD
S315080008C0A245CDE900234FF0000223D1494BDDE9CB
S315080008D00E0105F0B5F802460B46DDE9000106F003
S315080008E07BFF002840F0CA8000204249DDE90E233C
S315080008F005F0A4F802460B46DDE9000106F04EFFB6
S3150800090070B1C24608F1FF381AF8013C302BF8D00E
S31508000910374655E0334B05F049FACDE90001BDE706
S31508000920DDE90A34CDE90034159B002BFFF628AE25
S315080009300E2F3FF725AE2E4B03EBC70393ED007B37
S315080009400C9B002B8DED047B02DAB9F1000F64D005
S31508000950DDF80CA0DDE90045DDE90423204629463B
S3150800096005F04EFB06F058FF064605F0B5F9DDE939
S31508000970042305F01BFA0246204606F130040B460E
S31508000980294605F05BF80AF8014B039C02460B461C
S31508000990AAEB0404A14540F0828005F051F804460C
S315080009A00D46DDE9042306F017FF002865D1204629
S315080009B02946DDE9042306F0E7FE08B1F3075CD40F
S315080009C00299584606F016FA002301378AF80030CD
S315080009D0129B1F60219B002B3FF421ACC3F800A09B
S315080009E01DE400BF0000244000001C400000144025
S315080009F0608800080000E03F0000F03FA24B03EBD0
S31508000A00C70393ED007B0C9B002B8DED047B9FDACF
S31508000A10B9F1000F9CDC7FF4C3AE00229B4BDDE9E5
S31508000A20040105F0C3F9DDE9002306F0CBFE044610
S31508000A3000287FF4B5AE3E462546B4E0DDE90A3423
S31508000A40CDE90034159B002B01DB0E2FD6DD089A65
S31508000A50012A36DC139A82B303F23343099CDDF884
S31508000A601880069A012158461A440692079A1A448B
S31508000A70079206F029FA054686E53E4653469A4603
S31508000A8013F8012D392A06D1039A9A42F7D1302252
S31508000A90039901360A701A7801321A7038E700226B
S31508000AA07B4B05F083F90022002304460D4606F029
S31508000AB06BFE00283FF450AF82E7149BC3F1360360
S31508000AC0CCE709F1FF34099BA34208DBB9F1000F13
S31508000AD0A3EB04040EDBDDF818804B46C1E7099B3F
S31508000AE0109AE31A0994DDF8188000241A444B4634
S31508000AF01092B6E7069BA3EB09080023B1E7029E0E
S31508000B0071E5099A029970E5029672E5089B012B30
S31508000B1017DC009BABB9019BC3F313039BB9019B7D
S31508000B2023F00046360D360536B1069B01260133FD
S31508000B300693079B01330793109B002B7FF470AD38
S31508000B401096012075E50026F6E73FF486AD1C33BE
S31508000B50069A1A4498440692079A1A4407927CE51C
S31508000B600346F4E7049B002B2BDC089B022B09DCCD
S31508000B7027E0B9F1000F1DDC089B022B1ADD3E4663
S31508000B80CDF81090049B002B7FF40CAE214605226D
S31508000B90584606F051F901460446029807F020F92E
S31508000BA000287FF7FFADDDF80CA0312301360AF8DF
S31508000BB0013BFBE50D9B3E46CDF81090002B7FF4DC
S31508000BC083AD039F2146029807F02EF8039B00F198
S31508000BD03009049A07F8019BFB1A9A4240F3CB8026
S31508000BE000230A220299584606F026F90290E9E7F8
S31508000BF02A6905F10C010C300232920006F0FFFF5B
S31508000C0001223946584606F079FA039BA846054656
S31508000C1003F1010ADDE9032313440793009B03F05C
S31508000C20010309930AF1FF3321460298049306F05B
S31508000C30FBFF4146069000F13009029807F0D0F80C
S31508000C402A4621460746584606F0C4FAC2680146AF
S31508000C5002B3584606F0CEF8002F3ADA0122029976
S31508000C60584606F04BFA2146029007F0B9F80028D4
S31508000C7003DC29D119F0010F26D0B9F1390F1DD19E
S31508000C8032E02846C1E700BF60880008000014402B
S31508000C90000024400A90029807F0A2F80A990C90DE
S31508000CA0584606F0A7F80C9A5ABB089B53B9099BF5
S31508000CB043B9B9F1390F17D0002F05DD069B03F1AB
S31508000CC0310901E0002F2ADADDF810A00AF8019BA5
S31508000CD06EE5089B3B4304D1009B03F00103002B00
S31508000CE0BCD0B9F1390F36D1049F392307F8013B37
S31508000CF0BA46013F1AF8013C392B5AD001333B70EA
S31508000D0056E5002F06DB089B3B4306D1009B03F004
S31508000D10010313B9002AA1DCD6E7002AE1DC079B08
S31508000D2057460AF8019C53452ED000230A220299F9
S31508000D30584606F081F8A84502904FF000034FF098
S31508000D400A02414658460BD106F076F88046054613
S31508000D500AF1010A66E7DDF810A009F10109B5E70D
S31508000D6006F06AF82946804600230A22584606F005
S31508000D7063F80546ECE7049B4FF00008002BCCBF50
S31508000D801F460127039B1F4401220299584606F075
S31508000D90B5F92146029007F023F80028A8DC02D10D
S31508000DA019F0010FA4D1BA4617F8013D302BFAD035
S31508000DB0FEE4039BBB429BD13123039A0136137091
S31508000DC0F6E4219B002B7FF425AA014BFFF744BAD2
S31508000DD0438700080348044B834202D0034B03B100
S31508000DE018477047F8130020F81300200000000089
S31508000DF0064B0749C91A891048BF0131491003D063
S31508000E00044B0BB101481847704700BFF813002080
S31508000E10F81300200000000010B5064C237843B9EB
S31508000E20FFF7D8FF044B13B10448AFF30080012342
S31508000E30237010BDA8B700200000000080890008B4
S31508000E4008B5054B1BB105490548AFF30080BDE859
S31508000E500840FFF7CDBF00BF00000000F8130020D0
S31508000E6080890008A3F5803A704700BF174B002B0E
S31508000E7008BF134B9D46FFF7F5FF00218B460F462B
S31508000E801348144A121A06F0A1FE0E4B002B00D086
S31508000E9098470D4B002B00D09847002000210400EE
S31508000EA00D000D48002802D00C48AFF3008005F06D
S31508000EB045FE2000290000F0C7F905F089F900BFB2
S31508000EC000000800000000000000000000100020DC
S31508000ED0F8130020ACB70020000000000000000056
S31508000EE008B500F0FDF80A4802F0DAFB0521802073
S31508000EF001F050FF00F022F9064B186800F004F9DB
S31508000F00BDE808404FF40061034800F073B900BF1C
S31508000F1000B4C4040810002024640020134A116891
S31508000F204B1C042B136007DD052B12D0481F032822
S31508000F3013D90A2B07D070470D484FF4006100EB10
S31508000F40033000F057B9012000230A4913600860EE
S31508000F5070470122084B1A607047084B081F03EBBD
S31508000F6000304FF4006100F045B900BF201400209E
S31508000F7024640020181400201C14002024140020C7
S31508000F802DE9F0474A4E3368012B05D0494E3368A0
S31508000F90012B50D0BDE8F0874FF480620027464BFE
S31508000FA04FF40061C3F8A020444800F023F9444BED
S31508000FB0444CD3F800902760B9452DDD424B1B6899
S31508000FC0C3F1000C23EAE37A002B2EDD40F6B8388D
S31508000FD03E4D3B4600203E4A002B07DB35F81310F2
S31508000FE0B2F900E0C1F307110EFB0100013B9C4575
S31508000FF002F10202F0D1404504DD4FF40062354BA0
S31508001000C3F8A0200137B9450CF1010CE1D1324BE8
S31508001010C4F80090C3F800A04FF4006100232F4ADB
S31508001020C2F8A0103360BDE8F0870137B9450CF166
S31508001030010CC9D1EBE700274FF40061234800F003
S31508001040D9F81F4B1F4CD3F800902760B945E3DD4C
S315080010501D4B1B68C3F1000C23EAE37A002B21DD44
S3150800106040F6B838154D3B460020194A002B07DBD9
S3150800107035F81310B2F900E0C1F307110EFB0100B1
S31508001080013B634502F10202F0D1404504DD4FF40D
S315080010900062104BC3F8A02001374F450CF1010C34
S315080010A0E1D1B4E701374F450CF1010CD6D1AEE7D3
S315080010B01C1400201814002000F0035024140020EB
S315080010C004100020141400200010002024640020BE
S315080010D00C10002000D003501014002000E003502C
S315080010E010B501213A2001F063F8002304220A21F1
S315080010F0022002F047FFBDE81040002304220B211E
S31508001100022002F03FBF00BF0121094B094A10B473
S31508001110596053689B07FCD401234FF48031064C71
S3150800112010656360D1605DF8044BD360704700BFFB
S315080011300060005900400059005000592DE9F0435D
S31508001140012193B02A2001F033F8002502214FF43B
S31508001150B06001F01FFE0223224E234C2A46304679
S3150800116022490595CDE906558DF8173003F0A0FB01
S31508001170A646C8234FF0030940F6E4480DF1200CB3
S315080011800090ADF81A308DF81900BEE80F00ACE8EB
S315080011900F00BEE80F00ACE80F009EE803002B46E0
S315080011A08CE803002A46304611498DF82490CDF87C
S315080011B02C8003F0AFFB44F2011303AF28340A90E6
S315080011C008AA94E8030087E80300304605A90293B5
S315080011D002F090FF3946304602AA03F0FFFA13B030
S315080011E0BDE8F08300400059A0810008002D3101B8
S315080011F08096980030B5104B0C468BB01B6B054695
S3150800120001A8019303F010FC00200C4A0C4B013C8A
S315080012100692C4F30A040B4A43EA0413CDE90232E0
S3150800122006A902AACDE9080004950790059003F0DF
S315080012304BFC0BB030BD00BFA081000801000A00BE
S31508001240000095077440005908B504F0E9FBFFF75C
S3150800125047FEFFF795FEFCE7704700BF08B501F0AB
S315080012608BFD01F0A9FC264A136F23F0070343F010
S315080012700303136701F0ECFC224B9B6ADB0103D4E2
S315080012804FF48032204B9A621D4B0020D3F8202160
S3150800129022F0070242F00202C3F82021D3F82821DF
S315080012A022F0070242F00202C3F82821D3F84021AF
S315080012B022F0030242F00202C3F84021D3F860216B
S315080012C022F0030242F00202C3F86021D3F840225A
S315080012D022F0030242F00202C3F84022D3F80022A9
S315080012E022F0070242F00202C3F80022D3F80822CD
S315080012F022F0070242F00202C3F8082208BD00BF26
S31508001300008000500040005A0060005A08B503F0FB
S3150800131081FE00F099F803F00DFE03F065FE03F078
S3150800132023FEFFF79BFF03F00BFEBDE8084000F025
S3150800133081B800BF08B500F091FABDE8084000F092
S3150800134087B800BF08B500F06BF8BDE8084000F0A4
S3150800135001B800BF70B54FF480232922224994B002
S315080013600025029140F60921502640F2011E0793F6
S315080013701E4B1F4C039208931E4A1F4B0DF1340C4B
S31508001380ADF82410CDF8265004920A930FCCACE899
S315080013900F0094E80700194B059500938CE80700A1
S315080013A002AB17480DAA07A90695ADF832500B9659
S315080013B0ADF830E004F04EFA30B901464FF4E130AA
S315080013C000F050F814B070BD88210E4800F034FAC9
S315080013D029464FF4E13000F045F8B821094814B021
S315080013E0BDE8704000F028BA00C0055024C005507A
S315080013F0048200080307030824B4002074B40020FC
S31508001400C0B40020D4810008014804F0CDBA00BF5A
S31508001410C0B40020014804F0C7BA00BFC0B4002019
S3150800142008B5032001230422062102F0ABFD0020A3
S3150800143008BD00BF08B501213A2000F0B9FEBDE895
S315080014400840FFF709BF00BF01213A2000F0B0BEEF
S3150800145008B5082000F094FABDE80840082000F016
S315080014609DBA00BF30B500240123254620F07F40F1
S3150800147083B040EA81708DF800300190052D1FD8A1
S31508001480DFE805F003070B0F13175B21082000F0B0
S3150800149093FA0C21082000F08FFAD121082000F0D9
S315080014A08BFA8021082000F087FA0021082000F036
S315080014B083FA2146082001340625E4B200F07CFAB6
S315080014C0A5F10E03012B12D9102D09D005F1080339
S315080014D06B44082013F80E1C00F06EFA0135CDE7B0
S315080014E05D21082003B0BDE8304000F065BA5A21F6
S315080014F0082000F061FA0135C0E700BFFEE700BF2B
S3150800150008B500F053F82248224A2349121A9210C5
S3150800151000F080F8214C224BA34238BF9C4614D2D7
S31508001520DCF808306BB1DCE9001200230439043A10
S3150800153051F8040F013342F8040FDCF8080083421F
S31508001540F6D30CF10C0CA445EAD31648164B984270
S315080015501BD2002403F1FF3CACEB000C00F1100396
S315080015602CF0070C08309C4450F8043C53B1002377
S3150800157050F8082C043A42F8044F50F8041C01337A
S315080015808B42F8D308306045EED1FFF76FFC00BFF9
S315080015908C8D00088C8D0008ACB700209489000853
S315080015A088890008948900089489000830B44FF4A3
S315080015B080454FF0FF340220104B114A11499A60BA
S315080015C0D3F8882042F47002C3F888200E4A95663C
S315080015D001F5005214660D4C5466C3F8D000BFF3EB
S315080015E04F8FBFF36F8F01244FF440330848C0F87C
S315080015F08041D36004600B6130BC704700ED00E0A9
S315080016000000000800800044009000507FFF7F0320
S3150800161000E100E0BAB102F1FF3CBCF1060F70B57B
S3150800162000F1040E01D971450ED10B1F01E00EF130
S31508001630040E5EF8042C0CF1FF3CBCF1FF3F43F8A6
S31508001640042FF4D170BD704784460B464FF0000E48
S315080016505608DCF80050DCF804400EF1010E764519
S315080016601D605C600CF1080C03F10803F1D122F04F
S315080016700103D207E6D550F8232041F8232070BD90
S31508001680014B1868704700BF10120020014B186004
S31508001690704700BF10120020094B1B6F03F00703A9
S315080016A0022B09D0032B04D0012B00D0FEE70548F6
S315080016B07047054B18687047044B1868704700BF99
S315080016C000800050002D3101181200201012002051
S315080016D00D4B1B6F03F00703022B12D0032B0DD003
S315080016E0012B00D0FEE70948074B094A1B6FC3F3D5
S315080016F003330133B0FBF3F010607047054B1868ED
S31508001700F2E7054B1868EFE700800050002D31011D
S315080017100C120020181200201012002000487047F2
S3150800172000B4C404014B1868704700BF18120020A3
S31508001730104B114A1860136F03F00703032B00D0F0
S315080017407047136F03F00703022B0FD0032B03D048
S31508001750012B00D0FEE70948074B094A1B6FC3F364
S3150800176003330133B0FBF3F010607047054B18687C
S31508001770F2E700BF1812002000800050002D31014A
S315080017800C120020101200200020704700487047F5
S31508001790002D31014FF0B4439868C0F304400C287B
S315080017A008D8DFE800F00B070707070723211B0700
S315080017B01D1F0900002070470F4870474FF0B443BB
S315080017C09B6803F04073B3F1807F13D0B3F1007FB9
S315080017D00ED00A4A002B08BF1046704708487047C3
S315080017E008487047084870470848704708487047CF
S315080017F00848704708487047005A620200093D00C9
S31508001800C0EA210180BA8C010048E8010024F400EE
S31508001810405DC60040420F0080841E004FF4004021
S31508001820704700BF4FF47A70704700BF014B1868C5
S31508001830704700BF14120020FEE700BF0346054AA2
S315080018400549106803448B428CBF4FF0FF30136084
S31508001850704700BF1C1200200000042070B501214B
S315080018603A2000F0A5FC012304220321002002F0FF
S3150800187089FB002002F084FB01254FF40020374C39
S315080018803749384BC4F844544866D3F8FC10364AEE
S31508001890CC014DD4D2F8803023F0030343F0020381
S315080018A0C2F880304FF4607000F0B4FC2D4A00F5A1
S315080018B0D520D2F8F0102D4E00F2FC4041F001017F
S315080018C0C008C2F8F010A6FB0060D2F8FC10284E3B
S315080018D041F08071C2F8FC10800A264A26494FF466
S315080018E08074022501380E6010616FF4D5704FF0D0
S315080018F060434FF0FF0CA1F1D251C2F8F050A1F5A8
S315080019009A11C2F804431D4A0144C3F8B01FC3F82C
S31508001910802ED3F8002E00202243C3F8002E83F829
S3150800192020C0D3F8002E22F48072C3F8002E70BDB2
S31508001930D3F8FC1021F08071C3F8FC10D2F880109F
S3150800194021F0030141F00201C2F88010D3F8FC200F
S3150800195042F08072C3F8FC20A4E700BF00D0035011
S315080019600090005000ED00E00080005017916502DD
S31508001970FF030040000004E0001000E00900010039
S315080019804FF0604284460123D2F8001E03FA0CF396
S315080019900B430020C2F8003E704700BF4FF060417D
S315080019A084460122D1F8003E02FA0CF223EA020329
S315080019B00020C1F8003E70474FF06042D2F8803EE2
S315080019C0DB0701D4112070478446012010B40C4C63
S315080019D000FA0CF0D4F8FC3043F08073C4F8FC30FD
S315080019E0D2F8003E0343C2F8003E52F82C30002BD2
S315080019F0F0D000205DF8044B02F82C10704700BFA9
S31508001A0000ED00E0204B1B78FBB110B5044668B327
S31508001A1002F0C0F91D4B1A7BD2B11A7FBAB193F8FE
S31508001A202C203AB393F83C2032B393F84C20FAB101
S31508001A3093F85C2012B393F86C200AB393F87C20D1
S31508001A4002B302F0ADF9124810BD124870470122E0
S31508001A500121226000244FEA021C03EB021243F81C
S31508001A600C40117302F09CF9204610BD0A4810BDBF
S31508001A700422EDE70222EBE70322E9E70522E7E77E
S31508001A800622E5E70722E3E7A9B70020D8B5002034
S31508001A90048000F0028000F0018000F038B502F002
S31508001AA079F9134B05461A7BE2B91A7FD2B993F82E
S31508001AB02C20BAB993F83C20A2B993F84C208AB9DD
S31508001AC093F85C2072B993F86C205AB993F87C4065
S31508001AD044B902F067FF074B28461C7002F060F90C
S31508001AE0204638BD284602F05BF9034838BD00BFDA
S31508001AF0D8B50020A9B70020058000F00D4B1B784B
S31508001B00B3B1072810B5044610D802F043F90A4BBA
S31508001B1003EB04131A7B1AB902F042F9074810BD01
S31508001B2000241C7302F03CF9204610BD044810BD81
S31508001B3004487047A9B70020D8B50020068000F0F1
S31508001B40018000F0028000F0002310B5154A82B02B
S31508001B50126801928DF8043002F01CF9124B1C78B9
S31508001B60DCB901221A7002F01BF908220F4B01A8F2
S31508001B701C731C7783F82C4083F83C4083F84C4050
S31508001B8083F85C4083F86C4083F87C408DF8072026
S31508001B9002F04AFF204602B010BD02F001F90448DF
S31508001BA002B010BD20820008A9B70020D8B50020D1
S31508001BB0038000F02DE9F047384C84B025789DF86D
S31508001BC030909DF838C0002D5AD0072854D81446AE
S31508001BD0002A51D0002B4FD00D9AB2F5006F4BDC7E
S31508001BE02F4E4FEA001E06EB0012127B002A52D037
S31508001BF04FF000084FF4447A2A4D470105EB40128E
S31508001C0045F80780A2F802A0C2E90188CDE9028852
S31508001C10CDF80480C2F80C80B9F1000F34D00091D9
S31508001C20E919C1E90134204CEB590CF0030C1C40AE
S31508001C300D9B4FEA8C6C013BC3F30A034CEA031372
S31508001C402343EB510F9B13B18B78C3F30013002486
S31508001C500F993D4446F80E10109976447160A9789C
S31508001C60B46063F30411A9706946747302F02CFF1B
S31508001C70204604B0BDE8F0870C4804B0BDE8F087FC
S31508001C800B4804B0BDE8F08792F8038048F03008A6
S31508001C9082F80380C3E70748EBE700BFA9B700202F
S31508001CA0D8B50020D8B400200F80FFF3018000F0DB
S31508001CB0028000F0078000F008B50A4B1A786AB16E
S31508001CC007280DD8084A02EB00131B7B23B1002115
S31508001CD002F086FE002008BD044808BD044808BD79
S31508001CE0044808BDA9B70020D8B50020078000F031
S31508001CF0028000F0018000F008B50A4B1A786AB134
S31508001D0007280DD8084A02EB00131B7B23B10121D3
S31508001D1002F066FE002008BD044808BD044808BD58
S31508001D20044808BDA9B70020D8B50020078000F0F0
S31508001D30028000F0018000F008B50A4B1A7862B1FB
S31508001D4007280CD8084A02EB00131B7B1BB102F0CC
S31508001D5059FF002008BD054808BD054808BD0548C7
S31508001D6008BD00BFA9B70020D8B50020078000F03D
S31508001D70028000F0018000F0104B1A78CAB10728DB
S31508001D80034614D899B10E4A02EB0012127B92B19F
S31508001D900122002010B40B4C02FA03F3246D2342EF
S31508001DA014BF134603465DF8044B0B70704706488C
S31508001DB07047064870470648704700BFA9B7002015
S31508001DC0D8B5002000000450018000F0028000F021
S31508001DD0078000F00D4B1A787AB1072811D810B58C
S31508001DE00C4681B10A4A02EB00131B7B3BB102F099
S31508001DF027FF03460020237010BD06487047064893
S31508001E0010BD06487047054810BD00BFA9B7002099
S31508001E10D8B50020028000F0078000F0018000F0AD
S31508001E2008B5FFF77BF82A4A136D516D0B404ED45F
S31508001E30D90705D5012027490865D16B0143D16328
S31508001E40980707D50220234A21491065CA6B42F034
S31508001E500102CA63590707D504201E4A1C491065A2
S31508001E60CA6B42F00102CA631A0707D50820194A45
S31508001E7017491065CA6B42F00102CA63D80607D52E
S31508001E801020144A12491065CA6B42F00102CA634F
S31508001E90990607D520200F4A0D491065CA6B42F0EE
S31508001EA00102CA635A0607D540200A4A084910653E
S31508001EB0CA6B42F00102CA631B0607D58021054B8F
S31508001EC0034A1965D36B43F00103D36308BDFEE7E4
S31508001ED0000004500020045008B5344B98424BD0FB
S31508001EE01AD9334B98424BD00CD9324B98424BD027
S31508001EF003F5740303F51053984249D12E4BD3F8D2
S31508001F00980008BD2D4B984248D02D4B984213D1C6
S31508001F10294BD3F88C0008BD2A4B984242D012D9D7
S31508001F20294B984225D003F5371303F5D863984211
S31508001F302ED1214B986F08BD244B984228D11E4BB1
S31508001F40D3F8840008BD224B98420FD008D9214BFC
S31508001F5098420BD0204B98421AD1174B586E08BDA1
S31508001F6008B9002008BD1D4B984211D1124B986D37
S31508001F7008BD114B586F08BD0F4BD3F8800008BD3C
S31508001F800D4BD3F8900008BD0B4BD3F8940008BD51
S31508001F9041F286311248FFF74FFCE2E7064BD3F8C9
S31508001FA0880008BD044B186F08BD00BF80BA8C01B5
S31508001FB0007E56030090D0030080E00F80D54302D0
S31508001FC0006CDC02405DC6000024F4000048E8010D
S31508001FD080841E0000093D00C0CF6A0040420F0001
S31508001FE02482000838B51D4B0546D3F820310C4627
S31508001FF003F00703062B29D8DFE803F0040A0F14B9
S31508002000191E2300012205B12B6004B1226038BDD8
S31508002010FFF736FB05220346F5E7FFF783FB0322A6
S315080020200346F0E7FFF7B2FB02220346EBE7FFF7AA
S31508002030B1FB07220346E6E7FFF722FB0622034623
S31508002040E1E7FFF76FFB04220346DCE741F25C2178
S315080020500348FFF7F1FB00221346D4E7008000503F
S3150800206024820008002230B5224B83B00192D3F8AF
S315080020706032054603F00703013B0C46032B31D8B3
S31508002080DFE803F012180D02FFF784FB072301901F
S315080020900DB1019A2A6004B1236003B030BDFFF781
S315080020A075FB02230190F3E7002101A8FFF79AFFC9
S315080020B00F23EDE70F4BD3F8403103F00303022B50
S315080020C00DD0032B05D0012B06D00020102301903C
S315080020D0DEE7FFF7A7FBF9E7FFF7A0FBF6E7FFF751
S315080020E0A5FBF3E741F2C8010348FFF7A5FB002368
S315080020F0CEE700BF008000502482000838B52A4B7E
S315080021000546D3F820320C4603F00703042B42D8C1
S31508002110DFE803F0030E1B200900012205B12B603E
S3150800212004B1226038BDFFF781FB09220346F5E7B3
S315080021301D4BD3F8283103F00703013B052B22D8A2
S31508002140DFE803F0120D1C17120DFFF723FB072219
S315080021500346E3E7FFF762FB0A220346DEE7FFF7DB
S31508002160E1FA11220346D9E7FFF78AFA1122034654
S31508002170D4E7FFF70FFB11220346CFE7FFF706FB6D
S3150800218011220346CAE741F264010848FFF754FBE7
S3150800219000231122C2E741F223010448FFF74CFB52
S315080021A000231A46BAE700BF0080005024820008C0
S315080021B038B5430904460D4618D0012B13D0022B17
S315080021C01AD040F23D310E48FFF736FB4FF48052E5
S315080021D04FF400510123002D08BF0A4604F01F04DE
S315080021E0A340136038BD074A0749F3E740F22F3189
S315080021F00348FFF721FBE9E7044A0549EAE700BF78
S31508002200248200086490005064A000506890005032
S3150800221068A0005010B5002482B0B0F5807F009405
S3150800222000F20781B0F5807F00F24281DFE810F006
S31508002230B501400140014001400140014001400113
S315080022404001400140014001400140014001400178
S315080022504001400140014001400140014001400168
S315080022604001400140014001400140014001400158
S31508002270B501DC014001DC01E601E601E601E60103
S31508002280E601DC011C02A701CB013201A701DC0132
S31508002290DC01DC01400140014001400140014001F0
S315080022A04001CB01DC01DC01DC01BA011402DC01CE
S315080022B04001400140014001400140014001400108
S315080022C040014001400140014902E601B501B5015E
S315080022D0B5018A01A701A7016401040270014E0134
S315080022E04E014001400140014001B5014001400155
S315080022F040014001400140014001400140014001C8
S3150800230040014001400140014001400140014001B7
S3150800231040014001400140014001400140014001A7
S315080023204001400140014001400140014001400197
S315080023304402400140014001400140014001400182
S315080023404001400140014001400140014001400177
S315080023504001400140014001400140014001400167
S315080023604001400140014001400140014001400157
S315080023704001400140014001400140014001400147
S315080023804001400140014001400140014001400137
S315080023904001400140014001400140014001400127
S315080023A04001400140014001400140014001400117
S315080023B04001400140014001400140014001400107
S315080023C040014001400140014001400140014001F7
S315080023D040014001400140014001400140014001E7
S315080023E040014001400140014001400140014001D7
S315080023F040014001400140014001400140014001C7
S3150800240040014001400140014001400140014001B6
S3150800241040014001400140014001400140014001A6
S315080024204001400140014001400140014001400196
S315080024303002B0F5E06F00F00F811AD9B0F5286FB9
S3150800244000F0FA8050D9B0F5306F30D1A74BD3F8E9
S31508002450903203F00303012B00F0D680022B00F024
S31508002460E680A34841F25011FFF7E6F9204602B08C
S3150800247010BDB0F5607F00F03D814FD9B0F5B06F63
S3150800248000F0F2803ED9B0F5C06F00F09C80B0F540
S31508002490D06F0DD1954BD3F8003203F00703042B08
S315080024A000F26681DFE803F0099B858ABF0007D240
S315080024B040F294418E48FFF7BFF9002002B010BDE4
S315080024C0B0F5386F7FD0B0F5406FF1D1874BD3F8B0
S315080024D0283103F00703013B052B00F23C81DFE8B6
S315080024E003F0989D93A6989DB0F5186F00F0E980C3
S315080024F022D9B0F5206FDBD168460021FFF7B2FD7F
S315080025000098B4E7B0F5806F78D0B0F5A06FCFD15A
S3150800251068460021FFF7F2FD0098A8E7B0F5007FAE
S3150800252026D1FFF7B9F8714BD3F89030C3F304639B
S315080025300133B0FBF3F09AE7B0F5F06F32D0B0F59F
S31508002540106FB5D1694BD3F8083203F00703042B93
S3150800255000F2088101A252F823F000BFBB2400084C
S31508002560DF250008B3250008BD2500082726000832
S3150800257010D9B0F5207F37D0B0F5407F98D1FFF756
S31508002580A7F85A4B1B6FC3F380230133B0FBF3F054
S3150800259040086CE7B0F5C07F8AD102B0BDE81040AC
S315080025A0FFF796B8514BD3F8603103F00303022BBB
S315080025B010D102B0BDE81040FFF738B902B0BDE847
S315080025C01040FFF72FB9494BD3F8403103F0030306
S315080025D0022BEED0032BF1D0012B7FF46EAF02B0A5
S315080025E0BDE81040FFF71AB9FFF772F83F4B1B6FAB
S315080025F0C3F380230133B0FBF3F038E768460021C4
S31508002600FFF7F0FC009832E702B0BDE81040FFF78C
S31508002610BDB802B0BDE81040FFF732B802B0BDE859
S315080026201040FFF77FB8FFF753F8800A1FE702B09C
S31508002630BDE81040FFF7AEB82C4AD2F8703203F066
S315080026400303012B70D0022B3FF437AF41F226115A
S315080026502748FFF7F1F830E7244BD3F8403203F068
S315080026600303022BB6D1A4E70024204B0194D3F828
S31508002670803103F00303022BC6D0032BD7D0012BDE
S315080026805AD01B4841F2B131FFF7D6F82046EEE69C
S315080026904FF0E023186910F004007FF47EAF134B67
S315080026A0D3F8403103F00303022B82D0032B85D0E5
S315080026B0012B7FF4DCAE92E702B0BDE81040FEF7CE
S315080026C0EBBF0A4BD3F8503203F00303022B3FF457
S315080026D070AF032B3FF472AF012B80D0044841F250
S315080026E09401FFF7A9F80020C1E600BF008000505A
S315080026F024820008214BD3F8803003F00303022B11
S3150800270026D0032B21D0012B1CD01D4841F2DF1106
S31508002710FFF792F82046194BD3F88030C3F301131C
S315080027200133B0FBF3F0A2E6D2F8403103F003031D
S31508002730022B7FF44FAF3CE701A82146FFF752FC76
S31508002740019894E6FEF7A8FFE5E7FEF799FFE2E7AA
S31508002750FFF720F8DFE70A4841F26401FFF76CF853
S31508002760002084E641F2A7410548FFF765F8A4E68C
S3150800277041F26F410248FFF75FF89EE6008000507D
S315080027802482000830B5002483B0B0F5607F009439
S3150800279000F0418168D8802800F28680232840F21C
S315080027A0918024385C2800F28D80DFE810F0230140
S315080027B023012301230123018B0009018B00290131
S315080027C0EE008B008B008B008B008B008B008B0040
S315080027D08B008B008B008B0029018B008B008B00F4
S315080027E0C2005F018B008B008B008B008B008B0077
S315080027F08B008B008B008B008B008B008B004501B8
S3150800280023018B008B008B00D6008B008B00B10058
S315080028107B013F01990099008B008B008B008B0090
S315080028208B008B008B008B008B008B008B008B0042
S315080028308B008B008B008B008B008B008B008B0032
S315080028408B008B008B008B008B008B008B008B0022
S315080028508B008B008B008B008B008B008B008B0012
S315080028608B008B008B006801B0F5086F00F034818F
S3150800287054D9B0F5286F00F0158142D9B0F5306FFC
S315080028801FD1B64BD3F8903203F00303012B00F0A7
S315080028903581022B00F0C68041F25011B048FEF790
S315080028A0CBFF204603B030BDB0F5807F0AD14FF08C
S315080028B0E0231B695B0740F1A380FEF709FF0C24A0
S315080028C0EFE706D240F27951A548FEF7B5FF002496
S315080028D0E7E7B0F5386F00F09380B0F5406FF1D1B7
S315080028E09E4BD3F8283103F00703013B052B00F272
S315080028F04681DFE813F03701FD0003019700070161
S315080029002E01B0F5186F00F09780B0F5206F21D131
S3150800291000206946FFF7A6FB009CC2E7B0F5C06F2A
S315080029206ED047D9B0F5E06F00F0A080B0F5F06F33
S3150800293028D18A4BD3F8603103F00303022B66D003
S31508002940032B00F08F80012B00F08880012420469D
S3150800295003B030BDB0F5106FB4D1804BD3F8083250
S3150800296003F00703042B00F2118101A252F823F0A9
S315080029704D2900085D2A00080F2A0008652A000864
S315080029804B2B0008B0F5D06F9CD1744BD3F80032AE
S3150800299003F00703042B00F2068101A252F823F084
S315080029A04D2900085D2A00080F2A0008652A000834
S315080029B04B2B0008B0F5A06F38D0B0F5B06F15D125
S315080029C00025664B0195D3F8804104F00304022CD8
S315080029D000F0B880032C25D0012C00F0A38041F22A
S315080029E0B1315F48FEF728FF2C465AE7B0F5806FED
S315080029F07FF468AF00206946FFF7F4FA009C50E7B9
S31508002A00564BD3F8403103F00303022B98D1FEF757
S31508002A100DFF092445E7514BD3F8803003F0030333
S31508002A20022B4FD1FEF7B6FE07243AE70020694687
S31508002A30FFF764FB009C34E7484BD3F8503203F0A9
S31508002A400303022BE3D0032B0CD0012B06D041F253
S31508002A5094014348FEF7F0FE002422E7FEF7DEFE67
S31508002A600A241EE7FEF7DEFE0B241AE73B4BD3F8D3
S31508002A70403203F00303022B7FF462AFC7E7374BFC
S31508002A801C6F04F00704631E032B00F2868001A264
S31508002A9052F823F0012B0008412B0008A328000850
S31508002AA0352B00082D4AD2F8703203F00303012BA8
S31508002AB02CD0022B20D041F226112948FEF7BCFE65
S31508002AC00024EEE6032B1DD0012B35D041F2DF1191
S31508002AD02348FEF7B1FEE4E6204BD3F8003103F0B5
S31508002AE00303022B93D0032B22D0012B7FF42EAFA6
S31508002AF0FEF718FE0324D4E61424D2E6FEF746FEB3
S31508002B000224CEE6FEF7BCFD0624CAE6D2F840311A
S31508002B1003F00303022B2FD0032B2AD0012B25D039
S31508002B201024BEE6294601A8FFF75CFA0F24B8E68A
S31508002B30FEF72AFE0824B4E6FEF7AEFD0D24B0E63D
S31508002B400524AEE6FEF722FEABE6FEF7C1FD0E242F
S31508002B50A7E6FEF7E7FD0424A3E600BF00800050C1
S31508002B6024820008FEF78CFD05249AE6FEF756FE39
S31508002B70D6E7FEF757FED3E7FEF758FED0E741F251
S31508002B8064010C48FEF758FE00248AE641F2A74184
S31508002B900848FEF751FE002483E640F2C641054880
S31508002BA0FEF74AFE93E641F26F410248FEF744FEFD
S31508002BB0002476E62482000838B50121022001F0B7
S31508002BC0FFF8FEF7ABFD4FF480311C4A1C4B9166AB
S31508002BD01C6F0546230B13F00E0FC4F303340AD0FB
S31508002BE0072C29D00F2C25D0032C21D040F2852183
S31508002BF01448FEF721FE013404FB05F541F671334E
S31508002C001149124A8D4294BF00250125D169D36323
S31508002C10536823F4401343EA05535360CB0344BF78
S31508002C200023D363064A136F43F48063136738BDE2
S31508002C300424E1E71024DFE70824DDE700900050CC
S31508002C400080005024820008005A620200000350E7
S31508002C5038B5FEF73DFD05463F4AD2F88430D8061A
S31508002C60FBD44FF48031D2F884303C4AC3F3811345
S31508002C70022B3B4B91661C6F4FEA1433C4F30334A3
S31508002C803ADA13F00E0F2BD1013405FB04F441F6A2
S31508002C9071333449344A8C4294BF00240124D169E3
S31508002CA0D3635368C90323F4401343EA04535360B8
S31508002CB001D50023D3630121002001F0D7F84FF492
S31508002CC0C070FFF7A7FA2949254A884294BF002011
S31508002CD00120136F23F4806343EA8023136738BD0A
S31508002CE0072C37D00F2C2BD0032C2BD040F2852164
S31508002CF01F48FEF7A1FDC7E713F00E0F0AD0072CF1
S31508002D0026D00F2C20D0032C20D040F2852118483D
S31508002D10FEF792FD013404FB05F541F671331549BA
S31508002D20114A8D4294BF00250125D169D3635368A2
S31508002D3023F4401343EA05535360CB03BBD5B8E7E6
S31508002D401024A2E70424A0E71024E4E70424E2E719
S31508002D500824E0E7082498E7004000500090005057
S31508002D6000800050002D31010000035080F0FA0267
S31508002D7024820008005A62024FF480104FF4803211
S31508002D800249034B48669A62704700BF009000509C
S31508002D900050005AB0F5607F2DE9F0410C4600F06E
S31508002DA0EB8168D8802800F28380232840F293803C
S31508002DB024385C2800F28F80DFE810F034013401F3
S31508002DC03401340134018D0018018D004101FD00E4
S31508002DD08D008D008D008D008D008D008D008D007D
S31508002DE08D008D008D0041018D008D008D00BC0089
S31508002DF08A018D008D008D008D008D008D008D005F
S31508002E008D008D008D008D008D008D007A013401B6
S31508002E108D008D008D00E6008D008D009B00C001A1
S31508002E20AA01D300D3008D008D008D008D008D0082
S31508002E308D008D008D008D008D008D008D008D001C
S31508002E408D008D008D008D008D008D008D008D000C
S31508002E508D008D008D008D008D008D008D008D00FC
S31508002E608D008D008D008D008D008D008D008D00EC
S31508002E708D008D006D01B0F5086F00F06E814DD99B
S31508002E80B0F5286F00F05A812CD9B0F5306F21D1F2
S31508002E90022900F04B82072940F0CF810221954A8A
S31508002EA0D2F8903223F003030B43C2F89032B3E012
S31508002EB0B0F5807F0FD10C2900F0228240F2D08035
S31508002EC0102900F0D280BDE8F04140F2E1618A485D
S31508002ED0FEF7B2BC3FD2BDE8F04140F64211864843
S31508002EE0FEF7AABCB0F5186F00F0E280B0F5206FC7
S31508002EF047D1023C0E2C00F26581DFE814F0480346
S31508002F0063016301630163013E03630163016301B6
S31508002F10630163016301630132033403B0F5C06FD3
S31508002F2000F08D805BD9B0F5E06F00F0D180B0F588
S31508002F30F06F3DD1013C0A2C00F2A481DFE814F0C1
S31508002F40A701A201A201A201A201A201A201A20156
S31508002F5007030F03FF02B0F5386F70D0B0F5406F66
S31508002F60B9D1023C052C00F2E581644B53F82410D4
S31508002F70604AD2F8283123F007030B43C2F82831F8
S31508002F804AE0B0F5106FA6D1013C0D2C00F25C8129
S31508002F90DFE814F05F015A015A015A015A015A0131
S31508002FA05A015A01F502FB02ED025A015A01F102D1
S31508002FB0B0F5D06F8FD1013C0D2C00F25481DFE8BB
S31508002FC014F05701520152015201520152015201A5
S31508002FD05201E002E202D80252015201D402B0F5CF
S31508002FE0A06F00F09580B0F5B06F17D1072C00F0F0
S31508002FF069820F2C00F09C81022C05D040F27A6180
S315080030003D48FEF719FC00243A4AD2F8803123F0ED
S3150800301003032343C2F88031BDE8F081B0F5806F21
S315080030207FF459AF013C062C00F27C82DFE814F0ED
S315080030307F0285026C028302760278028102013CD5
S315080030400A2C00F22E81DFE814F031012C012C0144
S315080030502C012C012C012C012C01840288027C02F3
S31508003060A1F10904022C3FF62EAF4FF48031244B10
S315080030702048244A406E5966536A43F00103536256
S31508003080C2034FF0E0225CBF1F4B5966136923F059
S3150800309004031361C0E78B1E062B00F26581DFE887
S315080030A013F0210213026301250263016301290259
S315080030B0093C022C00F24581144B53F824100D4AA2
S315080030C0D2F8503223F003030B43C2F85032A3E779
S315080030D0013C0A2C00F2F480DFE814F0F700F20055
S315080030E0F200F200F200F200F200F20037023D02AE
S315080030F0350200BF00800050248200088082000844
S315080031000090005000C0075000A0005074820008CC
S31508003110013C102C65D8DFE814F0690064006400EF
S31508003120640064006400400264003E023C026400DD
S31508003130640064006400640064004202102C00F01D
S31508003140DD80142C72D10221814AD2F8703223F024
S3150800315003030B43C2F870325EE74C1E082C00F2DC
S31508003160BE80DFE814F0C100BC00CF01BC00BC0083
S31508003170BC00BC00CB01CD01764AD2F8FC5015F054
S3150800318080753DD1072900F06B820D2900F0488231
S31508003190062900F0738240F2E1716F48FEF74CFB96
S315080031A06B4AD2F8803023F00303C2F88030002D32
S315080031B03FF432AF674AD2F8FC3043F08073C2F866
S315080031C0FC3029E740F6E2016348FEF735FB0021AB
S315080031D05F4AD2F8603223F007030B43C2F8603225
S315080031E01AE740F63D015C48FEF726FB0021584ADF
S315080031F0D2F8203223F007030B43C2F820320BE73C
S31508003200D2F8FC30072923F08073C2F8FC3000F0AE
S31508003210FD810D2900F0F0810629BCD14C4AD2F86F
S31508003220803043F00303C2F88030C3E74FF41161DE
S315080032304948FEF701FB002186E740F62311464878
S31508003240FEF7FAFA00212AE640F294714248FEF7A0
S31508003250F3FA00213E4AD2F8083223F007030B435B
S31508003260C2F80832D8E64FF4EE613B48FEF7E4FAB6
S315080032700021374AD2F8003223F007030B43C2F87D
S315080032800032C9E640F223713348FEF7D5FA002129
S315080032902F4AD2F8603123F003030B43C2F860319A
S315080032A0BAE640F201712C48FEF7C6FA0021284A10
S315080032B0D2F8403123F003030B43C2F84031ABE6A2
S315080032C040F6AC012448FEF7B7FA0021204AD2F8A6
S315080032D0403223F003030B43C2F840329CE64FF416
S315080032E0F6611D48FEF7A8FA0021194AD2F80031FE
S315080032F023F003030B43C2F800318DE6012123E7CF
S315080033004FF48031154B1248154A406E5966536A78
S3150800331023F0010353624FF0E022C3035CBF114B55
S315080033205966136943F00403136175E60121B6E58E
S31508003330012469E640F66E010748FEF77DFA00218A
S3150800334016E640F6C8010448FEF776FA0021B6E606
S315080033500080005000ED00E0248200080090005034
S3150800336000C0075000A00050002740F23161B14864
S31508003370FEF762FAB8460121022000F021FDFEF7A9
S31508003380CDF94FF48031AC4AAC4B91661D6F0646B9
S315080033902B0B13F00E0FC5F303350DD0072D00F0D8
S315080033A029810F2D00F02481032D00F01F8140F2A2
S315080033B08521A048FEF740FA013505FB06F6A04B25
S315080033C0A04A9E4241F6713394BF00260126D16970
S315080033D0D3635368C90323F4401343EA065353607F
S315080033E044BF0023D363954A136F43F4806313677E
S315080033F0136F23F0070343EA08031367FEF768F918
S315080034000646914AD2F88430DB06FBD44FF4803165
S31508003410D2F88430884AC3F38113022B874B91660E
S315080034201D6F4FEA1533C5F3033580F2BA8013F0E2
S315080034300E0F0DD0072D00F029810F2D00F01A81EF
S31508003440032D00F0198140F285217A48FEF7F4F938
S31508003450013506FB05F57D4B7A4A9D4241F67133E7
S3150800346094BF00250125D169D363536823F440131B
S3150800347043EA0553CD03536001D50023D3630121E5
S31508003480002000F0F3FC4FF4C070FEF7C3FE70494D
S315080034906A4A884294BF00200120136F23F4806390
S315080034A043EA80231367002F7FF4B6AD032C7FF41D
S315080034B0B3AD4FF48031674B674A9962936D5900F3
S315080034C0FCD4A9E503249FE54FF480154FF4803218
S315080034D05948614945668F6A604BA0469A62C7F3A8
S315080034E0006748E700274FF0010844E700274FF038
S315080034F0020840E700274FF004083CE70321F4E6FA
S315080035000221F2E60121F0E602214C4AD2F82031E6
S3150800351023F007030B43C2F820317DE50121F4E7C8
S315080035200521F2E740F2B9614248FEF785F9002124
S31508003530EBE70421E9E70621E7E70321E5E70321AD
S31508003540A6E60321B3E60321C0E60221BEE6022170
S315080035509EE60221ABE60121B8E60121A7E6012194
S3150800356096E6012134E6022132E6042181E60321AA
S3150800357070E603217DE604216CE6042128E6022193
S3150800358068E6022175E6012173E6012162E6032158
S315080035901EE603212BE6042129E6022127E601215E
S315080035A025E613F00E0F0AD0072D75D00F2D6FD014
S315080035B0032D6FD040F285211E48FEF73DF90135EF
S315080035C005FB06F61E4B1F4A9E4241F6713394BF11
S315080035D000260126D169D3635368C80323F4401330
S315080035E043EA065353607FF54AAF46E70425E4E607
S315080035F01025E2E60825E0E6104AD2F8803023F0E6
S31508003600030343F00103C2F88030D3E50B4AD2F82E
S31508003610803023F0030343F00203C2F88030C9E583
S31508003620064AD2F8803023F0030343F00103C2F8B8
S315080036308030F1E424820008009000500080005099
S31508003640005A62020000035000400050002D31016C
S3150800365080F0FA020060005A0040005A0050005AF2
S315080036600E4AD2F8803023F0030343F00203C2F86F
S315080036708030D1E41025ECE60425EAE6074AD2F8BC
S31508003680803043F00303C2F88030C5E40825E0E63D
S31508003690102595E7042593E7082591E70080005053
S315080036A02DE9F0410646FEF717FC431E033305468F
S315080036B000F2D0804FF4C021914B924A5966536864
S315080036C0012B72D08020FFF75DF8052877D08E4B46
S315080036D025F040759E4200F0B0808C4B9E4201D189
S315080036E045F08075FDF7CCFF8642074600F2AD80AF
S315080036F0874CE36813F0060FFBD1D4F80880A56061
S31508003700A3686B4013F4F81F0BD13046FDF7BEFFD4
S315080037108020FFF737F8052816D0B7420DD2BDE846
S31508003720F08140F60D217B48FEF786F88020C4F824
S315080037300880FFF727F8052805D0BDE8F0410121E4
S31508003740002000F093BB3E46FDF7C2FFB042054697
S3150800375000F2BD80704AD2F88430D906FBD44FF403
S315080037608031D2F88430664AC3F38113022B6B4B3F
S3150800377091661C6F4FEA1432C4F3033470DA12F000
S315080037800E0F0DD0072C00F0AC800F2C00F0A78090
S31508003790032C00F0A28040F285215E48FEF74CF823
S315080037A0631C05FB03F35E4A6CE05E494B60536895
S315080037B09C07FCD48020FEF7E5FF052887D1FDF796
S315080037C0ADFF4FF480314E4A544B91661C6F074645
S315080037D0230B13F00E0FC4F303340CD0072C00F0A0
S315080037E086800F2C00F08180032C7CD040F2852146
S315080037F04848FEF721F8013404FB07F74A4B4B4AC1
S315080038009F4241F6713394BF00270127D169D363DC
S315080038105368C80323F4401343EA0753536044BF6D
S315080038200023D3633D4A25F04075136F43F4806344
S315080038301367354B9E427FF450AFFDF721FF864252
S31508003840074645F000757FF653AF0121304600F074
S315080038500DFB4DE740F6C5112E48FDF7EDFF29E7AC
S3150800386012F00E0F0AD0072C47D00F2C43D0032C8A
S315080038703FD040F285212748FDF7DEFF631C05FB94
S3150800388003F3294A934241F6713294BF0023012378
S315080038902649C869CA634A6822F4401242EA0353B1
S315080038A04B60C30348BF00234FF4C07048BFCB63C7
S315080038B0FEF7B0FC1E49194A884294BF0020012031
S315080038C0136F23F4806343EA8023136725E740F6E2
S315080038D01E211048FDF7B0FF3CE7042361E71023DB
S315080038E05FE708235DE7042486E7102484E70824B5
S315080038F082E70423C3E71023C1E70823BFE700BF15
S315080039000090005000C0015040420F0080841E0005
S31508003910000001502482000800400050008000503A
S31508003920002D310100E00150005A620200000350E8
S3150800393080F0FA02F8B5036805460F2B00F20D81F0
S315080039406B680F2B00F20381AB680F2B00F2F9802E
S315080039502B7B0F2B00F2EF806B7B0F2B00F2E580A1
S31508003960AB7B3F2B00F2DB80EB7B3F2B00F2D18059
S315080039702B69032B00F2C7806B69032B00F2BD800D
S31508003980EB69032B00F2B3808020FEF7FBFE0328C9
S3150800399071D04FF4801445F60E034FF0A0604FF433
S315080039A08031774A5466774AC2F88030764B9862F7
S315080039B003F580539962936DD903FCD4714EB46DA7
S315080039C014F08044FBD1D5E900231B0543EA0263C2
S315080039D0EA7B13432A7B43EA02436A7B43EA0233C0
S315080039E0AA7B43EA821333616B692969B2691B06AC
S315080039F043EA816302F000421343AA7E13432A7EF8
S31508003A0043EA02436A7E43EA0223B36100F0BAF945
S31508003A10B36B23F4406343F40063B36300F0B6F971
S31508003A20336AEA69E97E23F00F032AB343EA81037E
S31508003A30134343F00803022A336200F0948095F892
S31508003A40223095F820204F491B06886A43EA42131C
S31508003A504E4A024095F82400134395F8232043EA7A
S31508003A60C00343EA02438B6295F825301BB1454BE8
S31508003A70474AC3F88020F8BD95F8242043EA810315
S31508003A803362B16A95F82000D300404A43EA4013EE
S31508003A900A4095F82110134343EA011343F480338F
S31508003AA0384A3C49B362936D31EA0303FBD14FF0C0
S31508003AB080704FF00046344995F8224088621369B1
S31508003AC0AF6823F4700343EA075313618E610CB998
S31508003AD0314B986295F82330002BC5D14FF48031CD
S31508003AE02D4B284A9962936D5B00FCD4BCE740F6DF
S31508003AF088312A48FDF7A0FE46E740F68531274873
S31508003B00FDF79AFE3CE740F682312448FDF794FE1D
S31508003B1032E740F67F312148FDF78EFE28E740F66A
S31508003B207C311E48FDF788FE1EE740F679311B48B2
S31508003B30FDF782FE14E740F676311848FDF77CFE5D
S31508003B400AE740F673311548FDF776FE00E74FF4AD
S31508003B5037611248FDF770FEF6E640F66D310F48FC
S31508003B60FDF76AFEECE63461B46100F00BF9736B9D
S31508003B7023F47F4343F40853736300F007F95EE7C1
S31508003B80009000500040005A0050005AC7FFFEFE41
S31508003B90F1A7FFFF030001000060005A2482000815
S31508003BA0014B93F900007047EC13002038B54368C1
S31508003BB00446072B41D8A368032B46D82378032B42
S31508003BC04BD894F901206378002A50DB4F2B28BF85
S31508003BD04F234FF4000202204FF4D1551946274BC4
S31508003BE05A66274A03F5C03355625860012003F523
S31508003BF0805358601369DB03FCD42078E37B41EAE1
S31508003C0000215161D4E90101090141EA0021607BE3
S31508003C101B010143207B41EA4001A07B43EA401394
S31508003C20607C91600343207CA17C43EA4003536097
S31508003C3011B16FF4D153536238BD40F6B3511148F0
S31508003C40FDF7FAFDA368032BB8D940F6B5510D4820
S31508003C50FDF7F2FD2378032BB3D940F6B75109488F
S31508003C60FDF7EAFD94F901206378002AAEDA40F6FA
S31508003C70B9510448FDF7E0FD6378A7E700900050C6
S31508003C800000025024820008014B1880704700BFCC
S31508003C90EA130020014B1880704700BFE813002084
S31508003CA000294FF48031314A38B5314B91661C6F83
S31508003CB005464FEA1433C4F3033426DD13F00E0F1A
S31508003CC017D1013405FB04F441F6713329492A4A10
S31508003CD08C4294BF00240124D169D3635368C90375
S31508003CE023F4401343EA0453536001D50023D363F6
S31508003CF038BD072C37D00F2C2BD0032C2BD040F2F5
S31508003D0085211E48FDF798FDDBE713F00E0F0AD054
S31508003D10072C26D00F2C20D0032C20D040F285214A
S31508003D201648FDF789FD013404FB05F541F67133A4
S31508003D301349114A8D4294BF00250125D169D363E1
S31508003D40536823F4401343EA05535360CB03CDD499
S31508003D5038BD1024B6E70424B4E71024E4E70424A5
S31508003D60E2E70824E0E70824ACE700BF009000502B
S31508003D7000800050002D3101000003502482000805
S31508003D80005A6202EFF3108072B6704700B962B645
S31508003D90704700BFEFF31180302383F31188704713
S31508003DA080F31188704700BF034A0179D36E23F068
S31508003DB030030B43D366704700400050704700BF7E
S31508003DC0F8B50546254AD2F88430D806FBD4D2F889
S31508003DD08430C3F381139D4225D0FDF75DFC012D88
S31508003DE0074621D0FFF7CEFF4FF000721C4B064660
S31508003DF05A662846FFF7E2FF4FF48063174C6A1E9F
S31508003E009340236707E0D4F884309B0606D4D4F899
S31508003E108430990610D4636E9A01F4D53046FFF7BC
S31508003E20B5FF022D0ED0F8BD0E4B984210D80121D1
S31508003E303846FFF735FFD5E740F28F710A48FDF798
S31508003E40FBFCE8E73846BDE8F8400021FFF728BF45
S31508003E5040F281710448FDF7EFFCE8E700400050A6
S31508003E6000600050005A620298820008F8B50C46B5
S31508003E7000283CD0234B1B7813B1234B984230D9EA
S31508003E80224DD5F88430D806FBD4D5F88430C3F350
S31508003E908113022B2ED0FDF7FFFB0646FFF772FFB4
S31508003EA04FF000721A4B07465A660220FFF786FF44
S31508003EB04FF40063154C2B6707E0D4F884309B0653
S31508003EC006D4D4F88430990615D4636E9A01F4D5CD
S31508003ED03846FFF75BFF3046BDE8F8400021FFF79C
S31508003EE0DFBE2146BDE8F8400120FFF769BFFDF7B0
S31508003EF0D3FBBFE7F8BD40F28F710648FDF79CFC7F
S31508003F00E3E700BF58B60020005A6202004000509E
S31508003F100060005098820008704700BF4FF00040CC
S31508003F2008B54AF6CD331149114A4866506C1364F0
S31508003F3000F00100536BD907FCD45368DB070DD595
S31508003F4001210C4B5960136BD90707D40A4B084952
S31508003F5001E0013B02D00A6BD207FAD510B1044B37
S31508003F60064A1A64FFF7D8FF012008BD00900050E2
S31508003F70004009500060095040420F003254FFFFCC
S31508003F80704700BF03282DE9F84304460D46164638
S31508003F901F460ED94FF4B0714E48FDF74DFC06B3D7
S31508003FA0002F40F0898040F2FE314B48FDF744FC73
S31508003FB00FE04A4B53F82030CB40DB0740F18280B4
S31508003FC07EB1002F63D1464B53F82430EB40D90716
S31508003FD0E9D50122434B04EB440109010B44AA40ED
S31508003FE01A60072D4FF030082BD8042318FB043825
S31508003FF0FFF7C8FE0F233C494FEA850E58F801C063
S3150800400006FA0EF282EA0C0203FA0EF3134083EA6A
S315080040100C0348F80130FFF7B9FE86B967B3032CDD
S315080040203ED8324B53F82430EB40DA0738D5012214
S315080040302F4B04EB440424012344AA401A60BDE82C
S31508004040F8830C2318FB0438FFF79CFE0F23264938
S31508004050A5F1080958F801C04FEA890906FA09F2D4
S3150800406003FA09F382EA0C02134083EA0C0348F8C0
S315080040700130FFF78BFED0E7032C17D8184B53F8FF
S315080040802430EB40DB0711D50122164BD1E7174B3D
S3150800409053F82430EB40D8070ED50122144B9AE783
S315080040A040F22D410C48FDF7C7FBC0E740F2FE3150
S315080040B00948FDF7C1FBE7E740F22D410648FDF741
S315080040C0BBFBEAE74FF4B0710248FDF7B5FB002EDB
S315080040D087D076E7E882000888830008D883000836
S315080040E0D883000840E0035030C00350D883000846
S315080040F040D003502DE9F04F2DED028B0646DFF830
S3150800410040C38BB004AC0D461746BCE80F000FC47D
S315080041109CE80300DFF8F8E284E80300764508D057
S31508004120F121B848FDF788FB40F2AA31B548FDF7FA
S3150800413083FB2A20FEF76EF8B34BB44A0344934236
S31508004140C0F0BB806FF4657C02F1D242A2F523323F
S315080041506244A2FB03231B0E013B032B28BF032348
S3150800416095F80580DBB2984538BF98467369DC0137
S31508004170FCD4012206F50053DFF894A25A60DAF857
S31508004180044014F00204FAD12879002800F0348299
S31508004190000400F4FE00EB784FEA08721B0103F0F6
S315080041A0300302F0E042034313432A780AB143F08E
S315080041B002036A780AB143F00403AA780AB143F005
S315080041C008032A89B3606B8943EA0243EA883261A5
S315080041D033628F4B9E4208BF08F1010860D197F8F9
S315080041E000B0D7F808A0BBF1000F62D0894BBBF12D
S315080041F0010F894D894A08BF1D46894B0CBF914658
S3150800420099462A20FEF706F8B0FBF8F02844B0FBDA
S31508004210F9F240F2FF33814598BF02F1FF329A4224
S3150800422028BF1A4606EB0411886CDFF818C27D7899
S315080042301FFA8AFA00EA0C0C9245B87838BF9246FB
S31508004240AD00FA780BF0030305F01C0543EA0C03EE
S315080042504001C0B22B43120302F4E0420343134366
S315080042603A793D7C78794FEA024C6D050CF4E02CDE
S3150800427005F46005000743EA0C0300F040502B43A1
S3150800428003438B64896C2301C1F302310139042984
S3150800429015D8DFE811F014001400DB00A200930122
S315080042A0012306F5805673600BB0BDEC028BBDE8A2
S315080042B0F08F5C4DDFF89091A3E700234DE75A494C
S315080042C0BBF1010FD1F88051ADB200F2C8809FED65
S315080042D0577A03F1B24303F580432804986C4FF0EC
S315080042E0010325F4C041C0F382004FEA814100EB87
S315080042F0030C48BF41F0004103FA0CF3002800F014
S31508004300CF814948BBF1000F40F0F281D0F8900107
S3150800431000B207EE900AF8EEE77A37EEC77A07EEAC
S31508004320903AF6EE006AF8EEE78A3F4B68EEA66A20
S31508004330D3F8883187EE266A1BB207EE903AF8EE74
S31508004340E77A37EE868A002A00F0BE81D7ED037A2F
S315080043509FED376AF8EE677AF7EE046A87EE867A93
S31508004360C6EE877A67EE887ADFED325AB1EE006AD2
S31508004370DFED316A85EEA87A67EE867A27EE267A29
S31508004380B1F1004F77EE277A0BD0DFED2C6A07EEF6
S31508004390105A77EEA67ABAEEE87A67EE277A77EEBB
S315080043A0E67AF5EEC07AF1EE10FACCBFBEEE007AE8
S315080043B0B6EE007A77EE677AFDEEE77A17EE903A70
S315080043C0B3F5003FC0F263816FEA51416FEA41419C
S315080043D00F48631D1A018150E5E01349BBF1010F2F
S315080043E0D1F88451ADB23AD8BBF1000F40F0AB8199
S315080043F0D1F88C110914490007EE901AB8EEE77A3D
S3150800440067E700BFE8830008FF596202005A6202A4
S3150800441000400059FF2C31013F4B4C00002D310163
S31508004420404B4C007F9698000080E00F000000008B
S3150800443000007A4400008043000020440000004940
S315080044404C840008008F18CF80969800D549BBF198
S31508004450010FD1F880514FEA154540F2EC80BBF1C7
S31508004460020F40F0C28003A8CDE9002300F00EFC3D
S31508004470009A019B042A00F23181CB499FEDCB7A41
S3150800448001EB8202D2ED007AF8EEE77AC7EE872AC8
S3150800449003F1B24202F58042926C0AA9C2F34212B3
S315080044A001EB820252ED065AFCEEE57A17EE902AE7
S315080044B0B7EE006A5C2A18BF35EE866A07EE905A90
S315080044C014BFC5EE866ADFEDBA6AFBEEE87A9FEDA1
S315080044D0B97A67EEA67A67EE877AF5EEC07AB6EE0F
S315080044E0007A08BF35EE866AF1EE10FA4CBF77EE11
S315080044F0C77A77EE877AFDEEE77A03F1B24101F5DE
S3150800450080410B6D002317EE902A0B650B6D100486
S3150800451048BF43F000430B65A74BDFEDA83A03EA13
S3150800452082430A6DB7EE044A13430B659D4B84EE2E
S31508004530227AD3F88821D3F888319FEDA13A1BB2A5
S3150800454006EE903AF8EEE66A76EEA36AF1EE004ACF
S3150800455083EE254A27EE267AC4EE065A27EE247AF3
S315080045609FED985A07EE905A37EE257AFAEEE87AD2
S3150800457037EE057A67EEC77A77EE857AF4EEE37A50
S31508004580B6EE007AF1EE10FA4CBF77EEC77A77EE00
S31508004590877AFDEEE77A17EE903A0A6DC3F31103B0
S315080045A013430B65631DCAF3090206EB03135A602E
S315080045B01437002C7FF474AE012410E67949BBF158
S315080045C0010FD1F884514FEA15453FF648AFBBF1C4
S315080045D0000F40F0C180D1F88C11091401EB41019C
S315080045E007EE901AB8EEE77A73E640F2F1117648CC
S315080045F0FDF722F9631DD6E72A20FDF70BFE734B5C
S315080046008146984222D35645B0FBF8F900F08E80D1
S3150800461040F26F316C48FDF70FF909F574236C4ABF
S3150800462003F23F23A2FB0320800C01387F2828BF12
S315080046307F200004AFE5BBF1000F65D1D1F88C11DE
S31508004640091407EE901AB8EEE77A42E6564504D002
S3150800465040F26F315C48FDF7EFF8B9F1000F40F012
S3150800466095802A20FDF7D6FD00283FF494AD574BD8
S3150800467098427BD9574B564A9B68C3F3027301335A
S31508004680B0FBF3F303F5742303F23F23CAE713F5EC
S31508004690003FAABFC3F3110341F40031194397E65B
S315080046A007EE903A3F4BF8EEE78ABBF1000F33D19D
S315080046B0D3F88C311BB207EE903AF8EEE77A37EE6C
S315080046C0878A002A7FF442AE03A8009100F0DEFA3A
S315080046D0DFED417A009968EE277A45E640F2914186
S315080046E039480093FDF7A8F8DFED342A009BCFE69A
S315080046F0D0F8980100B207EE900AF8EEE77A77EE5E
S31508004700C77A37EE277A0AE6D1F89411091407EE24
S31508004710901AB8EEE77ADCE5D3F894311BB207EEC7
S31508004720903AF8EEE77A37EE878A0CE603F181438A
S3150800473009F5742903F5661309F23F2903F2834341
S31508004740A3FB093070E7D1F894110914490007EE64
S31508004750901AB8EEE77ABCE5D1F89411091401EB82
S31508004760410107EE901AB8EEE77AB2E503F1814304
S3150800477000F5742003F5661300F23F2003F2834325
S31508004780A3FB0030800C0138000404E5104B09F542
S31508004790742909F23F29A3FB0930800C013800046B
S315080047A0F9E400BF0080E00F3884000800007A446E
S315080047B0E71B753F000000470000FC7F0000000073
S315080047C00000804800000049E8830008005A620299
S315080047D083DE1B43004000593D3B843FF8B5324B0E
S315080047E0044698420D46164604D04FF419712F48D0
S315080047F0FDF722F86369DA01FCD4012304F50057B2
S31508004800294A7B6053689B07FCD42B78697803F0A8
S31508004810070343EAC103A978E878090101F07001A2
S3150800482043EA00230B432367E16A2B7921F48B3192
S315080048301B0221F4807103F4E0630B436979A879BC
S31508004840090301F4805143EA00430B439442E362AF
S3150800485004D04FF427711548FCF7EEFF012304F541
S31508004860805160684B60F37872785B0443EA0223F0
S31508004870B27836781204334302F480321343C00701
S31508004880C4F8983005D50123EA794B6002B1E36094
S31508004890F8BD6369DA01FCD40123034A7B605368D7
S315080048A09B07FCD4EFE700BF00400059E8830008E7
S315080048B038B5154B0D469842144604D040F2AA3135
S315080048C01248FCF7B9FFBDB1114B9D4228BF1D46E2
S315080048D06CB12C44013CB4FBF5F0AC4228BF00F1A6
S315080048E0FF30032828BF0320C0B238BD25462A203A
S315080048F0FDF790FC0446ECE740F2AB310348FCF7C1
S315080049009BFF002CF2D0FFDE00400059E883000828
S31508004910005A62022DE9F0411D4D0E46A842144682
S315080049201F469DF8188004D04FF479711948FCF792
S3150800493083FF3EB3DFB1184D184B012F08BF1D4644
S31508004940B54228BF3546C4B108F10108B4FBF8F4EE
S315080049506B1E1C44B4FBF5F340F2FF30AC4228BF93
S3150800496003F1FF33984228BF1846BDE8F0810C4D85
S31508004970B54228BF3546002CE6D12A20FDF74AFC69
S315080049800446E1E740F2E5310248FCF755FFD1E776
S3150800499000400059E8830008404B4C00002D3101C7
S315080049A0809698004FF480020B4B10B5C3F8802010
S315080049B0BFF34F8FBFF36F8F0024FF22074B2146AB
S315080049C05C6520209A625C60FDF7F2FB2146BDE833
S315080049D010402120FDF7ECBB00E100E00000045088
S315080049E0072838B504460D460ADC1F2C0ED80A4B94
S315080049F00A490122002D08BF0B46A2401A6038BD9D
S31508004A0077210748FCF718FF1F2CF0D99121054894
S31508004A10FCF712FFEBE700BF40200450401004509B
S31508004A206484000838830008F8B50446002840D096
S31508004A3023781B0613F0604F2FD1E3780F2B33D85A
S31508004A4001212020FDF7B4FB01212120FDF7B0FB51
S31508004A5001220020FF274FF000464FF0FF354FF4A4
S31508004A608001164B5A60227812069A6094F801C0A3
S31508004A70A27842EA0C429A61114A9F6298631864C6
S31508004A805E6503F500531D65C2F88011E3781B01C6
S31508004A90DBB282F816331160F8BD92210948FCF79B
S31508004AA0CBFEE3780F2BCBD9A3210648FCF7C4FE2F
S31508004AB0C6E791210348FCF7BFFEB9E7000004509A
S31508004AC000E100E064840008F8B50126C3B20728AF
S31508004AD005460C46174606FA03F654DC002C58D051
S31508004AE0236823F47C1323F00F03002B5CD1A37AED
S31508004AF01B0413F47C0F60D1E37A1B0513F07E6F59
S31508004B0065D1227B520512F0FE5F6AD1394B27F038
S31508004B1003011E65AB00206803F1A04303F5882353
S31508004B205860354F637B05EB450507EB05152B6686
S31508004B30E37AA07A1B0543EA00431343EB6529672A
S31508004B40FFF728F97B6D33437B65237A13B13B6CFA
S31508004B5033433B64637A1BB1274A936B33439363AE
S31508004B602279A379244943EA0243224A9361657963
S31508004B70E379224C43EA0543A36156638E64BDE894
S31508004B80F840FFF70DB9EC211D48FCF755FE002C3F
S31508004B90A6D1ED211A48FCF74FFE236823F47C13AF
S31508004BA023F00F03002BA2D0F0211548FCF744FE92
S31508004BB0A37A1B0413F47C0F9ED040F20911104807
S31508004BC0FCF73AFEE37A1B0513F07E6F99D040F2A4
S31508004BD00B110B48FCF730FE227B520512F0FE5FE4
S31508004BE094D040F20D110648FCF726FE227B5205AA
S31508004BF08CE700BF00200450000004500010045049
S31508004C006484000810B50124C3B2072804FA03F423
S31508004C100BDCFFF7BFF8084B5A6D22EA04025A6507
S31508004C209C62BDE81040FFF7BBB840F297110348F5
S31508004C30FCF702FEEDE700BF00000450648400089C
S31508004C4010B50124C3B2072804FA03F413DCFFF7EE
S31508004C50A1F80C4BDA6A224208D15B6B9C430CBF65
S31508004C6001240024FFF79CF8204610BD0024FFF716
S31508004C7097F8204610BD40F2B5110348FCF7DCFD55
S31508004C80E5E700BF00000450648400084FF4803153
S31508004C90084A094B51669B6903F00F01C3F3461294
S31508004CA00A43C3F30341C3F30333428041700370DD
S31508004CB0704700BF0090005000C00750F8B5064680
S31508004CC00F4615461C463AB391B1402C17D0402CD6
S31508004CD007D894B3202C29D1B5EBD70F4AD8082387
S31508004CE02FE0602C22D1B5EB970F4FD8042328E08C
S31508004CF04FF42070FDF78EFA402C0746E7D1294B72
S31508004D00A3FB0723B5EB930F04D94FF4BF712648CD
S31508004D10FCF792FD062314E04FF4A1712248FCF734
S31508004D208BFD002FE4D0402CD1D1F3E740F2891156
S31508004D30BDE8F8401C48FCF77FBDB5EB171F1FD828
S31508004D40102303FB05F5690801EB4711B1FBF5F1E3
S31508004D50164B2039B3EBC10F4FEAC1051CD3B26815
S31508004D60124B22F06002B260B2682B401443B46062
S31508004D70F361F8BD40F279110B48FCF75DFDAEE72B
S31508004D804FF4BA710848FCF757FDD9E740F283118A
S31508004D900548FCF751FDA9E74FF4D0710248FCF726
S31508004DA04BFDDCE7ABAAAAAAB4840008F8FF7F008B
S31508004DB038B50C4B044698420D4604D04FF433716F
S31508004DC00948FCF739FD0121EB438B4004F5805275
S31508004DD003F00A0351606361656115B904F500546F
S31508004DE0616038BD00C00550B4840008F8B5494B69
S31508004DF0044698420D466BD040F2FD214648FCF722
S31508004E001BFD40F242414448FCF716FD012140F6DD
S31508004E10AA6204F580567160002341F205016261B9
S31508004E203E4A04F50057A360E365E1602361E36148
S31508004E30E364BA64A3650123AA7C7B6073601AB134
S31508004E40A36843F08043A360EB7C33B1314B9C42AB
S31508004E5056D0E36D43F08003E3652A8A6B7B2046D0
S31508004E601343EA891343E3602B7BD5E90112FFF765
S31508004E7025FF6B7D1BB1A36843F48033A360AB7D2C
S31508004E801BB1A36843F40043A360EB7D2A7E1B078E
S31508004E90120502F4E00203F0E0431343A3656B7EB8
S31508004EA002219A1E012A09D91D4A012BC2F8981710
S31508004EB009D00423FB652B786361F8BD194A032BD7
S31508004EC0C2F89817F5D10423F3652B786361F8BD0A
S31508004ED0012140F6AA6200F580567160002341F26E
S31508004EE0050142610D4A00F500578360C365C1603C
S31508004EF00361C361C364BA648365036543659AE75E
S31508004F002A7DA3F51033C3F8D421E36D43F080035B
S31508004F10E365A2E700C00550B4840008FFFF01005E
S31508004F2000E0035000D0035083695B06FCD5C163DB
S31508004F30704700BF08B5FEF7F1FF002008BD00BFA7
S31508004F4010B50024074A82B0536F684643F0010340
S31508004F50536700948DF80440FEF726FF204602B0FA
S31508004F6010BD00BF0040005030B58BB0EC461A4C5F
S31508004F701A4D0FCCACE80F000FCCACE80F0094E844
S31508004F8003008CE80300D5F84C311B0307D54FF610
S31508004F90FF73134A14889C421BD0E3B203E0D5F88A
S31508004FA05041E4B223468DF81930FEF7F9FD034661
S31508004FB0234483F308030B488DF81830FCF7B8FB35
S31508004FC06846FEF7B7FC3220FEF764FE00200BB0F9
S31508004FD030BD72231C46E6E7048500080080E00F12
S31508004FE00001E00FC017530210B5094C86B00DF149
S31508004FF0040C0FCCACE80F00236801A8CCF80030ED
S31508005000FEF7D4FD3220FEF73FFE002006B010BDA5
S315080050102C8500086FF004024FF0500C10B40C48B1
S315080050200C4C02F00F03043B12F0800F00EB020158
S31508005030234408D101324F2A81F800C3F1D1002058
S315080050405DF8044B704783F818C00132E9E700BFE2
S3150800505000E100E000ED00E010B50446FEF792FE20
S31508005060024B1C60FEF792FE002010BD5CB60020C5
S3150800507010B5FEF787FE034B1C68FEF787FE204631
S3150800508010BD00BF5CB6002010B582B038B104462A
S31508005090636883B1206802B0BDE810401847CDE9BF
S315080050A00012FEF76FFE054B1C68FEF76FFEDDE982
S315080050B00012002CECD1232002B010BD5CB60020F3
S315080050C030B587B070B104462BB1A5683DB12068EC
S315080050D0A84707B030BDA56805AB002DF7D123203A
S315080050E007B030BD094CCDE902230191FEF74AFE0F
S315080050F02468FEF74BFEDDE90112039B13B1002C71
S31508005100E3D1ECE705AB002CDFD1E8E75CB600207D
S3150800511000207047FEE700BF4FF4005300204B60A5
S31508005120704700BF01207047012070474FF0FF30DD
S31508005130704700BF00207047002000B583B001AB60
S315080051400190FFF7BDFF0198002808BF4FF0FF3018
S3150800515003B05DF804FB00BF10B500201446FFF746
S3150800516093FF022800D008B9204610BDC321024883
S31508005170FCF762FB204610BD4085000880F82C101D
S31508005180704700BF90F82C00704700BF70B5044602
S315080051900568FFF76DFF844241D095F93620002A4D
S315080051A012DB012153099B0002F01F0203F1604341
S315080051B003F5614301FA02F2C3F88021C3F880209F
S315080051C0BFF34F8FBFF36F8F287AFCF7B5FD00BB8F
S315080051D0287AFCF793FCB0B9FCF760FC10B1124BC7
S315080051E098420AD100236360A36023616361AA6AB7
S315080051F028462360BDE8704010474FF4F1710B480C
S31508005200FCF71AFBEEE74FF4EF710848FCF714FBBE
S31508005210E2E74FF4ED710548FCF70EFBD8E70020EE
S31508005220FFF71AFFB9E700BF058000F0AC85000854
S315080052302DE9F04F002604460F46154690F82C3007
S3150800524083B0DFF8F890DFF8F8800193B54207D00D
S3150800525094F82D3043B994F83430E3B9B542FAD806
S31508005260002003B0BDE8F08FFEF794FD237E82464A
S3150800527003F0FF0BDBB9226B63699A4204D040F254
S31508005280F9114046FCF7D8FA5046FEF789FD94F81E
S315080052903430002BDAD0019B3978002B45D12046D3
S315080052A0E36998470028DBD101370136CEE7237A30
S315080052B0D4E9032003EB430309EB0313DB6E111850
S315080052C08B4201D8934209D24FF43E71404600936F
S315080052D0FCF7B2FAD4E90320009B11188B4208BFE9
S315080052E0134603F1FF3C624584BF00F1FF3302EB2E
S315080052F0030C6346216B0CE013F801E9BEF1110FAC
S315080053000ED0BEF1130F09D09A4284BF00F1FF33C5
S315080053109B189942F0D1C4F830C0B5E74FF0000B9E
S3150800532084F834B0C4F830C0AEE70A29B7D10D21E5
S315080053302046E36998473978B1E700BF0000045072
S31508005340AC85000870B51446137A216903EB43034C
S315080053501B0103F1A04303F58023D268DE6E5318C0
S315080053609E42054686B01BD8964219D39E4208BF70
S3150800537016466269B2422CBF931B9B1BCBB901210F
S3150800538094F82D20617642B184F8353013212046F1
S31508005390E26990472046636A9847002006B070BDC8
S315080053A04FF43E710F48FCF747FAD4E90323134438
S315080053B0DCE732462846002601250B490193CDE94C
S315080053C00314D4E9001302960095FCF7F3FB0028B2
S315080053D0E3D04FF434710348FCF72EFA002006B0E8
S315080053E070BD00BFAC850008455300082DE9F04F95
S315080053F089B004460F4616469846FEF7CBFC81460A
S3150800540026B1237E03F0FF0273B916464846C8F84C
S315080054100060FEF7C5FCD8F80030002B0CBF1B2037
S31508005420002009B0BDE8F08F237A03EB43031B0184
S3150800543003F1A04303F58023DD6ED4E9032302EBD1
S31508005440030B5D4500F28C809542C0F089805D456E
S3150800545008BF15466369AB4200F0F7809D4240F2EB
S315080054608980EB1A9E4228BF1E46FEF793FC94F8E5
S315080054702D30B3468246002B00F0DA805E460023C4
S3150800548065692A7802F0FD01112900F08B8007F87A
S31508005490012B6569216B8D4200F09480013301353B
S315080054A05B456561EDD1D4E9032313448B4200F0D3
S315080054B0D9808A4201D8994207D34FF46D71794849
S315080054C0FCF7BAF9D4E9032313446169994200F059
S315080054D0C680914201D3994204D34FF47171714841
S315080054E0FCF7AAF90023207A6376FCF7E5FB002887
S315080054F040F09880237A03EB43031B0103F1A04392
