S01000004659505F66696E616C2E7333378C
S31508000000001000201D14000819140008191400080F
S3150800001019140008191400081914000819140008FE
S3150800002019140008191400081914000819140008EE
S3150800003019140008191400081914000819140008DE
S3150800004019140008191400081914000819140008CE
S3150800005019140008191400081914000819140008BE
S31508000060191400084D130008411300081914000854
S31508000070191400081914000819140008191400089E
S31508000080191400081914000819140008191400088E
S3150800009019140008191400083D1D00081914000851
S315080000A0191400081914000819140008191400086E
S315080000B0191400081914000819140008191400085E
S315080000C0191400081914000819140008191400084E
S315080000D0191400081914000819140008191400083E
S315080000E0191400081914000819140008191400082E
S315080000F0191400081914000819140008191400081E
S31508000100191400081914000819140008191400080D
S3150800011019140008191400081914000819140008FD
S3150800012019140008191400081914000819140008ED
S3150800013019140008191400081914000819140008DD
S3150800014019140008191400081914000819140008CD
S3150800015019140008191400081914000819140008BD
S3150800016019140008191400081914000819140008AD
S3150800017019140008191400081914000800000000D2
S315080001802DE9F04FC76997B08346209E08910C92D7
S31508000190129355EC104B8DED000B7FB9102006F02D
S315080001A0DBFB0246CBF81C0020B9A74BEF21A7487A
S315080001B007F0EAF8C0E901770760C760DBF81C308A
S315080001C0196859B15A680123584693404A608B60AA
S315080001D006F0B0FCDBF81C3000221A602B1EB7BFF5
S315080001E023F00043002301220193A8BF3360019F37
S315080001F0974BB8BF3260BB4319D142F20F73129ABC
S315080002001360C7F31303234300F0DB85219B53B91F
S31508000210904B21E0904B03930833219A136003987F
S3150800022017B0BDE8F08F8B4B03930333F5E79DEDCD
S31508000230007B0022002351EC170B8DED0A7B07F09B
S3150800024043F9804650B10123129A1360219B13B1DA
S31508000250824B219A1360824B0393E0E7C7F30A5651
S3150800026014AA15A958469DED0A0B06F0EBFE029056
S31508000270002E76D00B9BA6F2FF36CDF84C80C3F342
S31508000280130343F07F53DDE90A0143F4401319468B
S315080002900022744B05F072FA65A3D3E9002305F032
S315080002A025FC65A3D3E9002305F06AFA04460D4642
S315080002B0304605F0B1FB62A3D3E9002305F016FC2E
S315080002C002460B462046294605F05AFA04460D46CC
S315080002D007F042F90022074600232046294607F080
S315080002E0FDF840B1384605F097FB22462B4607F045
S315080002F0EBF800B9013F162F52D85B4B03EBC70347
S31508000300DDE90A01D3E9002307F0E8F8002849D017
S31508000310013F00231193149B9B1B5A1E4CBFC3F12C
S3150800032001030023079245BF06930023069307930C
S31508000330002F39DB079B10973B440793002309934B
S31508000340089B092B66D8052BC5BF043B002401244E
S315080003500893089B023B032B67D8DFE803F02D3A86
S315080003603859DDE914631E4406F23243202BC9BF0F
S31508000370C3F14003C3F120039F4006F21243D8BFDE
S3150800038004FA03F006F1FF36C4BF24FA03F347EA7A
S31508000390030005F031FB0122A1F1F873139276E709
S315080003A00123B7E71190B6E7069BDB1B06937B4252
S315080003B0099300231093C3E700230D930C9B002B8E
S315080003C056DC012399461A4604930C920CE0012345
S315080003D0F3E700230D930C9BFB1803F10109049323
S315080003E04B46012BB8BF0123DBF81C000021042271
S315080003F002F114059D423FD94160584606F05AFB62
S31508000400039000283BD1194B024640F2AF11CEE6C5
S315080004100123DFE7012400230D9408934FF0FF33EF
S315080004200022994604931223CFE701230D93F5E79B
S3150800043061436F63A787D23FB3C8608B288AC63FDC
S31508000440FB799F501344D33F90840008A784000883
S315080004500000F07F8C84000883840008608400080C
S315080004605F8400080000F83FA085000800850008A2
S315080004700C9B99460493B7E701315200B8E7DBF8BD
S315080004801C30B9F10E0F039A1A606FD8002C6DD084
S31508000490002F36DD07F00F02A04BF8054FEA2714A8
S315080004A003EBC20393ED007B8DED0E7B17D59C4BBA
S315080004B004F00F044FF00308D3E90823DDE90A0125
S315080004C005F03EFCCDE90001954D5CB9DDE90E234A
S315080004D0DDE9000105F034FCCDE900012BE04FF021
S315080004E00208F1E7E10709D508F10108DDE90E017F
S315080004F0D5E9002305F0FAFACDE90E0164100835AE
S31508000500E3E700F007817C42844B854D4FF00208F3
S3150800051004F00F02241103EBC203DDE90A01D3E953
S31508000520002305F0E3FA0023CDE90001002C40F092
S31508000530E580002BD0D1119BDDE90045002B00F0AA
S315080005404C810022774B2046294606F0C7FF002833
S3150800055000F04381B9F1000F00F03F81049B002BA6
S3150800056000F3E480DDE90A34CDE90034159B002B5D
S3150800057002DB0E2F40F342820D9A002A40F0678272
S31508000580099C0025DDF81880B8F1000F0DD0079BEF
S31508000590002B0ADD4345069AA8BF4346D21AA8EBA4
S315080005A003080692079AD31A0793099B0BB30D9B68
S315080005B0002B00F0A682002C00F0A18229462246D4
S315080005C0584606F0E1FB029A01460546584606F0EB
S315080005D031FB02990646584606F0ACFA099B1B1BE6
S315080005E0099300F09182099A3146584606F0CCFBE9
S315080005F002900121584606F007FB109B0446002B83
S3150800060000F084821A460146584606F0BDFB089B50
S315080006100446012B03DC009B002B00F07C8200269D
S31508000620236904EB8303186907F02BFAC0F120004D
S315080006301096079B184410F01F0000F09182C0F135
S315080006402003042B40F38182C0F11C00069B03445F
S3150800065080440693079B03440793069B002B05DDFE
S315080006601A460299584606F0E9FB0290079B002BAA
S3150800067005DD21461A46584606F0E0FB0446119B5E
S31508000680002B00F076822146029807F049FA0028E6
S3150800069080F26F8200230A220299584606F06CFA05
S315080006A00D9B7E1E0290002B00F05C8200232946DB
S315080006B00A22584606F060FA049B0546002B03DC1E
S315080006C0089B022B00F35E82B8F1000F05DD294670
S315080006D04246584606F0B2FB0546109B002B00F032
S315080006E0D0826968584606F0E5F90746002840F0C2
S315080006F07F820D4B024640F2EF2158E5E20706D508
S3150800070008F10108D5E9002305F0F0F90123641082
S3150800071008350BE74FF002080DE700BFA085000873
S31508000720788500080000F03F008500082046002272
S31508000730AC4B294605F0DAF97E1E08F10108049C3F
S31508000740CDE90001404605F067F9DDE9002305F02B
S31508000750CDF9A54B002205F013F8A1F15073CDE9A8
S315080007600E010F93002C3BD10022A04BDDE90001BE
S3150800077005F004F802460B46CDE90023DDE90E2311
S3150800078006F0CAFE002840F05781DDE90E2101F186
S315080007900043DDE9000106F0A1FE00283FF4E2AEC1
S315080007A0002425460C9BDDF80CA0DE434FF000081C
S315080007B02146584606F0BEF9002D00F0A980B8F18A
S315080007C0000F05D0A84503D04146584606F0B2F9B1
S315080007D02946584606F0AEF99AE03E464C46B1E739
S315080007E0834B03EBC40353E90201039B1C440D9B93
S315080007F0002B4AD002460B4600207E4905F0A0FA97
S31508000800DDE90E2304F0BAFFDDF80CA0CDE90E01F0
S31508000810DDE9000106F0A0FE054605F0FDF80246F2
S3150800082030350B46DDE9000104F0A8FF0AF8015B44
S3150800083002460B46CDE90001DDE90E0106F06CFE25
S31508000840002865D100206C49DDE9002304F096FFF5
S3150800085002460B46DDE90E0106F05EFE002840F072
S315080008600D81A24500F0EA8000225E4BDDE90E010B
S3150800087005F03CF900225B4BCDE90E01DDE90001EC
S3150800088005F034F9CDE90001C2E7DDE90E2305F0EC
S315080008902DF9A046DDF80CA0CDE90E01DDE9000131
S315080008A006F05AFE054605F0B7F8024630350B46FF
S315080008B0DDE9000104F062FF0AF8015B02460B4617
S315080008C0A245CDE900234FF0000223D1494BDDE9CB
S315080008D00E0104F055FF02460B46DDE9000106F05D
S315080008E01BFE002840F0CA8000204249DDE90E239D
S315080008F004F044FF02460B46DDE9000106F0EEFD72
S3150800090070B1C24608F1FF381AF8013C302BF8D00E
S31508000910374655E0334B05F0E9F8CDE90001BDE768
S31508000920DDE90A34CDE90034159B002BFFF628AE25
S315080009300E2F3FF725AE2E4B03EBC70393ED007B37
S315080009400C9B002B8DED047B02DAB9F1000F64D005
S31508000950DDF80CA0DDE90045DDE90423204629463B
S3150800096005F0EEF906F0F8FD064605F055F8DDE95E
S31508000970042305F0BBF80246204606F130040B4670
S31508000980294604F0FBFE0AF8014B039C02460B4677
S31508000990AAEB0404A14540F0828004F0F1FE044667
S315080009A00D46DDE9042306F0B7FD002865D120468B
S315080009B02946DDE9042306F087FD08B1F3075CD470
S315080009C00299584606F0B6F8002301378AF800302F
S315080009D0129B1F60219B002B3FF421ACC3F800A09B
S315080009E01DE400BF0000244000001C400000144025
S315080009F0A08500080000E03F0000F03FA24B03EB93
S31508000A00C70393ED007B0C9B002B8DED047B9FDACF
S31508000A10B9F1000F9CDC7FF4C3AE00229B4BDDE9E5
S31508000A20040105F063F8DDE9002306F06BFD0446D2
S31508000A3000287FF4B5AE3E462546B4E0DDE90A3423
S31508000A40CDE90034159B002B01DB0E2FD6DD089A65
S31508000A50012A36DC139A82B303F23343099CDDF884
S31508000A601880069A012158461A440692079A1A448B
S31508000A70079206F0C9F8054686E53E4653469A4665
S31508000A8013F8012D392A06D1039A9A42F7D1302252
S31508000A90039901360A701A7801321A7038E700226B
S31508000AA07B4B05F023F80022002304460D4606F08A
S31508000AB00BFD00283FF450AF82E7149BC3F13603C1
S31508000AC0CCE709F1FF34099BA34208DBB9F1000F13
S31508000AD0A3EB04040EDBDDF818804B46C1E7099B3F
S31508000AE0109AE31A0994DDF8188000241A444B4634
S31508000AF01092B6E7069BA3EB09080023B1E7029E0E
S31508000B0071E5099A029970E5029672E5089B012B30
S31508000B1017DC009BABB9019BC3F313039BB9019B7D
S31508000B2023F00046360D360536B1069B01260133FD
S31508000B300693079B01330793109B002B7FF470AD38
S31508000B401096012075E50026F6E73FF486AD1C33BE
S31508000B50069A1A4498440692079A1A4407927CE51C
S31508000B600346F4E7049B002B2BDC089B022B09DCCD
S31508000B7027E0B9F1000F1DDC089B022B1ADD3E4663
S31508000B80CDF81090049B002B7FF40CAE214605226D
S31508000B90584605F0F1FF01460446029806F0C0FFE4
S31508000BA000287FF7FFADDDF80CA0312301360AF8DF
S31508000BB0013BFBE50D9B3E46CDF81090002B7FF4DC
S31508000BC083AD039F2146029806F0CEFE039B00F1F3
S31508000BD03009049A07F8019BFB1A9A4240F3CB8026
S31508000BE000230A220299584605F0C6FF0290E9E753
S31508000BF02A6905F10C010C300232920006F09FFEBC
S31508000C0001223946584606F019F9039BA8460546B7
S31508000C1003F1010ADDE9032313440793009B03F05C
S31508000C20010309930AF1FF3321460298049306F05B
S31508000C309BFE4146069000F13009029806F070FFC7
S31508000C402A4621460746584606F064F9C268014610
S31508000C5002B3584605F06EFF002F3ADA01220299D0
S31508000C60584606F0EBF82146029006F059FF002890
S31508000C7003DC29D119F0010F26D0B9F1390F1DD19E
S31508000C8032E02846C1E700BFA085000800001440EE
S31508000C90000024400A90029806F042FF0A990C9038
S31508000CA0584605F047FF0C9A5ABB089B53B9099B4F
S31508000CB043B9B9F1390F17D0002F05DD069B03F1AB
S31508000CC0310901E0002F2ADADDF810A00AF8019BA5
S31508000CD06EE5089B3B4304D1009B03F00103002B00
S31508000CE0BCD0B9F1390F36D1049F392307F8013B37
S31508000CF0BA46013F1AF8013C392B5AD001333B70EA
S31508000D0056E5002F06DB089B3B4306D1009B03F004
S31508000D10010313B9002AA1DCD6E7002AE1DC079B08
S31508000D2057460AF8019C53452ED000230A220299F9
S31508000D30584605F021FFA84502904FF000034FF0F2
S31508000D400A02414658460BD105F016FF804605466D
S31508000D500AF1010A66E7DDF810A009F10109B5E70D
S31508000D6005F00AFF2946804600230A22584605F060
S31508000D7003FF0546ECE7049B4FF00008002BCCBFA9
S31508000D801F460127039B1F4401220299584606F075
S31508000D9055F82146029006F0C3FE0028A8DC02D1C9
S31508000DA019F0010FA4D1BA4617F8013D302BFAD035
S31508000DB0FEE4039BBB429BD13123039A0136137091
S31508000DC0F6E4219B002B7FF425AA014BFFF744BAD2
S31508000DD0838400080348044B834202D0034B03B1C3
S31508000DE018477047F8130020F81300200000000089
S31508000DF0064B0749C91A891048BF0131491003D063
S31508000E00044B0BB101481847704700BFF813002080
S31508000E10F81300200000000010B5064C237843B9EB
S31508000E20FFF7D8FF044B13B10448AFF30080012342
S31508000E30237010BDA067002000000000C0860008CF
S31508000E4008B5054B1BB105490548AFF30080BDE859
S31508000E500840FFF7CDBF00BF00000000F8130020D0
S31508000E60C0860008A3F5803A704700BF174B002BD1
S31508000E7008BF134B9D46FFF7F5FF00218B460F462B
S31508000E801348144A121A06F041FD0E4B002B00D0E7
S31508000E9098470D4B002B00D09847002000210400EE
S31508000EA00D000D48002802D00C48AFF3008005F06D
S31508000EB0E5FC2000290000F0C1F905F029F800BF7B
S31508000EC000000800000000000000000000100020DC
S31508000ED0F8130020A46700200000000000000000AE
S31508000EE008B500F0B5F80A4802F07AFA052180201C
S31508000EF001F0F0FD00F0C0F8064B186800F08EF817
S31508000F00BDE808404FF40061034800F011B900BF7E
S31508000F1000B4C404081000201C140020064A1368F4
S31508000F200133042B136000DD704704484FF4006159
S31508000F3000EB033000F0FCB8101400201C1400204D
S31508000F402C4B1A68052A00D070472DE9F043002576
S31508000F504FF48060284A29491768DFF8BC80AF42F9
S31508000F60C1F8A0001D60C8F800502DDD244B1B6891
S31508000F70C3F1000C23EAE379002B34DD40F6B836DA
S31508000F80204C2B460020204A002B07DB34F8131090
S31508000F90B2F900E0C1F307110EFB0100013B9C45C5
S31508000FA002F10202F0D1B04204DD4FF40062174BA1
S31508000FB0C3F8A0200135BD420CF1010CE1D1144B58
S31508000FC0C8F80070C3F800904FF480644FF40061CD
S31508000FD00A4A104BC2F8A0400A48C3F8A010BDE858
S31508000FE0F04300F0A5B80135BD420CF1010CC3D1A0
S31508000FF0E5E700BF101400200410002000F003509D
S31508001000001000201C1400200C10002000D00350F3
S315080010101414002000E00350181400200121094B85
S31508001020094A10B4596053689B07FCD401234FF44E
S315080010308031064C10656360D1605DF8044BD3605F
S31508001040704700BF00600059004000590050005921
S3150800105010B501213A2001F039F8002304220A21AB
S31508001060022002F02FFEBDE81040002304220B21C7
S31508001070022002F027BE00BF2DE9F043012193B0FC
S315080010802A2001F023F8002502214FF4B06001F070
S3150800109021FD0223224E234C2A4630462249059535
S315080010A0CDE906558DF8173003F0A2FAA646C823EF
S315080010B04FF0030940F6E4480DF1200C0090ADF816
S315080010C01A308DF81900BEE80F00ACE80F00BEE82C
S315080010D00F00ACE80F009EE803002B468CE80300DF
S315080010E02A46304611498DF82490CDF82C8003F015
S315080010F0B1FA44F2011303AF28340A9008AA94E817
S31508001100030087E80300304605A9029302F092FE21
S315080011103946304602AA03F001FA13B0BDE8F08357
S3150800112000400059E07E0008002D310180969800A5
S3150800113030B5104B0C468BB01B6B054601A80193C6
S3150800114003F012FB00200C4A0C4B013C0692C4F338
S315080011500A040B4A43EA0413CDE9023206A902AA95
S31508001160CDE9080004950790059003F04DFB0BB0F8
S3150800117030BD00BFE07E000801000A0000009507A8
S3150800118074400059F8B5254B254AD3F84414254C24
S3150800119041F00101C3F84414D3F89C10224D21F004
S315080011A0F001C3F89C10D3F89C104FF4607041F01E
S315080011B04001C3F89C10D2F8F0304FF4807743F022
S315080011C00103C2F8F030D2F8FC30184E43F08073B1
S315080011D0C2F8FC30256000F0ABFF03464FF06042D2
S315080011E04FF0020C012003F5D523114C03F2FC4302
S315080011F0DB08A4FB03430F490F4D9B0A013B0B6118
S31508001200C1F8F0C0C1F80473C2F8B06FC2F8805EC6
S31508001210D2F8003E0343C2F8003EF8BD00C00350B2
S3150800122000ED00E0001000E0FF13014055CEACC50C
S3150800123017916502000004E00900010008B504F0F2
S315080012408FFAFFF74DFEFFF79DFFFFF779FEFCE7E4
S3150800125008B503F07FFD03F00DFD03F065FD03F00F
S3150800126023FDBDE8084003F00BBD00BF08B500F03C
S3150800127083FABDE8084000F079B800BF08B500F069
S315080012806BF8BDE8084000F001B800BF70B54FF430
S3150800129080232922224994B00025029140F609218B
S315080012A0502640F2011E07931E4B1F4C03920893CB
S315080012B01E4A1F4B0DF1340CADF82410CDF82650FC
S315080012C004920A930FCCACE80F0094E80700194B78
S315080012D0059500938CE8070002AB17480DAA07A9E5
S315080012E00695ADF832500B96ADF830E004F052F999
S315080012F030B901464FF4E13000F042F814B070BD41
S3150800130088210E4800F026FA29464FF4E13000F00D
S3150800131037F8B821094814B0BDE8704000F01ABA89
S3150800132000C0055024C00550447F00080307030881
S315080013301C6400206C640020B8640020147F000838
S31508001340014804F0D1B900BFB8640020014804F090
S31508001350CBB900BFB864002008B5032001230422D6
S31508001360062102F0AFFC002008BD00BF08B5082022
S3150800137000F094FABDE80840082000F09DBA00BFC6
S3150800138030B500240123254620F07F4083B040EA8B
S3150800139081708DF800300190052D1FD8DFE805F023
S315080013A003070B0F13175B21082000F093FA0C2193
S315080013B0082000F08FFAD121082000F08BFA80214E
S315080013C0082000F087FA0021082000F083FA214659
S315080013D0082001340625E4B200F07CFAA5F10E03D4
S315080013E0012B12D9102D09D005F108036B440820EA
S315080013F013F80E1C00F06EFA0135CDE75D210820C2
S3150800140003B0BDE8304000F065BA5A21082000F064
S3150800141061FA0135C0E700BFFEE700BF08B500F076
S3150800142053F82248224A2349121A921000F080F8EB
S31508001430214C224BA34238BF9C4614D2DCF8083014
S315080014406BB1DCE9001200230439043A51F8040FA1
S31508001450013342F8040FDCF808008342F6D30CF196
S315080014600C0CA445EAD31648164B98421BD2002406
S3150800147003F1FF3CACEB000C00F110032CF0070C59
S3150800148008309C4450F8043C53B1002350F8082C0B
S31508001490043A42F8044F50F8041C01338B42F8D33F
S315080014A008306045EED1FFF7E1FC00BFCC8A0008A2
S315080014B0CC8A0008A4670020D4860008C8860008DD
S315080014C0D4860008D486000830B44FF480454FF01F
S315080014D0FF340220104B114A11499A60D3F888202C
S315080014E042F47002C3F888200E4A956601F5005248
S315080014F014660D4C5466C3F8D000BFF34F8FBFF384
S315080015006F8F01244FF440330848C0F88041D360F8
S3150800151004600B6130BC704700ED00E00000000875
S3150800152000800044009000507FFF7F0300E100E048
S31508001530BAB102F1FF3CBCF1060F70B500F1040E1A
S3150800154001D971450ED10B1F01E00EF1040E5EF8AC
S31508001550042C0CF1FF3CBCF1FF3F43F8042FF4D1F7
S3150800156070BD704784460B464FF0000E5608DCF8EF
S315080015700050DCF804400EF1010E76451D605C60F3
S315080015800CF1080C03F10803F1D122F00103D2078C
S31508001590E6D550F8232041F8232070BD014B186882
S315080015A0704700BF10120020014B1860704700BF3B
S315080015B010120020094B1B6F03F00703022B09D0FA
S315080015C0032B04D0012B00D0FEE705487047054BD6
S315080015D018687047044B1868704700BF00800050B1
S315080015E0002D310118120020101200200D4B1B6F20
S315080015F003F00703022B12D0032B0DD0012B00D0CA
S31508001600FEE70948074B094A1B6FC3F30333013347
S31508001610B0FBF3F010607047054B1868F2E7054B0E
S315080016201868EFE700800050002D31010C120020E9
S3150800163018120020101200200048704700B4C40495
S31508001640014B1868704700BF18120020104B114A4A
S315080016501860136F03F00703032B00D07047136F4E
S3150800166003F00703022B0FD0032B03D0012B00D066
S31508001670FEE70948074B094A1B6FC3F303330133D7
S31508001680B0FBF3F010607047054B1868F2E700BF2F
S315080016901812002000800050002D31010C12002085
S315080016A0101200200020704700487047002D3101B5
S315080016B04FF0B4439868C0F304400C2808D8DFE814
S315080016C000F00B070707070723211B071D1F090043
S315080016D0002070470F4870474FF0B4439B6803F0EB
S315080016E04073B3F1807F13D0B3F1007F0ED00A4A5E
S315080016F0002B08BF104670470848704708487047CF
S3150800170008487047084870470848704708487047AF
S3150800171008487047005A620200093D00C0EA2101E4
S3150800172080BA8C010048E8010024F400405DC60038
S3150800173040420F0080841E004FF40040704700BFEF
S315080017404FF47A70704700BF014B1868704700BFA6
S3150800175014120020FEE700BF0346054A0549106833
S3150800176003448B428CBF4FF0FF301360704700BFB5
S315080017701C1200200000042070B501213A2000F058
S31508001780A5FC012304220321002002F09BFA002075
S3150800179002F096FA01254FF40020374C3749384BAA
S315080017A0C4F844544866D3F8FC10364ACC014DD4E4
S315080017B0D2F8803023F0030343F00203C2F88030E6
S315080017C04FF4607000F0B4FC2D4A00F5D520D2F82D
S315080017D0F0102D4E00F2FC4041F00101C008C2F89D
S315080017E0F010A6FB0060D2F8FC10284E41F080717C
S315080017F0C2F8FC10800A264A26494FF4807402254E
S3150800180001380E6010616FF4D5704FF060434FF0E9
S31508001810FF0CA1F1D251C2F8F050A1F59A11C2F805
S3150800182004431D4A0144C3F8B01FC3F8802ED3F8F9
S31508001830002E00202243C3F8002E83F820C0D3F8D8
S31508001840002E22F48072C3F8002E70BDD3F8FC1067
S3150800185021F08071C3F8FC10D2F8801021F0030142
S3150800186041F00201C2F88010D3F8FC2042F08072E1
S31508001870C3F8FC20A4E700BF00D003500090005036
S3150800188000ED00E00080005017916502FF0300405C
S31508001890000004E0001000E0090001004FF060427B
S315080018A084460123D2F8001E03FA0CF30B430020EA
S315080018B0C2F8003E704700BF4FF0604184460122DF
S315080018C0D1F8003E02FA0CF223EA02030020C1F81E
S315080018D0003E70474FF06042D2F8803EDB0701D4E5
S315080018E0112070478446012010B40C4C00FA0CF005
S315080018F0D4F8FC3043F08073C4F8FC30D2F8003ECC
S315080019000343C2F8003E52F82C30002BF0D00020DA
S315080019105DF8044B02F82C10704700BF00ED00E09C
S31508001920204B1B78FBB110B5044668B302F0D2F819
S315080019301D4B1A7BD2B11A7FBAB193F82C203AB351
S3150800194093F83C2032B393F84C20FAB193F85C2014
S3150800195012B393F86C200AB393F87C2002B302F012
S31508001960BFF8124810BD12487047012201212260B3
S3150800197000244FEA021C03EB021243F80C401173D1
S3150800198002F0AEF8204610BD0A4810BD0422EDE765
S315080019900222EBE70322E9E70522E7E70622E5E765
S315080019A00722E3E7A1670020D0650020048000F045
S315080019B0028000F0018000F038B502F08BF8134B76
S315080019C005461A7BE2B91A7FD2B993F82C20BAB920
S315080019D093F83C20A2B993F84C208AB993F85C2076
S315080019E072B993F86C205AB993F87C4044B902F05E
S315080019F079FE074B28461C7002F072F8204638BD5F
S31508001A00284602F06DF8034838BD00BFD0650020AF
S31508001A10A1670020058000F00D4B1B78B3B107289D
S31508001A2010B5044610D802F055F80A4B03EB041318
S31508001A301A7B1AB902F054F8074810BD00241C7323
S31508001A4002F04EF8204610BD044810BD0448704701
S31508001A50A1670020D0650020068000F0018000F014
S31508001A60028000F0002310B5154A82B01268019270
S31508001A708DF8043002F02EF8124B1C78DCB90122DE
S31508001A801A7002F02DF808220F4B01A81C731C7758
S31508001A9083F82C4083F83C4083F84C4083F85C403C
S31508001AA083F86C4083F87C408DF8072002F05CFED2
S31508001AB0204602B010BD02F013F8044802B010BD6B
S31508001AC0607F0008A1670020D0650020038000F031
S31508001AD02DE9F047384C84B025789DF830909DF86C
S31508001AE038C0002D5AD0072854D81446002A51D099
S31508001AF0002B4FD00D9AB2F5006F4BDC2F4E4FEAF4
S31508001B00001E06EB0012127B002A52D04FF0000886
S31508001B104FF4447A2A4D470105EB401245F80780F1
S31508001B20A2F802A0C2E90188CDE90288CDF80480AE
S31508001B30C2F80C80B9F1000F34D00091E919C1E957
S31508001B400134204CEB590CF0030C1C400D9B4FEA5A
S31508001B508C6C013BC3F30A034CEA03132343EB5192
S31508001B600F9B13B18B78C3F3001300240F993D44E0
S31508001B7046F80E10109976447160A978B46063F33C
S31508001B800411A9706946747302F03EFE204604B03B
S31508001B90BDE8F0870C4804B0BDE8F0870B4804B0F0
S31508001BA0BDE8F08792F8038048F0300882F8038091
S31508001BB0C3E70748EBE700BFA1670020D065002010
S31508001BC0D06400200F80FFF3018000F0028000F04F
S31508001BD0078000F008B50A4B1A786AB107280DD8AD
S31508001BE0084A02EB00131B7B23B1002102F098FD83
S31508001BF0002008BD044808BD044808BD044808BDBF
S31508001C00A1670020D0650020078000F0028000F060
S31508001C10018000F008B50A4B1A786AB107280DD872
S31508001C20084A02EB00131B7B23B1012102F078FD61
S31508001C30002008BD044808BD044808BD044808BD7E
S31508001C40A1670020D0650020078000F0028000F020
S31508001C50018000F008B50A4B1A7862B107280CD83B
S31508001C60084A02EB00131B7B1BB102F06BFE002037
S31508001C7008BD054808BD054808BD054808BD00BF9C
S31508001C80A1670020D0650020078000F0028000F0E0
S31508001C90018000F0104B1A78CAB10728034614D8F9
S31508001CA099B10E4A02EB0012127B92B10122002072
S31508001CB010B40B4C02FA03F3246D234214BF1346E7
S31508001CC003465DF8044B0B70704706487047064894
S31508001CD070470648704700BFA1670020D0650020FE
S31508001CE000000450018000F0028000F0078000F038
S31508001CF00D4B1A787AB1072811D810B50C4681B160
S31508001D000A4A02EB00131B7B3BB102F039FE03467D
S31508001D100020237010BD06487047064810BD0648C7
S31508001D207047054810BD00BFA1670020D065002098
S31508001D30028000F0078000F0018000F008B5FFF788
S31508001D40EDF82A4A136D516D0B404ED4D90705D5C7
S31508001D50012027490865D16B0143D163980707D548
S31508001D600220234A21491065CA6B42F00102CA6360
S31508001D70590707D504201E4A1C491065CA6B42F04C
S31508001D800102CA631A0707D50820194A17491065B8
S31508001D90CA6B42F00102CA63D80607D51020144A56
S31508001DA012491065CA6B42F00102CA63990607D543
S31508001DB020200F4A0D491065CA6B42F00102CA631A
S31508001DC05A0607D540200A4A08491065CA6B42F0E8
S31508001DD00102CA631B0607D58021054B034A19650C
S31508001DE0D36B43F00103D36308BDFEE7000004503C
S31508001DF00020045008B5344B98424BD01AD9334BBF
S31508001E0098424BD00CD9324B98424BD003F5740309
S31508001E1003F51053984249D12E4BD3F8980008BDC4
S31508001E202D4B984248D02D4B984213D1294BD3F8C5
S31508001E308C0008BD2A4B984242D012D9294B9842A9
S31508001E4025D003F5371303F5D86398422ED1214BD5
S31508001E50986F08BD244B984228D11E4BD3F88400AE
S31508001E6008BD224B98420FD008D9214B98420BD077
S31508001E70204B98421AD1174B586E08BD08B9002056
S31508001E8008BD1D4B984211D1124B986D08BD114BD8
S31508001E90586F08BD0F4BD3F8800008BD0D4BD3F81B
S31508001EA0900008BD0B4BD3F8940008BD41F286316B
S31508001EB01248FFF74FFCE2E7064BD3F8880008BD47
S31508001EC0044B186F08BD00BF80BA8C01007E56030C
S31508001ED00090D0030080E00F80D54302006CDC023E
S31508001EE0405DC6000024F4000048E80180841E0016
S31508001EF000093D00C0CF6A0040420F00647F000819
S31508001F0038B51D4B0546D3F820310C4603F00703B8
S31508001F10062B29D8DFE803F0040A0F14191E23003C
S31508001F20012205B12B6004B1226038BDFFF736FBEC
S31508001F3005220346F5E7FFF783FB03220346F0E78E
S31508001F40FFF7B2FB02220346EBE7FFF7B1FB0722D6
S31508001F500346E6E7FFF722FB06220346E1E7FFF71B
S31508001F606FFB04220346DCE741F25C210348FFF7D6
S31508001F70F1FB00221346D4E700800050647F000876
S31508001F80002230B5224B83B00192D3F86032054661
S31508001F9003F00703013B0C46032B31D8DFE803F0B7
S31508001FA012180D02FFF784FB072301900DB1019A61
S31508001FB02A6004B1236003B030BDFFF775FB022326
S31508001FC00190F3E7002101A8FFF79AFF0F23EDE739
S31508001FD00F4BD3F8403103F00303022B0DD0032B2C
S31508001FE005D0012B06D0002010230190DEE7FFF76D
S31508001FF0A7FBF9E7FFF7A0FBF6E7FFF7A5FBF3E773
S3150800200041F2C8010348FFF7A5FB0023CEE700BF4E
S3150800201000800050647F000838B52A4B0546D3F87F
S3150800202020320C4603F00703042B42D8DFE803F0FE
S31508002030030E1B200900012205B12B6004B12260A2
S3150800204038BDFFF781FB09220346F5E71D4BD3F898
S31508002050283103F00703013B052B22D8DFE803F0FC
S31508002060120D1C17120DFFF723FB07220346E3E7A1
S31508002070FFF762FB0A220346DEE7FFF7E1FA1122C1
S315080020800346D9E7FFF78AFA11220346D4E7FFF792
S315080020900FFB11220346CFE7FFF706FB1122034683
S315080020A0CAE741F264010848FFF754FB00231122EE
S315080020B0C2E741F223010448FFF74CFB00231A4606
S315080020C0BAE700BF00800050647F000838B54309AE
S315080020D004460D4618D0012B13D0022B1AD040F215
S315080020E03D310E48FFF736FB4FF480524FF400514E
S315080020F00123002D08BF0A4604F01F04A3401360FD
S3150800210038BD074A0749F3E740F22F310348FFF77E
S3150800211021FBE9E7044A0549EAE700BF647F0008AE
S315080021206490005064A000506890005068A0005069
S3150800213010B5002482B0B0F5807F009400F20781C4
S31508002140B0F5807F00F24281DFE810F0B50140016A
S315080021504001400140014001400140014001400169
S315080021604001400140014001400140014001400159
S315080021704001400140014001400140014001400149
S31508002180400140014001400140014001B501DC0128
S315080021904001DC01E601E601E601E601E601DC01B3
S315080021A01C02A701CB013201A701DC01DC01DC011D
S315080021B04001400140014001400140014001CB017E
S315080021C0DC01DC01DC01BA011402DC01400140013A
S315080021D040014001400140014001400140014001E9
S315080021E0400140014902E601B501B501B5018A0180
S315080021F0A701A7016401040270014E014E014001C6
S31508002200400140014001B501400140014001400143
S3150800221040014001400140014001400140014001A8
S315080022204001400140014001400140014001400198
S315080022304001400140014001400140014001400188
S315080022404001400140014001400140014402400173
S315080022504001400140014001400140014001400168
S315080022604001400140014001400140014001400158
S315080022704001400140014001400140014001400148
S315080022804001400140014001400140014001400138
S315080022904001400140014001400140014001400128
S315080022A04001400140014001400140014001400118
S315080022B04001400140014001400140014001400108
S315080022C040014001400140014001400140014001F8
S315080022D040014001400140014001400140014001E8
S315080022E040014001400140014001400140014001D8
S315080022F040014001400140014001400140014001C8
S3150800230040014001400140014001400140014001B7
S3150800231040014001400140014001400140014001A7
S315080023204001400140014001400140014001400197
S315080023304001400140014001400140014001400187
S315080023404001400140014001400140013002B0F522
S31508002350E06F00F00F811AD9B0F5286F00F0FA8007
S3150800236050D9B0F5306F30D1A74BD3F8903203F07F
S315080023700303012B00F0D680022B00F0E680A34869
S3150800238041F25011FFF7E6F9204602B010BDB0F54C
S31508002390607F00F03D814FD9B0F5B06F00F0F28054
S315080023A03ED9B0F5C06F00F09C80B0F5D06F0DD166
S315080023B0954BD3F8003203F00703042B00F266812D
S315080023C0DFE803F0099B858ABF0007D240F29441F3
S315080023D08E48FFF7BFF9002002B010BDB0F5386F80
S315080023E07FD0B0F5406FF1D1874BD3F8283103F091
S315080023F00703013B052B00F23C81DFE803F0989DBB
S3150800240093A6989DB0F5186F00F0E98022D9B0F52B
S31508002410206FDBD168460021FFF7B2FD0098B4E7CC
S31508002420B0F5806F78D0B0F5A06FCFD1684600219F
S31508002430FFF7F2FD0098A8E7B0F5007F26D1FFF771
S31508002440B9F8714BD3F89030C3F304630133B0FB8A
S31508002450F3F09AE7B0F5F06F32D0B0F5106FB5D15A
S31508002460694BD3F8083203F00703042B00F20881FE
S3150800247001A252F823F000BFD7230008FB24000866
S31508002480CF240008D92400084325000810D9B0F540
S31508002490207F37D0B0F5407F98D1FFF7A7F85A4B81
S315080024A01B6FC3F380230133B0FBF3F040086CE7DE
S315080024B0B0F5C07F8AD102B0BDE81040FFF796B8E4
S315080024C0514BD3F8603103F00303022B10D102B04D
S315080024D0BDE81040FFF738B902B0BDE81040FFF775
S315080024E02FB9494BD3F8403103F00303022BEED042
S315080024F0032BF1D0012B7FF46EAF02B0BDE810407C
S31508002500FFF71AB9FFF772F83F4B1B6FC3F3802327
S315080025100133B0FBF3F038E768460021FFF7F0FC1B
S31508002520009832E702B0BDE81040FFF7BDB802B028
S31508002530BDE81040FFF732B802B0BDE81040FFF71B
S315080025407FB8FFF753F8800A1FE702B0BDE81040CE
S31508002550FFF7AEB82C4AD2F8703203F00303012B0A
S3150800256070D0022B3FF437AF41F226112748FFF708
S31508002570F1F830E7244BD3F8403203F00303022B7B
S31508002580B6D1A4E70024204B0194D3F8803103F098
S315080025900303022BC6D0032BD7D0012B5AD01B48D6
S315080025A041F2B131FFF7D6F82046EEE64FF0E023C8
S315080025B0186910F004007FF47EAF134BD3F840314E
S315080025C003F00303022B82D0032B85D0012B7FF463
S315080025D0DCAE92E702B0BDE81040FEF7EBBF0A4B4F
S315080025E0D3F8503203F00303022B3FF470AF032BEA
S315080025F03FF472AF012B80D0044841F29401FFF7F3
S31508002600A9F80020C1E600BF00800050647F0008DA
S31508002610214BD3F8803003F00303022B26D0032B7B
S3150800262021D0012B1CD01D4841F2DF11FFF792F88B
S315080026302046194BD3F88030C3F301130133B0FB9E
S31508002640F3F0A2E6D2F8403103F00303022B7FF43D
S315080026504FAF3CE701A82146FFF752FC019894E6E4
S31508002660FEF7A8FFE5E7FEF799FFE2E7FFF720F890
S31508002670DFE70A4841F26401FFF76CF8002084E6B8
S3150800268041F2A7410548FFF765F8A4E641F26F4114
S315080026900248FFF75FF89EE600800050647F000856
S315080026A030B5002483B0B0F5607F009400F0418116
S315080026B068D8802800F28680232840F29180243842
S315080026C05C2800F28D80DFE810F023012301230146
S315080026D0230123018B0009018B002901EE008B00E1
S315080026E08B008B008B008B008B008B008B008B0084
S315080026F08B008B0029018B008B008B00C2005F01C9
S315080027008B008B008B008B008B008B008B008B0063
S315080027108B008B008B008B008B00450123018B00FF
S315080027208B008B00D6008B008B00B1007B013F012C
S31508002730990099008B008B008B008B008B008B0017
S315080027408B008B008B008B008B008B008B008B0023
S315080027508B008B008B008B008B008B008B008B0013
S315080027608B008B008B008B008B008B008B008B0003
S315080027708B008B008B008B008B008B008B008B00F3
S315080027808B006801B0F5086F00F0348154D9B0F5B4
S31508002790286F00F0158142D9B0F5306F1FD1B64BBE
S315080027A0D3F8903203F00303012B00F03581022B96
S315080027B000F0C68041F25011B048FEF7CBFF204624
S315080027C003B030BDB0F5807F0AD14FF0E0231B6916
S315080027D05B0740F1A380FEF709FF0C24EFE706D25A
S315080027E040F27951A548FEF7B5FF0024E7E7B0F5B2
S315080027F0386F00F09380B0F5406FF1D19E4BD3F857
S31508002800283103F00703013B052B00F24681DFE878
S3150800281013F03701FD000301970007012E01B0F5FB
S31508002820186F00F09780B0F5206F21D10020694617
S31508002830FFF7A6FB009CC2E7B0F5C06F6ED047D97C
S31508002840B0F5E06F00F0A080B0F5F06F28D18A4BA4
S31508002850D3F8603103F00303022B66D0032B00F094
S315080028608F80012B00F088800124204603B030BDFC
S31508002870B0F5106FB4D1804BD3F8083203F00703D4
S31508002880042B00F2118101A252F823F069280008EE
S31508002890792900082B29000881290008672A0008D9
S315080028A0B0F5D06F9CD1744BD3F8003203F0070310
S315080028B0042B00F2068101A252F823F069280008C9
S315080028C0792900082B29000881290008672A0008A9
S315080028D0B0F5A06F38D0B0F5B06F15D10025664BAE
S315080028E00195D3F8804104F00304022C00F0B88067
S315080028F0032C25D0012C00F0A38041F2B1315F48AA
S31508002900FEF728FF2C465AE7B0F5806F7FF468AFCC
S3150800291000206946FFF7F4FA009C50E7564BD3F8B7
S31508002920403103F00303022B98D1FEF70DFF09246B
S3150800293045E7514BD3F8803003F00303022B4FD100
S31508002940FEF7B6FE07243AE700206946FFF764FB60
S31508002950009C34E7484BD3F8503203F00303022BAC
S31508002960E3D0032B0CD0012B06D041F29401434847
S31508002970FEF7F0FE002422E7FEF7DEFE0A241EE735
S31508002980FEF7DEFE0B241AE73B4BD3F8403203F082
S315080029900303022B7FF462AFC7E7374B1C6F04F0C3
S315080029A00704631E032B00F2868001A252F823F067
S315080029B01D2A00085D2A0008BF270008512A0008BA
S315080029C02D4AD2F8703203F00303012B2CD0022BC8
S315080029D020D041F226112948FEF7BCFE0024EEE677
S315080029E0032B1DD0012B35D041F2DF112348FEF70A
S315080029F0B1FEE4E6204BD3F8003103F00303022BC3
S31508002A0093D0032B22D0012B7FF42EAFFEF718FEAE
S31508002A100324D4E61424D2E6FEF746FE0224CEE6C4
S31508002A20FEF7BCFD0624CAE6D2F8403103F00303DC
S31508002A30022B2FD0032B2AD0012B25D01024BEE63B
S31508002A40294601A8FFF75CFA0F24B8E6FEF72AFE26
S31508002A500824B4E6FEF7AEFD0D24B0E60524AEE67E
S31508002A60FEF722FEABE6FEF7C1FD0E24A7E6FEF74B
S31508002A70E7FD0424A3E600BF00800050647F000839
S31508002A80FEF78CFD05249AE6FEF756FED6E7FEF716
S31508002A9057FED3E7FEF758FED0E741F264010C482B
S31508002AA0FEF758FE00248AE641F2A7410848FEF7D9
S31508002AB051FE002483E640F2C6410548FEF74AFE69
S31508002AC093E641F26F410248FEF744FE002476E69B
S31508002AD0647F0008B0F5607F2DE9F0410C4600F0F0
S31508002AE0EB8168D8802800F28380232840F29380FF
S31508002AF024385C2800F28F80DFE810F034013401B6
S31508002B003401340134018D0018018D004101FD00A6
S31508002B108D008D008D008D008D008D008D008D003F
S31508002B208D008D008D0041018D008D008D00BC004B
S31508002B308A018D008D008D008D008D008D008D0021
S31508002B408D008D008D008D008D008D007A01340179
S31508002B508D008D008D00E6008D008D009B00C00164
S31508002B60AA01D300D3008D008D008D008D008D0045
S31508002B708D008D008D008D008D008D008D008D00DF
S31508002B808D008D008D008D008D008D008D008D00CF
S31508002B908D008D008D008D008D008D008D008D00BF
S31508002BA08D008D008D008D008D008D008D008D00AF
S31508002BB08D008D006D01B0F5086F00F06E814DD95E
S31508002BC0B0F5286F00F05A812CD9B0F5306F21D1B5
S31508002BD0022900F04B82072940F0CF810221954A4D
S31508002BE0D2F8903223F003030B43C2F89032B3E0D5
S31508002BF0B0F5807F0FD10C2900F0228240F2D080F8
S31508002C00102900F0D280BDE8F04140F2E1618A481F
S31508002C10FEF7A0BD3FD2BDE8F04140F64211864816
S31508002C20FEF798BDB0F5186F00F0E280B0F5206F9A
S31508002C3047D1023C0E2C00F26581DFE814F0480308
S31508002C4063016301630163013E0363016301630179
S31508002C50630163016301630132033403B0F5C06F96
S31508002C6000F08D805BD9B0F5E06F00F0D180B0F54B
S31508002C70F06F3DD1013C0A2C00F2A481DFE814F084
S31508002C80A701A201A201A201A201A201A201A20119
S31508002C9007030F03FF02B0F5386F70D0B0F5406F29
S31508002CA0B9D1023C052C00F2E581644B53F8241097
S31508002CB0604AD2F8283123F007030B43C2F82831BB
S31508002CC04AE0B0F5106FA6D1013C0D2C00F25C81EC
S31508002CD0DFE814F05F015A015A015A015A015A01F4
S31508002CE05A015A01F502FB02ED025A015A01F10294
S31508002CF0B0F5D06F8FD1013C0D2C00F25481DFE87E
S31508002D0014F0570152015201520152015201520167
S31508002D105201E002E202D80252015201D402B0F591
S31508002D20A06F00F09580B0F5B06F17D1072C00F0B2
S31508002D3069820F2C00F09C81022C05D040F27A6142
S31508002D403D48FEF707FD00243A4AD2F8803123F0C1
S31508002D5003032343C2F88031BDE8F081B0F5806FE4
S31508002D607FF459AF013C062C00F27C82DFE814F0B0
S31508002D707F0285026C028302760278028102013C98
S31508002D800A2C00F22E81DFE814F031012C012C0107
S31508002D902C012C012C012C012C01840288027C02B6
S31508002DA0A1F10904022C3FF62EAF4FF48031244BD3
S31508002DB02048244A406E5966536A43F00103536219
S31508002DC0C2034FF0E0225CBF1F4B5966136923F01C
S31508002DD004031361C0E78B1E062B00F26581DFE84A
S31508002DE013F021021302630125026301630129021C
S31508002DF0093C022C00F24581144B53F824100D4A65
S31508002E00D2F8503223F003030B43C2F85032A3E73B
S31508002E10013C0A2C00F2F480DFE814F0F700F20017
S31508002E20F200F200F200F200F200F20037023D0270
S31508002E30350200BF00800050647F0008C07F00088C
S31508002E400090005000C0075000A00050B47F000852
S31508002E50013C102C65D8DFE814F0690064006400B2
S31508002E60640064006400400264003E023C026400A0
S31508002E70640064006400640064004202102C00F0E0
S31508002E80DD80142C72D10221814AD2F8703223F0E7
S31508002E9003030B43C2F870325EE74C1E082C00F29F
S31508002EA0BE80DFE814F0C100BC00CF01BC00BC0046
S31508002EB0BC00BC00CB01CD01764AD2F8FC5015F017
S31508002EC080753DD1072900F06B820D2900F04882F4
S31508002ED0062900F0738240F2E1716F48FEF73AFC6A
S31508002EE06B4AD2F8803023F00303C2F88030002DF5
S31508002EF03FF432AF674AD2F8FC3043F08073C2F829
S31508002F00FC3029E740F6E2016348FEF723FC00217E
S31508002F105F4AD2F8603223F007030B43C2F86032E7
S31508002F201AE740F63D015C48FEF714FC0021584AB2
S31508002F30D2F8203223F007030B43C2F820320BE7FE
S31508002F40D2F8FC30072923F08073C2F8FC3000F071
S31508002F50FD810D2900F0F0810629BCD14C4AD2F832
S31508002F60803043F00303C2F88030C3E74FF41161A1
S31508002F704948FEF7EFFB002186E740F6231146484D
S31508002F80FEF7E8FB00212AE640F294714248FEF774
S31508002F90E1FB00213E4AD2F8083223F007030B432F
S31508002FA0C2F80832D8E64FF4EE613B48FEF7D2FB8A
S31508002FB00021374AD2F8003223F007030B43C2F840
S31508002FC00032C9E640F223713348FEF7C3FB0021FD
S31508002FD02F4AD2F8603123F003030B43C2F860315D
S31508002FE0BAE640F201712C48FEF7B4FB0021284AE4
S31508002FF0D2F8403123F003030B43C2F84031ABE665
S3150800300040F6AC012448FEF7A5FB0021204AD2F879
S31508003010403223F003030B43C2F840329CE64FF4D8
S31508003020F6611D48FEF796FB0021194AD2F80031D1
S3150800303023F003030B43C2F800318DE6012123E791
S315080030404FF48031154B1248154A406E5966536A3B
S3150800305023F0010353624FF0E022C3035CBF114B18
S315080030605966136943F00403136175E60121B6E551
S31508003070012469E640F66E010748FEF76BFB00215E
S3150800308016E640F6C8010448FEF764FB0021B6E6DA
S315080030900080005000ED00E0647F000800900050BA
S315080030A000C0075000A00050002740F23161B14827
S315080030B0FEF750FBB8460121022000F021FDFEF77D
S315080030C0BBFA4FF48031AC4AAC4B91661D6F06468D
S315080030D02B0B13F00E0FC5F303350DD0072D00F09B
S315080030E029810F2D00F02481032D00F01F8140F265
S315080030F08521A048FEF72EFB013505FB06F6A04BF9
S31508003100A04A9E4241F6713394BF00260126D16932
S31508003110D3635368C90323F4401343EA0653536041
S3150800312044BF0023D363954A136F43F48063136740
S31508003130136F23F0070343EA08031367FEF756FAEB
S315080031400646914AD2F88430DB06FBD44FF4803128
S31508003150D2F88430884AC3F38113022B874B9166D1
S315080031601D6F4FEA1533C5F3033580F2BA8013F0A5
S315080031700E0F0DD0072D00F029810F2D00F01A81B2
S31508003180032D00F0198140F285217A48FEF7E2FA0C
S31508003190013506FB05F57D4B7A4A9D4241F67133AA
S315080031A094BF00250125D169D363536823F44013DE
S315080031B043EA0553CD03536001D50023D3630121A8
S315080031C0002000F0F3FC4FF4C070FEF7B1FF704921
S315080031D06A4A884294BF00200120136F23F4806353
S315080031E043EA80231367002F7FF4B6AD032C7FF4E0
S315080031F0B3AD4FF48031674B674A9962936D5900B6
S31508003200FCD4A9E503249FE54FF480154FF48032DA
S315080032105948614945668F6A604BA0469A62C7F36A
S31508003220006748E700274FF0010844E700274FF0FA
S31508003230020840E700274FF004083CE70321F4E6BC
S315080032400221F2E60121F0E602214C4AD2F82031A9
S3150800325023F007030B43C2F820317DE50121F4E78B
S315080032600521F2E740F2B9614248FEF773FA0021F8
S31508003270EBE70421E9E70621E7E70321E5E7032170
S31508003280A6E60321B3E60321C0E60221BEE6022133
S315080032909EE60221ABE60121B8E60121A7E6012157
S315080032A096E6012134E6022132E6042181E603216D
S315080032B070E603217DE604216CE6042128E6022156
S315080032C068E6022175E6012173E6012162E603211B
S315080032D01EE603212BE6042129E6022127E6012121
S315080032E025E613F00E0F0AD0072D75D00F2D6FD0D7
S315080032F0032D6FD040F285211E48FEF72BFA0135C3
S3150800330005FB06F61E4B1F4A9E4241F6713394BFD3
S3150800331000260126D169D3635368C80323F44013F2
S3150800332043EA065353607FF54AAF46E70425E4E6C9
S315080033301025E2E60825E0E6104AD2F8803023F0A8
S31508003340030343F00103C2F88030D3E50B4AD2F8F1
S31508003350803023F0030343F00203C2F88030C9E546
S31508003360064AD2F8803023F0030343F00103C2F87B
S315080033708030F1E4647F000800900050008000501F
S31508003380005A62020000035000400050002D31012F
S3150800339080F0FA020060005A0040005A0050005AB5
S315080033A00E4AD2F8803023F0030343F00203C2F832
S315080033B08030D1E41025ECE60425EAE6074AD2F87F
S315080033C0803043F00303C2F88030C5E40825E0E600
S315080033D0102595E7042593E7082591E70080005016
S315080033E02DE9F0410646FEF705FD431E0333054663
S315080033F000F2D0804FF4C021914B924A5966536827
S31508003400012B72D08020FFF74BF9052877D08E4B19
S3150800341025F040759E4200F0B0808C4B9E4201D14B
S3150800342045F08075FEF7BAF88642074600F2AD8089
S31508003430874CE36813F0060FFBD1D4F80880A56023
S31508003440A3686B4013F4F81F0BD13046FEF7ACF8AF
S315080034508020FFF725F9052816D0B7420DD2BDE81A
S31508003460F08140F60D217B48FEF774F98020C4F8F8
S315080034700880FFF715F9052805D0BDE8F0410121B8
S31508003480002000F093BB3E46FEF7B0F8B042054672
S3150800349000F2BD80704AD2F88430D906FBD44FF4C6
S315080034A08031D2F88430664AC3F38113022B6B4B02
S315080034B091661C6F4FEA1432C4F3033470DA12F0C3
S315080034C00E0F0DD0072C00F0AC800F2C00F0A78053
S315080034D0032C00F0A28040F285215E48FEF73AF9F7
S315080034E0631C05FB03F35E4A6CE05E494B60536858
S315080034F09C07FCD48020FFF7D3F8052887D1FEF770
S315080035009BF84FF480314E4A544B91661C6F074620
S31508003510230B13F00E0FC4F303340CD0072C00F062
S3150800352086800F2C00F08180032C7CD040F2852108
S315080035304848FEF70FF9013404FB07F74A4B4B4A94
S315080035409F4241F6713394BF00270127D169D3639F
S315080035505368C80323F4401343EA0753536044BF30
S315080035600023D3633D4A25F04075136F43F4806307
S315080035701367354B9E427FF450AFFEF70FF886422D
S31508003580074645F000757FF653AF0121304600F037
S315080035900DFB4DE740F6C5112E48FEF7DBF829E787
S315080035A012F00E0F0AD0072C47D00F2C43D0032C4D
S315080035B03FD040F285212748FEF7CCF8631C05FB6F
S315080035C003F3294A934241F6713294BF002301233B
S315080035D02649C869CA634A6822F4401242EA035374
S315080035E04B60C30348BF00234FF4C07048BFCB638A
S315080035F0FEF79EFD1E49194A884294BF0020012005
S31508003600136F23F4806343EA8023136725E740F6A4
S315080036101E211048FEF79EF83CE7042361E71023B5
S315080036205FE708235DE7042486E7102484E7082477
S3150800363082E70423C3E71023C1E70823BFE700BFD7
S315080036400090005000C0015040420F0080841E00C8
S3150800365000000150647F00080040005000800050C0
S31508003660002D310100E00150005A620200000350AB
S3150800367080F0FA02F8B5036805460F2B00F20D81B3
S315080036806B680F2B00F20381AB680F2B00F2F980F1
S315080036902B7B0F2B00F2EF806B7B0F2B00F2E58064
S315080036A0AB7B3F2B00F2DB80EB7B3F2B00F2D1801C
S315080036B02B69032B00F2C7806B69032B00F2BD80D0
S315080036C0EB69032B00F2B3808020FEF7E9FF03289D
S315080036D071D04FF4801445F60E034FF0A0604FF4F6
S315080036E08031774A5466774AC2F88030764B9862BA
S315080036F003F580539962936DD903FCD4714EB46D6A
S3150800370014F08044FBD1D5E900231B0543EA026384
S31508003710EA7B13432A7B43EA02436A7B43EA023382
S31508003720AA7B43EA821333616B692969B2691B066E
S3150800373043EA816302F000421343AA7E13432A7EBA
S3150800374043EA02436A7E43EA0223B36100F0BAF908
S31508003750B36B23F4406343F40063B36300F0B6F934
S31508003760336AEA69E97E23F00F032AB343EA810341
S31508003770134343F00803022A336200F0948095F855
S31508003780223095F820204F491B06886A43EA4213DF
S315080037904E4A024095F82400134395F8232043EA3D
S315080037A0C00343EA02438B6295F825301BB1454BAB
S315080037B0474AC3F88020F8BD95F8242043EA8103D8
S315080037C03362B16A95F82000D300404A43EA4013B1
S315080037D00A4095F82110134343EA011343F4803352
S315080037E0384A3C49B362936D31EA0303FBD14FF083
S315080037F080704FF00046344995F822408862136974
S31508003800AF6823F4700343EA075313618E610CB95A
S31508003810314B986295F82330002BC5D14FF480318F
S315080038202D4B284A9962936D5B00FCD4BCE740F6A1
S3150800383088312A48FDF78EFF46E740F68531274846
S31508003840FDF788FF3CE740F682312448FDF782FF02
S3150800385032E740F67F312148FDF77CFF28E740F63E
S315080038607C311E48FDF776FF1EE740F679311B4886
S31508003870FDF770FF14E740F676311848FDF76AFF42
S315080038800AE740F673311548FDF764FF00E74FF481
S3150800389037611248FDF75EFFF6E640F66D310F48D0
S315080038A0FDF758FFECE63461B46100F00BF9736B71
S315080038B023F47F4343F40853736300F007F95EE784
S315080038C0009000500040005A0050005AC7FFFEFE04
S315080038D0F1A7FFFF030001000060005A647F00089B
S315080038E0014B93F900007047EC13002038B5436884
S315080038F00446072B41D8A368032B46D82378032B05
S315080039004BD894F901206378002A50DB4F2B28BF47
S315080039104F234FF4000202204FF4D1551946274B86
S315080039205A66274A03F5C03355625860012003F5E5
S31508003930805358601369DB03FCD42078E37B41EAA3
S3150800394000215161D4E90101090141EA0021607BA6
S315080039501B010143207B41EA4001A07B43EA401357
S31508003960607C91600343207CA17C43EA400353605A
S3150800397011B16FF4D153536238BD40F6B3511148B3
S31508003980FDF7E8FEA368032BB8D940F6B5510D48F4
S31508003990FDF7E0FE2378032BB3D940F6B751094863
S315080039A0FDF7D8FE94F901206378002AAEDA40F6CE
S315080039B0B9510448FDF7CEFE6378A7E7009000509A
S315080039C000000250647F0008014B1880704700BF52
S315080039D0EA130020014B1880704700BFE813002047
S315080039E000294FF48031314A38B5314B91661C6F46
S315080039F005464FEA1433C4F3033426DD13F00E0FDD
S31508003A0017D1013405FB04F441F6713329492A4AD2
S31508003A108C4294BF00240124D169D3635368C90337
S31508003A2023F4401343EA0453536001D50023D363B8
S31508003A3038BD072C37D00F2C2BD0032C2BD040F2B7
S31508003A4085211E48FDF786FEDBE713F00E0F0AD028
S31508003A50072C26D00F2C20D0032C20D040F285210D
S31508003A601648FDF777FE013404FB05F541F6713378
S31508003A701349114A8D4294BF00250125D169D363A4
S31508003A80536823F4401343EA05535360CB03CDD45C
S31508003A9038BD1024B6E70424B4E71024E4E7042468
S31508003AA0E2E70824E0E70824ACE700BF00900050EE
S31508003AB000800050002D310100000350647F00088B
S31508003AC0005A6202EFF3108072B6704700B962B608
S31508003AD0704700BFEFF31180302383F311887047D6
S31508003AE080F31188704700BF034A0179D36E23F02B
S31508003AF030030B43D366704700400050704700BF41
S31508003B00F8B50546254AD2F88430D806FBD4D2F84B
S31508003B108430C3F381139D4225D0FDF74BFD012D5B
S31508003B20074621D0FFF7CEFF4FF000721C4B064622
S31508003B305A662846FFF7E2FF4FF48063174C6A1E61
S31508003B409340236707E0D4F884309B0606D4D4F85C
S31508003B508430990610D4636E9A01F4D53046FFF77F
S31508003B60B5FF022D0ED0F8BD0E4B984210D8012194
S31508003B703846FFF735FFD5E740F28F710A48FDF75B
S31508003B80E9FDE8E73846BDE8F8400021FFF728BF19
S31508003B9040F281710448FDF7DDFDE8E7004000507A
S31508003BA000600050005A6202D87F0008F8B50C463B
S31508003BB000283CD0234B1B7813B1234B984230D9AD
S31508003BC0224DD5F88430D806FBD4D5F88430C3F313
S31508003BD08113022B2ED0FDF7EDFC0646FFF772FF88
S31508003BE04FF000721A4B07465A660220FFF786FF07
S31508003BF04FF40063154C2B6707E0D4F884309B0616
S31508003C0006D4D4F88430990615D4636E9A01F4D58F
S31508003C103846FFF75BFF3046BDE8F8400021FFF75E
S31508003C20DFBE2146BDE8F8400120FFF769BFFDF772
S31508003C30C1FCBFE7F8BD40F28F710648FDF78AFD63
S31508003C40E3E700BF50660020005A620200400050B9
S31508003C5000600050D87F0008704700BF4FF0004052
S31508003C6008B54AF6CD331149114A4866506C1364B3
S31508003C7000F00100536BD907FCD45368DB070DD558
S31508003C8001210C4B5960136BD90707D40A4B084915
S31508003C9001E0013B02D00A6BD207FAD510B1044BFA
S31508003CA0064A1A64FFF7D8FF012008BD00900050A5
S31508003CB0004009500060095040420F003254FFFF8F
S31508003CC0704700BF03282DE9F84304460D461646FB
S31508003CD01F460ED94FF4B0714E48FDF73BFD06B3AB
S31508003CE0002F40F0898040F2FE314B48FDF732FD47
S31508003CF00FE04A4B53F82030CB40DB0740F1828077
S31508003D007EB1002F63D1464B53F82430EB40D907D8
S31508003D10E9D50122434B04EB440109010B44AA40AF
S31508003D201A60072D4FF030082BD8042318FB0438E7
S31508003D30FFF7C8FE0F233C494FEA850E58F801C025
S31508003D4006FA0EF282EA0C0203FA0EF3134083EA2D
S31508003D500C0348F80130FFF7B9FE86B967B3032CA0
S31508003D603ED8324B53F82430EB40DA0738D50122D7
S31508003D702F4B04EB440424012344AA401A60BDE8EF
S31508003D80F8830C2318FB0438FFF79CFE0F232649FB
S31508003D90A5F1080958F801C04FEA890906FA09F297
S31508003DA003FA09F382EA0C02134083EA0C0348F883
S31508003DB00130FFF78BFED0E7032C17D8184B53F8C2
S31508003DC02430EB40DB0711D50122164BD1E7174B00
S31508003DD053F82430EB40D8070ED50122144B9AE746
S31508003DE040F22D410C48FDF7B5FCC0E740F2FE3124
S31508003DF00948FDF7AFFCE7E740F22D410648FDF715
S31508003E00A9FCEAE74FF4B0710248FDF7A3FC002EBF
S31508003E1087D076E728800008C8800008188100083F
S31508003E201881000840E0035030C00350188100088C
S31508003E3040D003502DE9F04F2DED028B0646DFF8F2
S31508003E4040C38BB004AC0D461746BCE80F000FC440
S31508003E509CE80300DFF8F8E284E80300764508D01A
S31508003E60F121B848FDF776FC40F2AA31B548FDF7CE
S31508003E7071FC2A20FEF75CF9B34BB44A034493421B
S31508003E80C0F0BB806FF4657C02F1D242A2F5233202
S31508003E906244A2FB03231B0E013B032B28BF03230B
S31508003EA095F80580DBB2984538BF98467369DC01FA
S31508003EB0FCD4012206F50053DFF894A25A60DAF81A
S31508003EC0044014F00204FAD12879002800F034825C
S31508003ED0000400F4FE00EB784FEA08721B0103F0B9
S31508003EE0300302F0E042034313432A780AB143F051
S31508003EF002036A780AB143F00403AA780AB143F0C8
S31508003F0008032A89B3606B8943EA0243EA88326167
S31508003F1033628F4B9E4208BF08F1010860D197F8BB
S31508003F2000B0D7F808A0BBF1000F62D0894BBBF1EF
S31508003F30010F894D894A08BF1D46894B0CBF91461A
S31508003F4099462A20FEF7F4F8B0FBF8F02844B0FBAF
S31508003F50F9F240F2FF33814598BF02F1FF329A42E7
S31508003F6028BF1A4606EB0411886CDFF818C27D785C
S31508003F701FFA8AFA00EA0C0C9245B87838BF9246BE
S31508003F80AD00FA780BF0030305F01C0543EA0C03B1
S31508003F904001C0B22B43120302F4E0420343134329
S31508003FA03A793D7C78794FEA024C6D050CF4E02CA1
S31508003FB005F46005000743EA0C0300F040502B4364
S31508003FC003438B64896C2301C1F302310139042947
S31508003FD015D8DFE811F014001400DB00A2009301E5
S31508003FE0012306F5805673600BB0BDEC028BBDE865
S31508003FF0F08F5C4DDFF89091A3E700234DE75A490F
S31508004000BBF1010FD1F88051ADB200F2C8809FED27
S31508004010577A03F1B24303F580432804986C4FF0AE
S31508004020010325F4C041C0F382004FEA814100EB49
S31508004030030C48BF41F0004103FA0CF3002800F0D6
S31508004040CF814948BBF1000F40F0F281D0F89001CA
S3150800405000B207EE900AF8EEE77A37EEC77A07EE6F
S31508004060903AF6EE006AF8EEE78A3F4B68EEA66AE3
S31508004070D3F8883187EE266A1BB207EE903AF8EE37
S31508004080E77A37EE868A002A00F0BE81D7ED037AF2
S315080040909FED376AF8EE677AF7EE046A87EE867A56
S315080040A0C6EE877A67EE887ADFED325AB1EE006A95
S315080040B0DFED316A85EEA87A67EE867A27EE267AEC
S315080040C0B1F1004F77EE277A0BD0DFED2C6A07EEB9
S315080040D0105A77EEA67ABAEEE87A67EE277A77EE7E
S315080040E0E67AF5EEC07AF1EE10FACCBFBEEE007AAB
S315080040F0B6EE007A77EE677AFDEEE77A17EE903A33
S31508004100B3F5003FC0F263816FEA51416FEA41415E
S315080041100F48631D1A018150E5E01349BBF1010FF1
S31508004120D1F88451ADB23AD8BBF1000F40F0AB815B
S31508004130D1F88C110914490007EE901AB8EEE77AFF
S3150800414067E700BF28810008FF596202005A620229
S3150800415000400059FF2C31013F4B4C00002D310126
S31508004160404B4C007F9698000080E00F000000004E
S3150800417000007A4400008043000020440000004903
S315080041808C810008008F18CF80969800D549BBF11E
S31508004190010FD1F880514FEA154540F2EC80BBF18A
S315080041A0020F40F0C28003A8CDE9002300F00EFC00
S315080041B0009A019B042A00F23181CB499FEDCB7A04
S315080041C001EB8202D2ED007AF8EEE77AC7EE872A8B
S315080041D003F1B24202F58042926C0AA9C2F3421276
S315080041E001EB820252ED065AFCEEE57A17EE902AAA
S315080041F0B7EE006A5C2A18BF35EE866A07EE905A53
S3150800420014BFC5EE866ADFEDBA6AFBEEE87A9FED63
S31508004210B97A67EEA67A67EE877AF5EEC07AB6EED1
S31508004220007A08BF35EE866AF1EE10FA4CBF77EED3
S31508004230C77A77EE877AFDEEE77A03F1B24101F5A0
S3150800424080410B6D002317EE902A0B650B6D100449
S3150800425048BF43F000430B65A74BDFEDA83A03EAD6
S3150800426082430A6DB7EE044A13430B659D4B84EEF1
S31508004270227AD3F88821D3F888319FEDA13A1BB268
S3150800428006EE903AF8EEE66A76EEA36AF1EE004A92
S3150800429083EE254A27EE267AC4EE065A27EE247AB6
S315080042A09FED985A07EE905A37EE257AFAEEE87A95
S315080042B037EE057A67EEC77A77EE857AF4EEE37A13
S315080042C0B6EE007AF1EE10FA4CBF77EEC77A77EEC3
S315080042D0877AFDEEE77A17EE903A0A6DC3F3110373
S315080042E013430B65631DCAF3090206EB03135A60F1
S315080042F01437002C7FF474AE012410E67949BBF11B
S31508004300010FD1F884514FEA15453FF648AFBBF186
S31508004310000F40F0C180D1F88C11091401EB41015E
S3150800432007EE901AB8EEE77A73E640F2F11176488E
S31508004330FDF710FA631DD6E72A20FDF7F9FE734B41
S315080043408146984222D35645B0FBF8F900F08E8094
S3150800435040F26F316C48FDF7FDF909F574236C4A94
S3150800436003F23F23A2FB0320800C01387F2828BFD5
S315080043707F200004AFE5BBF1000F65D1D1F88C11A1
S31508004380091407EE901AB8EEE77A42E6564504D0C5
S3150800439040F26F315C48FDF7DDF9B9F1000F40F0E6
S315080043A095802A20FDF7C4FE00283FF494AD574BAC
S315080043B098427BD9574B564A9B68C3F3027301331D
S315080043C0B0FBF3F303F5742303F23F23CAE713F5AF
S315080043D0003FAABFC3F3110341F40031194397E61E
S315080043E007EE903A3F4BF8EEE78ABBF1000F33D160
S315080043F0D3F88C311BB207EE903AF8EEE77A37EE2F
S31508004400878A002A7FF442AE03A8009100F0DEFAFC
S31508004410DFED417A009968EE277A45E640F2914148
S3150800442039480093FDF796F9DFED342A009BCFE66D
S31508004430D0F8980100B207EE900AF8EEE77A77EE20
S31508004440C77A37EE277A0AE6D1F89411091407EEE7
S31508004450901AB8EEE77ADCE5D3F894311BB207EE8A
S31508004460903AF8EEE77A37EE878A0CE603F181434D
S3150800447009F5742903F5661309F23F2903F2834304
S31508004480A3FB093070E7D1F894110914490007EE27
S31508004490901AB8EEE77ABCE5D1F89411091401EB45
S315080044A0410107EE901AB8EEE77AB2E503F18143C7
S315080044B000F5742003F5661300F23F2003F28343E8
S315080044C0A3FB0030800C0138000404E5104B09F505
S315080044D0742909F23F29A3FB0930800C013800042E
S315080044E0F9E400BF0080E00F7881000800007A44F4
S315080044F0E71B753F000000470000FC7F0000000036
S31508004500000080480000004928810008005A62021D
S3150800451083DE1B43004000593D3B843FF8B5324BD0
S31508004520044698420D46164604D04FF419712F4892
S31508004530FDF710F96369DA01FCD4012304F5005785
S31508004540294A7B6053689B07FCD42B78697803F06B
S31508004550070343EAC103A978E878090101F0700165
S3150800456043EA00230B432367E16A2B7921F48B3155
S315080045701B0221F4807103F4E0630B436979A8797F
S31508004580090301F4805143EA00430B439442E36272
S3150800459004D04FF427711548FDF7DCF8012304F51C
S315080045A0805160684B60F37872785B0443EA0223B3
S315080045B0B27836781204334302F480321343C007C4
S315080045C0C4F8983005D50123EA794B6002B1E36057
S315080045D0F8BD6369DA01FCD40123034A7B6053689A
S315080045E09B07FCD4EFE700BF00400059288100086C
S315080045F038B5154B0D469842144604D040F2AA31F8
S315080046001248FDF7A7F8BDB1114B9D4228BF1D46BC
S315080046106CB12C44013CB4FBF5F0AC4228BF00F168
S31508004620FF30032828BF0320C0B238BD25462A20FC
S31508004630FDF77EFD0446ECE740F2AB310348FDF793
S3150800464089F8002CF2D0FFDE0040005928810008C6
S31508004650005A62022DE9F0411D4D0E46A842144645
S315080046601F469DF8188004D04FF479711948FDF754
S3150800467071F83EB3DFB1184D184B012F08BF1D4620
S31508004680B54228BF3546C4B108F10108B4FBF8F4B1
S315080046906B1E1C44B4FBF5F340F2FF30AC4228BF56
S315080046A003F1FF33984228BF1846BDE8F0810C4D48
S315080046B0B54228BF3546002CE6D12A20FDF738FD3D
S315080046C00446E1E740F2E5310248FDF743F8D1E751
S315080046D00040005928810008404B4C00002D31014C
S315080046E0809698004FF480020B4B10B5C3F88020D3
S315080046F0BFF34F8FBFF36F8F0024FF22074B21466E
S315080047005C6520209A625C60FDF7E0FC2146BDE806
S3150800471010402120FDF7DABC00E100E0000004505B
S31508004720072838B504460D460ADC1F2C0ED80A4B56
S315080047300A490122002D08BF0B46A2401A6038BD5F
S3150800474077210748FDF706F81F2CF0D9912105486F
S31508004750FDF700F8EBE700BF402004504010045076
S31508004760A481000878800008F8B50446002840D0DF
S3150800477023781B0613F0604F2FD1E3780F2B33D81D
S3150800478001212020FDF7A2FC01212120FDF79EFC36
S3150800479001220020FF274FF000464FF0FF354FF467
S315080047A08001164B5A60227812069A6094F801C066
S315080047B0A27842EA0C429A61114A9F629863186489
S315080047C05E6503F500531D65C2F88011E3781B0189
S315080047D0DBB282F816331160F8BD92210948FCF75E
S315080047E0B9FFE3780F2BCBD9A3210648FCF7B2FF14
S315080047F0C6E791210348FCF7ADFFB9E7000004506E
S3150800480000E100E0A4810008F8B50126C3B2072834
S3150800481005460C46174606FA03F654DC002C58D013
S31508004820236823F47C1323F00F03002B5CD1A37AAF
S315080048301B0413F47C0F60D1E37A1B0513F07E6F1B
S3150800484065D1227B520512F0FE5F6AD1394B27F0FB
S3150800485003011E65AB00206803F1A04303F5882316
S315080048605860354F637B05EB450507EB05152B6649
S31508004870E37AA07A1B0543EA00431343EB652967ED
S31508004880FFF728F97B6D33437B65237A13B13B6CBD
S3150800489033433B64637A1BB1274A936B3343936371
S315080048A02279A379244943EA0243224A9361657926
S315080048B0E379224C43EA0543A36156638E64BDE857
S315080048C0F840FFF70DB9EC211D48FCF743FF002C13
S315080048D0A6D1ED211A48FCF73DFF236823F47C1383
S315080048E023F00F03002BA2D0F0211548FCF732FF66
S315080048F0A37A1B0413F47C0F9ED040F209111048CA
S31508004900FCF728FFE37A1B0513F07E6F99D040F277
S315080049100B110B48FCF71EFF227B520512F0FE5FB7
S3150800492094D040F20D110648FCF714FF227B52057D
S315080049308CE700BF0020045000000450001004500B
S31508004940A481000810B50124C3B2072804FA03F4A9
S315080049500BDCFFF7BFF8084B5A6D22EA04025A65CA
S315080049609C62BDE81040FFF7BBB840F297110348B8
S31508004970FCF7F0FEEDE700BF00000450A481000834
S3150800498010B50124C3B2072804FA03F413DCFFF7B1
S31508004990A1F80C4BDA6A224208D15B6B9C430CBF28
S315080049A001240024FFF79CF8204610BD0024FFF7D9
S315080049B097F8204610BD40F2B5110348FCF7CAFE29
S315080049C0E5E700BF00000450A48100084FF48031D9
S315080049D0084A094B51669B6903F00F01C3F3461257
S315080049E00A43C3F30341C3F30333428041700370A0
S315080049F0704700BF0090005000C00750F8B5064643
S31508004A000F4615461C463AB391B1402C17D0402C98
S31508004A1007D894B3202C29D1B5EBD70F4AD8082349
S31508004A202FE0602C22D1B5EB970F4FD8042328E04E
S31508004A304FF42070FDF77CFB402C0746E7D1294B45
S31508004A40A3FB0723B5EB930F04D94FF4BF71264890
S31508004A50FCF780FE062314E04FF4A1712248FCF708
S31508004A6079FE002FE4D0402CD1D1F3E740F289112A
S31508004A70BDE8F8401C48FCF76DBEB5EB171F1FD8FC
S31508004A80102303FB05F5690801EB4711B1FBF5F1A6
S31508004A90164B2039B3EBC10F4FEAC1051CD3B268D8
S31508004AA0124B22F06002B260B2682B401443B46025
S31508004AB0F361F8BD40F279110B48FCF74BFEAEE7FF
S31508004AC04FF4BA710848FCF745FED9E740F283115E
S31508004AD00548FCF73FFEA9E74FF4D0710248FCF7FA
S31508004AE039FEDCE7ABAAAAAAF4810008F8FF7F0022
S31508004AF038B50C4B044698420D4604D04FF4337132
S31508004B000948FCF727FE0121EB438B4004F5805248
S31508004B1003F00A0351606361656115B904F5005431
S31508004B20616038BD00C00550F4810008F8B5494BEE
S31508004B30044698420D466BD040F2FD214648FCF7E4
S31508004B4009FE40F242414448FCF704FE012140F6C2
S31508004B50AA6204F580567160002341F2050162617C
S31508004B603E4A04F50057A360E365E1602361E3610B
S31508004B70E364BA64A3650123AA7C7B6073601AB1F7
S31508004B80A36843F08043A360EB7C33B1314B9C426E
S31508004B9056D0E36D43F08003E3652A8A6B7B204693
S31508004BA01343EA891343E3602B7BD5E90112FFF728
S31508004BB025FF6B7D1BB1A36843F48033A360AB7DEF
S31508004BC01BB1A36843F40043A360EB7D2A7E1B0751
S31508004BD0120502F4E00203F0E0431343A3656B7E7B
S31508004BE002219A1E012A09D91D4A012BC2F89817D3
S31508004BF009D00423FB652B786361F8BD194A032B9A
S31508004C00C2F89817F5D10423F3652B786361F8BDCC
S31508004C10012140F6AA6200F580567160002341F230
S31508004C20050142610D4A00F500578360C365C160FE
S31508004C300361C361C364BA648365036543659AE720
S31508004C402A7DA3F51033C3F8D421E36D43F080031E
S31508004C50E365A2E700C00550F4810008FFFF0100E4
S31508004C6000E0035000D0035083695B06FCD5C1639E
S31508004C70704700BF08B5FEF7F1FF002008BD00BF6A
S31508004C8010B50024074A82B0536F684643F0010303
S31508004C90536700948DF80440FEF726FF204602B0BD
S31508004CA010BD00BF0040005030B58BB0EC461A4C22
S31508004CB01A4D0FCCACE80F000FCCACE80F0094E807
S31508004CC003008CE80300D5F84C311B0307D54FF6D3
S31508004CD0FF73134A14889C421BD0E3B203E0D5F84D
S31508004CE05041E4B223468DF81930FEF7F9FD034624
S31508004CF0234483F308030B488DF81830FCF7A6FC09
S31508004D006846FEF7B7FC3220FEF764FE00200BB0BB
S31508004D1030BD72231C46E6E7448200080080E00F97
S31508004D200001E00FC017530210B5094C86B00DF10B
S31508004D30040C0FCCACE80F00236801A8CCF80030AF
S31508004D40FEF7D4FD3220FEF73FFE002006B010BD68
S31508004D506C8200086FF004024FF0500C10B40C4837
S31508004D600C4C02F00F03043B12F0800F00EB02011B
S31508004D70234408D101324F2A81F800C3F1D100201B
S31508004D805DF8044B704783F818C00132E9E700BFA5
S31508004D9000E100E000ED00E010B50446FEF792FEE3
S31508004DA0024B1C60FEF792FE002010BD54660020E0
S31508004DB010B5FEF787FE034B1C68FEF787FE2046F4
S31508004DC010BD00BF5466002010B582B038B1044645
S31508004DD0636883B1206802B0BDE810401847CDE982
S31508004DE00012FEF76FFE054B1C68FEF76FFEDDE945
S31508004DF00012002CECD1232002B010BD546600200E
S31508004E0030B587B070B104462BB1A5683DB12068AE
S31508004E10A84707B030BDA56805AB002DF7D12320FC
S31508004E2007B030BD094CCDE902230191FEF74AFED1
S31508004E302468FEF74BFEDDE90112039B13B1002C33
S31508004E40E3D1ECE705AB002CDFD1E8E75466002098
S31508004E5000207047FEE700BF4FF4005300204B6068
S31508004E60704700BF01207047012070474FF0FF30A0
S31508004E70704700BF00207047002000B583B001AB23
S31508004E800190FFF7BDFF0198002808BF4FF0FF30DB
S31508004E9003B05DF804FB00BF10B500201446FFF709
S31508004EA093FF022800D008B9204610BDC321024846
S31508004EB0FCF750FC204610BD8082000880F82C10B4
S31508004EC0704700BF90F82C00704700BF70B50446C5
S31508004ED00568FFF76DFF844241D095F93620002A10
S31508004EE012DB012153099B0002F01F0203F1604304
S31508004EF003F5614301FA02F2C3F88021C3F8802062
S31508004F00BFF34F8FBFF36F8F287AFCF7A3FE00BB62
S31508004F10287AFCF781FDB0B9FCF74EFD10B1124BAB
S31508004F2098420AD100236360A36023616361AA6A79
S31508004F3028462360BDE8704010474FF4F1710B48CE
S31508004F40FCF708FCEEE74FF4EF710848FCF702FCA3
S31508004F50E2E74FF4ED710548FCF7FCFBD8E70020C3
S31508004F60FFF71AFFB9E700BF058000F0EC820008DA
S31508004F702DE9F04F002604460F46154690F82C30CA
S31508004F8083B0DFF8F890DFF8F8800193B54207D0D0
S31508004F9094F82D3043B994F83430E3B9B542FAD8C9
S31508004FA0002003B0BDE8F08FFEF794FD237E82460D
S31508004FB003F0FF0BDBB9226B63699A4204D040F217
S31508004FC0F9114046FCF7C6FB5046FEF789FD94F8F2
S31508004FD03430002BDAD0019B3978002B45D1204696
S31508004FE0E36998470028DBD101370136CEE7237AF3
S31508004FF0D4E9032003EB430309EB0313DB6E111813
S315080050008B4201D8934209D24FF43E714046009331
S31508005010FCF7A0FBD4E90320009B11188B4208BFBC
S31508005020134603F1FF3C624584BF00F1FF3302EBF0
S31508005030030C6346216B0CE013F801E9BEF1110F6E
S315080050400ED0BEF1130F09D09A4284BF00F1FF3388
S315080050509B189942F0D1C4F830C0B5E74FF0000B61
S3150800506084F834B0C4F830C0AEE70A29B7D10D21A8
S315080050702046E36998473978B1E700BF0000045035
S31508005080EC82000870B51446137A216903EB4303D2
S315080050901B0103F1A04303F58023D268DE6E531883
S315080050A09E42054686B01BD8964219D39E4208BF33
S315080050B016466269B2422CBF931B9B1BCBB90121D2
S315080050C094F82D20617642B184F8353013212046B4
S315080050D0E26990472046636A9847002006B070BD8B
S315080050E04FF43E710F48FCF735FBD4E9032313440C
S315080050F0DCE732462846002601250B490193CDE90F
S315080051000314D4E9001302960095FCF7E1FC002885
S31508005110E3D04FF434710348FCF71CFB002006B0BB
S3150800512070BD00BFEC820008855000082DE9F04FDD
S3150800513089B004460F4616469846FEF7CBFC8146CC
S3150800514026B1237E03F0FF0273B916464846C8F80F
S315080051500060FEF7C5FCD8F80030002B0CBF1B20FA
S31508005160002009B0BDE8F08F237A03EB43031B0147
S3150800517003F1A04303F58023DD6ED4E9032302EB94
S31508005180030B5D4500F28C809542C0F089805D4531
S3150800519008BF15466369AB4200F0F7809D4240F2AE
S315080051A08980EB1A9E4228BF1E46FEF793FC94F8A8
S315080051B02D30B3468246002B00F0DA805E46002387
S315080051C065692A7802F0FD01112900F08B8007F83D
S315080051D0012B6569216B8D4200F0948001330135FE
S315080051E05B456561EDD1D4E9032313448B4200F096
S315080051F0D9808A4201D8994207D34FF46D7179480C
S31508005200FCF7A8FAD4E9032313446169994200F02C
S31508005210C680914201D3994204D34FF47171714803
S31508005220FCF798FA0023207A6376FCF7D3FC00286B
S3150800523040F09880237A03EB43031B0103F1A04354
S3150800524003F58023DD6ED4E903733B449D4201D800
S31508005250BD4207D24FF43E716248FCF77BFAD4E9A7
S3150800526003733B449D4208BF3D466369AB4252D037
S315080052700123207A23760DF11E01FCF739FD00285B
S3150800528040F0A3809DF81E30002B40F08E80207AD7
S31508005290FCF7C0FC00285FD15046FEF721FC55E715
S315080052A04FF43E714F48FCF755FAD4E9032302EB55
S315080052B0030B6CE71D46D4E9033203EB020BABEB99
S315080052C0050BB34528BFB346FEF704FC94F82D300A
S315080052D08246002B4CD0BBF1000F7FF46FAF5E46C1
S315080052E0216B80E7216B013EA9427FF474AFA2F1DE
S315080052F01102B2FA82F28D424FEA521284F8342031
S315080053007FF46CAF0133691C9B450D4621636161CF
S315080053107FF457AF67E70023237694F82D3067614B
S3150800532003B127632046636A984700230293012343
S315080053300494009323693A4601932B4B0393207AEE
S31508005340D4E90013FCF7C4FB0028A0D040F22D31A5
S315080053502448FCF7FFF99AE740F251312148FCF757
S31508005360F9F999E740F211311E48FCF7F3F961E7BC
S315080053705A466169384602F0E2FAD4E903236169BC
S315080053805E4659446161134440E7637E002B96D11B
S3150800539040F27F311348FCF7DDF96369FEE61146F2
S315080053A0626138E71146226325E7207A0DF11F016D
S315080053B0FCF770FC78B99DF81F1000297FF467AFD9
S315080053C02246207AFFF75EFE61E74FF450710548E2
S315080053D0FCF7C0F956E740F246310248FCF7BAF93D
S315080053E0E9E700BFEC820008855000082DE9F04F78
S315080053F00C461546064687B03822002120461F4629
S3150800540002F084FA95E80300D5E9032B01234FF04F
S31508005410000C95F814A095F8169084E803001099E6
S3150800542084F818C021621199C4F810B06162129903
S3150800543084F82CA084F82D90E761A162E26062618D
S31508005440226384F8343084F835302B7ADFF8A48068
S3150800545084F83630224BDFF8A0E07360214BC6F89B
S315080054601080B360204B3460C6F814E0F360FCF794
S31508005470F9FA10B11D4B98422CD1002104F108000D
S31508005480FCF74EFA30BB0127194BCDE903342369E3
S31508005490CDE901306368E2682168207A0097FCF755
S315080054A017FB0446B0B995F90830002B0BDB03F05F
S315080054B01F025B099B0003F16043974003F56143B4
S315080054C0C3F880711F603046FFF766FC204607B0B8
S315080054D0BDE8F08F1024204607B0BDE8F08F00BF66
S315080054E0714F00082D510008CD4E0008038000F0CA
S315080054F085500008BD4E0008C54E0008826BD36C67
